{
   "_format": "hh-sol-artifact-1",
   "contractName": "BuyMeACoffee",
   "sourceName": "contracts/BuyMeACoffee.sol",
   "abi": [
      {
         "inputs": [
            {
               "internalType": "string",
               "name": "_name",
               "type": "string"
            },
            {
               "internalType": "string",
               "name": "_description",
               "type": "string"
            },
            {
               "internalType": "string",
               "name": "_profile",
               "type": "string"
            },
            {
               "internalType": "string",
               "name": "_thumbnail",
               "type": "string"
            },
            {
               "internalType": "string[][]",
               "name": "_items",
               "type": "string[][]"
            },
            {
               "internalType": "uint256[]",
               "name": "_itemsValues",
               "type": "uint256[]"
            },
            {
               "internalType": "address",
               "name": "_owner",
               "type": "address"
            }
         ],
         "stateMutability": "nonpayable",
         "type": "constructor"
      },
      {
         "inputs": [],
         "name": "BuyMeACoffee__NotEnoughEthSend",
         "type": "error"
      },
      {
         "inputs": [],
         "name": "BuyMeACoffee__NotOwner",
         "type": "error"
      },
      {
         "anonymous": false,
         "inputs": [
            {
               "indexed": true,
               "internalType": "uint256",
               "name": "items_id",
               "type": "uint256"
            }
         ],
         "name": "AddedItems",
         "type": "event"
      },
      {
         "anonymous": false,
         "inputs": [
            {
               "indexed": true,
               "internalType": "uint256",
               "name": "timestamp",
               "type": "uint256"
            },
            {
               "indexed": false,
               "internalType": "string",
               "name": "name",
               "type": "string"
            },
            {
               "indexed": false,
               "internalType": "string",
               "name": "message",
               "type": "string"
            },
            {
               "indexed": false,
               "internalType": "uint256",
               "name": "items_id",
               "type": "uint256"
            }
         ],
         "name": "MemoCreated",
         "type": "event"
      },
      {
         "anonymous": false,
         "inputs": [
            {
               "indexed": true,
               "internalType": "uint256",
               "name": "timestamp",
               "type": "uint256"
            },
            {
               "indexed": true,
               "internalType": "string",
               "name": "response",
               "type": "string"
            }
         ],
         "name": "MemoResponse",
         "type": "event"
      },
      {
         "inputs": [
            {
               "internalType": "string[]",
               "name": "names",
               "type": "string[]"
            },
            {
               "internalType": "uint256",
               "name": "cost",
               "type": "uint256"
            }
         ],
         "name": "addItems",
         "outputs": [],
         "stateMutability": "nonpayable",
         "type": "function"
      },
      {
         "inputs": [],
         "name": "getDescription",
         "outputs": [
            {
               "internalType": "string",
               "name": "",
               "type": "string"
            }
         ],
         "stateMutability": "view",
         "type": "function"
      },
      {
         "inputs": [],
         "name": "getItemsCount",
         "outputs": [
            {
               "internalType": "uint256",
               "name": "",
               "type": "uint256"
            }
         ],
         "stateMutability": "view",
         "type": "function"
      },
      {
         "inputs": [],
         "name": "getListOfItems",
         "outputs": [
            {
               "components": [
                  {
                     "internalType": "string[]",
                     "name": "names",
                     "type": "string[]"
                  },
                  {
                     "internalType": "uint256",
                     "name": "cost",
                     "type": "uint256"
                  },
                  {
                     "internalType": "uint256",
                     "name": "id",
                     "type": "uint256"
                  }
               ],
               "internalType": "struct BuyMeACoffee.Items[]",
               "name": "",
               "type": "tuple[]"
            }
         ],
         "stateMutability": "view",
         "type": "function"
      },
      {
         "inputs": [],
         "name": "getMemos",
         "outputs": [
            {
               "components": [
                  {
                     "internalType": "address",
                     "name": "from",
                     "type": "address"
                  },
                  {
                     "internalType": "uint256",
                     "name": "timestamp",
                     "type": "uint256"
                  },
                  {
                     "internalType": "string",
                     "name": "name",
                     "type": "string"
                  },
                  {
                     "internalType": "string",
                     "name": "message",
                     "type": "string"
                  },
                  {
                     "internalType": "string",
                     "name": "response",
                     "type": "string"
                  },
                  {
                     "internalType": "uint256",
                     "name": "items_id",
                     "type": "uint256"
                  }
               ],
               "internalType": "struct BuyMeACoffee.Memo[]",
               "name": "",
               "type": "tuple[]"
            }
         ],
         "stateMutability": "view",
         "type": "function"
      },
      {
         "inputs": [],
         "name": "getName",
         "outputs": [
            {
               "internalType": "string",
               "name": "",
               "type": "string"
            }
         ],
         "stateMutability": "view",
         "type": "function"
      },
      {
         "inputs": [],
         "name": "getOwner",
         "outputs": [
            {
               "internalType": "address",
               "name": "",
               "type": "address"
            }
         ],
         "stateMutability": "view",
         "type": "function"
      },
      {
         "inputs": [],
         "name": "getProfile",
         "outputs": [
            {
               "internalType": "string",
               "name": "",
               "type": "string"
            }
         ],
         "stateMutability": "view",
         "type": "function"
      },
      {
         "inputs": [],
         "name": "getThumbnail",
         "outputs": [
            {
               "internalType": "string",
               "name": "",
               "type": "string"
            }
         ],
         "stateMutability": "view",
         "type": "function"
      },
      {
         "inputs": [
            {
               "internalType": "uint256",
               "name": "_id",
               "type": "uint256"
            }
         ],
         "name": "removeItems",
         "outputs": [],
         "stateMutability": "nonpayable",
         "type": "function"
      },
      {
         "inputs": [
            {
               "internalType": "string",
               "name": "_description",
               "type": "string"
            }
         ],
         "name": "setDescription",
         "outputs": [],
         "stateMutability": "nonpayable",
         "type": "function"
      },
      {
         "inputs": [
            {
               "internalType": "string[][]",
               "name": "_items",
               "type": "string[][]"
            },
            {
               "internalType": "uint256[]",
               "name": "_itemsValues",
               "type": "uint256[]"
            }
         ],
         "name": "setInitialItems",
         "outputs": [],
         "stateMutability": "nonpayable",
         "type": "function"
      },
      {
         "inputs": [
            {
               "internalType": "string",
               "name": "_name",
               "type": "string"
            }
         ],
         "name": "setName",
         "outputs": [],
         "stateMutability": "nonpayable",
         "type": "function"
      },
      {
         "inputs": [
            {
               "internalType": "string",
               "name": "_profile",
               "type": "string"
            }
         ],
         "name": "setProfile",
         "outputs": [],
         "stateMutability": "nonpayable",
         "type": "function"
      },
      {
         "inputs": [
            {
               "internalType": "uint256",
               "name": "index",
               "type": "uint256"
            },
            {
               "internalType": "string",
               "name": "response",
               "type": "string"
            }
         ],
         "name": "setResponse",
         "outputs": [],
         "stateMutability": "nonpayable",
         "type": "function"
      },
      {
         "inputs": [
            {
               "internalType": "string",
               "name": "_thumbnail",
               "type": "string"
            }
         ],
         "name": "setThumbnail",
         "outputs": [],
         "stateMutability": "nonpayable",
         "type": "function"
      },
      {
         "inputs": [
            {
               "internalType": "string",
               "name": "_name",
               "type": "string"
            },
            {
               "internalType": "string",
               "name": "_message",
               "type": "string"
            },
            {
               "internalType": "uint256",
               "name": "_itemsId",
               "type": "uint256"
            }
         ],
         "name": "storeMemo",
         "outputs": [],
         "stateMutability": "payable",
         "type": "function"
      },
      {
         "inputs": [],
         "name": "withdraw",
         "outputs": [],
         "stateMutability": "nonpayable",
         "type": "function"
      }
   ],
   "bytecode": "0x608060405260006003553480156200001657600080fd5b50604051620035f3380380620035f383398181016040528101906200003c91906200084e565b86600490816200004d919062000bfc565b5085600790816200005f919062000bfc565b50846005908162000071919062000bfc565b50836006908162000083919062000bfc565b5080600260006101000a81548173ffffffffffffffffffffffffffffffffffffffff021916908373ffffffffffffffffffffffffffffffffffffffff160217905550620000d78383620000e460201b60201c565b5050505050505062000d8e565b6000815167ffffffffffffffff81111562000104576200010362000381565b5b6040519080825280602002602001820160405280156200014157816020015b6200012d62000244565b815260200190600190039081620001235790505b50905060005b81518110156200023e576000604051806060016040528086848151811062000174576200017362000ce3565b5b6020026020010151815260200185848151811062000197576200019662000ce3565b5b60200260200101518152602001600354815250905060018190806001815401808255809150506001900390600052602060002090600302016000909190919091506000820151816000019080519060200190620001f692919062000265565b506020820151816001015560408201518160020155505060036000815480929190620002229062000d41565b9190505550508080620002359062000d41565b91505062000147565b50505050565b60405180606001604052806060815260200160008152602001600081525090565b828054828255906000526020600020908101928215620002b2579160200282015b82811115620002b1578251829081620002a0919062000bfc565b509160200191906001019062000286565b5b509050620002c19190620002c5565b5090565b5b80821115620002e95760008181620002df9190620002ed565b50600101620002c6565b5090565b508054620002fb90620009f5565b6000825580601f106200030f575062000330565b601f0160209004906000526020600020908101906200032f919062000333565b5b50565b5b808211156200034e57600081600090555060010162000334565b5090565b6000604051905090565b600080fd5b600080fd5b600080fd5b600080fd5b6000601f19601f8301169050919050565b7f4e487b7100000000000000000000000000000000000000000000000000000000600052604160045260246000fd5b620003bb8262000370565b810181811067ffffffffffffffff82111715620003dd57620003dc62000381565b5b80604052505050565b6000620003f262000352565b9050620004008282620003b0565b919050565b600067ffffffffffffffff82111562000423576200042262000381565b5b6200042e8262000370565b9050602081019050919050565b60005b838110156200045b5780820151818401526020810190506200043e565b60008484015250505050565b60006200047e620004788462000405565b620003e6565b9050828152602081018484840111156200049d576200049c6200036b565b5b620004aa8482856200043b565b509392505050565b600082601f830112620004ca57620004c962000366565b5b8151620004dc84826020860162000467565b91505092915050565b600067ffffffffffffffff82111562000503576200050262000381565b5b602082029050602081019050919050565b600080fd5b600067ffffffffffffffff82111562000537576200053662000381565b5b602082029050602081019050919050565b60006200055f620005598462000519565b620003e6565b9050808382526020820190506020840283018581111562000585576200058462000514565b5b835b81811015620005d357805167ffffffffffffffff811115620005ae57620005ad62000366565b5b808601620005bd8982620004b2565b8552602085019450505060208101905062000587565b5050509392505050565b600082601f830112620005f557620005f462000366565b5b81516200060784826020860162000548565b91505092915050565b6000620006276200062184620004e5565b620003e6565b905080838252602082019050602084028301858111156200064d576200064c62000514565b5b835b818110156200069b57805167ffffffffffffffff81111562000676576200067562000366565b5b808601620006858982620005dd565b855260208501945050506020810190506200064f565b5050509392505050565b600082601f830112620006bd57620006bc62000366565b5b8151620006cf84826020860162000610565b91505092915050565b600067ffffffffffffffff821115620006f657620006f562000381565b5b602082029050602081019050919050565b6000819050919050565b6200071c8162000707565b81146200072857600080fd5b50565b6000815190506200073c8162000711565b92915050565b6000620007596200075384620006d8565b620003e6565b905080838252602082019050602084028301858111156200077f576200077e62000514565b5b835b81811015620007ac57806200079788826200072b565b84526020840193505060208101905062000781565b5050509392505050565b600082601f830112620007ce57620007cd62000366565b5b8151620007e084826020860162000742565b91505092915050565b600073ffffffffffffffffffffffffffffffffffffffff82169050919050565b60006200081682620007e9565b9050919050565b620008288162000809565b81146200083457600080fd5b50565b60008151905062000848816200081d565b92915050565b600080600080600080600060e0888a03121562000870576200086f6200035c565b5b600088015167ffffffffffffffff81111562000891576200089062000361565b5b6200089f8a828b01620004b2565b975050602088015167ffffffffffffffff811115620008c357620008c262000361565b5b620008d18a828b01620004b2565b965050604088015167ffffffffffffffff811115620008f557620008f462000361565b5b620009038a828b01620004b2565b955050606088015167ffffffffffffffff81111562000927576200092662000361565b5b620009358a828b01620004b2565b945050608088015167ffffffffffffffff81111562000959576200095862000361565b5b620009678a828b01620006a5565b93505060a088015167ffffffffffffffff8111156200098b576200098a62000361565b5b620009998a828b01620007b6565b92505060c0620009ac8a828b0162000837565b91505092959891949750929550565b600081519050919050565b7f4e487b7100000000000000000000000000000000000000000000000000000000600052602260045260246000fd5b6000600282049050600182168062000a0e57607f821691505b60208210810362000a245762000a23620009c6565b5b50919050565b60008190508160005260206000209050919050565b60006020601f8301049050919050565b600082821b905092915050565b60006008830262000a8e7fffffffffffffffffffffffffffffffffffffffffffffffffffffffffffffffff8262000a4f565b62000a9a868362000a4f565b95508019841693508086168417925050509392505050565b6000819050919050565b600062000add62000ad762000ad18462000707565b62000ab2565b62000707565b9050919050565b6000819050919050565b62000af98362000abc565b62000b1162000b088262000ae4565b84845462000a5c565b825550505050565b600090565b62000b2862000b19565b62000b3581848462000aee565b505050565b5b8181101562000b5d5762000b5160008262000b1e565b60018101905062000b3b565b5050565b601f82111562000bac5762000b768162000a2a565b62000b818462000a3f565b8101602085101562000b91578190505b62000ba962000ba08562000a3f565b83018262000b3a565b50505b505050565b600082821c905092915050565b600062000bd16000198460080262000bb1565b1980831691505092915050565b600062000bec838362000bbe565b9150826002028217905092915050565b62000c0782620009bb565b67ffffffffffffffff81111562000c235762000c2262000381565b5b62000c2f8254620009f5565b62000c3c82828562000b61565b600060209050601f83116001811462000c74576000841562000c5f578287015190505b62000c6b858262000bde565b86555062000cdb565b601f19841662000c848662000a2a565b60005b8281101562000cae5784890151825560018201915060208501945060208101905062000c87565b8683101562000cce578489015162000cca601f89168262000bbe565b8355505b6001600288020188555050505b505050505050565b7f4e487b7100000000000000000000000000000000000000000000000000000000600052603260045260246000fd5b7f4e487b7100000000000000000000000000000000000000000000000000000000600052601160045260246000fd5b600062000d4e8262000707565b91507fffffffffffffffffffffffffffffffffffffffffffffffffffffffffffffffff820362000d835762000d8262000d12565b5b600182019050919050565b6128558062000d9e6000396000f3fe6080604052600436106101095760003560e01c806390c3f38f11610095578063da14bde311610064578063da14bde31461031f578063dbfc2c1214610348578063e1d7408314610371578063e9c0d98c1461039c578063eefa8735146103b857610109565b806390c3f38f14610279578063989cf688146102a2578063c47f0027146102cb578063d6afc9b1146102f457610109565b8063512dd020116100dc578063512dd020146101a4578063594d9e63146101cf5780637d44ba78146101fa578063865c517214610223578063893d20e81461024e57610109565b806317d7de7c1461010e5780631a09254114610139578063235b37b1146101645780633ccfd60b1461018d575b600080fd5b34801561011a57600080fd5b506101236103e1565b60405161013091906117e7565b60405180910390f35b34801561014557600080fd5b5061014e610473565b60405161015b91906117e7565b60405180910390f35b34801561017057600080fd5b5061018b60048036038101906101869190611952565b610505565b005b34801561019957600080fd5b506101a261059f565b005b3480156101b057600080fd5b506101b9610691565b6040516101c691906119b4565b60405180910390f35b3480156101db57600080fd5b506101e461069b565b6040516101f19190611bfc565b60405180910390f35b34801561020657600080fd5b50610221600480360381019061021c9190611d30565b6107e7565b005b34801561022f57600080fd5b5061023861093a565b6040516102459190611f26565b60405180910390f35b34801561025a57600080fd5b50610263610bb9565b6040516102709190611f57565b60405180910390f35b34801561028557600080fd5b506102a0600480360381019061029b9190611952565b610be3565b005b3480156102ae57600080fd5b506102c960048036038101906102c49190611f72565b610c7d565b005b3480156102d757600080fd5b506102f260048036038101906102ed9190611952565b610d83565b005b34801561030057600080fd5b50610309610e1d565b60405161031691906117e7565b60405180910390f35b34801561032b57600080fd5b5061034660048036038101906103419190611fce565b610eaf565b005b34801561035457600080fd5b5061036f600480360381019061036a9190611952565b611056565b005b34801561037d57600080fd5b506103866110f0565b60405161039391906117e7565b60405180910390f35b6103b660048036038101906103b19190611ffb565b611182565b005b3480156103c457600080fd5b506103df60048036038101906103da919061222a565b611493565b005b6060600480546103f0906122d1565b80601f016020809104026020016040519081016040528092919081815260200182805461041c906122d1565b80156104695780601f1061043e57610100808354040283529160200191610469565b820191906000526020600020905b81548152906001019060200180831161044c57829003601f168201915b5050505050905090565b606060078054610482906122d1565b80601f01602080910402602001604051908101604052809291908181526020018280546104ae906122d1565b80156104fb5780601f106104d0576101008083540402835291602001916104fb565b820191906000526020600020905b8154815290600101906020018083116104de57829003601f168201915b5050505050905090565b600260009054906101000a900473ffffffffffffffffffffffffffffffffffffffff1673ffffffffffffffffffffffffffffffffffffffff163373ffffffffffffffffffffffffffffffffffffffff161461058c576040517f1022f53800000000000000000000000000000000000000000000000000000000815260040160405180910390fd5b806005908161059b91906124ae565b5050565b600260009054906101000a900473ffffffffffffffffffffffffffffffffffffffff1673ffffffffffffffffffffffffffffffffffffffff163373ffffffffffffffffffffffffffffffffffffffff1614610626576040517f1022f53800000000000000000000000000000000000000000000000000000000815260040160405180910390fd5b600260009054906101000a900473ffffffffffffffffffffffffffffffffffffffff1673ffffffffffffffffffffffffffffffffffffffff166108fc479081150290604051600060405180830381858888f1935050505015801561068e573d6000803e3d6000fd5b50565b6000600354905090565b60606001805480602002602001604051908101604052809291908181526020016000905b828210156107de578382906000526020600020906003020160405180606001604052908160008201805480602002602001604051908101604052809291908181526020016000905b828210156107b3578382906000526020600020018054610726906122d1565b80601f0160208091040260200160405190810160405280929190818152602001828054610752906122d1565b801561079f5780601f106107745761010080835404028352916020019161079f565b820191906000526020600020905b81548152906001019060200180831161078257829003601f168201915b505050505081526020019060010190610707565b50505050815260200160018201548152602001600282015481525050815260200190600101906106bf565b50505050905090565b600260009054906101000a900473ffffffffffffffffffffffffffffffffffffffff1673ffffffffffffffffffffffffffffffffffffffff163373ffffffffffffffffffffffffffffffffffffffff161461086e576040517f1022f53800000000000000000000000000000000000000000000000000000000815260040160405180910390fd5b600060405180606001604052808481526020018381526020016003548152509050600181908060018154018082558091505060019003906000526020600020906003020160009091909190915060008201518160000190805190602001906108d79291906115de565b50602082015181600101556040820151816002015550506003547fa5dbb7adb15a05f8df3bdfc06617a63f39825dd0c4d2f0615c5134d1d3301b3660405160405180910390a260036000815480929190610930906125af565b9190505550505050565b60606000805480602002602001604051908101604052809291908181526020016000905b82821015610bb057838290600052602060002090600602016040518060c00160405290816000820160009054906101000a900473ffffffffffffffffffffffffffffffffffffffff1673ffffffffffffffffffffffffffffffffffffffff1673ffffffffffffffffffffffffffffffffffffffff168152602001600182015481526020016002820180546109f1906122d1565b80601f0160208091040260200160405190810160405280929190818152602001828054610a1d906122d1565b8015610a6a5780601f10610a3f57610100808354040283529160200191610a6a565b820191906000526020600020905b815481529060010190602001808311610a4d57829003601f168201915b50505050508152602001600382018054610a83906122d1565b80601f0160208091040260200160405190810160405280929190818152602001828054610aaf906122d1565b8015610afc5780601f10610ad157610100808354040283529160200191610afc565b820191906000526020600020905b815481529060010190602001808311610adf57829003601f168201915b50505050508152602001600482018054610b15906122d1565b80601f0160208091040260200160405190810160405280929190818152602001828054610b41906122d1565b8015610b8e5780601f10610b6357610100808354040283529160200191610b8e565b820191906000526020600020905b815481529060010190602001808311610b7157829003601f168201915b505050505081526020016005820154815250508152602001906001019061095e565b50505050905090565b6000600260009054906101000a900473ffffffffffffffffffffffffffffffffffffffff16905090565b600260009054906101000a900473ffffffffffffffffffffffffffffffffffffffff1673ffffffffffffffffffffffffffffffffffffffff163373ffffffffffffffffffffffffffffffffffffffff1614610c6a576040517f1022f53800000000000000000000000000000000000000000000000000000000815260040160405180910390fd5b8060079081610c7991906124ae565b5050565b600260009054906101000a900473ffffffffffffffffffffffffffffffffffffffff1673ffffffffffffffffffffffffffffffffffffffff163373ffffffffffffffffffffffffffffffffffffffff1614610d04576040517f1022f53800000000000000000000000000000000000000000000000000000000815260040160405180910390fd5b6000808381548110610d1957610d186125f7565b5b9060005260206000209060060201905081816004019081610d3a91906124ae565b5081604051610d499190612662565b6040518091039020427f8eece9ee17f7ce4a77eb6329ef9050e2a6286692c80a7e44f776c6d74146ace560405160405180910390a3505050565b600260009054906101000a900473ffffffffffffffffffffffffffffffffffffffff1673ffffffffffffffffffffffffffffffffffffffff163373ffffffffffffffffffffffffffffffffffffffff1614610e0a576040517f1022f53800000000000000000000000000000000000000000000000000000000815260040160405180910390fd5b8060049081610e1991906124ae565b5050565b606060058054610e2c906122d1565b80601f0160208091040260200160405190810160405280929190818152602001828054610e58906122d1565b8015610ea55780601f10610e7a57610100808354040283529160200191610ea5565b820191906000526020600020905b815481529060010190602001808311610e8857829003601f168201915b5050505050905090565b600260009054906101000a900473ffffffffffffffffffffffffffffffffffffffff1673ffffffffffffffffffffffffffffffffffffffff163373ffffffffffffffffffffffffffffffffffffffff1614610f36576040517f1022f53800000000000000000000000000000000000000000000000000000000815260040160405180910390fd5b60005b600180549050811015611052578160018281548110610f5b57610f5a6125f7565b5b9060005260206000209060030201600201540361103f576001808080549050610f849190612679565b81548110610f9557610f946125f7565b5b906000526020600020906003020160018281548110610fb757610fb66125f7565b5b90600052602060002090600302016000820181600001908054610fdb929190611637565b5060018201548160010155600282015481600201559050506001805480611005576110046126ad565b5b60019003818190600052602060002090600302016000808201600061102a9190611694565b60018201600090556002820160009055505090555b808061104a906125af565b915050610f39565b5050565b600260009054906101000a900473ffffffffffffffffffffffffffffffffffffffff1673ffffffffffffffffffffffffffffffffffffffff163373ffffffffffffffffffffffffffffffffffffffff16146110dd576040517f1022f53800000000000000000000000000000000000000000000000000000000815260040160405180910390fd5b80600690816110ec91906124ae565b5050565b6060600680546110ff906122d1565b80601f016020809104026020016040519081016040528092919081815260200182805461112b906122d1565b80156111785780601f1061114d57610100808354040283529160200191611178565b820191906000526020600020905b81548152906001019060200180831161115b57829003601f168201915b5050505050905090565b61118a6116b5565b60005b6001805490508110156112f65782600182815481106111af576111ae6125f7565b5b906000526020600020906003020160020154036112e357600181815481106111da576111d96125f7565b5b906000526020600020906003020160405180606001604052908160008201805480602002602001604051908101604052809291908181526020016000905b828210156112c4578382906000526020600020018054611237906122d1565b80601f0160208091040260200160405190810160405280929190818152602001828054611263906122d1565b80156112b05780601f10611285576101008083540402835291602001916112b0565b820191906000526020600020905b81548152906001019060200180831161129357829003601f168201915b505050505081526020019060010190611218565b5050505081526020016001820154815260200160028201548152505091505b80806112ee906125af565b91505061118d565b508060200151341015611335576040517ff1b7411900000000000000000000000000000000000000000000000000000000815260040160405180910390fd5b60006040518060c001604052803373ffffffffffffffffffffffffffffffffffffffff16815260200142815260200186815260200185815260200160405180602001604052806000815250815260200184815250908060018154018082558091505060019003906000526020600020906006020160009091909190915060008201518160000160006101000a81548173ffffffffffffffffffffffffffffffffffffffff021916908373ffffffffffffffffffffffffffffffffffffffff16021790555060208201518160010155604082015181600201908161141891906124ae565b50606082015181600301908161142e91906124ae565b50608082015181600401908161144491906124ae565b5060a082015181600501555050427f1cfb7901bbb0acf7f618d0389fdda4a852e9de1abe2b641bf9e6f40ace3a44ad858585604051611485939291906126dc565b60405180910390a250505050565b6000815167ffffffffffffffff8111156114b0576114af611827565b5b6040519080825280602002602001820160405280156114e957816020015b6114d66116b5565b8152602001906001900390816114ce5790505b50905060005b81518110156115d85760006040518060600160405280868481518110611518576115176125f7565b5b60200260200101518152602001858481518110611538576115376125f7565b5b602002602001015181526020016003548152509050600181908060018154018082558091505060019003906000526020600020906003020160009091909190915060008201518160000190805190602001906115959291906115de565b5060208201518160010155604082015181600201555050600360008154809291906115bf906125af565b91905055505080806115d0906125af565b9150506114ef565b50505050565b828054828255906000526020600020908101928215611626579160200282015b8281111561162557825182908161161591906124ae565b50916020019190600101906115fe565b5b50905061163391906116d6565b5090565b8280548282559060005260206000209081019282156116835760005260206000209182015b8281111561168257828290816116729190612737565b509160010191906001019061165c565b5b50905061169091906116d6565b5090565b50805460008255906000526020600020908101906116b291906116d6565b50565b60405180606001604052806060815260200160008152602001600081525090565b5b808211156116f657600081816116ed91906116fa565b506001016116d7565b5090565b508054611706906122d1565b6000825580601f106117185750611737565b601f016020900490600052602060002090810190611736919061173a565b5b50565b5b8082111561175357600081600090555060010161173b565b5090565b600081519050919050565b600082825260208201905092915050565b60005b83811015611791578082015181840152602081019050611776565b60008484015250505050565b6000601f19601f8301169050919050565b60006117b982611757565b6117c38185611762565b93506117d3818560208601611773565b6117dc8161179d565b840191505092915050565b6000602082019050818103600083015261180181846117ae565b905092915050565b6000604051905090565b600080fd5b600080fd5b600080fd5b600080fd5b7f4e487b7100000000000000000000000000000000000000000000000000000000600052604160045260246000fd5b61185f8261179d565b810181811067ffffffffffffffff8211171561187e5761187d611827565b5b80604052505050565b6000611891611809565b905061189d8282611856565b919050565b600067ffffffffffffffff8211156118bd576118bc611827565b5b6118c68261179d565b9050602081019050919050565b82818337600083830152505050565b60006118f56118f0846118a2565b611887565b90508281526020810184848401111561191157611910611822565b5b61191c8482856118d3565b509392505050565b600082601f8301126119395761193861181d565b5b81356119498482602086016118e2565b91505092915050565b60006020828403121561196857611967611813565b5b600082013567ffffffffffffffff81111561198657611985611818565b5b61199284828501611924565b91505092915050565b6000819050919050565b6119ae8161199b565b82525050565b60006020820190506119c960008301846119a5565b92915050565b600081519050919050565b600082825260208201905092915050565b6000819050602082019050919050565b600081519050919050565b600082825260208201905092915050565b6000819050602082019050919050565b600082825260208201905092915050565b6000611a4382611757565b611a4d8185611a27565b9350611a5d818560208601611773565b611a668161179d565b840191505092915050565b6000611a7d8383611a38565b905092915050565b6000602082019050919050565b6000611a9d826119fb565b611aa78185611a06565b935083602082028501611ab985611a17565b8060005b85811015611af55784840389528151611ad68582611a71565b9450611ae183611a85565b925060208a01995050600181019050611abd565b50829750879550505050505092915050565b611b108161199b565b82525050565b60006060830160008301518482036000860152611b338282611a92565b9150506020830151611b486020860182611b07565b506040830151611b5b6040860182611b07565b508091505092915050565b6000611b728383611b16565b905092915050565b6000602082019050919050565b6000611b92826119cf565b611b9c81856119da565b935083602082028501611bae856119eb565b8060005b85811015611bea5784840389528151611bcb8582611b66565b9450611bd683611b7a565b925060208a01995050600181019050611bb2565b50829750879550505050505092915050565b60006020820190508181036000830152611c168184611b87565b905092915050565b600067ffffffffffffffff821115611c3957611c38611827565b5b602082029050602081019050919050565b600080fd5b6000611c62611c5d84611c1e565b611887565b90508083825260208201905060208402830185811115611c8557611c84611c4a565b5b835b81811015611ccc57803567ffffffffffffffff811115611caa57611ca961181d565b5b808601611cb78982611924565b85526020850194505050602081019050611c87565b5050509392505050565b600082601f830112611ceb57611cea61181d565b5b8135611cfb848260208601611c4f565b91505092915050565b611d0d8161199b565b8114611d1857600080fd5b50565b600081359050611d2a81611d04565b92915050565b60008060408385031215611d4757611d46611813565b5b600083013567ffffffffffffffff811115611d6557611d64611818565b5b611d7185828601611cd6565b9250506020611d8285828601611d1b565b9150509250929050565b600081519050919050565b600082825260208201905092915050565b6000819050602082019050919050565b600073ffffffffffffffffffffffffffffffffffffffff82169050919050565b6000611de382611db8565b9050919050565b611df381611dd8565b82525050565b600060c083016000830151611e116000860182611dea565b506020830151611e246020860182611b07565b5060408301518482036040860152611e3c8282611a38565b91505060608301518482036060860152611e568282611a38565b91505060808301518482036080860152611e708282611a38565b91505060a0830151611e8560a0860182611b07565b508091505092915050565b6000611e9c8383611df9565b905092915050565b6000602082019050919050565b6000611ebc82611d8c565b611ec68185611d97565b935083602082028501611ed885611da8565b8060005b85811015611f145784840389528151611ef58582611e90565b9450611f0083611ea4565b925060208a01995050600181019050611edc565b50829750879550505050505092915050565b60006020820190508181036000830152611f408184611eb1565b905092915050565b611f5181611dd8565b82525050565b6000602082019050611f6c6000830184611f48565b92915050565b60008060408385031215611f8957611f88611813565b5b6000611f9785828601611d1b565b925050602083013567ffffffffffffffff811115611fb857611fb7611818565b5b611fc485828601611924565b9150509250929050565b600060208284031215611fe457611fe3611813565b5b6000611ff284828501611d1b565b91505092915050565b60008060006060848603121561201457612013611813565b5b600084013567ffffffffffffffff81111561203257612031611818565b5b61203e86828701611924565b935050602084013567ffffffffffffffff81111561205f5761205e611818565b5b61206b86828701611924565b925050604061207c86828701611d1b565b9150509250925092565b600067ffffffffffffffff8211156120a1576120a0611827565b5b602082029050602081019050919050565b60006120c56120c084612086565b611887565b905080838252602082019050602084028301858111156120e8576120e7611c4a565b5b835b8181101561212f57803567ffffffffffffffff81111561210d5761210c61181d565b5b80860161211a8982611cd6565b855260208501945050506020810190506120ea565b5050509392505050565b600082601f83011261214e5761214d61181d565b5b813561215e8482602086016120b2565b91505092915050565b600067ffffffffffffffff82111561218257612181611827565b5b602082029050602081019050919050565b60006121a66121a184612167565b611887565b905080838252602082019050602084028301858111156121c9576121c8611c4a565b5b835b818110156121f257806121de8882611d1b565b8452602084019350506020810190506121cb565b5050509392505050565b600082601f8301126122115761221061181d565b5b8135612221848260208601612193565b91505092915050565b6000806040838503121561224157612240611813565b5b600083013567ffffffffffffffff81111561225f5761225e611818565b5b61226b85828601612139565b925050602083013567ffffffffffffffff81111561228c5761228b611818565b5b612298858286016121fc565b9150509250929050565b7f4e487b7100000000000000000000000000000000000000000000000000000000600052602260045260246000fd5b600060028204905060018216806122e957607f821691505b6020821081036122fc576122fb6122a2565b5b50919050565b60008190508160005260206000209050919050565b60006020601f8301049050919050565b600082821b905092915050565b6000600883026123647fffffffffffffffffffffffffffffffffffffffffffffffffffffffffffffffff82612327565b61236e8683612327565b95508019841693508086168417925050509392505050565b6000819050919050565b60006123ab6123a66123a18461199b565b612386565b61199b565b9050919050565b6000819050919050565b6123c583612390565b6123d96123d1826123b2565b848454612334565b825550505050565b600090565b6123ee6123e1565b6123f98184846123bc565b505050565b5b8181101561241d576124126000826123e6565b6001810190506123ff565b5050565b601f8211156124625761243381612302565b61243c84612317565b8101602085101561244b578190505b61245f61245785612317565b8301826123fe565b50505b505050565b600082821c905092915050565b600061248560001984600802612467565b1980831691505092915050565b600061249e8383612474565b9150826002028217905092915050565b6124b782611757565b67ffffffffffffffff8111156124d0576124cf611827565b5b6124da82546122d1565b6124e5828285612421565b600060209050601f8311600181146125185760008415612506578287015190505b6125108582612492565b865550612578565b601f19841661252686612302565b60005b8281101561254e57848901518255600182019150602085019450602081019050612529565b8683101561256b5784890151612567601f891682612474565b8355505b6001600288020188555050505b505050505050565b7f4e487b7100000000000000000000000000000000000000000000000000000000600052601160045260246000fd5b60006125ba8261199b565b91507fffffffffffffffffffffffffffffffffffffffffffffffffffffffffffffffff82036125ec576125eb612580565b5b600182019050919050565b7f4e487b7100000000000000000000000000000000000000000000000000000000600052603260045260246000fd5b600081905092915050565b600061263c82611757565b6126468185612626565b9350612656818560208601611773565b80840191505092915050565b600061266e8284612631565b915081905092915050565b60006126848261199b565b915061268f8361199b565b92508282039050818111156126a7576126a6612580565b5b92915050565b7f4e487b7100000000000000000000000000000000000000000000000000000000600052603160045260246000fd5b600060608201905081810360008301526126f681866117ae565b9050818103602083015261270a81856117ae565b905061271960408301846119a5565b949350505050565b600081549050612730816122d1565b9050919050565b81810361274557505061281d565b61274e82612721565b67ffffffffffffffff81111561276757612766611827565b5b61277182546122d1565b61277c828285612421565b6000601f8311600181146127ab5760008415612799578287015490505b6127a38582612492565b865550612816565b601f1984166127b987612302565b96506127c486612302565b60005b828110156127ec578489015482556001820191506001850194506020810190506127c7565b868310156128095784890154612805601f891682612474565b8355505b6001600288020188555050505b5050505050505b56fea2646970667358221220e5940e79e3f75f602ba8940ee69c300d33e7abb407d5273734755b7a38dad16a64736f6c63430008110033",
   "linkReferences": {},
   "deployedLinkReferences": {}
}