{
   "_format": "hh-sol-artifact-1",
   "contractName": "BuyMeACoffee",
   "sourceName": "contracts/BuyMeACoffee.sol",
   "abi": [
      {
         "inputs": [
            {
               "internalType": "string",
               "name": "_name",
               "type": "string"
            },
            {
               "internalType": "string",
               "name": "_description",
               "type": "string"
            },
            {
               "internalType": "string",
               "name": "_profile",
               "type": "string"
            },
            {
               "internalType": "string",
               "name": "_thumbnail",
               "type": "string"
            },
            {
               "internalType": "string[][]",
               "name": "_items",
               "type": "string[][]"
            },
            {
               "internalType": "uint256[]",
               "name": "_itemsValues",
               "type": "uint256[]"
            },
            {
               "internalType": "address",
               "name": "_owner",
               "type": "address"
            },
            {
               "internalType": "address",
               "name": "_superUser",
               "type": "address"
            },
            {
               "internalType": "contract AggregatorV3Interface",
               "name": "_priceFeed",
               "type": "address"
            }
         ],
         "stateMutability": "nonpayable",
         "type": "constructor"
      },
      {
         "inputs": [],
         "name": "BuyMeACoffee__NotEnoughEthSend",
         "type": "error"
      },
      {
         "inputs": [],
         "name": "BuyMeACoffee__NotOwner",
         "type": "error"
      },
      {
         "inputs": [],
         "name": "BuyMeACoffee__NotSuperUser",
         "type": "error"
      },
      {
         "inputs": [
            {
               "internalType": "string[]",
               "name": "names",
               "type": "string[]"
            },
            {
               "internalType": "uint256",
               "name": "cost",
               "type": "uint256"
            }
         ],
         "name": "addItems",
         "outputs": [],
         "stateMutability": "nonpayable",
         "type": "function"
      },
      {
         "inputs": [],
         "name": "getDecimals",
         "outputs": [
            {
               "internalType": "uint8",
               "name": "",
               "type": "uint8"
            }
         ],
         "stateMutability": "view",
         "type": "function"
      },
      {
         "inputs": [],
         "name": "getDescription",
         "outputs": [
            {
               "internalType": "string",
               "name": "",
               "type": "string"
            }
         ],
         "stateMutability": "view",
         "type": "function"
      },
      {
         "inputs": [],
         "name": "getItemsCount",
         "outputs": [
            {
               "internalType": "uint256",
               "name": "",
               "type": "uint256"
            }
         ],
         "stateMutability": "view",
         "type": "function"
      },
      {
         "inputs": [],
         "name": "getLatestPrice",
         "outputs": [
            {
               "internalType": "int256",
               "name": "",
               "type": "int256"
            }
         ],
         "stateMutability": "view",
         "type": "function"
      },
      {
         "inputs": [],
         "name": "getListOfItems",
         "outputs": [
            {
               "components": [
                  {
                     "internalType": "string[]",
                     "name": "names",
                     "type": "string[]"
                  },
                  {
                     "internalType": "uint256",
                     "name": "cost",
                     "type": "uint256"
                  },
                  {
                     "internalType": "uint256",
                     "name": "id",
                     "type": "uint256"
                  }
               ],
               "internalType": "struct BuyMeACoffee.Items[]",
               "name": "",
               "type": "tuple[]"
            }
         ],
         "stateMutability": "view",
         "type": "function"
      },
      {
         "inputs": [],
         "name": "getMemos",
         "outputs": [
            {
               "components": [
                  {
                     "internalType": "address",
                     "name": "from",
                     "type": "address"
                  },
                  {
                     "internalType": "uint256",
                     "name": "timestamp",
                     "type": "uint256"
                  },
                  {
                     "internalType": "string",
                     "name": "name",
                     "type": "string"
                  },
                  {
                     "internalType": "string",
                     "name": "message",
                     "type": "string"
                  },
                  {
                     "internalType": "string",
                     "name": "response",
                     "type": "string"
                  },
                  {
                     "internalType": "uint256",
                     "name": "items_id",
                     "type": "uint256"
                  }
               ],
               "internalType": "struct BuyMeACoffee.Memo[]",
               "name": "",
               "type": "tuple[]"
            }
         ],
         "stateMutability": "view",
         "type": "function"
      },
      {
         "inputs": [],
         "name": "getName",
         "outputs": [
            {
               "internalType": "string",
               "name": "",
               "type": "string"
            }
         ],
         "stateMutability": "view",
         "type": "function"
      },
      {
         "inputs": [],
         "name": "getOwner",
         "outputs": [
            {
               "internalType": "address",
               "name": "",
               "type": "address"
            }
         ],
         "stateMutability": "view",
         "type": "function"
      },
      {
         "inputs": [],
         "name": "getPriceFeed",
         "outputs": [
            {
               "internalType": "contract AggregatorV3Interface",
               "name": "",
               "type": "address"
            }
         ],
         "stateMutability": "view",
         "type": "function"
      },
      {
         "inputs": [],
         "name": "getProfile",
         "outputs": [
            {
               "internalType": "string",
               "name": "",
               "type": "string"
            }
         ],
         "stateMutability": "view",
         "type": "function"
      },
      {
         "inputs": [],
         "name": "getSuperUser",
         "outputs": [
            {
               "internalType": "address",
               "name": "",
               "type": "address"
            }
         ],
         "stateMutability": "view",
         "type": "function"
      },
      {
         "inputs": [],
         "name": "getThumbnail",
         "outputs": [
            {
               "internalType": "string",
               "name": "",
               "type": "string"
            }
         ],
         "stateMutability": "view",
         "type": "function"
      },
      {
         "inputs": [
            {
               "internalType": "uint256",
               "name": "_id",
               "type": "uint256"
            }
         ],
         "name": "removeItems",
         "outputs": [],
         "stateMutability": "nonpayable",
         "type": "function"
      },
      {
         "inputs": [
            {
               "internalType": "string",
               "name": "_description",
               "type": "string"
            }
         ],
         "name": "setDescription",
         "outputs": [],
         "stateMutability": "nonpayable",
         "type": "function"
      },
      {
         "inputs": [
            {
               "internalType": "string[][]",
               "name": "_items",
               "type": "string[][]"
            },
            {
               "internalType": "uint256[]",
               "name": "_itemsValues",
               "type": "uint256[]"
            }
         ],
         "name": "setInitialItems",
         "outputs": [],
         "stateMutability": "nonpayable",
         "type": "function"
      },
      {
         "inputs": [
            {
               "internalType": "string",
               "name": "_name",
               "type": "string"
            }
         ],
         "name": "setName",
         "outputs": [],
         "stateMutability": "nonpayable",
         "type": "function"
      },
      {
         "inputs": [
            {
               "internalType": "string",
               "name": "_profile",
               "type": "string"
            }
         ],
         "name": "setProfile",
         "outputs": [],
         "stateMutability": "nonpayable",
         "type": "function"
      },
      {
         "inputs": [
            {
               "internalType": "string",
               "name": "_thumbnail",
               "type": "string"
            }
         ],
         "name": "setThumbnail",
         "outputs": [],
         "stateMutability": "nonpayable",
         "type": "function"
      },
      {
         "inputs": [
            {
               "internalType": "string",
               "name": "_name",
               "type": "string"
            },
            {
               "internalType": "string",
               "name": "_message",
               "type": "string"
            },
            {
               "internalType": "uint256",
               "name": "_itemsId",
               "type": "uint256"
            }
         ],
         "name": "storeMemo",
         "outputs": [],
         "stateMutability": "payable",
         "type": "function"
      },
      {
         "inputs": [
            {
               "internalType": "contract AggregatorV3Interface",
               "name": "_priceFeed",
               "type": "address"
            },
            {
               "internalType": "address",
               "name": "sender",
               "type": "address"
            }
         ],
         "name": "updatePriceFeed",
         "outputs": [],
         "stateMutability": "nonpayable",
         "type": "function"
      },
      {
         "inputs": [],
         "name": "withdraw",
         "outputs": [],
         "stateMutability": "nonpayable",
         "type": "function"
      }
   ],
   "bytecode": "0x608060405260006005553480156200001657600080fd5b5060405162003a9738038062003a9783398181016040528101906200003c919062000917565b88600690816200004d919062000cf1565b5087600990816200005f919062000cf1565b50866007908162000071919062000cf1565b50856008908162000083919062000cf1565b5080600260006101000a81548173ffffffffffffffffffffffffffffffffffffffff021916908373ffffffffffffffffffffffffffffffffffffffff16021790555082600360006101000a81548173ffffffffffffffffffffffffffffffffffffffff021916908373ffffffffffffffffffffffffffffffffffffffff16021790555081600460006101000a81548173ffffffffffffffffffffffffffffffffffffffff021916908373ffffffffffffffffffffffffffffffffffffffff1602179055506200015985856200016860201b60201c565b50505050505050505062000e83565b6000815167ffffffffffffffff81111562000188576200018762000405565b5b604051908082528060200260200182016040528015620001c557816020015b620001b1620002c8565b815260200190600190039081620001a75790505b50905060005b8151811015620002c25760006040518060600160405280868481518110620001f857620001f762000dd8565b5b602002602001015181526020018584815181106200021b576200021a62000dd8565b5b602002602001015181526020016005548152509050600181908060018154018082558091505060019003906000526020600020906003020160009091909190915060008201518160000190805190602001906200027a929190620002e9565b506020820151816001015560408201518160020155505060056000815480929190620002a69062000e36565b9190505550508080620002b99062000e36565b915050620001cb565b50505050565b60405180606001604052806060815260200160008152602001600081525090565b82805482825590600052602060002090810192821562000336579160200282015b828111156200033557825182908162000324919062000cf1565b50916020019190600101906200030a565b5b50905062000345919062000349565b5090565b5b808211156200036d576000818162000363919062000371565b506001016200034a565b5090565b5080546200037f9062000aea565b6000825580601f10620003935750620003b4565b601f016020900490600052602060002090810190620003b39190620003b7565b5b50565b5b80821115620003d2576000816000905550600101620003b8565b5090565b6000604051905090565b600080fd5b600080fd5b600080fd5b600080fd5b6000601f19601f8301169050919050565b7f4e487b7100000000000000000000000000000000000000000000000000000000600052604160045260246000fd5b6200043f82620003f4565b810181811067ffffffffffffffff8211171562000461576200046062000405565b5b80604052505050565b600062000476620003d6565b905062000484828262000434565b919050565b600067ffffffffffffffff821115620004a757620004a662000405565b5b620004b282620003f4565b9050602081019050919050565b60005b83811015620004df578082015181840152602081019050620004c2565b60008484015250505050565b600062000502620004fc8462000489565b6200046a565b905082815260208101848484011115620005215762000520620003ef565b5b6200052e848285620004bf565b509392505050565b600082601f8301126200054e576200054d620003ea565b5b815162000560848260208601620004eb565b91505092915050565b600067ffffffffffffffff82111562000587576200058662000405565b5b602082029050602081019050919050565b600080fd5b600067ffffffffffffffff821115620005bb57620005ba62000405565b5b602082029050602081019050919050565b6000620005e3620005dd846200059d565b6200046a565b9050808382526020820190506020840283018581111562000609576200060862000598565b5b835b818110156200065757805167ffffffffffffffff811115620006325762000631620003ea565b5b80860162000641898262000536565b855260208501945050506020810190506200060b565b5050509392505050565b600082601f830112620006795762000678620003ea565b5b81516200068b848260208601620005cc565b91505092915050565b6000620006ab620006a58462000569565b6200046a565b90508083825260208201905060208402830185811115620006d157620006d062000598565b5b835b818110156200071f57805167ffffffffffffffff811115620006fa57620006f9620003ea565b5b80860162000709898262000661565b85526020850194505050602081019050620006d3565b5050509392505050565b600082601f830112620007415762000740620003ea565b5b81516200075384826020860162000694565b91505092915050565b600067ffffffffffffffff8211156200077a576200077962000405565b5b602082029050602081019050919050565b6000819050919050565b620007a0816200078b565b8114620007ac57600080fd5b50565b600081519050620007c08162000795565b92915050565b6000620007dd620007d7846200075c565b6200046a565b9050808382526020820190506020840283018581111562000803576200080262000598565b5b835b818110156200083057806200081b8882620007af565b84526020840193505060208101905062000805565b5050509392505050565b600082601f830112620008525762000851620003ea565b5b815162000864848260208601620007c6565b91505092915050565b600073ffffffffffffffffffffffffffffffffffffffff82169050919050565b60006200089a826200086d565b9050919050565b620008ac816200088d565b8114620008b857600080fd5b50565b600081519050620008cc81620008a1565b92915050565b6000620008df826200088d565b9050919050565b620008f181620008d2565b8114620008fd57600080fd5b50565b6000815190506200091181620008e6565b92915050565b60008060008060008060008060006101208a8c0312156200093d576200093c620003e0565b5b60008a015167ffffffffffffffff8111156200095e576200095d620003e5565b5b6200096c8c828d0162000536565b99505060208a015167ffffffffffffffff81111562000990576200098f620003e5565b5b6200099e8c828d0162000536565b98505060408a015167ffffffffffffffff811115620009c257620009c1620003e5565b5b620009d08c828d0162000536565b97505060608a015167ffffffffffffffff811115620009f457620009f3620003e5565b5b62000a028c828d0162000536565b96505060808a015167ffffffffffffffff81111562000a265762000a25620003e5565b5b62000a348c828d0162000729565b95505060a08a015167ffffffffffffffff81111562000a585762000a57620003e5565b5b62000a668c828d016200083a565b94505060c062000a798c828d01620008bb565b93505060e062000a8c8c828d01620008bb565b92505061010062000aa08c828d0162000900565b9150509295985092959850929598565b600081519050919050565b7f4e487b7100000000000000000000000000000000000000000000000000000000600052602260045260246000fd5b6000600282049050600182168062000b0357607f821691505b60208210810362000b195762000b1862000abb565b5b50919050565b60008190508160005260206000209050919050565b60006020601f8301049050919050565b600082821b905092915050565b60006008830262000b837fffffffffffffffffffffffffffffffffffffffffffffffffffffffffffffffff8262000b44565b62000b8f868362000b44565b95508019841693508086168417925050509392505050565b6000819050919050565b600062000bd262000bcc62000bc6846200078b565b62000ba7565b6200078b565b9050919050565b6000819050919050565b62000bee8362000bb1565b62000c0662000bfd8262000bd9565b84845462000b51565b825550505050565b600090565b62000c1d62000c0e565b62000c2a81848462000be3565b505050565b5b8181101562000c525762000c4660008262000c13565b60018101905062000c30565b5050565b601f82111562000ca15762000c6b8162000b1f565b62000c768462000b34565b8101602085101562000c86578190505b62000c9e62000c958562000b34565b83018262000c2f565b50505b505050565b600082821c905092915050565b600062000cc66000198460080262000ca6565b1980831691505092915050565b600062000ce1838362000cb3565b9150826002028217905092915050565b62000cfc8262000ab0565b67ffffffffffffffff81111562000d185762000d1762000405565b5b62000d24825462000aea565b62000d3182828562000c56565b600060209050601f83116001811462000d69576000841562000d54578287015190505b62000d60858262000cd3565b86555062000dd0565b601f19841662000d798662000b1f565b60005b8281101562000da35784890151825560018201915060208501945060208101905062000d7c565b8683101562000dc3578489015162000dbf601f89168262000cb3565b8355505b6001600288020188555050505b505050505050565b7f4e487b7100000000000000000000000000000000000000000000000000000000600052603260045260246000fd5b7f4e487b7100000000000000000000000000000000000000000000000000000000600052601160045260246000fd5b600062000e43826200078b565b91507fffffffffffffffffffffffffffffffffffffffffffffffffffffffffffffffff820362000e785762000e7762000e07565b5b600182019050919050565b612c048062000e936000396000f3fe6080604052600436106101355760003560e01c806390c3f38f116100ab578063da14bde31161006f578063da14bde3146103cc578063dbfc2c12146103f5578063e1d740831461041e578063e9c0d98c14610449578063eefa873514610465578063f0141d841461048e57610135565b806390c3f38f146102fb5780639e87a5cd14610324578063b7997da11461034f578063c47f002714610378578063d6afc9b1146103a157610135565b8063594d9e63116100fd578063594d9e63146101fb5780636c50c11e146102265780637d44ba7814610251578063865c51721461027a578063893d20e8146102a55780638e15f473146102d057610135565b806317d7de7c1461013a5780631a09254114610165578063235b37b1146101905780633ccfd60b146101b9578063512dd020146101d0575b600080fd5b34801561014657600080fd5b5061014f6104b9565b60405161015c91906119ae565b60405180910390f35b34801561017157600080fd5b5061017a61054b565b60405161018791906119ae565b60405180910390f35b34801561019c57600080fd5b506101b760048036038101906101b29190611b19565b6105dd565b005b3480156101c557600080fd5b506101ce610677565b005b3480156101dc57600080fd5b506101e5610769565b6040516101f29190611b7b565b60405180910390f35b34801561020757600080fd5b50610210610773565b60405161021d9190611dc3565b60405180910390f35b34801561023257600080fd5b5061023b6108bf565b6040516102489190611e26565b60405180910390f35b34801561025d57600080fd5b5061027860048036038101906102739190611f53565b6108e9565b005b34801561028657600080fd5b5061028f610a0d565b60405161029c9190612117565b60405180910390f35b3480156102b157600080fd5b506102ba610c8c565b6040516102c79190611e26565b60405180910390f35b3480156102dc57600080fd5b506102e5610cb6565b6040516102f29190612152565b60405180910390f35b34801561030757600080fd5b50610322600480360381019061031d9190611b19565b610d57565b005b34801561033057600080fd5b50610339610df1565b60405161034691906121cc565b60405180910390f35b34801561035b57600080fd5b5061037660048036038101906103719190612251565b610e1b565b005b34801561038457600080fd5b5061039f600480360381019061039a9190611b19565b610ee9565b005b3480156103ad57600080fd5b506103b6610f83565b6040516103c391906119ae565b60405180910390f35b3480156103d857600080fd5b506103f360048036038101906103ee9190612291565b611015565b005b34801561040157600080fd5b5061041c60048036038101906104179190611b19565b6111bc565b005b34801561042a57600080fd5b50610433611256565b60405161044091906119ae565b60405180910390f35b610463600480360381019061045e91906122be565b6112e8565b005b34801561047157600080fd5b5061048c600480360381019061048791906124ed565b6115bd565b005b34801561049a57600080fd5b506104a3611708565b6040516104b09190612581565b60405180910390f35b6060600680546104c8906125cb565b80601f01602080910402602001604051908101604052809291908181526020018280546104f4906125cb565b80156105415780601f1061051657610100808354040283529160200191610541565b820191906000526020600020905b81548152906001019060200180831161052457829003601f168201915b5050505050905090565b60606009805461055a906125cb565b80601f0160208091040260200160405190810160405280929190818152602001828054610586906125cb565b80156105d35780601f106105a8576101008083540402835291602001916105d3565b820191906000526020600020905b8154815290600101906020018083116105b657829003601f168201915b5050505050905090565b600360009054906101000a900473ffffffffffffffffffffffffffffffffffffffff1673ffffffffffffffffffffffffffffffffffffffff163373ffffffffffffffffffffffffffffffffffffffff1614610664576040517f1022f53800000000000000000000000000000000000000000000000000000000815260040160405180910390fd5b8060079081610673919061279e565b5050565b600360009054906101000a900473ffffffffffffffffffffffffffffffffffffffff1673ffffffffffffffffffffffffffffffffffffffff163373ffffffffffffffffffffffffffffffffffffffff16146106fe576040517f1022f53800000000000000000000000000000000000000000000000000000000815260040160405180910390fd5b600360009054906101000a900473ffffffffffffffffffffffffffffffffffffffff1673ffffffffffffffffffffffffffffffffffffffff166108fc479081150290604051600060405180830381858888f19350505050158015610766573d6000803e3d6000fd5b50565b6000600554905090565b60606001805480602002602001604051908101604052809291908181526020016000905b828210156108b6578382906000526020600020906003020160405180606001604052908160008201805480602002602001604051908101604052809291908181526020016000905b8282101561088b5783829060005260206000200180546107fe906125cb565b80601f016020809104026020016040519081016040528092919081815260200182805461082a906125cb565b80156108775780601f1061084c57610100808354040283529160200191610877565b820191906000526020600020905b81548152906001019060200180831161085a57829003601f168201915b5050505050815260200190600101906107df565b5050505081526020016001820154815260200160028201548152505081526020019060010190610797565b50505050905090565b6000600460009054906101000a900473ffffffffffffffffffffffffffffffffffffffff16905090565b600360009054906101000a900473ffffffffffffffffffffffffffffffffffffffff1673ffffffffffffffffffffffffffffffffffffffff163373ffffffffffffffffffffffffffffffffffffffff1614610970576040517f1022f53800000000000000000000000000000000000000000000000000000000815260040160405180910390fd5b600060405180606001604052808481526020018381526020016005548152509050600181908060018154018082558091505060019003906000526020600020906003020160009091909190915060008201518160000190805190602001906109d99291906117a5565b506020820151816001015560408201518160020155505060056000815480929190610a039061289f565b9190505550505050565b60606000805480602002602001604051908101604052809291908181526020016000905b82821015610c8357838290600052602060002090600602016040518060c00160405290816000820160009054906101000a900473ffffffffffffffffffffffffffffffffffffffff1673ffffffffffffffffffffffffffffffffffffffff1673ffffffffffffffffffffffffffffffffffffffff16815260200160018201548152602001600282018054610ac4906125cb565b80601f0160208091040260200160405190810160405280929190818152602001828054610af0906125cb565b8015610b3d5780601f10610b1257610100808354040283529160200191610b3d565b820191906000526020600020905b815481529060010190602001808311610b2057829003601f168201915b50505050508152602001600382018054610b56906125cb565b80601f0160208091040260200160405190810160405280929190818152602001828054610b82906125cb565b8015610bcf5780601f10610ba457610100808354040283529160200191610bcf565b820191906000526020600020905b815481529060010190602001808311610bb257829003601f168201915b50505050508152602001600482018054610be8906125cb565b80601f0160208091040260200160405190810160405280929190818152602001828054610c14906125cb565b8015610c615780601f10610c3657610100808354040283529160200191610c61565b820191906000526020600020905b815481529060010190602001808311610c4457829003601f168201915b5050505050815260200160058201548152505081526020019060010190610a31565b50505050905090565b6000600360009054906101000a900473ffffffffffffffffffffffffffffffffffffffff16905090565b600080600260009054906101000a900473ffffffffffffffffffffffffffffffffffffffff1673ffffffffffffffffffffffffffffffffffffffff1663feaf968c6040518163ffffffff1660e01b815260040160a060405180830381865afa158015610d26573d6000803e3d6000fd5b505050506040513d601f19601f82011682018060405250810190610d4a919061296a565b5050509150508091505090565b600360009054906101000a900473ffffffffffffffffffffffffffffffffffffffff1673ffffffffffffffffffffffffffffffffffffffff163373ffffffffffffffffffffffffffffffffffffffff1614610dde576040517f1022f53800000000000000000000000000000000000000000000000000000000815260040160405180910390fd5b8060099081610ded919061279e565b5050565b6000600260009054906101000a900473ffffffffffffffffffffffffffffffffffffffff16905090565b80600460009054906101000a900473ffffffffffffffffffffffffffffffffffffffff1673ffffffffffffffffffffffffffffffffffffffff168173ffffffffffffffffffffffffffffffffffffffff1614610ea3576040517fab0aa2a200000000000000000000000000000000000000000000000000000000815260040160405180910390fd5b82600260006101000a81548173ffffffffffffffffffffffffffffffffffffffff021916908373ffffffffffffffffffffffffffffffffffffffff160217905550505050565b600360009054906101000a900473ffffffffffffffffffffffffffffffffffffffff1673ffffffffffffffffffffffffffffffffffffffff163373ffffffffffffffffffffffffffffffffffffffff1614610f70576040517f1022f53800000000000000000000000000000000000000000000000000000000815260040160405180910390fd5b8060069081610f7f919061279e565b5050565b606060078054610f92906125cb565b80601f0160208091040260200160405190810160405280929190818152602001828054610fbe906125cb565b801561100b5780601f10610fe05761010080835404028352916020019161100b565b820191906000526020600020905b815481529060010190602001808311610fee57829003601f168201915b5050505050905090565b600360009054906101000a900473ffffffffffffffffffffffffffffffffffffffff1673ffffffffffffffffffffffffffffffffffffffff163373ffffffffffffffffffffffffffffffffffffffff161461109c576040517f1022f53800000000000000000000000000000000000000000000000000000000815260040160405180910390fd5b60005b6001805490508110156111b85781600182815481106110c1576110c06129e5565b5b906000526020600020906003020160020154036111a55760018080805490506110ea9190612a14565b815481106110fb576110fa6129e5565b5b90600052602060002090600302016001828154811061111d5761111c6129e5565b5b906000526020600020906003020160008201816000019080546111419291906117fe565b506001820154816001015560028201548160020155905050600180548061116b5761116a612a48565b5b600190038181906000526020600020906003020160008082016000611190919061185b565b60018201600090556002820160009055505090555b80806111b09061289f565b91505061109f565b5050565b600360009054906101000a900473ffffffffffffffffffffffffffffffffffffffff1673ffffffffffffffffffffffffffffffffffffffff163373ffffffffffffffffffffffffffffffffffffffff1614611243576040517f1022f53800000000000000000000000000000000000000000000000000000000815260040160405180910390fd5b8060089081611252919061279e565b5050565b606060088054611265906125cb565b80601f0160208091040260200160405190810160405280929190818152602001828054611291906125cb565b80156112de5780601f106112b3576101008083540402835291602001916112de565b820191906000526020600020905b8154815290600101906020018083116112c157829003601f168201915b5050505050905090565b6112f061187c565b60005b60018054905081101561145c578260018281548110611315576113146129e5565b5b9060005260206000209060030201600201540361144957600181815481106113405761133f6129e5565b5b906000526020600020906003020160405180606001604052908160008201805480602002602001604051908101604052809291908181526020016000905b8282101561142a57838290600052602060002001805461139d906125cb565b80601f01602080910402602001604051908101604052809291908181526020018280546113c9906125cb565b80156114165780601f106113eb57610100808354040283529160200191611416565b820191906000526020600020905b8154815290600101906020018083116113f957829003601f168201915b50505050508152602001906001019061137e565b5050505081526020016001820154815260200160028201548152505091505b80806114549061289f565b9150506112f3565b50806020015134101561149b576040517ff1b7411900000000000000000000000000000000000000000000000000000000815260040160405180910390fd5b60006040518060c001604052803373ffffffffffffffffffffffffffffffffffffffff16815260200142815260200186815260200185815260200160405180602001604052806000815250815260200184815250908060018154018082558091505060019003906000526020600020906006020160009091909190915060008201518160000160006101000a81548173ffffffffffffffffffffffffffffffffffffffff021916908373ffffffffffffffffffffffffffffffffffffffff16021790555060208201518160010155604082015181600201908161157e919061279e565b506060820151816003019081611594919061279e565b5060808201518160040190816115aa919061279e565b5060a08201518160050155505050505050565b6000815167ffffffffffffffff8111156115da576115d96119ee565b5b60405190808252806020026020018201604052801561161357816020015b61160061187c565b8152602001906001900390816115f85790505b50905060005b81518110156117025760006040518060600160405280868481518110611642576116416129e5565b5b60200260200101518152602001858481518110611662576116616129e5565b5b602002602001015181526020016005548152509050600181908060018154018082558091505060019003906000526020600020906003020160009091909190915060008201518160000190805190602001906116bf9291906117a5565b5060208201518160010155604082015181600201555050600560008154809291906116e99061289f565b91905055505080806116fa9061289f565b915050611619565b50505050565b600080600260009054906101000a900473ffffffffffffffffffffffffffffffffffffffff1673ffffffffffffffffffffffffffffffffffffffff1663313ce5676040518163ffffffff1660e01b8152600401602060405180830381865afa158015611778573d6000803e3d6000fd5b505050506040513d601f19601f8201168201806040525081019061179c9190612aa3565b90508091505090565b8280548282559060005260206000209081019282156117ed579160200282015b828111156117ec5782518290816117dc919061279e565b50916020019190600101906117c5565b5b5090506117fa919061189d565b5090565b82805482825590600052602060002090810192821561184a5760005260206000209182015b8281111561184957828290816118399190612ae6565b5091600101919060010190611823565b5b509050611857919061189d565b5090565b5080546000825590600052602060002090810190611879919061189d565b50565b60405180606001604052806060815260200160008152602001600081525090565b5b808211156118bd57600081816118b491906118c1565b5060010161189e565b5090565b5080546118cd906125cb565b6000825580601f106118df57506118fe565b601f0160209004906000526020600020908101906118fd9190611901565b5b50565b5b8082111561191a576000816000905550600101611902565b5090565b600081519050919050565b600082825260208201905092915050565b60005b8381101561195857808201518184015260208101905061193d565b60008484015250505050565b6000601f19601f8301169050919050565b60006119808261191e565b61198a8185611929565b935061199a81856020860161193a565b6119a381611964565b840191505092915050565b600060208201905081810360008301526119c88184611975565b905092915050565b6000604051905090565b600080fd5b600080fd5b600080fd5b600080fd5b7f4e487b7100000000000000000000000000000000000000000000000000000000600052604160045260246000fd5b611a2682611964565b810181811067ffffffffffffffff82111715611a4557611a446119ee565b5b80604052505050565b6000611a586119d0565b9050611a648282611a1d565b919050565b600067ffffffffffffffff821115611a8457611a836119ee565b5b611a8d82611964565b9050602081019050919050565b82818337600083830152505050565b6000611abc611ab784611a69565b611a4e565b905082815260208101848484011115611ad857611ad76119e9565b5b611ae3848285611a9a565b509392505050565b600082601f830112611b0057611aff6119e4565b5b8135611b10848260208601611aa9565b91505092915050565b600060208284031215611b2f57611b2e6119da565b5b600082013567ffffffffffffffff811115611b4d57611b4c6119df565b5b611b5984828501611aeb565b91505092915050565b6000819050919050565b611b7581611b62565b82525050565b6000602082019050611b906000830184611b6c565b92915050565b600081519050919050565b600082825260208201905092915050565b6000819050602082019050919050565b600081519050919050565b600082825260208201905092915050565b6000819050602082019050919050565b600082825260208201905092915050565b6000611c0a8261191e565b611c148185611bee565b9350611c2481856020860161193a565b611c2d81611964565b840191505092915050565b6000611c448383611bff565b905092915050565b6000602082019050919050565b6000611c6482611bc2565b611c6e8185611bcd565b935083602082028501611c8085611bde565b8060005b85811015611cbc5784840389528151611c9d8582611c38565b9450611ca883611c4c565b925060208a01995050600181019050611c84565b50829750879550505050505092915050565b611cd781611b62565b82525050565b60006060830160008301518482036000860152611cfa8282611c59565b9150506020830151611d0f6020860182611cce565b506040830151611d226040860182611cce565b508091505092915050565b6000611d398383611cdd565b905092915050565b6000602082019050919050565b6000611d5982611b96565b611d638185611ba1565b935083602082028501611d7585611bb2565b8060005b85811015611db15784840389528151611d928582611d2d565b9450611d9d83611d41565b925060208a01995050600181019050611d79565b50829750879550505050505092915050565b60006020820190508181036000830152611ddd8184611d4e565b905092915050565b600073ffffffffffffffffffffffffffffffffffffffff82169050919050565b6000611e1082611de5565b9050919050565b611e2081611e05565b82525050565b6000602082019050611e3b6000830184611e17565b92915050565b600067ffffffffffffffff821115611e5c57611e5b6119ee565b5b602082029050602081019050919050565b600080fd5b6000611e85611e8084611e41565b611a4e565b90508083825260208201905060208402830185811115611ea857611ea7611e6d565b5b835b81811015611eef57803567ffffffffffffffff811115611ecd57611ecc6119e4565b5b808601611eda8982611aeb565b85526020850194505050602081019050611eaa565b5050509392505050565b600082601f830112611f0e57611f0d6119e4565b5b8135611f1e848260208601611e72565b91505092915050565b611f3081611b62565b8114611f3b57600080fd5b50565b600081359050611f4d81611f27565b92915050565b60008060408385031215611f6a57611f696119da565b5b600083013567ffffffffffffffff811115611f8857611f876119df565b5b611f9485828601611ef9565b9250506020611fa585828601611f3e565b9150509250929050565b600081519050919050565b600082825260208201905092915050565b6000819050602082019050919050565b611fe481611e05565b82525050565b600060c0830160008301516120026000860182611fdb565b5060208301516120156020860182611cce565b506040830151848203604086015261202d8282611bff565b915050606083015184820360608601526120478282611bff565b915050608083015184820360808601526120618282611bff565b91505060a083015161207660a0860182611cce565b508091505092915050565b600061208d8383611fea565b905092915050565b6000602082019050919050565b60006120ad82611faf565b6120b78185611fba565b9350836020820285016120c985611fcb565b8060005b8581101561210557848403895281516120e68582612081565b94506120f183612095565b925060208a019950506001810190506120cd565b50829750879550505050505092915050565b6000602082019050818103600083015261213181846120a2565b905092915050565b6000819050919050565b61214c81612139565b82525050565b60006020820190506121676000830184612143565b92915050565b6000819050919050565b600061219261218d61218884611de5565b61216d565b611de5565b9050919050565b60006121a482612177565b9050919050565b60006121b682612199565b9050919050565b6121c6816121ab565b82525050565b60006020820190506121e160008301846121bd565b92915050565b60006121f282611e05565b9050919050565b612202816121e7565b811461220d57600080fd5b50565b60008135905061221f816121f9565b92915050565b61222e81611e05565b811461223957600080fd5b50565b60008135905061224b81612225565b92915050565b60008060408385031215612268576122676119da565b5b600061227685828601612210565b92505060206122878582860161223c565b9150509250929050565b6000602082840312156122a7576122a66119da565b5b60006122b584828501611f3e565b91505092915050565b6000806000606084860312156122d7576122d66119da565b5b600084013567ffffffffffffffff8111156122f5576122f46119df565b5b61230186828701611aeb565b935050602084013567ffffffffffffffff811115612322576123216119df565b5b61232e86828701611aeb565b925050604061233f86828701611f3e565b9150509250925092565b600067ffffffffffffffff821115612364576123636119ee565b5b602082029050602081019050919050565b600061238861238384612349565b611a4e565b905080838252602082019050602084028301858111156123ab576123aa611e6d565b5b835b818110156123f257803567ffffffffffffffff8111156123d0576123cf6119e4565b5b8086016123dd8982611ef9565b855260208501945050506020810190506123ad565b5050509392505050565b600082601f830112612411576124106119e4565b5b8135612421848260208601612375565b91505092915050565b600067ffffffffffffffff821115612445576124446119ee565b5b602082029050602081019050919050565b60006124696124648461242a565b611a4e565b9050808382526020820190506020840283018581111561248c5761248b611e6d565b5b835b818110156124b557806124a18882611f3e565b84526020840193505060208101905061248e565b5050509392505050565b600082601f8301126124d4576124d36119e4565b5b81356124e4848260208601612456565b91505092915050565b60008060408385031215612504576125036119da565b5b600083013567ffffffffffffffff811115612522576125216119df565b5b61252e858286016123fc565b925050602083013567ffffffffffffffff81111561254f5761254e6119df565b5b61255b858286016124bf565b9150509250929050565b600060ff82169050919050565b61257b81612565565b82525050565b60006020820190506125966000830184612572565b92915050565b7f4e487b7100000000000000000000000000000000000000000000000000000000600052602260045260246000fd5b600060028204905060018216806125e357607f821691505b6020821081036125f6576125f561259c565b5b50919050565b60008190508160005260206000209050919050565b60006020601f8301049050919050565b600082821b905092915050565b60006008830261265e7fffffffffffffffffffffffffffffffffffffffffffffffffffffffffffffffff82612621565b6126688683612621565b95508019841693508086168417925050509392505050565b600061269b61269661269184611b62565b61216d565b611b62565b9050919050565b6000819050919050565b6126b583612680565b6126c96126c1826126a2565b84845461262e565b825550505050565b600090565b6126de6126d1565b6126e98184846126ac565b505050565b5b8181101561270d576127026000826126d6565b6001810190506126ef565b5050565b601f82111561275257612723816125fc565b61272c84612611565b8101602085101561273b578190505b61274f61274785612611565b8301826126ee565b50505b505050565b600082821c905092915050565b600061277560001984600802612757565b1980831691505092915050565b600061278e8383612764565b9150826002028217905092915050565b6127a78261191e565b67ffffffffffffffff8111156127c0576127bf6119ee565b5b6127ca82546125cb565b6127d5828285612711565b600060209050601f83116001811461280857600084156127f6578287015190505b6128008582612782565b865550612868565b601f198416612816866125fc565b60005b8281101561283e57848901518255600182019150602085019450602081019050612819565b8683101561285b5784890151612857601f891682612764565b8355505b6001600288020188555050505b505050505050565b7f4e487b7100000000000000000000000000000000000000000000000000000000600052601160045260246000fd5b60006128aa82611b62565b91507fffffffffffffffffffffffffffffffffffffffffffffffffffffffffffffffff82036128dc576128db612870565b5b600182019050919050565b600069ffffffffffffffffffff82169050919050565b612906816128e7565b811461291157600080fd5b50565b600081519050612923816128fd565b92915050565b61293281612139565b811461293d57600080fd5b50565b60008151905061294f81612929565b92915050565b60008151905061296481611f27565b92915050565b600080600080600060a08688031215612986576129856119da565b5b600061299488828901612914565b95505060206129a588828901612940565b94505060406129b688828901612955565b93505060606129c788828901612955565b92505060806129d888828901612914565b9150509295509295909350565b7f4e487b7100000000000000000000000000000000000000000000000000000000600052603260045260246000fd5b6000612a1f82611b62565b9150612a2a83611b62565b9250828203905081811115612a4257612a41612870565b5b92915050565b7f4e487b7100000000000000000000000000000000000000000000000000000000600052603160045260246000fd5b612a8081612565565b8114612a8b57600080fd5b50565b600081519050612a9d81612a77565b92915050565b600060208284031215612ab957612ab86119da565b5b6000612ac784828501612a8e565b91505092915050565b600081549050612adf816125cb565b9050919050565b818103612af4575050612bcc565b612afd82612ad0565b67ffffffffffffffff811115612b1657612b156119ee565b5b612b2082546125cb565b612b2b828285612711565b6000601f831160018114612b5a5760008415612b48578287015490505b612b528582612782565b865550612bc5565b601f198416612b68876125fc565b9650612b73866125fc565b60005b82811015612b9b57848901548255600182019150600185019450602081019050612b76565b86831015612bb85784890154612bb4601f891682612764565b8355505b6001600288020188555050505b5050505050505b56fea2646970667358221220cabea47bdf5750e8f6e9f14580b06c1f002f3deabf55a44b7be3a1f2945de5e264736f6c63430008110033",
   "linkReferences": {},
   "deployedLinkReferences": {}
}