{
   "_format": "hh-sol-artifact-1",
   "contractName": "BuyMeACoffee",
   "sourceName": "contracts/BuyMeACoffee.sol",
   "abi": [
      {
         "inputs": [
            {
               "internalType": "string",
               "name": "_name",
               "type": "string"
            },
            {
               "internalType": "string",
               "name": "_description",
               "type": "string"
            },
            {
               "internalType": "string",
               "name": "_profile",
               "type": "string"
            },
            {
               "internalType": "string",
               "name": "_thumbnail",
               "type": "string"
            },
            {
               "internalType": "string[][]",
               "name": "_items",
               "type": "string[][]"
            },
            {
               "internalType": "uint256[]",
               "name": "_itemsValues",
               "type": "uint256[]"
            },
            {
               "internalType": "address",
               "name": "_owner",
               "type": "address"
            }
         ],
         "stateMutability": "nonpayable",
         "type": "constructor"
      },
      {
         "inputs": [],
         "name": "BuyMeACoffee__NotEnoughEthSend",
         "type": "error"
      },
      {
         "inputs": [],
         "name": "BuyMeACoffee__NotOwner",
         "type": "error"
      },
      {
         "anonymous": false,
         "inputs": [
            {
               "indexed": true,
               "internalType": "uint256",
               "name": "items_id",
               "type": "uint256"
            }
         ],
         "name": "AddedItems",
         "type": "event"
      },
      {
         "anonymous": false,
         "inputs": [
            {
               "indexed": true,
               "internalType": "uint256",
               "name": "timestamp",
               "type": "uint256"
            },
            {
               "indexed": false,
               "internalType": "string",
               "name": "name",
               "type": "string"
            },
            {
               "indexed": false,
               "internalType": "string",
               "name": "message",
               "type": "string"
            },
            {
               "indexed": false,
               "internalType": "uint256",
               "name": "items_id",
               "type": "uint256"
            }
         ],
         "name": "MemoCreated",
         "type": "event"
      },
      {
         "inputs": [
            {
               "internalType": "string[]",
               "name": "names",
               "type": "string[]"
            },
            {
               "internalType": "uint256",
               "name": "cost",
               "type": "uint256"
            }
         ],
         "name": "addItems",
         "outputs": [],
         "stateMutability": "nonpayable",
         "type": "function"
      },
      {
         "inputs": [],
         "name": "getDescription",
         "outputs": [
            {
               "internalType": "string",
               "name": "",
               "type": "string"
            }
         ],
         "stateMutability": "view",
         "type": "function"
      },
      {
         "inputs": [],
         "name": "getItemsCount",
         "outputs": [
            {
               "internalType": "uint256",
               "name": "",
               "type": "uint256"
            }
         ],
         "stateMutability": "view",
         "type": "function"
      },
      {
         "inputs": [],
         "name": "getListOfItems",
         "outputs": [
            {
               "components": [
                  {
                     "internalType": "string[]",
                     "name": "names",
                     "type": "string[]"
                  },
                  {
                     "internalType": "uint256",
                     "name": "cost",
                     "type": "uint256"
                  },
                  {
                     "internalType": "uint256",
                     "name": "id",
                     "type": "uint256"
                  }
               ],
               "internalType": "struct BuyMeACoffee.Items[]",
               "name": "",
               "type": "tuple[]"
            }
         ],
         "stateMutability": "view",
         "type": "function"
      },
      {
         "inputs": [],
         "name": "getMemos",
         "outputs": [
            {
               "components": [
                  {
                     "internalType": "address",
                     "name": "from",
                     "type": "address"
                  },
                  {
                     "internalType": "uint256",
                     "name": "timestamp",
                     "type": "uint256"
                  },
                  {
                     "internalType": "string",
                     "name": "name",
                     "type": "string"
                  },
                  {
                     "internalType": "string",
                     "name": "message",
                     "type": "string"
                  },
                  {
                     "internalType": "string",
                     "name": "response",
                     "type": "string"
                  },
                  {
                     "internalType": "uint256",
                     "name": "items_id",
                     "type": "uint256"
                  }
               ],
               "internalType": "struct BuyMeACoffee.Memo[]",
               "name": "",
               "type": "tuple[]"
            }
         ],
         "stateMutability": "view",
         "type": "function"
      },
      {
         "inputs": [],
         "name": "getName",
         "outputs": [
            {
               "internalType": "string",
               "name": "",
               "type": "string"
            }
         ],
         "stateMutability": "view",
         "type": "function"
      },
      {
         "inputs": [],
         "name": "getOwner",
         "outputs": [
            {
               "internalType": "address",
               "name": "",
               "type": "address"
            }
         ],
         "stateMutability": "view",
         "type": "function"
      },
      {
         "inputs": [],
         "name": "getProfile",
         "outputs": [
            {
               "internalType": "string",
               "name": "",
               "type": "string"
            }
         ],
         "stateMutability": "view",
         "type": "function"
      },
      {
         "inputs": [],
         "name": "getThumbnail",
         "outputs": [
            {
               "internalType": "string",
               "name": "",
               "type": "string"
            }
         ],
         "stateMutability": "view",
         "type": "function"
      },
      {
         "inputs": [
            {
               "internalType": "uint256",
               "name": "_id",
               "type": "uint256"
            }
         ],
         "name": "removeItems",
         "outputs": [],
         "stateMutability": "nonpayable",
         "type": "function"
      },
      {
         "inputs": [
            {
               "internalType": "string",
               "name": "_description",
               "type": "string"
            }
         ],
         "name": "setDescription",
         "outputs": [],
         "stateMutability": "nonpayable",
         "type": "function"
      },
      {
         "inputs": [
            {
               "internalType": "string[][]",
               "name": "_items",
               "type": "string[][]"
            },
            {
               "internalType": "uint256[]",
               "name": "_itemsValues",
               "type": "uint256[]"
            }
         ],
         "name": "setInitialItems",
         "outputs": [],
         "stateMutability": "nonpayable",
         "type": "function"
      },
      {
         "inputs": [
            {
               "internalType": "string",
               "name": "_name",
               "type": "string"
            }
         ],
         "name": "setName",
         "outputs": [],
         "stateMutability": "nonpayable",
         "type": "function"
      },
      {
         "inputs": [
            {
               "internalType": "string",
               "name": "_profile",
               "type": "string"
            }
         ],
         "name": "setProfile",
         "outputs": [],
         "stateMutability": "nonpayable",
         "type": "function"
      },
      {
         "inputs": [
            {
               "internalType": "uint256",
               "name": "index",
               "type": "uint256"
            },
            {
               "internalType": "string",
               "name": "reply",
               "type": "string"
            }
         ],
         "name": "setReply",
         "outputs": [],
         "stateMutability": "nonpayable",
         "type": "function"
      },
      {
         "inputs": [
            {
               "internalType": "string",
               "name": "_thumbnail",
               "type": "string"
            }
         ],
         "name": "setThumbnail",
         "outputs": [],
         "stateMutability": "nonpayable",
         "type": "function"
      },
      {
         "inputs": [
            {
               "internalType": "string",
               "name": "_name",
               "type": "string"
            },
            {
               "internalType": "string",
               "name": "_message",
               "type": "string"
            },
            {
               "internalType": "uint256",
               "name": "_itemsId",
               "type": "uint256"
            }
         ],
         "name": "storeMemo",
         "outputs": [],
         "stateMutability": "payable",
         "type": "function"
      },
      {
         "inputs": [],
         "name": "withdraw",
         "outputs": [],
         "stateMutability": "nonpayable",
         "type": "function"
      }
   ],
   "bytecode": "0x608060405260006003553480156200001657600080fd5b506040516200355d3803806200355d83398181016040528101906200003c91906200084e565b86600490816200004d919062000bfc565b5085600790816200005f919062000bfc565b50846005908162000071919062000bfc565b50836006908162000083919062000bfc565b5080600260006101000a81548173ffffffffffffffffffffffffffffffffffffffff021916908373ffffffffffffffffffffffffffffffffffffffff160217905550620000d78383620000e460201b60201c565b5050505050505062000d8e565b6000815167ffffffffffffffff81111562000104576200010362000381565b5b6040519080825280602002602001820160405280156200014157816020015b6200012d62000244565b815260200190600190039081620001235790505b50905060005b81518110156200023e576000604051806060016040528086848151811062000174576200017362000ce3565b5b6020026020010151815260200185848151811062000197576200019662000ce3565b5b60200260200101518152602001600354815250905060018190806001815401808255809150506001900390600052602060002090600302016000909190919091506000820151816000019080519060200190620001f692919062000265565b506020820151816001015560408201518160020155505060036000815480929190620002229062000d41565b9190505550508080620002359062000d41565b91505062000147565b50505050565b60405180606001604052806060815260200160008152602001600081525090565b828054828255906000526020600020908101928215620002b2579160200282015b82811115620002b1578251829081620002a0919062000bfc565b509160200191906001019062000286565b5b509050620002c19190620002c5565b5090565b5b80821115620002e95760008181620002df9190620002ed565b50600101620002c6565b5090565b508054620002fb90620009f5565b6000825580601f106200030f575062000330565b601f0160209004906000526020600020908101906200032f919062000333565b5b50565b5b808211156200034e57600081600090555060010162000334565b5090565b6000604051905090565b600080fd5b600080fd5b600080fd5b600080fd5b6000601f19601f8301169050919050565b7f4e487b7100000000000000000000000000000000000000000000000000000000600052604160045260246000fd5b620003bb8262000370565b810181811067ffffffffffffffff82111715620003dd57620003dc62000381565b5b80604052505050565b6000620003f262000352565b9050620004008282620003b0565b919050565b600067ffffffffffffffff82111562000423576200042262000381565b5b6200042e8262000370565b9050602081019050919050565b60005b838110156200045b5780820151818401526020810190506200043e565b60008484015250505050565b60006200047e620004788462000405565b620003e6565b9050828152602081018484840111156200049d576200049c6200036b565b5b620004aa8482856200043b565b509392505050565b600082601f830112620004ca57620004c962000366565b5b8151620004dc84826020860162000467565b91505092915050565b600067ffffffffffffffff82111562000503576200050262000381565b5b602082029050602081019050919050565b600080fd5b600067ffffffffffffffff82111562000537576200053662000381565b5b602082029050602081019050919050565b60006200055f620005598462000519565b620003e6565b9050808382526020820190506020840283018581111562000585576200058462000514565b5b835b81811015620005d357805167ffffffffffffffff811115620005ae57620005ad62000366565b5b808601620005bd8982620004b2565b8552602085019450505060208101905062000587565b5050509392505050565b600082601f830112620005f557620005f462000366565b5b81516200060784826020860162000548565b91505092915050565b6000620006276200062184620004e5565b620003e6565b905080838252602082019050602084028301858111156200064d576200064c62000514565b5b835b818110156200069b57805167ffffffffffffffff81111562000676576200067562000366565b5b808601620006858982620005dd565b855260208501945050506020810190506200064f565b5050509392505050565b600082601f830112620006bd57620006bc62000366565b5b8151620006cf84826020860162000610565b91505092915050565b600067ffffffffffffffff821115620006f657620006f562000381565b5b602082029050602081019050919050565b6000819050919050565b6200071c8162000707565b81146200072857600080fd5b50565b6000815190506200073c8162000711565b92915050565b6000620007596200075384620006d8565b620003e6565b905080838252602082019050602084028301858111156200077f576200077e62000514565b5b835b81811015620007ac57806200079788826200072b565b84526020840193505060208101905062000781565b5050509392505050565b600082601f830112620007ce57620007cd62000366565b5b8151620007e084826020860162000742565b91505092915050565b600073ffffffffffffffffffffffffffffffffffffffff82169050919050565b60006200081682620007e9565b9050919050565b620008288162000809565b81146200083457600080fd5b50565b60008151905062000848816200081d565b92915050565b600080600080600080600060e0888a03121562000870576200086f6200035c565b5b600088015167ffffffffffffffff81111562000891576200089062000361565b5b6200089f8a828b01620004b2565b975050602088015167ffffffffffffffff811115620008c357620008c262000361565b5b620008d18a828b01620004b2565b965050604088015167ffffffffffffffff811115620008f557620008f462000361565b5b620009038a828b01620004b2565b955050606088015167ffffffffffffffff81111562000927576200092662000361565b5b620009358a828b01620004b2565b945050608088015167ffffffffffffffff81111562000959576200095862000361565b5b620009678a828b01620006a5565b93505060a088015167ffffffffffffffff8111156200098b576200098a62000361565b5b620009998a828b01620007b6565b92505060c0620009ac8a828b0162000837565b91505092959891949750929550565b600081519050919050565b7f4e487b7100000000000000000000000000000000000000000000000000000000600052602260045260246000fd5b6000600282049050600182168062000a0e57607f821691505b60208210810362000a245762000a23620009c6565b5b50919050565b60008190508160005260206000209050919050565b60006020601f8301049050919050565b600082821b905092915050565b60006008830262000a8e7fffffffffffffffffffffffffffffffffffffffffffffffffffffffffffffffff8262000a4f565b62000a9a868362000a4f565b95508019841693508086168417925050509392505050565b6000819050919050565b600062000add62000ad762000ad18462000707565b62000ab2565b62000707565b9050919050565b6000819050919050565b62000af98362000abc565b62000b1162000b088262000ae4565b84845462000a5c565b825550505050565b600090565b62000b2862000b19565b62000b3581848462000aee565b505050565b5b8181101562000b5d5762000b5160008262000b1e565b60018101905062000b3b565b5050565b601f82111562000bac5762000b768162000a2a565b62000b818462000a3f565b8101602085101562000b91578190505b62000ba962000ba08562000a3f565b83018262000b3a565b50505b505050565b600082821c905092915050565b600062000bd16000198460080262000bb1565b1980831691505092915050565b600062000bec838362000bbe565b9150826002028217905092915050565b62000c0782620009bb565b67ffffffffffffffff81111562000c235762000c2262000381565b5b62000c2f8254620009f5565b62000c3c82828562000b61565b600060209050601f83116001811462000c74576000841562000c5f578287015190505b62000c6b858262000bde565b86555062000cdb565b601f19841662000c848662000a2a565b60005b8281101562000cae5784890151825560018201915060208501945060208101905062000c87565b8683101562000cce578489015162000cca601f89168262000bbe565b8355505b6001600288020188555050505b505050505050565b7f4e487b7100000000000000000000000000000000000000000000000000000000600052603260045260246000fd5b7f4e487b7100000000000000000000000000000000000000000000000000000000600052601160045260246000fd5b600062000d4e8262000707565b91507fffffffffffffffffffffffffffffffffffffffffffffffffffffffffffffffff820362000d835762000d8262000d12565b5b600182019050919050565b6127bf8062000d9e6000396000f3fe6080604052600436106101095760003560e01c8063893d20e811610095578063da14bde311610064578063da14bde31461031f578063dbfc2c1214610348578063e1d7408314610371578063e9c0d98c1461039c578063eefa8735146103b857610109565b8063893d20e81461027757806390c3f38f146102a2578063c47f0027146102cb578063d6afc9b1146102f457610109565b80633ccfd60b116100dc5780633ccfd60b146101b6578063512dd020146101cd578063594d9e63146101f85780637d44ba7814610223578063865c51721461024c57610109565b806317d7de7c1461010e5780631a09254114610139578063235b37b114610164578063366056761461018d575b600080fd5b34801561011a57600080fd5b506101236103e1565b60405161013091906117a4565b60405180910390f35b34801561014557600080fd5b5061014e610473565b60405161015b91906117a4565b60405180910390f35b34801561017057600080fd5b5061018b6004803603810190610186919061190f565b610505565b005b34801561019957600080fd5b506101b460048036038101906101af919061198e565b61059f565b005b3480156101c257600080fd5b506101cb610662565b005b3480156101d957600080fd5b506101e2610754565b6040516101ef91906119f9565b60405180910390f35b34801561020457600080fd5b5061020d61075e565b60405161021a9190611c41565b60405180910390f35b34801561022f57600080fd5b5061024a60048036038101906102459190611d49565b6108aa565b005b34801561025857600080fd5b506102616109fd565b60405161026e9190611f3f565b60405180910390f35b34801561028357600080fd5b5061028c610c7c565b6040516102999190611f70565b60405180910390f35b3480156102ae57600080fd5b506102c960048036038101906102c4919061190f565b610ca6565b005b3480156102d757600080fd5b506102f260048036038101906102ed919061190f565b610d40565b005b34801561030057600080fd5b50610309610dda565b60405161031691906117a4565b60405180910390f35b34801561032b57600080fd5b5061034660048036038101906103419190611f8b565b610e6c565b005b34801561035457600080fd5b5061036f600480360381019061036a919061190f565b611013565b005b34801561037d57600080fd5b506103866110ad565b60405161039391906117a4565b60405180910390f35b6103b660048036038101906103b19190611fb8565b61113f565b005b3480156103c457600080fd5b506103df60048036038101906103da91906121e7565b611450565b005b6060600480546103f09061228e565b80601f016020809104026020016040519081016040528092919081815260200182805461041c9061228e565b80156104695780601f1061043e57610100808354040283529160200191610469565b820191906000526020600020905b81548152906001019060200180831161044c57829003601f168201915b5050505050905090565b6060600780546104829061228e565b80601f01602080910402602001604051908101604052809291908181526020018280546104ae9061228e565b80156104fb5780601f106104d0576101008083540402835291602001916104fb565b820191906000526020600020905b8154815290600101906020018083116104de57829003601f168201915b5050505050905090565b600260009054906101000a900473ffffffffffffffffffffffffffffffffffffffff1673ffffffffffffffffffffffffffffffffffffffff163373ffffffffffffffffffffffffffffffffffffffff161461058c576040517f1022f53800000000000000000000000000000000000000000000000000000000815260040160405180910390fd5b806005908161059b919061246b565b5050565b600260009054906101000a900473ffffffffffffffffffffffffffffffffffffffff1673ffffffffffffffffffffffffffffffffffffffff163373ffffffffffffffffffffffffffffffffffffffff1614610626576040517f1022f53800000000000000000000000000000000000000000000000000000000815260040160405180910390fd5b600080838154811061063b5761063a61253d565b5b906000526020600020906006020190508181600401908161065c919061246b565b50505050565b600260009054906101000a900473ffffffffffffffffffffffffffffffffffffffff1673ffffffffffffffffffffffffffffffffffffffff163373ffffffffffffffffffffffffffffffffffffffff16146106e9576040517f1022f53800000000000000000000000000000000000000000000000000000000815260040160405180910390fd5b600260009054906101000a900473ffffffffffffffffffffffffffffffffffffffff1673ffffffffffffffffffffffffffffffffffffffff166108fc479081150290604051600060405180830381858888f19350505050158015610751573d6000803e3d6000fd5b50565b6000600354905090565b60606001805480602002602001604051908101604052809291908181526020016000905b828210156108a1578382906000526020600020906003020160405180606001604052908160008201805480602002602001604051908101604052809291908181526020016000905b828210156108765783829060005260206000200180546107e99061228e565b80601f01602080910402602001604051908101604052809291908181526020018280546108159061228e565b80156108625780601f1061083757610100808354040283529160200191610862565b820191906000526020600020905b81548152906001019060200180831161084557829003601f168201915b5050505050815260200190600101906107ca565b5050505081526020016001820154815260200160028201548152505081526020019060010190610782565b50505050905090565b600260009054906101000a900473ffffffffffffffffffffffffffffffffffffffff1673ffffffffffffffffffffffffffffffffffffffff163373ffffffffffffffffffffffffffffffffffffffff1614610931576040517f1022f53800000000000000000000000000000000000000000000000000000000815260040160405180910390fd5b6000604051806060016040528084815260200183815260200160035481525090506001819080600181540180825580915050600190039060005260206000209060030201600090919091909150600082015181600001908051906020019061099a92919061159b565b50602082015181600101556040820151816002015550506003547fa5dbb7adb15a05f8df3bdfc06617a63f39825dd0c4d2f0615c5134d1d3301b3660405160405180910390a2600360008154809291906109f39061259b565b9190505550505050565b60606000805480602002602001604051908101604052809291908181526020016000905b82821015610c7357838290600052602060002090600602016040518060c00160405290816000820160009054906101000a900473ffffffffffffffffffffffffffffffffffffffff1673ffffffffffffffffffffffffffffffffffffffff1673ffffffffffffffffffffffffffffffffffffffff16815260200160018201548152602001600282018054610ab49061228e565b80601f0160208091040260200160405190810160405280929190818152602001828054610ae09061228e565b8015610b2d5780601f10610b0257610100808354040283529160200191610b2d565b820191906000526020600020905b815481529060010190602001808311610b1057829003601f168201915b50505050508152602001600382018054610b469061228e565b80601f0160208091040260200160405190810160405280929190818152602001828054610b729061228e565b8015610bbf5780601f10610b9457610100808354040283529160200191610bbf565b820191906000526020600020905b815481529060010190602001808311610ba257829003601f168201915b50505050508152602001600482018054610bd89061228e565b80601f0160208091040260200160405190810160405280929190818152602001828054610c049061228e565b8015610c515780601f10610c2657610100808354040283529160200191610c51565b820191906000526020600020905b815481529060010190602001808311610c3457829003601f168201915b5050505050815260200160058201548152505081526020019060010190610a21565b50505050905090565b6000600260009054906101000a900473ffffffffffffffffffffffffffffffffffffffff16905090565b600260009054906101000a900473ffffffffffffffffffffffffffffffffffffffff1673ffffffffffffffffffffffffffffffffffffffff163373ffffffffffffffffffffffffffffffffffffffff1614610d2d576040517f1022f53800000000000000000000000000000000000000000000000000000000815260040160405180910390fd5b8060079081610d3c919061246b565b5050565b600260009054906101000a900473ffffffffffffffffffffffffffffffffffffffff1673ffffffffffffffffffffffffffffffffffffffff163373ffffffffffffffffffffffffffffffffffffffff1614610dc7576040517f1022f53800000000000000000000000000000000000000000000000000000000815260040160405180910390fd5b8060049081610dd6919061246b565b5050565b606060058054610de99061228e565b80601f0160208091040260200160405190810160405280929190818152602001828054610e159061228e565b8015610e625780601f10610e3757610100808354040283529160200191610e62565b820191906000526020600020905b815481529060010190602001808311610e4557829003601f168201915b5050505050905090565b600260009054906101000a900473ffffffffffffffffffffffffffffffffffffffff1673ffffffffffffffffffffffffffffffffffffffff163373ffffffffffffffffffffffffffffffffffffffff1614610ef3576040517f1022f53800000000000000000000000000000000000000000000000000000000815260040160405180910390fd5b60005b60018054905081101561100f578160018281548110610f1857610f1761253d565b5b90600052602060002090600302016002015403610ffc576001808080549050610f4191906125e3565b81548110610f5257610f5161253d565b5b906000526020600020906003020160018281548110610f7457610f7361253d565b5b90600052602060002090600302016000820181600001908054610f989291906115f4565b5060018201548160010155600282015481600201559050506001805480610fc257610fc1612617565b5b600190038181906000526020600020906003020160008082016000610fe79190611651565b60018201600090556002820160009055505090555b80806110079061259b565b915050610ef6565b5050565b600260009054906101000a900473ffffffffffffffffffffffffffffffffffffffff1673ffffffffffffffffffffffffffffffffffffffff163373ffffffffffffffffffffffffffffffffffffffff161461109a576040517f1022f53800000000000000000000000000000000000000000000000000000000815260040160405180910390fd5b80600690816110a9919061246b565b5050565b6060600680546110bc9061228e565b80601f01602080910402602001604051908101604052809291908181526020018280546110e89061228e565b80156111355780601f1061110a57610100808354040283529160200191611135565b820191906000526020600020905b81548152906001019060200180831161111857829003601f168201915b5050505050905090565b611147611672565b60005b6001805490508110156112b357826001828154811061116c5761116b61253d565b5b906000526020600020906003020160020154036112a057600181815481106111975761119661253d565b5b906000526020600020906003020160405180606001604052908160008201805480602002602001604051908101604052809291908181526020016000905b828210156112815783829060005260206000200180546111f49061228e565b80601f01602080910402602001604051908101604052809291908181526020018280546112209061228e565b801561126d5780601f106112425761010080835404028352916020019161126d565b820191906000526020600020905b81548152906001019060200180831161125057829003601f168201915b5050505050815260200190600101906111d5565b5050505081526020016001820154815260200160028201548152505091505b80806112ab9061259b565b91505061114a565b5080602001513410156112f2576040517ff1b7411900000000000000000000000000000000000000000000000000000000815260040160405180910390fd5b60006040518060c001604052803373ffffffffffffffffffffffffffffffffffffffff16815260200142815260200186815260200185815260200160405180602001604052806000815250815260200184815250908060018154018082558091505060019003906000526020600020906006020160009091909190915060008201518160000160006101000a81548173ffffffffffffffffffffffffffffffffffffffff021916908373ffffffffffffffffffffffffffffffffffffffff1602179055506020820151816001015560408201518160020190816113d5919061246b565b5060608201518160030190816113eb919061246b565b506080820151816004019081611401919061246b565b5060a082015181600501555050427f1cfb7901bbb0acf7f618d0389fdda4a852e9de1abe2b641bf9e6f40ace3a44ad85858560405161144293929190612646565b60405180910390a250505050565b6000815167ffffffffffffffff81111561146d5761146c6117e4565b5b6040519080825280602002602001820160405280156114a657816020015b611493611672565b81526020019060019003908161148b5790505b50905060005b815181101561159557600060405180606001604052808684815181106114d5576114d461253d565b5b602002602001015181526020018584815181106114f5576114f461253d565b5b6020026020010151815260200160035481525090506001819080600181540180825580915050600190039060005260206000209060030201600090919091909150600082015181600001908051906020019061155292919061159b565b50602082015181600101556040820151816002015550506003600081548092919061157c9061259b565b919050555050808061158d9061259b565b9150506114ac565b50505050565b8280548282559060005260206000209081019282156115e3579160200282015b828111156115e25782518290816115d2919061246b565b50916020019190600101906115bb565b5b5090506115f09190611693565b5090565b8280548282559060005260206000209081019282156116405760005260206000209182015b8281111561163f578282908161162f91906126a1565b5091600101919060010190611619565b5b50905061164d9190611693565b5090565b508054600082559060005260206000209081019061166f9190611693565b50565b60405180606001604052806060815260200160008152602001600081525090565b5b808211156116b357600081816116aa91906116b7565b50600101611694565b5090565b5080546116c39061228e565b6000825580601f106116d557506116f4565b601f0160209004906000526020600020908101906116f391906116f7565b5b50565b5b808211156117105760008160009055506001016116f8565b5090565b600081519050919050565b600082825260208201905092915050565b60005b8381101561174e578082015181840152602081019050611733565b60008484015250505050565b6000601f19601f8301169050919050565b600061177682611714565b611780818561171f565b9350611790818560208601611730565b6117998161175a565b840191505092915050565b600060208201905081810360008301526117be818461176b565b905092915050565b6000604051905090565b600080fd5b600080fd5b600080fd5b600080fd5b7f4e487b7100000000000000000000000000000000000000000000000000000000600052604160045260246000fd5b61181c8261175a565b810181811067ffffffffffffffff8211171561183b5761183a6117e4565b5b80604052505050565b600061184e6117c6565b905061185a8282611813565b919050565b600067ffffffffffffffff82111561187a576118796117e4565b5b6118838261175a565b9050602081019050919050565b82818337600083830152505050565b60006118b26118ad8461185f565b611844565b9050828152602081018484840111156118ce576118cd6117df565b5b6118d9848285611890565b509392505050565b600082601f8301126118f6576118f56117da565b5b813561190684826020860161189f565b91505092915050565b600060208284031215611925576119246117d0565b5b600082013567ffffffffffffffff811115611943576119426117d5565b5b61194f848285016118e1565b91505092915050565b6000819050919050565b61196b81611958565b811461197657600080fd5b50565b60008135905061198881611962565b92915050565b600080604083850312156119a5576119a46117d0565b5b60006119b385828601611979565b925050602083013567ffffffffffffffff8111156119d4576119d36117d5565b5b6119e0858286016118e1565b9150509250929050565b6119f381611958565b82525050565b6000602082019050611a0e60008301846119ea565b92915050565b600081519050919050565b600082825260208201905092915050565b6000819050602082019050919050565b600081519050919050565b600082825260208201905092915050565b6000819050602082019050919050565b600082825260208201905092915050565b6000611a8882611714565b611a928185611a6c565b9350611aa2818560208601611730565b611aab8161175a565b840191505092915050565b6000611ac28383611a7d565b905092915050565b6000602082019050919050565b6000611ae282611a40565b611aec8185611a4b565b935083602082028501611afe85611a5c565b8060005b85811015611b3a5784840389528151611b1b8582611ab6565b9450611b2683611aca565b925060208a01995050600181019050611b02565b50829750879550505050505092915050565b611b5581611958565b82525050565b60006060830160008301518482036000860152611b788282611ad7565b9150506020830151611b8d6020860182611b4c565b506040830151611ba06040860182611b4c565b508091505092915050565b6000611bb78383611b5b565b905092915050565b6000602082019050919050565b6000611bd782611a14565b611be18185611a1f565b935083602082028501611bf385611a30565b8060005b85811015611c2f5784840389528151611c108582611bab565b9450611c1b83611bbf565b925060208a01995050600181019050611bf7565b50829750879550505050505092915050565b60006020820190508181036000830152611c5b8184611bcc565b905092915050565b600067ffffffffffffffff821115611c7e57611c7d6117e4565b5b602082029050602081019050919050565b600080fd5b6000611ca7611ca284611c63565b611844565b90508083825260208201905060208402830185811115611cca57611cc9611c8f565b5b835b81811015611d1157803567ffffffffffffffff811115611cef57611cee6117da565b5b808601611cfc89826118e1565b85526020850194505050602081019050611ccc565b5050509392505050565b600082601f830112611d3057611d2f6117da565b5b8135611d40848260208601611c94565b91505092915050565b60008060408385031215611d6057611d5f6117d0565b5b600083013567ffffffffffffffff811115611d7e57611d7d6117d5565b5b611d8a85828601611d1b565b9250506020611d9b85828601611979565b9150509250929050565b600081519050919050565b600082825260208201905092915050565b6000819050602082019050919050565b600073ffffffffffffffffffffffffffffffffffffffff82169050919050565b6000611dfc82611dd1565b9050919050565b611e0c81611df1565b82525050565b600060c083016000830151611e2a6000860182611e03565b506020830151611e3d6020860182611b4c565b5060408301518482036040860152611e558282611a7d565b91505060608301518482036060860152611e6f8282611a7d565b91505060808301518482036080860152611e898282611a7d565b91505060a0830151611e9e60a0860182611b4c565b508091505092915050565b6000611eb58383611e12565b905092915050565b6000602082019050919050565b6000611ed582611da5565b611edf8185611db0565b935083602082028501611ef185611dc1565b8060005b85811015611f2d5784840389528151611f0e8582611ea9565b9450611f1983611ebd565b925060208a01995050600181019050611ef5565b50829750879550505050505092915050565b60006020820190508181036000830152611f598184611eca565b905092915050565b611f6a81611df1565b82525050565b6000602082019050611f856000830184611f61565b92915050565b600060208284031215611fa157611fa06117d0565b5b6000611faf84828501611979565b91505092915050565b600080600060608486031215611fd157611fd06117d0565b5b600084013567ffffffffffffffff811115611fef57611fee6117d5565b5b611ffb868287016118e1565b935050602084013567ffffffffffffffff81111561201c5761201b6117d5565b5b612028868287016118e1565b925050604061203986828701611979565b9150509250925092565b600067ffffffffffffffff82111561205e5761205d6117e4565b5b602082029050602081019050919050565b600061208261207d84612043565b611844565b905080838252602082019050602084028301858111156120a5576120a4611c8f565b5b835b818110156120ec57803567ffffffffffffffff8111156120ca576120c96117da565b5b8086016120d78982611d1b565b855260208501945050506020810190506120a7565b5050509392505050565b600082601f83011261210b5761210a6117da565b5b813561211b84826020860161206f565b91505092915050565b600067ffffffffffffffff82111561213f5761213e6117e4565b5b602082029050602081019050919050565b600061216361215e84612124565b611844565b9050808382526020820190506020840283018581111561218657612185611c8f565b5b835b818110156121af578061219b8882611979565b845260208401935050602081019050612188565b5050509392505050565b600082601f8301126121ce576121cd6117da565b5b81356121de848260208601612150565b91505092915050565b600080604083850312156121fe576121fd6117d0565b5b600083013567ffffffffffffffff81111561221c5761221b6117d5565b5b612228858286016120f6565b925050602083013567ffffffffffffffff811115612249576122486117d5565b5b612255858286016121b9565b9150509250929050565b7f4e487b7100000000000000000000000000000000000000000000000000000000600052602260045260246000fd5b600060028204905060018216806122a657607f821691505b6020821081036122b9576122b861225f565b5b50919050565b60008190508160005260206000209050919050565b60006020601f8301049050919050565b600082821b905092915050565b6000600883026123217fffffffffffffffffffffffffffffffffffffffffffffffffffffffffffffffff826122e4565b61232b86836122e4565b95508019841693508086168417925050509392505050565b6000819050919050565b600061236861236361235e84611958565b612343565b611958565b9050919050565b6000819050919050565b6123828361234d565b61239661238e8261236f565b8484546122f1565b825550505050565b600090565b6123ab61239e565b6123b6818484612379565b505050565b5b818110156123da576123cf6000826123a3565b6001810190506123bc565b5050565b601f82111561241f576123f0816122bf565b6123f9846122d4565b81016020851015612408578190505b61241c612414856122d4565b8301826123bb565b50505b505050565b600082821c905092915050565b600061244260001984600802612424565b1980831691505092915050565b600061245b8383612431565b9150826002028217905092915050565b61247482611714565b67ffffffffffffffff81111561248d5761248c6117e4565b5b612497825461228e565b6124a28282856123de565b600060209050601f8311600181146124d557600084156124c3578287015190505b6124cd858261244f565b865550612535565b601f1984166124e3866122bf565b60005b8281101561250b578489015182556001820191506020850194506020810190506124e6565b868310156125285784890151612524601f891682612431565b8355505b6001600288020188555050505b505050505050565b7f4e487b7100000000000000000000000000000000000000000000000000000000600052603260045260246000fd5b7f4e487b7100000000000000000000000000000000000000000000000000000000600052601160045260246000fd5b60006125a682611958565b91507fffffffffffffffffffffffffffffffffffffffffffffffffffffffffffffffff82036125d8576125d761256c565b5b600182019050919050565b60006125ee82611958565b91506125f983611958565b92508282039050818111156126115761261061256c565b5b92915050565b7f4e487b7100000000000000000000000000000000000000000000000000000000600052603160045260246000fd5b60006060820190508181036000830152612660818661176b565b90508181036020830152612674818561176b565b905061268360408301846119ea565b949350505050565b60008154905061269a8161228e565b9050919050565b8181036126af575050612787565b6126b88261268b565b67ffffffffffffffff8111156126d1576126d06117e4565b5b6126db825461228e565b6126e68282856123de565b6000601f8311600181146127155760008415612703578287015490505b61270d858261244f565b865550612780565b601f198416612723876122bf565b965061272e866122bf565b60005b8281101561275657848901548255600182019150600185019450602081019050612731565b86831015612773578489015461276f601f891682612431565b8355505b6001600288020188555050505b5050505050505b56fea26469706673582212209cb7e9188ce1f3914915f5463499c049cbf651723732ac589e63b5e049d06b1464736f6c63430008110033",
   "linkReferences": {},
   "deployedLinkReferences": {}
}