{
   "_format": "hh-sol-artifact-1",
   "contractName": "BuyMeACoffee",
   "sourceName": "contracts/BuyMeACoffee.sol",
   "abi": [
      {
         "inputs": [
            {
               "internalType": "string",
               "name": "_name",
               "type": "string"
            },
            {
               "internalType": "string",
               "name": "_description",
               "type": "string"
            },
            {
               "internalType": "string",
               "name": "_profile",
               "type": "string"
            },
            {
               "internalType": "string",
               "name": "_thumbnail",
               "type": "string"
            },
            {
               "internalType": "string[][]",
               "name": "_items",
               "type": "string[][]"
            },
            {
               "internalType": "uint256[]",
               "name": "_itemsValues",
               "type": "uint256[]"
            },
            {
               "internalType": "address",
               "name": "_owner",
               "type": "address"
            }
         ],
         "stateMutability": "nonpayable",
         "type": "constructor"
      },
      {
         "inputs": [],
         "name": "BuyMeACoffee__NotEnoughEthSend",
         "type": "error"
      },
      {
         "inputs": [],
         "name": "BuyMeACoffee__NotOwner",
         "type": "error"
      },
      {
         "anonymous": false,
         "inputs": [
            {
               "indexed": true,
               "internalType": "uint256",
               "name": "items_id",
               "type": "uint256"
            }
         ],
         "name": "AddedItems",
         "type": "event"
      },
      {
         "anonymous": false,
         "inputs": [
            {
               "indexed": true,
               "internalType": "uint256",
               "name": "timestamp",
               "type": "uint256"
            },
            {
               "indexed": false,
               "internalType": "string",
               "name": "name",
               "type": "string"
            },
            {
               "indexed": false,
               "internalType": "string",
               "name": "message",
               "type": "string"
            },
            {
               "indexed": false,
               "internalType": "uint256",
               "name": "items_id",
               "type": "uint256"
            }
         ],
         "name": "MemoCreated",
         "type": "event"
      },
      {
         "anonymous": false,
         "inputs": [
            {
               "indexed": true,
               "internalType": "uint256",
               "name": "timestamp",
               "type": "uint256"
            },
            {
               "indexed": true,
               "internalType": "string",
               "name": "response",
               "type": "string"
            }
         ],
         "name": "MemoResponse",
         "type": "event"
      },
      {
         "inputs": [
            {
               "internalType": "string[]",
               "name": "names",
               "type": "string[]"
            },
            {
               "internalType": "uint256",
               "name": "cost",
               "type": "uint256"
            }
         ],
         "name": "addItems",
         "outputs": [],
         "stateMutability": "nonpayable",
         "type": "function"
      },
      {
         "inputs": [
            {
               "internalType": "string[][]",
               "name": "_items",
               "type": "string[][]"
            },
            {
               "internalType": "uint256[]",
               "name": "_itemsValues",
               "type": "uint256[]"
            }
         ],
         "name": "formatItems",
         "outputs": [],
         "stateMutability": "nonpayable",
         "type": "function"
      },
      {
         "inputs": [],
         "name": "getDescription",
         "outputs": [
            {
               "internalType": "string",
               "name": "",
               "type": "string"
            }
         ],
         "stateMutability": "view",
         "type": "function"
      },
      {
         "inputs": [],
         "name": "getItemsCount",
         "outputs": [
            {
               "internalType": "uint256",
               "name": "",
               "type": "uint256"
            }
         ],
         "stateMutability": "view",
         "type": "function"
      },
      {
         "inputs": [],
         "name": "getListOfItems",
         "outputs": [
            {
               "components": [
                  {
                     "internalType": "string[]",
                     "name": "names",
                     "type": "string[]"
                  },
                  {
                     "internalType": "uint256",
                     "name": "cost",
                     "type": "uint256"
                  },
                  {
                     "internalType": "uint256",
                     "name": "id",
                     "type": "uint256"
                  }
               ],
               "internalType": "struct BuyMeACoffee.Items[]",
               "name": "",
               "type": "tuple[]"
            }
         ],
         "stateMutability": "view",
         "type": "function"
      },
      {
         "inputs": [],
         "name": "getMemos",
         "outputs": [
            {
               "components": [
                  {
                     "internalType": "address",
                     "name": "from",
                     "type": "address"
                  },
                  {
                     "internalType": "uint256",
                     "name": "timestamp",
                     "type": "uint256"
                  },
                  {
                     "internalType": "string",
                     "name": "name",
                     "type": "string"
                  },
                  {
                     "internalType": "string",
                     "name": "message",
                     "type": "string"
                  },
                  {
                     "internalType": "string",
                     "name": "response",
                     "type": "string"
                  },
                  {
                     "internalType": "uint256",
                     "name": "items_id",
                     "type": "uint256"
                  }
               ],
               "internalType": "struct BuyMeACoffee.Memo[]",
               "name": "",
               "type": "tuple[]"
            }
         ],
         "stateMutability": "view",
         "type": "function"
      },
      {
         "inputs": [],
         "name": "getName",
         "outputs": [
            {
               "internalType": "string",
               "name": "",
               "type": "string"
            }
         ],
         "stateMutability": "view",
         "type": "function"
      },
      {
         "inputs": [],
         "name": "getOwner",
         "outputs": [
            {
               "internalType": "address",
               "name": "",
               "type": "address"
            }
         ],
         "stateMutability": "view",
         "type": "function"
      },
      {
         "inputs": [],
         "name": "getProfile",
         "outputs": [
            {
               "internalType": "string",
               "name": "",
               "type": "string"
            }
         ],
         "stateMutability": "view",
         "type": "function"
      },
      {
         "inputs": [],
         "name": "getThumbnail",
         "outputs": [
            {
               "internalType": "string",
               "name": "",
               "type": "string"
            }
         ],
         "stateMutability": "view",
         "type": "function"
      },
      {
         "inputs": [
            {
               "internalType": "uint256",
               "name": "_id",
               "type": "uint256"
            }
         ],
         "name": "removeItems",
         "outputs": [],
         "stateMutability": "nonpayable",
         "type": "function"
      },
      {
         "inputs": [
            {
               "internalType": "string",
               "name": "_description",
               "type": "string"
            }
         ],
         "name": "setDescription",
         "outputs": [],
         "stateMutability": "nonpayable",
         "type": "function"
      },
      {
         "inputs": [
            {
               "internalType": "string",
               "name": "_name",
               "type": "string"
            }
         ],
         "name": "setName",
         "outputs": [],
         "stateMutability": "nonpayable",
         "type": "function"
      },
      {
         "inputs": [
            {
               "internalType": "string",
               "name": "_profile",
               "type": "string"
            }
         ],
         "name": "setProfile",
         "outputs": [],
         "stateMutability": "nonpayable",
         "type": "function"
      },
      {
         "inputs": [
            {
               "internalType": "uint256",
               "name": "index",
               "type": "uint256"
            },
            {
               "internalType": "string",
               "name": "response",
               "type": "string"
            }
         ],
         "name": "setResponse",
         "outputs": [],
         "stateMutability": "nonpayable",
         "type": "function"
      },
      {
         "inputs": [
            {
               "internalType": "string",
               "name": "_thumbnail",
               "type": "string"
            }
         ],
         "name": "setThumbnail",
         "outputs": [],
         "stateMutability": "nonpayable",
         "type": "function"
      },
      {
         "inputs": [
            {
               "internalType": "string",
               "name": "_name",
               "type": "string"
            },
            {
               "internalType": "string",
               "name": "_message",
               "type": "string"
            },
            {
               "internalType": "uint256",
               "name": "_itemsId",
               "type": "uint256"
            }
         ],
         "name": "storeMemo",
         "outputs": [],
         "stateMutability": "payable",
         "type": "function"
      },
      {
         "inputs": [
            {
               "internalType": "string",
               "name": "_name",
               "type": "string"
            },
            {
               "internalType": "string",
               "name": "_description",
               "type": "string"
            },
            {
               "internalType": "string",
               "name": "_profile",
               "type": "string"
            },
            {
               "internalType": "string",
               "name": "_thumbnail",
               "type": "string"
            },
            {
               "internalType": "string[][]",
               "name": "_items",
               "type": "string[][]"
            },
            {
               "internalType": "uint256[]",
               "name": "_itemsValues",
               "type": "uint256[]"
            },
            {
               "internalType": "uint256[]",
               "name": "_deletedItems",
               "type": "uint256[]"
            }
         ],
         "name": "update",
         "outputs": [],
         "stateMutability": "nonpayable",
         "type": "function"
      },
      {
         "inputs": [],
         "name": "withdraw",
         "outputs": [],
         "stateMutability": "nonpayable",
         "type": "function"
      }
   ],
   "bytecode": "0x608060405260006003553480156200001657600080fd5b50604051620038aa380380620038aa83398181016040528101906200003c91906200084e565b86600490816200004d919062000bfc565b5085600790816200005f919062000bfc565b50846005908162000071919062000bfc565b50836006908162000083919062000bfc565b5080600260006101000a81548173ffffffffffffffffffffffffffffffffffffffff021916908373ffffffffffffffffffffffffffffffffffffffff160217905550620000d78383620000e460201b60201c565b5050505050505062000d8e565b6000815167ffffffffffffffff81111562000104576200010362000381565b5b6040519080825280602002602001820160405280156200014157816020015b6200012d62000244565b815260200190600190039081620001235790505b50905060005b81518110156200023e576000604051806060016040528086848151811062000174576200017362000ce3565b5b6020026020010151815260200185848151811062000197576200019662000ce3565b5b60200260200101518152602001600354815250905060018190806001815401808255809150506001900390600052602060002090600302016000909190919091506000820151816000019080519060200190620001f692919062000265565b506020820151816001015560408201518160020155505060036000815480929190620002229062000d41565b9190505550508080620002359062000d41565b91505062000147565b50505050565b60405180606001604052806060815260200160008152602001600081525090565b828054828255906000526020600020908101928215620002b2579160200282015b82811115620002b1578251829081620002a0919062000bfc565b509160200191906001019062000286565b5b509050620002c19190620002c5565b5090565b5b80821115620002e95760008181620002df9190620002ed565b50600101620002c6565b5090565b508054620002fb90620009f5565b6000825580601f106200030f575062000330565b601f0160209004906000526020600020908101906200032f919062000333565b5b50565b5b808211156200034e57600081600090555060010162000334565b5090565b6000604051905090565b600080fd5b600080fd5b600080fd5b600080fd5b6000601f19601f8301169050919050565b7f4e487b7100000000000000000000000000000000000000000000000000000000600052604160045260246000fd5b620003bb8262000370565b810181811067ffffffffffffffff82111715620003dd57620003dc62000381565b5b80604052505050565b6000620003f262000352565b9050620004008282620003b0565b919050565b600067ffffffffffffffff82111562000423576200042262000381565b5b6200042e8262000370565b9050602081019050919050565b60005b838110156200045b5780820151818401526020810190506200043e565b60008484015250505050565b60006200047e620004788462000405565b620003e6565b9050828152602081018484840111156200049d576200049c6200036b565b5b620004aa8482856200043b565b509392505050565b600082601f830112620004ca57620004c962000366565b5b8151620004dc84826020860162000467565b91505092915050565b600067ffffffffffffffff82111562000503576200050262000381565b5b602082029050602081019050919050565b600080fd5b600067ffffffffffffffff82111562000537576200053662000381565b5b602082029050602081019050919050565b60006200055f620005598462000519565b620003e6565b9050808382526020820190506020840283018581111562000585576200058462000514565b5b835b81811015620005d357805167ffffffffffffffff811115620005ae57620005ad62000366565b5b808601620005bd8982620004b2565b8552602085019450505060208101905062000587565b5050509392505050565b600082601f830112620005f557620005f462000366565b5b81516200060784826020860162000548565b91505092915050565b6000620006276200062184620004e5565b620003e6565b905080838252602082019050602084028301858111156200064d576200064c62000514565b5b835b818110156200069b57805167ffffffffffffffff81111562000676576200067562000366565b5b808601620006858982620005dd565b855260208501945050506020810190506200064f565b5050509392505050565b600082601f830112620006bd57620006bc62000366565b5b8151620006cf84826020860162000610565b91505092915050565b600067ffffffffffffffff821115620006f657620006f562000381565b5b602082029050602081019050919050565b6000819050919050565b6200071c8162000707565b81146200072857600080fd5b50565b6000815190506200073c8162000711565b92915050565b6000620007596200075384620006d8565b620003e6565b905080838252602082019050602084028301858111156200077f576200077e62000514565b5b835b81811015620007ac57806200079788826200072b565b84526020840193505060208101905062000781565b5050509392505050565b600082601f830112620007ce57620007cd62000366565b5b8151620007e084826020860162000742565b91505092915050565b600073ffffffffffffffffffffffffffffffffffffffff82169050919050565b60006200081682620007e9565b9050919050565b620008288162000809565b81146200083457600080fd5b50565b60008151905062000848816200081d565b92915050565b600080600080600080600060e0888a03121562000870576200086f6200035c565b5b600088015167ffffffffffffffff81111562000891576200089062000361565b5b6200089f8a828b01620004b2565b975050602088015167ffffffffffffffff811115620008c357620008c262000361565b5b620008d18a828b01620004b2565b965050604088015167ffffffffffffffff811115620008f557620008f462000361565b5b620009038a828b01620004b2565b955050606088015167ffffffffffffffff81111562000927576200092662000361565b5b620009358a828b01620004b2565b945050608088015167ffffffffffffffff81111562000959576200095862000361565b5b620009678a828b01620006a5565b93505060a088015167ffffffffffffffff8111156200098b576200098a62000361565b5b620009998a828b01620007b6565b92505060c0620009ac8a828b0162000837565b91505092959891949750929550565b600081519050919050565b7f4e487b7100000000000000000000000000000000000000000000000000000000600052602260045260246000fd5b6000600282049050600182168062000a0e57607f821691505b60208210810362000a245762000a23620009c6565b5b50919050565b60008190508160005260206000209050919050565b60006020601f8301049050919050565b600082821b905092915050565b60006008830262000a8e7fffffffffffffffffffffffffffffffffffffffffffffffffffffffffffffffff8262000a4f565b62000a9a868362000a4f565b95508019841693508086168417925050509392505050565b6000819050919050565b600062000add62000ad762000ad18462000707565b62000ab2565b62000707565b9050919050565b6000819050919050565b62000af98362000abc565b62000b1162000b088262000ae4565b84845462000a5c565b825550505050565b600090565b62000b2862000b19565b62000b3581848462000aee565b505050565b5b8181101562000b5d5762000b5160008262000b1e565b60018101905062000b3b565b5050565b601f82111562000bac5762000b768162000a2a565b62000b818462000a3f565b8101602085101562000b91578190505b62000ba962000ba08562000a3f565b83018262000b3a565b50505b505050565b600082821c905092915050565b600062000bd16000198460080262000bb1565b1980831691505092915050565b600062000bec838362000bbe565b9150826002028217905092915050565b62000c0782620009bb565b67ffffffffffffffff81111562000c235762000c2262000381565b5b62000c2f8254620009f5565b62000c3c82828562000b61565b600060209050601f83116001811462000c74576000841562000c5f578287015190505b62000c6b858262000bde565b86555062000cdb565b601f19841662000c848662000a2a565b60005b8281101562000cae5784890151825560018201915060208501945060208101905062000c87565b8683101562000cce578489015162000cca601f89168262000bbe565b8355505b6001600288020188555050505b505050505050565b7f4e487b7100000000000000000000000000000000000000000000000000000000600052603260045260246000fd5b7f4e487b7100000000000000000000000000000000000000000000000000000000600052601160045260246000fd5b600062000d4e8262000707565b91507fffffffffffffffffffffffffffffffffffffffffffffffffffffffffffffffff820362000d835762000d8262000d12565b5b600182019050919050565b612b0c8062000d9e6000396000f3fe6080604052600436106101145760003560e01c8063865c5172116100a0578063d6afc9b111610064578063d6afc9b114610351578063da14bde31461037c578063dbfc2c12146103a5578063e1d74083146103ce578063e9c0d98c146103f957610114565b8063865c517214610280578063893d20e8146102ab57806390c3f38f146102d6578063989cf688146102ff578063c47f00271461032857610114565b80633ccfd60b116100e75780633ccfd60b146101c157806348168a16146101d8578063512dd02014610201578063594d9e631461022c5780637d44ba781461025757610114565b806317d7de7c146101195780631a092541146101445780631d07f1fb1461016f578063235b37b114610198575b600080fd5b34801561012557600080fd5b5061012e610415565b60405161013b9190611938565b60405180910390f35b34801561015057600080fd5b506101596104a7565b6040516101669190611938565b60405180910390f35b34801561017b57600080fd5b5061019660048036038101906101919190611d63565b610539565b005b3480156101a457600080fd5b506101bf60048036038101906101ba9190611ddb565b610684565b005b3480156101cd57600080fd5b506101d661071e565b005b3480156101e457600080fd5b506101ff60048036038101906101fa9190611e24565b610810565b005b34801561020d57600080fd5b5061021661092d565b6040516102239190611f99565b60405180910390f35b34801561023857600080fd5b50610241610937565b60405161024e91906121e1565b60405180910390f35b34801561026357600080fd5b5061027e60048036038101906102799190612203565b610a83565b005b34801561028c57600080fd5b50610295610bd6565b6040516102a291906123f9565b60405180910390f35b3480156102b757600080fd5b506102c0610e55565b6040516102cd919061242a565b60405180910390f35b3480156102e257600080fd5b506102fd60048036038101906102f89190611ddb565b610e7f565b005b34801561030b57600080fd5b5061032660048036038101906103219190612445565b610f19565b005b34801561033457600080fd5b5061034f600480360381019061034a9190611ddb565b61101f565b005b34801561035d57600080fd5b506103666110b9565b6040516103739190611938565b60405180910390f35b34801561038857600080fd5b506103a3600480360381019061039e91906124a1565b61114b565b005b3480156103b157600080fd5b506103cc60048036038101906103c79190611ddb565b6112f2565b005b3480156103da57600080fd5b506103e361138c565b6040516103f09190611938565b60405180910390f35b610413600480360381019061040e91906124ce565b61141e565b005b60606004805461042490612588565b80601f016020809104026020016040519081016040528092919081815260200182805461045090612588565b801561049d5780601f106104725761010080835404028352916020019161049d565b820191906000526020600020905b81548152906001019060200180831161048057829003601f168201915b5050505050905090565b6060600780546104b690612588565b80601f01602080910402602001604051908101604052809291908181526020018280546104e290612588565b801561052f5780601f106105045761010080835404028352916020019161052f565b820191906000526020600020905b81548152906001019060200180831161051257829003601f168201915b5050505050905090565b6000815167ffffffffffffffff81111561055657610555611973565b5b60405190808252806020026020018201604052801561058f57816020015b61057c61172f565b8152602001906001900390816105745790505b50905060005b815181101561067e57600060405180606001604052808684815181106105be576105bd6125b9565b5b602002602001015181526020018584815181106105de576105dd6125b9565b5b6020026020010151815260200160035481525090506001819080600181540180825580915050600190039060005260206000209060030201600090919091909150600082015181600001908051906020019061063b929190611750565b50602082015181600101556040820151816002015550506003600081548092919061066590612617565b919050555050808061067690612617565b915050610595565b50505050565b600260009054906101000a900473ffffffffffffffffffffffffffffffffffffffff1673ffffffffffffffffffffffffffffffffffffffff163373ffffffffffffffffffffffffffffffffffffffff161461070b576040517f1022f53800000000000000000000000000000000000000000000000000000000815260040160405180910390fd5b806005908161071a919061280b565b5050565b600260009054906101000a900473ffffffffffffffffffffffffffffffffffffffff1673ffffffffffffffffffffffffffffffffffffffff163373ffffffffffffffffffffffffffffffffffffffff16146107a5576040517f1022f53800000000000000000000000000000000000000000000000000000000815260040160405180910390fd5b600260009054906101000a900473ffffffffffffffffffffffffffffffffffffffff1673ffffffffffffffffffffffffffffffffffffffff166108fc479081150290604051600060405180830381858888f1935050505015801561080d573d6000803e3d6000fd5b50565b600260009054906101000a900473ffffffffffffffffffffffffffffffffffffffff1673ffffffffffffffffffffffffffffffffffffffff163373ffffffffffffffffffffffffffffffffffffffff1614610897576040517f1022f53800000000000000000000000000000000000000000000000000000000815260040160405180910390fd5b6108a18383610539565b86600490816108b0919061280b565b5085600790816108c0919061280b565b5084600590816108d0919061280b565b5083600690816108e0919061280b565b5060005b815181101561092357610910828281518110610903576109026125b9565b5b602002602001015161114b565b808061091b90612617565b9150506108e4565b5050505050505050565b6000600354905090565b60606001805480602002602001604051908101604052809291908181526020016000905b82821015610a7a578382906000526020600020906003020160405180606001604052908160008201805480602002602001604051908101604052809291908181526020016000905b82821015610a4f5783829060005260206000200180546109c290612588565b80601f01602080910402602001604051908101604052809291908181526020018280546109ee90612588565b8015610a3b5780601f10610a1057610100808354040283529160200191610a3b565b820191906000526020600020905b815481529060010190602001808311610a1e57829003601f168201915b5050505050815260200190600101906109a3565b505050508152602001600182015481526020016002820154815250508152602001906001019061095b565b50505050905090565b600260009054906101000a900473ffffffffffffffffffffffffffffffffffffffff1673ffffffffffffffffffffffffffffffffffffffff163373ffffffffffffffffffffffffffffffffffffffff1614610b0a576040517f1022f53800000000000000000000000000000000000000000000000000000000815260040160405180910390fd5b60006040518060600160405280848152602001838152602001600354815250905060018190806001815401808255809150506001900390600052602060002090600302016000909190919091506000820151816000019080519060200190610b73929190611750565b50602082015181600101556040820151816002015550506003547fa5dbb7adb15a05f8df3bdfc06617a63f39825dd0c4d2f0615c5134d1d3301b3660405160405180910390a260036000815480929190610bcc90612617565b9190505550505050565b60606000805480602002602001604051908101604052809291908181526020016000905b82821015610e4c57838290600052602060002090600602016040518060c00160405290816000820160009054906101000a900473ffffffffffffffffffffffffffffffffffffffff1673ffffffffffffffffffffffffffffffffffffffff1673ffffffffffffffffffffffffffffffffffffffff16815260200160018201548152602001600282018054610c8d90612588565b80601f0160208091040260200160405190810160405280929190818152602001828054610cb990612588565b8015610d065780601f10610cdb57610100808354040283529160200191610d06565b820191906000526020600020905b815481529060010190602001808311610ce957829003601f168201915b50505050508152602001600382018054610d1f90612588565b80601f0160208091040260200160405190810160405280929190818152602001828054610d4b90612588565b8015610d985780601f10610d6d57610100808354040283529160200191610d98565b820191906000526020600020905b815481529060010190602001808311610d7b57829003601f168201915b50505050508152602001600482018054610db190612588565b80601f0160208091040260200160405190810160405280929190818152602001828054610ddd90612588565b8015610e2a5780601f10610dff57610100808354040283529160200191610e2a565b820191906000526020600020905b815481529060010190602001808311610e0d57829003601f168201915b5050505050815260200160058201548152505081526020019060010190610bfa565b50505050905090565b6000600260009054906101000a900473ffffffffffffffffffffffffffffffffffffffff16905090565b600260009054906101000a900473ffffffffffffffffffffffffffffffffffffffff1673ffffffffffffffffffffffffffffffffffffffff163373ffffffffffffffffffffffffffffffffffffffff1614610f06576040517f1022f53800000000000000000000000000000000000000000000000000000000815260040160405180910390fd5b8060079081610f15919061280b565b5050565b600260009054906101000a900473ffffffffffffffffffffffffffffffffffffffff1673ffffffffffffffffffffffffffffffffffffffff163373ffffffffffffffffffffffffffffffffffffffff1614610fa0576040517f1022f53800000000000000000000000000000000000000000000000000000000815260040160405180910390fd5b6000808381548110610fb557610fb46125b9565b5b9060005260206000209060060201905081816004019081610fd6919061280b565b5081604051610fe59190612919565b6040518091039020427f8eece9ee17f7ce4a77eb6329ef9050e2a6286692c80a7e44f776c6d74146ace560405160405180910390a3505050565b600260009054906101000a900473ffffffffffffffffffffffffffffffffffffffff1673ffffffffffffffffffffffffffffffffffffffff163373ffffffffffffffffffffffffffffffffffffffff16146110a6576040517f1022f53800000000000000000000000000000000000000000000000000000000815260040160405180910390fd5b80600490816110b5919061280b565b5050565b6060600580546110c890612588565b80601f01602080910402602001604051908101604052809291908181526020018280546110f490612588565b80156111415780601f1061111657610100808354040283529160200191611141565b820191906000526020600020905b81548152906001019060200180831161112457829003601f168201915b5050505050905090565b600260009054906101000a900473ffffffffffffffffffffffffffffffffffffffff1673ffffffffffffffffffffffffffffffffffffffff163373ffffffffffffffffffffffffffffffffffffffff16146111d2576040517f1022f53800000000000000000000000000000000000000000000000000000000815260040160405180910390fd5b60005b6001805490508110156112ee5781600182815481106111f7576111f66125b9565b5b906000526020600020906003020160020154036112db5760018080805490506112209190612930565b81548110611231576112306125b9565b5b906000526020600020906003020160018281548110611253576112526125b9565b5b906000526020600020906003020160008201816000019080546112779291906117a9565b50600182015481600101556002820154816002015590505060018054806112a1576112a0612964565b5b6001900381819060005260206000209060030201600080820160006112c69190611806565b60018201600090556002820160009055505090555b80806112e690612617565b9150506111d5565b5050565b600260009054906101000a900473ffffffffffffffffffffffffffffffffffffffff1673ffffffffffffffffffffffffffffffffffffffff163373ffffffffffffffffffffffffffffffffffffffff1614611379576040517f1022f53800000000000000000000000000000000000000000000000000000000815260040160405180910390fd5b8060069081611388919061280b565b5050565b60606006805461139b90612588565b80601f01602080910402602001604051908101604052809291908181526020018280546113c790612588565b80156114145780601f106113e957610100808354040283529160200191611414565b820191906000526020600020905b8154815290600101906020018083116113f757829003601f168201915b5050505050905090565b61142661172f565b60005b60018054905081101561159257826001828154811061144b5761144a6125b9565b5b9060005260206000209060030201600201540361157f5760018181548110611476576114756125b9565b5b906000526020600020906003020160405180606001604052908160008201805480602002602001604051908101604052809291908181526020016000905b828210156115605783829060005260206000200180546114d390612588565b80601f01602080910402602001604051908101604052809291908181526020018280546114ff90612588565b801561154c5780601f106115215761010080835404028352916020019161154c565b820191906000526020600020905b81548152906001019060200180831161152f57829003601f168201915b5050505050815260200190600101906114b4565b5050505081526020016001820154815260200160028201548152505091505b808061158a90612617565b915050611429565b5080602001513410156115d1576040517ff1b7411900000000000000000000000000000000000000000000000000000000815260040160405180910390fd5b60006040518060c001604052803373ffffffffffffffffffffffffffffffffffffffff16815260200142815260200186815260200185815260200160405180602001604052806000815250815260200184815250908060018154018082558091505060019003906000526020600020906006020160009091909190915060008201518160000160006101000a81548173ffffffffffffffffffffffffffffffffffffffff021916908373ffffffffffffffffffffffffffffffffffffffff1602179055506020820151816001015560408201518160020190816116b4919061280b565b5060608201518160030190816116ca919061280b565b5060808201518160040190816116e0919061280b565b5060a082015181600501555050427f1cfb7901bbb0acf7f618d0389fdda4a852e9de1abe2b641bf9e6f40ace3a44ad85858560405161172193929190612993565b60405180910390a250505050565b60405180606001604052806060815260200160008152602001600081525090565b828054828255906000526020600020908101928215611798579160200282015b82811115611797578251829081611787919061280b565b5091602001919060010190611770565b5b5090506117a59190611827565b5090565b8280548282559060005260206000209081019282156117f55760005260206000209182015b828111156117f457828290816117e491906129ee565b50916001019190600101906117ce565b5b5090506118029190611827565b5090565b50805460008255906000526020600020908101906118249190611827565b50565b5b80821115611847576000818161183e919061184b565b50600101611828565b5090565b50805461185790612588565b6000825580601f106118695750611888565b601f016020900490600052602060002090810190611887919061188b565b5b50565b5b808211156118a457600081600090555060010161188c565b5090565b600081519050919050565b600082825260208201905092915050565b60005b838110156118e25780820151818401526020810190506118c7565b60008484015250505050565b6000601f19601f8301169050919050565b600061190a826118a8565b61191481856118b3565b93506119248185602086016118c4565b61192d816118ee565b840191505092915050565b6000602082019050818103600083015261195281846118ff565b905092915050565b6000604051905090565b600080fd5b600080fd5b600080fd5b7f4e487b7100000000000000000000000000000000000000000000000000000000600052604160045260246000fd5b6119ab826118ee565b810181811067ffffffffffffffff821117156119ca576119c9611973565b5b80604052505050565b60006119dd61195a565b90506119e982826119a2565b919050565b600067ffffffffffffffff821115611a0957611a08611973565b5b602082029050602081019050919050565b600080fd5b600067ffffffffffffffff821115611a3a57611a39611973565b5b602082029050602081019050919050565b600080fd5b600067ffffffffffffffff821115611a6b57611a6a611973565b5b611a74826118ee565b9050602081019050919050565b82818337600083830152505050565b6000611aa3611a9e84611a50565b6119d3565b905082815260208101848484011115611abf57611abe611a4b565b5b611aca848285611a81565b509392505050565b600082601f830112611ae757611ae661196e565b5b8135611af7848260208601611a90565b91505092915050565b6000611b13611b0e84611a1f565b6119d3565b90508083825260208201905060208402830185811115611b3657611b35611a1a565b5b835b81811015611b7d57803567ffffffffffffffff811115611b5b57611b5a61196e565b5b808601611b688982611ad2565b85526020850194505050602081019050611b38565b5050509392505050565b600082601f830112611b9c57611b9b61196e565b5b8135611bac848260208601611b00565b91505092915050565b6000611bc8611bc3846119ee565b6119d3565b90508083825260208201905060208402830185811115611beb57611bea611a1a565b5b835b81811015611c3257803567ffffffffffffffff811115611c1057611c0f61196e565b5b808601611c1d8982611b87565b85526020850194505050602081019050611bed565b5050509392505050565b600082601f830112611c5157611c5061196e565b5b8135611c61848260208601611bb5565b91505092915050565b600067ffffffffffffffff821115611c8557611c84611973565b5b602082029050602081019050919050565b6000819050919050565b611ca981611c96565b8114611cb457600080fd5b50565b600081359050611cc681611ca0565b92915050565b6000611cdf611cda84611c6a565b6119d3565b90508083825260208201905060208402830185811115611d0257611d01611a1a565b5b835b81811015611d2b5780611d178882611cb7565b845260208401935050602081019050611d04565b5050509392505050565b600082601f830112611d4a57611d4961196e565b5b8135611d5a848260208601611ccc565b91505092915050565b60008060408385031215611d7a57611d79611964565b5b600083013567ffffffffffffffff811115611d9857611d97611969565b5b611da485828601611c3c565b925050602083013567ffffffffffffffff811115611dc557611dc4611969565b5b611dd185828601611d35565b9150509250929050565b600060208284031215611df157611df0611964565b5b600082013567ffffffffffffffff811115611e0f57611e0e611969565b5b611e1b84828501611ad2565b91505092915050565b600080600080600080600060e0888a031215611e4357611e42611964565b5b600088013567ffffffffffffffff811115611e6157611e60611969565b5b611e6d8a828b01611ad2565b975050602088013567ffffffffffffffff811115611e8e57611e8d611969565b5b611e9a8a828b01611ad2565b965050604088013567ffffffffffffffff811115611ebb57611eba611969565b5b611ec78a828b01611ad2565b955050606088013567ffffffffffffffff811115611ee857611ee7611969565b5b611ef48a828b01611ad2565b945050608088013567ffffffffffffffff811115611f1557611f14611969565b5b611f218a828b01611c3c565b93505060a088013567ffffffffffffffff811115611f4257611f41611969565b5b611f4e8a828b01611d35565b92505060c088013567ffffffffffffffff811115611f6f57611f6e611969565b5b611f7b8a828b01611d35565b91505092959891949750929550565b611f9381611c96565b82525050565b6000602082019050611fae6000830184611f8a565b92915050565b600081519050919050565b600082825260208201905092915050565b6000819050602082019050919050565b600081519050919050565b600082825260208201905092915050565b6000819050602082019050919050565b600082825260208201905092915050565b6000612028826118a8565b612032818561200c565b93506120428185602086016118c4565b61204b816118ee565b840191505092915050565b6000612062838361201d565b905092915050565b6000602082019050919050565b600061208282611fe0565b61208c8185611feb565b93508360208202850161209e85611ffc565b8060005b858110156120da57848403895281516120bb8582612056565b94506120c68361206a565b925060208a019950506001810190506120a2565b50829750879550505050505092915050565b6120f581611c96565b82525050565b600060608301600083015184820360008601526121188282612077565b915050602083015161212d60208601826120ec565b50604083015161214060408601826120ec565b508091505092915050565b600061215783836120fb565b905092915050565b6000602082019050919050565b600061217782611fb4565b6121818185611fbf565b93508360208202850161219385611fd0565b8060005b858110156121cf57848403895281516121b0858261214b565b94506121bb8361215f565b925060208a01995050600181019050612197565b50829750879550505050505092915050565b600060208201905081810360008301526121fb818461216c565b905092915050565b6000806040838503121561221a57612219611964565b5b600083013567ffffffffffffffff81111561223857612237611969565b5b61224485828601611b87565b925050602061225585828601611cb7565b9150509250929050565b600081519050919050565b600082825260208201905092915050565b6000819050602082019050919050565b600073ffffffffffffffffffffffffffffffffffffffff82169050919050565b60006122b68261228b565b9050919050565b6122c6816122ab565b82525050565b600060c0830160008301516122e460008601826122bd565b5060208301516122f760208601826120ec565b506040830151848203604086015261230f828261201d565b91505060608301518482036060860152612329828261201d565b91505060808301518482036080860152612343828261201d565b91505060a083015161235860a08601826120ec565b508091505092915050565b600061236f83836122cc565b905092915050565b6000602082019050919050565b600061238f8261225f565b612399818561226a565b9350836020820285016123ab8561227b565b8060005b858110156123e757848403895281516123c88582612363565b94506123d383612377565b925060208a019950506001810190506123af565b50829750879550505050505092915050565b600060208201905081810360008301526124138184612384565b905092915050565b612424816122ab565b82525050565b600060208201905061243f600083018461241b565b92915050565b6000806040838503121561245c5761245b611964565b5b600061246a85828601611cb7565b925050602083013567ffffffffffffffff81111561248b5761248a611969565b5b61249785828601611ad2565b9150509250929050565b6000602082840312156124b7576124b6611964565b5b60006124c584828501611cb7565b91505092915050565b6000806000606084860312156124e7576124e6611964565b5b600084013567ffffffffffffffff81111561250557612504611969565b5b61251186828701611ad2565b935050602084013567ffffffffffffffff81111561253257612531611969565b5b61253e86828701611ad2565b925050604061254f86828701611cb7565b9150509250925092565b7f4e487b7100000000000000000000000000000000000000000000000000000000600052602260045260246000fd5b600060028204905060018216806125a057607f821691505b6020821081036125b3576125b2612559565b5b50919050565b7f4e487b7100000000000000000000000000000000000000000000000000000000600052603260045260246000fd5b7f4e487b7100000000000000000000000000000000000000000000000000000000600052601160045260246000fd5b600061262282611c96565b91507fffffffffffffffffffffffffffffffffffffffffffffffffffffffffffffffff8203612654576126536125e8565b5b600182019050919050565b60008190508160005260206000209050919050565b60006020601f8301049050919050565b600082821b905092915050565b6000600883026126c17fffffffffffffffffffffffffffffffffffffffffffffffffffffffffffffffff82612684565b6126cb8683612684565b95508019841693508086168417925050509392505050565b6000819050919050565b60006127086127036126fe84611c96565b6126e3565b611c96565b9050919050565b6000819050919050565b612722836126ed565b61273661272e8261270f565b848454612691565b825550505050565b600090565b61274b61273e565b612756818484612719565b505050565b5b8181101561277a5761276f600082612743565b60018101905061275c565b5050565b601f8211156127bf576127908161265f565b61279984612674565b810160208510156127a8578190505b6127bc6127b485612674565b83018261275b565b50505b505050565b600082821c905092915050565b60006127e2600019846008026127c4565b1980831691505092915050565b60006127fb83836127d1565b9150826002028217905092915050565b612814826118a8565b67ffffffffffffffff81111561282d5761282c611973565b5b6128378254612588565b61284282828561277e565b600060209050601f8311600181146128755760008415612863578287015190505b61286d85826127ef565b8655506128d5565b601f1984166128838661265f565b60005b828110156128ab57848901518255600182019150602085019450602081019050612886565b868310156128c857848901516128c4601f8916826127d1565b8355505b6001600288020188555050505b505050505050565b600081905092915050565b60006128f3826118a8565b6128fd81856128dd565b935061290d8185602086016118c4565b80840191505092915050565b600061292582846128e8565b915081905092915050565b600061293b82611c96565b915061294683611c96565b925082820390508181111561295e5761295d6125e8565b5b92915050565b7f4e487b7100000000000000000000000000000000000000000000000000000000600052603160045260246000fd5b600060608201905081810360008301526129ad81866118ff565b905081810360208301526129c181856118ff565b90506129d06040830184611f8a565b949350505050565b6000815490506129e781612588565b9050919050565b8181036129fc575050612ad4565b612a05826129d8565b67ffffffffffffffff811115612a1e57612a1d611973565b5b612a288254612588565b612a3382828561277e565b6000601f831160018114612a625760008415612a50578287015490505b612a5a85826127ef565b865550612acd565b601f198416612a708761265f565b9650612a7b8661265f565b60005b82811015612aa357848901548255600182019150600185019450602081019050612a7e565b86831015612ac05784890154612abc601f8916826127d1565b8355505b6001600288020188555050505b5050505050505b56fea264697066735822122095ffa8c86e7089ac27787dcf3a7b8541ae6f2e6de28b3f2fee4e2f8c2f0de25a64736f6c63430008110033",
   "linkReferences": {},
   "deployedLinkReferences": {}
}