{
   "_format": "hh-sol-artifact-1",
   "contractName": "BuyMeACoffee",
   "sourceName": "contracts/BuyMeACoffee.sol",
   "abi": [
      {
         "inputs": [
            {
               "internalType": "string",
               "name": "_name",
               "type": "string"
            },
            {
               "internalType": "string",
               "name": "_description",
               "type": "string"
            },
            {
               "internalType": "string",
               "name": "_profile",
               "type": "string"
            },
            {
               "internalType": "string",
               "name": "_thumbnail",
               "type": "string"
            },
            {
               "internalType": "string[][]",
               "name": "_items",
               "type": "string[][]"
            },
            {
               "internalType": "uint256[]",
               "name": "_itemsValues",
               "type": "uint256[]"
            },
            {
               "internalType": "address",
               "name": "_owner",
               "type": "address"
            }
         ],
         "stateMutability": "nonpayable",
         "type": "constructor"
      },
      {
         "inputs": [],
         "name": "BuyMeACoffee__NotEnoughEthSend",
         "type": "error"
      },
      {
         "inputs": [],
         "name": "BuyMeACoffee__NotOwner",
         "type": "error"
      },
      {
         "anonymous": false,
         "inputs": [
            {
               "indexed": true,
               "internalType": "uint256",
               "name": "items_id",
               "type": "uint256"
            }
         ],
         "name": "AddedItems",
         "type": "event"
      },
      {
         "anonymous": false,
         "inputs": [
            {
               "indexed": true,
               "internalType": "uint256",
               "name": "timestamp",
               "type": "uint256"
            },
            {
               "indexed": false,
               "internalType": "string",
               "name": "name",
               "type": "string"
            },
            {
               "indexed": false,
               "internalType": "string",
               "name": "message",
               "type": "string"
            },
            {
               "indexed": false,
               "internalType": "uint256",
               "name": "items_id",
               "type": "uint256"
            }
         ],
         "name": "MemoCreated",
         "type": "event"
      },
      {
         "anonymous": false,
         "inputs": [
            {
               "indexed": true,
               "internalType": "uint256",
               "name": "timestamp",
               "type": "uint256"
            },
            {
               "indexed": true,
               "internalType": "string",
               "name": "response",
               "type": "string"
            }
         ],
         "name": "MemoResponse",
         "type": "event"
      },
      {
         "anonymous": false,
         "inputs": [
            {
               "indexed": true,
               "internalType": "uint256",
               "name": "timestamp",
               "type": "uint256"
            },
            {
               "indexed": true,
               "internalType": "string",
               "name": "name",
               "type": "string"
            },
            {
               "indexed": true,
               "internalType": "string",
               "name": "description",
               "type": "string"
            },
            {
               "indexed": false,
               "internalType": "string",
               "name": "thumbnail",
               "type": "string"
            },
            {
               "indexed": false,
               "internalType": "string",
               "name": "profile",
               "type": "string"
            }
         ],
         "name": "UpdatedCampaign",
         "type": "event"
      },
      {
         "anonymous": false,
         "inputs": [
            {
               "indexed": true,
               "internalType": "uint256",
               "name": "timestamp",
               "type": "uint256"
            }
         ],
         "name": "WithdrawEth",
         "type": "event"
      },
      {
         "inputs": [
            {
               "internalType": "string[]",
               "name": "names",
               "type": "string[]"
            },
            {
               "internalType": "uint256",
               "name": "cost",
               "type": "uint256"
            }
         ],
         "name": "addItems",
         "outputs": [],
         "stateMutability": "nonpayable",
         "type": "function"
      },
      {
         "inputs": [
            {
               "internalType": "string[][]",
               "name": "_items",
               "type": "string[][]"
            },
            {
               "internalType": "uint256[]",
               "name": "_itemsValues",
               "type": "uint256[]"
            }
         ],
         "name": "formatItems",
         "outputs": [],
         "stateMutability": "nonpayable",
         "type": "function"
      },
      {
         "inputs": [],
         "name": "getBalance",
         "outputs": [
            {
               "internalType": "uint256",
               "name": "",
               "type": "uint256"
            }
         ],
         "stateMutability": "view",
         "type": "function"
      },
      {
         "inputs": [],
         "name": "getDescription",
         "outputs": [
            {
               "internalType": "string",
               "name": "",
               "type": "string"
            }
         ],
         "stateMutability": "view",
         "type": "function"
      },
      {
         "inputs": [],
         "name": "getItemsCount",
         "outputs": [
            {
               "internalType": "uint256",
               "name": "",
               "type": "uint256"
            }
         ],
         "stateMutability": "view",
         "type": "function"
      },
      {
         "inputs": [],
         "name": "getListOfItems",
         "outputs": [
            {
               "components": [
                  {
                     "internalType": "string[]",
                     "name": "names",
                     "type": "string[]"
                  },
                  {
                     "internalType": "uint256",
                     "name": "cost",
                     "type": "uint256"
                  },
                  {
                     "internalType": "uint256",
                     "name": "id",
                     "type": "uint256"
                  }
               ],
               "internalType": "struct BuyMeACoffee.Items[]",
               "name": "",
               "type": "tuple[]"
            }
         ],
         "stateMutability": "view",
         "type": "function"
      },
      {
         "inputs": [],
         "name": "getMemos",
         "outputs": [
            {
               "components": [
                  {
                     "internalType": "address",
                     "name": "from",
                     "type": "address"
                  },
                  {
                     "internalType": "uint256",
                     "name": "timestamp",
                     "type": "uint256"
                  },
                  {
                     "internalType": "string",
                     "name": "name",
                     "type": "string"
                  },
                  {
                     "internalType": "string",
                     "name": "message",
                     "type": "string"
                  },
                  {
                     "internalType": "string",
                     "name": "response",
                     "type": "string"
                  },
                  {
                     "internalType": "uint256",
                     "name": "items_id",
                     "type": "uint256"
                  }
               ],
               "internalType": "struct BuyMeACoffee.Memo[]",
               "name": "",
               "type": "tuple[]"
            }
         ],
         "stateMutability": "view",
         "type": "function"
      },
      {
         "inputs": [],
         "name": "getName",
         "outputs": [
            {
               "internalType": "string",
               "name": "",
               "type": "string"
            }
         ],
         "stateMutability": "view",
         "type": "function"
      },
      {
         "inputs": [],
         "name": "getOwner",
         "outputs": [
            {
               "internalType": "address",
               "name": "",
               "type": "address"
            }
         ],
         "stateMutability": "view",
         "type": "function"
      },
      {
         "inputs": [],
         "name": "getProfile",
         "outputs": [
            {
               "internalType": "string",
               "name": "",
               "type": "string"
            }
         ],
         "stateMutability": "view",
         "type": "function"
      },
      {
         "inputs": [],
         "name": "getThumbnail",
         "outputs": [
            {
               "internalType": "string",
               "name": "",
               "type": "string"
            }
         ],
         "stateMutability": "view",
         "type": "function"
      },
      {
         "inputs": [
            {
               "internalType": "uint256",
               "name": "_id",
               "type": "uint256"
            }
         ],
         "name": "removeItems",
         "outputs": [],
         "stateMutability": "nonpayable",
         "type": "function"
      },
      {
         "inputs": [
            {
               "internalType": "string",
               "name": "_description",
               "type": "string"
            }
         ],
         "name": "setDescription",
         "outputs": [],
         "stateMutability": "nonpayable",
         "type": "function"
      },
      {
         "inputs": [
            {
               "internalType": "string",
               "name": "_name",
               "type": "string"
            }
         ],
         "name": "setName",
         "outputs": [],
         "stateMutability": "nonpayable",
         "type": "function"
      },
      {
         "inputs": [
            {
               "internalType": "string",
               "name": "_profile",
               "type": "string"
            }
         ],
         "name": "setProfile",
         "outputs": [],
         "stateMutability": "nonpayable",
         "type": "function"
      },
      {
         "inputs": [
            {
               "internalType": "uint256",
               "name": "index",
               "type": "uint256"
            },
            {
               "internalType": "string",
               "name": "response",
               "type": "string"
            }
         ],
         "name": "setResponse",
         "outputs": [],
         "stateMutability": "nonpayable",
         "type": "function"
      },
      {
         "inputs": [
            {
               "internalType": "string",
               "name": "_thumbnail",
               "type": "string"
            }
         ],
         "name": "setThumbnail",
         "outputs": [],
         "stateMutability": "nonpayable",
         "type": "function"
      },
      {
         "inputs": [
            {
               "internalType": "string",
               "name": "_name",
               "type": "string"
            },
            {
               "internalType": "string",
               "name": "_message",
               "type": "string"
            },
            {
               "internalType": "uint256",
               "name": "_itemsId",
               "type": "uint256"
            }
         ],
         "name": "storeMemo",
         "outputs": [],
         "stateMutability": "payable",
         "type": "function"
      },
      {
         "inputs": [
            {
               "internalType": "string",
               "name": "_name",
               "type": "string"
            },
            {
               "internalType": "string",
               "name": "_description",
               "type": "string"
            },
            {
               "internalType": "string",
               "name": "_profile",
               "type": "string"
            },
            {
               "internalType": "string",
               "name": "_thumbnail",
               "type": "string"
            },
            {
               "internalType": "string[][]",
               "name": "_items",
               "type": "string[][]"
            },
            {
               "internalType": "uint256[]",
               "name": "_itemsValues",
               "type": "uint256[]"
            },
            {
               "internalType": "uint256[]",
               "name": "_deletedItems",
               "type": "uint256[]"
            }
         ],
         "name": "update",
         "outputs": [],
         "stateMutability": "nonpayable",
         "type": "function"
      },
      {
         "inputs": [],
         "name": "withdraw",
         "outputs": [],
         "stateMutability": "nonpayable",
         "type": "function"
      }
   ],
   "bytecode": "0x608060405260006003553480156200001657600080fd5b50604051620025433803806200254383398101604081905262000039916200058d565b600462000047888262000737565b50600762000056878262000737565b50600562000065868262000737565b50600662000074858262000737565b50600280546001600160a01b0319166001600160a01b0383161790556200009c8383620000a9565b5050505050505062000841565b600081516001600160401b03811115620000c757620000c7620002fd565b6040519080825280602002602001820160405280156200011f57816020015b6200010b60405180606001604052806060815260200160008152602001600081525090565b815260200190600190039081620000e65790505b50905060005b815181101562000220576000604051806060016040528086848151811062000151576200015162000803565b6020026020010151815260200185848151811062000173576200017362000803565b60209081029190910181015182526003805492820192909252600180548082018255600091909152835180519495508594919093027fb10e2d527612073b26eecdfd717e6a320cf44b4afac2b0732d9fcbe2b7fa0cf60192620001db92849291019062000226565b506020820151600182015560409091015160029091015560038054906000620002048362000819565b9190505550508080620002179062000819565b91505062000125565b50505050565b82805482825590600052602060002090810192821562000271579160200282015b8281111562000271578251829062000260908262000737565b509160200191906001019062000247565b506200027f92915062000283565b5090565b808211156200027f5760006200029a8282620002a4565b5060010162000283565b508054620002b290620006a8565b6000825580601f10620002c3575050565b601f016020900490600052602060002090810190620002e39190620002e6565b50565b5b808211156200027f5760008155600101620002e7565b634e487b7160e01b600052604160045260246000fd5b604051601f8201601f191681016001600160401b03811182821017156200033e576200033e620002fd565b604052919050565b600082601f8301126200035857600080fd5b81516001600160401b03811115620003745762000374620002fd565b60206200038a601f8301601f1916820162000313565b82815285828487010111156200039f57600080fd5b60005b83811015620003bf578581018301518282018401528201620003a2565b506000928101909101919091529392505050565b60006001600160401b03821115620003ef57620003ef620002fd565b5060051b60200190565b600082601f8301126200040b57600080fd5b81516020620004246200041e83620003d3565b62000313565b82815260059290921b840181019181810190868411156200044457600080fd5b8286015b84811015620005035780516001600160401b03808211156200046957600080fd5b818901915089603f8301126200047e57600080fd5b85820151620004916200041e82620003d3565b81815260059190911b830160400190878101908c831115620004b257600080fd5b604085015b83811015620004f057805185811115620004d057600080fd5b620004e18f6040838a010162000346565b845250918901918901620004b7565b5087525050509284019250830162000448565b509695505050505050565b600082601f8301126200052057600080fd5b81516020620005336200041e83620003d3565b82815260059290921b840181019181810190868411156200055357600080fd5b8286015b8481101562000503578051835291830191830162000557565b80516001600160a01b03811681146200058857600080fd5b919050565b600080600080600080600060e0888a031215620005a957600080fd5b87516001600160401b0380821115620005c157600080fd5b620005cf8b838c0162000346565b985060208a0151915080821115620005e657600080fd5b620005f48b838c0162000346565b975060408a01519150808211156200060b57600080fd5b620006198b838c0162000346565b965060608a01519150808211156200063057600080fd5b6200063e8b838c0162000346565b955060808a01519150808211156200065557600080fd5b620006638b838c01620003f9565b945060a08a01519150808211156200067a57600080fd5b50620006898a828b016200050e565b9250506200069a60c0890162000570565b905092959891949750929550565b600181811c90821680620006bd57607f821691505b602082108103620006de57634e487b7160e01b600052602260045260246000fd5b50919050565b601f8211156200073257600081815260208120601f850160051c810160208610156200070d5750805b601f850160051c820191505b818110156200072e5782815560010162000719565b5050505b505050565b81516001600160401b03811115620007535762000753620002fd565b6200076b81620007648454620006a8565b84620006e4565b602080601f831160018114620007a357600084156200078a5750858301515b600019600386901b1c1916600185901b1785556200072e565b600085815260208120601f198616915b82811015620007d457888601518255948401946001909101908401620007b3565b5085821015620007f35787850151600019600388901b60f8161c191681555b5050505050600190811b01905550565b634e487b7160e01b600052603260045260246000fd5b6000600182016200083a57634e487b7160e01b600052601160045260246000fd5b5060010190565b611cf280620008516000396000f3fe60806040526004361061011f5760003560e01c8063865c5172116100a0578063d6afc9b111610064578063d6afc9b1146102f5578063da14bde31461030a578063dbfc2c121461032a578063e1d740831461034a578063e9c0d98c1461035f57600080fd5b8063865c51721461024b578063893d20e81461026d57806390c3f38f14610295578063989cf688146102b5578063c47f0027146102d557600080fd5b80633ccfd60b116100e75780633ccfd60b146101bf57806348168a16146101d4578063512dd020146101f4578063594d9e63146102095780637d44ba781461022b57600080fd5b806312065fe01461012457806317d7de7c146101465780631a092541146101685780631d07f1fb1461017d578063235b37b11461019f575b600080fd5b34801561013057600080fd5b50475b6040519081526020015b60405180910390f35b34801561015257600080fd5b5061015b610372565b60405161013d91906112fc565b34801561017457600080fd5b5061015b610404565b34801561018957600080fd5b5061019d610198366004611557565b610413565b005b3480156101ab57600080fd5b5061019d6101ba3660046115ba565b61057c565b3480156101cb57600080fd5b5061019d6105b7565b3480156101e057600080fd5b5061019d6101ef3660046115f6565b610649565b34801561020057600080fd5b50600354610133565b34801561021557600080fd5b5061021e610762565b60405161013d9190611710565b34801561023757600080fd5b5061019d6102463660046117d4565b6108ae565b34801561025757600080fd5b506102606109a0565b60405161013d9190611818565b34801561027957600080fd5b506002546040516001600160a01b03909116815260200161013d565b3480156102a157600080fd5b5061019d6102b03660046115ba565b610bd6565b3480156102c157600080fd5b5061019d6102d03660046118e5565b610c0d565b3480156102e157600080fd5b5061019d6102f03660046115ba565b610cb3565b34801561030157600080fd5b5061015b610cea565b34801561031657600080fd5b5061019d610325366004611921565b610cf9565b34801561033657600080fd5b5061019d6103453660046115ba565b610e2a565b34801561035657600080fd5b5061015b610e61565b61019d61036d36600461193a565b610e70565b606060048054610381906119a6565b80601f01602080910402602001604051908101604052809291908181526020018280546103ad906119a6565b80156103fa5780601f106103cf576101008083540402835291602001916103fa565b820191906000526020600020905b8154815290600101906020018083116103dd57829003601f168201915b5050505050905090565b606060078054610381906119a6565b600081516001600160401b0381111561042e5761042e611316565b60405190808252806020026020018201604052801561048357816020015b61047060405180606001604052806060815260200160008152602001600081525090565b81526020019060019003908161044c5790505b50905060005b815181101561057657600060405180606001604052808684815181106104b1576104b16119e0565b602002602001015181526020018584815181106104d0576104d06119e0565b60209081029190910181015182526003805492820192909252600180548082018255600091909152835180519495508594919093027fb10e2d527612073b26eecdfd717e6a320cf44b4afac2b0732d9fcbe2b7fa0cf60192610536928492910190611186565b50602082015160018201556040909101516002909101556003805490600061055d83611a0c565b919050555050808061056e90611a0c565b915050610489565b50505050565b6002546001600160a01b031633146105a7576040516302045ea760e31b815260040160405180910390fd5b60056105b38282611a74565b5050565b6002546001600160a01b031633146105e2576040516302045ea760e31b815260040160405180910390fd5b6002546040516001600160a01b03909116904780156108fc02916000818181858888f1935050505015801561061b573d6000803e3d6000fd5b5060405142907fb2a3fd05447b0260cac7f8db72bfb10790a24739428c6d3abe439e09fcac37f990600090a2565b6002546001600160a01b03163314610674576040516302045ea760e31b815260040160405180910390fd5b61067e8383610413565b600461068a8882611a74565b5060076106978782611a74565b5060056106a48682611a74565b5060066106b18582611a74565b5060005b81518110156106f2576106e08282815181106106d3576106d36119e0565b6020026020010151610cf9565b806106ea81611a0c565b9150506106b5565b50856040516107019190611b33565b6040518091039020876040516107179190611b33565b6040518091039020427f437ea4e0b06f791d7721d4793d4f8584617500a66883386d6a879f85558ebe788789604051610751929190611b4f565b60405180910390a450505050505050565b60606001805480602002602001604051908101604052809291908181526020016000905b828210156108a5578382906000526020600020906003020160405180606001604052908160008201805480602002602001604051908101604052809291908181526020016000905b8282101561087a5783829060005260206000200180546107ed906119a6565b80601f0160208091040260200160405190810160405280929190818152602001828054610819906119a6565b80156108665780601f1061083b57610100808354040283529160200191610866565b820191906000526020600020905b81548152906001019060200180831161084957829003601f168201915b5050505050815260200190600101906107ce565b5050505081526020016001820154815260200160028201548152505081526020019060010190610786565b50505050905090565b6002546001600160a01b031633146108d9576040516302045ea760e31b815260040160405180910390fd5b6040805160608101825283815260208082018490526003805493830193909352600180548082018255600091909152825180519394859492027fb10e2d527612073b26eecdfd717e6a320cf44b4afac2b0732d9fcbe2b7fa0cf6019261094492849290910190611186565b506020820151600182015560409182015160029091015560035490517fa5dbb7adb15a05f8df3bdfc06617a63f39825dd0c4d2f0615c5134d1d3301b3690600090a26003805490600061099683611a0c565b9190505550505050565b60606000805480602002602001604051908101604052809291908181526020016000905b828210156108a55760008481526020908190206040805160c0810182526006860290920180546001600160a01b0316835260018101549383019390935260028301805492939291840191610a17906119a6565b80601f0160208091040260200160405190810160405280929190818152602001828054610a43906119a6565b8015610a905780601f10610a6557610100808354040283529160200191610a90565b820191906000526020600020905b815481529060010190602001808311610a7357829003601f168201915b50505050508152602001600382018054610aa9906119a6565b80601f0160208091040260200160405190810160405280929190818152602001828054610ad5906119a6565b8015610b225780601f10610af757610100808354040283529160200191610b22565b820191906000526020600020905b815481529060010190602001808311610b0557829003601f168201915b50505050508152602001600482018054610b3b906119a6565b80601f0160208091040260200160405190810160405280929190818152602001828054610b67906119a6565b8015610bb45780601f10610b8957610100808354040283529160200191610bb4565b820191906000526020600020905b815481529060010190602001808311610b9757829003601f168201915b50505050508152602001600582015481525050815260200190600101906109c4565b6002546001600160a01b03163314610c01576040516302045ea760e31b815260040160405180910390fd5b60076105b38282611a74565b6002546001600160a01b03163314610c38576040516302045ea760e31b815260040160405180910390fd5b6000808381548110610c4c57610c4c6119e0565b9060005260206000209060060201905081816004019081610c6d9190611a74565b5081604051610c7c9190611b33565b6040519081900381209042907f8eece9ee17f7ce4a77eb6329ef9050e2a6286692c80a7e44f776c6d74146ace590600090a3505050565b6002546001600160a01b03163314610cde576040516302045ea760e31b815260040160405180910390fd5b60046105b38282611a74565b606060058054610381906119a6565b6002546001600160a01b03163314610d24576040516302045ea760e31b815260040160405180910390fd5b60005b6001548110156105b3578160018281548110610d4557610d456119e0565b90600052602060002090600302016002015403610e185760018054610d6b908290611b7d565b81548110610d7b57610d7b6119e0565b906000526020600020906003020160018281548110610d9c57610d9c6119e0565b60009182526020909120825460039092020190610dbc90829084906111dc565b5060018201548160010155600282015481600201559050506001805480610de557610de5611b96565b60008281526020812060001990920191600383020190610e058282611224565b5060006001820181905560029091015590555b80610e2281611a0c565b915050610d27565b6002546001600160a01b03163314610e55576040516302045ea760e31b815260040160405180910390fd5b60066105b38282611a74565b606060068054610381906119a6565b610e9460405180606001604052806060815260200160008152602001600081525090565b60005b600154811015610ffa578260018281548110610eb557610eb56119e0565b90600052602060002090600302016002015403610fe85760018181548110610edf57610edf6119e0565b906000526020600020906003020160405180606001604052908160008201805480602002602001604051908101604052809291908181526020016000905b82821015610fc9578382906000526020600020018054610f3c906119a6565b80601f0160208091040260200160405190810160405280929190818152602001828054610f68906119a6565b8015610fb55780601f10610f8a57610100808354040283529160200191610fb5565b820191906000526020600020905b815481529060010190602001808311610f9857829003601f168201915b505050505081526020019060010190610f1d565b5050505081526020016001820154815260200160028201548152505091505b80610ff281611a0c565b915050610e97565b5080602001513410156110205760405163f1b7411960e01b815260040160405180910390fd5b6040805160c0810182523381524260208083019182528284018881526060840188905284519182019094526000808252608084019190915260a08301869052805460018101825590805282517f290decd9548b62a8d60345a988386fc84ba6bc95484008f6362f93160ef3e563600690920291820180546001600160a01b0319166001600160a01b0390921691909117815591517f290decd9548b62a8d60345a988386fc84ba6bc95484008f6362f93160ef3e5648201559251919290917f290decd9548b62a8d60345a988386fc84ba6bc95484008f6362f93160ef3e5659091019061110d9082611a74565b50606082015160038201906111229082611a74565b50608082015160048201906111379082611a74565b5060a082015181600501555050427f1cfb7901bbb0acf7f618d0389fdda4a852e9de1abe2b641bf9e6f40ace3a44ad85858560405161117893929190611bac565b60405180910390a250505050565b8280548282559060005260206000209081019282156111cc579160200282015b828111156111cc57825182906111bc9082611a74565b50916020019190600101906111a6565b506111d8929150611245565b5090565b8280548282559060005260206000209081019282156111cc5760005260206000209182015b828111156111cc57816112148482611be2565b5091600101919060010190611201565b50805460008255906000526020600020908101906112429190611245565b50565b808211156111d85760006112598282611262565b50600101611245565b50805461126e906119a6565b6000825580601f1061127e575050565b601f01602090049060005260206000209081019061124291905b808211156111d85760008155600101611298565b60005b838110156112c75781810151838201526020016112af565b50506000910152565b600081518084526112e88160208601602086016112ac565b601f01601f19169290920160200192915050565b60208152600061130f60208301846112d0565b9392505050565b634e487b7160e01b600052604160045260246000fd5b604051601f8201601f191681016001600160401b038111828210171561135457611354611316565b604052919050565b60006001600160401b0382111561137557611375611316565b5060051b60200190565b600082601f83011261139057600080fd5b81356001600160401b038111156113a9576113a9611316565b6113bc601f8201601f191660200161132c565b8181528460208386010111156113d157600080fd5b816020850160208301376000918101602001919091529392505050565b600082601f8301126113ff57600080fd5b8135602061141461140f8361135c565b61132c565b82815260059290921b8401810191818101908684111561143357600080fd5b8286015b848110156114725780356001600160401b038111156114565760008081fd5b6114648986838b010161137f565b845250918301918301611437565b509695505050505050565b600082601f83011261148e57600080fd5b8135602061149e61140f8361135c565b82815260059290921b840181019181810190868411156114bd57600080fd5b8286015b848110156114725780356001600160401b038111156114e05760008081fd5b6114ee8986838b01016113ee565b8452509183019183016114c1565b600082601f83011261150d57600080fd5b8135602061151d61140f8361135c565b82815260059290921b8401810191818101908684111561153c57600080fd5b8286015b848110156114725780358352918301918301611540565b6000806040838503121561156a57600080fd5b82356001600160401b038082111561158157600080fd5b61158d8683870161147d565b935060208501359150808211156115a357600080fd5b506115b0858286016114fc565b9150509250929050565b6000602082840312156115cc57600080fd5b81356001600160401b038111156115e257600080fd5b6115ee8482850161137f565b949350505050565b600080600080600080600060e0888a03121561161157600080fd5b87356001600160401b038082111561162857600080fd5b6116348b838c0161137f565b985060208a013591508082111561164a57600080fd5b6116568b838c0161137f565b975060408a013591508082111561166c57600080fd5b6116788b838c0161137f565b965060608a013591508082111561168e57600080fd5b61169a8b838c0161137f565b955060808a01359150808211156116b057600080fd5b6116bc8b838c0161147d565b945060a08a01359150808211156116d257600080fd5b6116de8b838c016114fc565b935060c08a01359150808211156116f457600080fd5b506117018a828b016114fc565b91505092959891949750929550565b602080825282518282018190526000919060409081850190600581811b8701840188860187805b858110156117c4578a8403603f190187528251805160608087528151908701819052608080880192828a1b890190910191908d0190865b8181101561179c57607f198a850301855261178a8484516112d0565b948f01949350918e019160010161176e565b505050828c0151878d0152918a0151958a019590955296890196935091880191600101611737565b50919a9950505050505050505050565b600080604083850312156117e757600080fd5b82356001600160401b038111156117fd57600080fd5b611809858286016113ee565b95602094909401359450505050565b60006020808301818452808551808352604092508286019150828160051b87010184880160005b838110156118d757888303603f19018552815180516001600160a01b0316845287810151888501528681015160c088860181905290611880828701826112d0565b9150506060808301518683038288015261189a83826112d0565b92505050608080830151868303828801526118b583826112d0565b60a094850151979094019690965250509487019492509086019060010161183f565b509098975050505050505050565b600080604083850312156118f857600080fd5b8235915060208301356001600160401b0381111561191557600080fd5b6115b08582860161137f565b60006020828403121561193357600080fd5b5035919050565b60008060006060848603121561194f57600080fd5b83356001600160401b038082111561196657600080fd5b6119728783880161137f565b9450602086013591508082111561198857600080fd5b506119958682870161137f565b925050604084013590509250925092565b600181811c908216806119ba57607f821691505b6020821081036119da57634e487b7160e01b600052602260045260246000fd5b50919050565b634e487b7160e01b600052603260045260246000fd5b634e487b7160e01b600052601160045260246000fd5b600060018201611a1e57611a1e6119f6565b5060010190565b601f821115611a6f57600081815260208120601f850160051c81016020861015611a4c5750805b601f850160051c820191505b81811015611a6b57828155600101611a58565b5050505b505050565b81516001600160401b03811115611a8d57611a8d611316565b611aa181611a9b84546119a6565b84611a25565b602080601f831160018114611ad65760008415611abe5750858301515b600019600386901b1c1916600185901b178555611a6b565b600085815260208120601f198616915b82811015611b0557888601518255948401946001909101908401611ae6565b5085821015611b235787850151600019600388901b60f8161c191681555b5050505050600190811b01905550565b60008251611b458184602087016112ac565b9190910192915050565b604081526000611b6260408301856112d0565b8281036020840152611b7481856112d0565b95945050505050565b81810381811115611b9057611b906119f6565b92915050565b634e487b7160e01b600052603160045260246000fd5b606081526000611bbf60608301866112d0565b8281036020840152611bd181866112d0565b915050826040830152949350505050565b818103611bed575050565b611bf782546119a6565b6001600160401b03811115611c0e57611c0e611316565b611c1c81611a9b84546119a6565b6000601f821160018114611c505760008315611c385750848201545b600019600385901b1c1916600184901b178455611cb5565b600085815260209020601f19841690600086815260209020845b83811015611c8a5782860154825560019586019590910190602001611c6a565b5085831015611ca85781850154600019600388901b60f8161c191681555b50505060018360011b0184555b505050505056fea2646970667358221220d059716bff380868e9e928f54f7afd94f4ce5514b6e5479da9dabee9c6ae489264736f6c63430008110033",
   "linkReferences": {},
   "deployedLinkReferences": {}
}