{
   "_format": "hh-sol-artifact-1",
   "contractName": "BuyMeACoffee",
   "sourceName": "contracts/BuyMeACoffee.sol",
   "abi": [
      {
         "inputs": [
            {
               "internalType": "string",
               "name": "_name",
               "type": "string"
            },
            {
               "internalType": "string",
               "name": "_description",
               "type": "string"
            },
            {
               "internalType": "string",
               "name": "_profile",
               "type": "string"
            },
            {
               "internalType": "string",
               "name": "_thumbnail",
               "type": "string"
            },
            {
               "internalType": "string[][]",
               "name": "_items",
               "type": "string[][]"
            },
            {
               "internalType": "uint256[]",
               "name": "_itemsValues",
               "type": "uint256[]"
            },
            {
               "internalType": "address",
               "name": "_owner",
               "type": "address"
            }
         ],
         "stateMutability": "nonpayable",
         "type": "constructor"
      },
      {
         "inputs": [],
         "name": "BuyMeACoffee__NotEnoughEthSend",
         "type": "error"
      },
      {
         "inputs": [],
         "name": "BuyMeACoffee__NotOwner",
         "type": "error"
      },
      {
         "anonymous": false,
         "inputs": [
            {
               "indexed": true,
               "internalType": "uint256",
               "name": "items_id",
               "type": "uint256"
            }
         ],
         "name": "AddedItems",
         "type": "event"
      },
      {
         "anonymous": false,
         "inputs": [
            {
               "indexed": true,
               "internalType": "uint256",
               "name": "timestamp",
               "type": "uint256"
            },
            {
               "indexed": false,
               "internalType": "string",
               "name": "name",
               "type": "string"
            },
            {
               "indexed": false,
               "internalType": "string",
               "name": "message",
               "type": "string"
            },
            {
               "indexed": false,
               "internalType": "uint256",
               "name": "items_id",
               "type": "uint256"
            }
         ],
         "name": "MemoCreated",
         "type": "event"
      },
      {
         "anonymous": false,
         "inputs": [
            {
               "indexed": true,
               "internalType": "uint256",
               "name": "timestamp",
               "type": "uint256"
            },
            {
               "indexed": true,
               "internalType": "string",
               "name": "response",
               "type": "string"
            }
         ],
         "name": "MemoResponse",
         "type": "event"
      },
      {
         "anonymous": false,
         "inputs": [
            {
               "indexed": true,
               "internalType": "uint256",
               "name": "timestamp",
               "type": "uint256"
            },
            {
               "indexed": true,
               "internalType": "string",
               "name": "name",
               "type": "string"
            },
            {
               "indexed": true,
               "internalType": "string",
               "name": "description",
               "type": "string"
            },
            {
               "indexed": false,
               "internalType": "string",
               "name": "thumbnail",
               "type": "string"
            },
            {
               "indexed": false,
               "internalType": "string",
               "name": "profile",
               "type": "string"
            }
         ],
         "name": "UpdatedCampaign",
         "type": "event"
      },
      {
         "anonymous": false,
         "inputs": [
            {
               "indexed": true,
               "internalType": "uint256",
               "name": "timestamp",
               "type": "uint256"
            }
         ],
         "name": "WithdrawEth",
         "type": "event"
      },
      {
         "inputs": [
            {
               "internalType": "string[]",
               "name": "names",
               "type": "string[]"
            },
            {
               "internalType": "uint256",
               "name": "cost",
               "type": "uint256"
            }
         ],
         "name": "addItems",
         "outputs": [],
         "stateMutability": "nonpayable",
         "type": "function"
      },
      {
         "inputs": [
            {
               "internalType": "string[][]",
               "name": "_items",
               "type": "string[][]"
            },
            {
               "internalType": "uint256[]",
               "name": "_itemsValues",
               "type": "uint256[]"
            }
         ],
         "name": "formatItems",
         "outputs": [],
         "stateMutability": "nonpayable",
         "type": "function"
      },
      {
         "inputs": [],
         "name": "getBalance",
         "outputs": [
            {
               "internalType": "uint256",
               "name": "",
               "type": "uint256"
            }
         ],
         "stateMutability": "view",
         "type": "function"
      },
      {
         "inputs": [],
         "name": "getDescription",
         "outputs": [
            {
               "internalType": "string",
               "name": "",
               "type": "string"
            }
         ],
         "stateMutability": "view",
         "type": "function"
      },
      {
         "inputs": [],
         "name": "getItemsCount",
         "outputs": [
            {
               "internalType": "uint256",
               "name": "",
               "type": "uint256"
            }
         ],
         "stateMutability": "view",
         "type": "function"
      },
      {
         "inputs": [],
         "name": "getListOfItems",
         "outputs": [
            {
               "components": [
                  {
                     "internalType": "string[]",
                     "name": "names",
                     "type": "string[]"
                  },
                  {
                     "internalType": "uint256",
                     "name": "cost",
                     "type": "uint256"
                  },
                  {
                     "internalType": "uint256",
                     "name": "id",
                     "type": "uint256"
                  }
               ],
               "internalType": "struct BuyMeACoffee.Items[]",
               "name": "",
               "type": "tuple[]"
            }
         ],
         "stateMutability": "view",
         "type": "function"
      },
      {
         "inputs": [],
         "name": "getMemos",
         "outputs": [
            {
               "components": [
                  {
                     "internalType": "address",
                     "name": "from",
                     "type": "address"
                  },
                  {
                     "internalType": "uint256",
                     "name": "timestamp",
                     "type": "uint256"
                  },
                  {
                     "internalType": "string",
                     "name": "name",
                     "type": "string"
                  },
                  {
                     "internalType": "string",
                     "name": "message",
                     "type": "string"
                  },
                  {
                     "internalType": "string",
                     "name": "response",
                     "type": "string"
                  },
                  {
                     "internalType": "uint256",
                     "name": "items_id",
                     "type": "uint256"
                  }
               ],
               "internalType": "struct BuyMeACoffee.Memo[]",
               "name": "",
               "type": "tuple[]"
            }
         ],
         "stateMutability": "view",
         "type": "function"
      },
      {
         "inputs": [],
         "name": "getName",
         "outputs": [
            {
               "internalType": "string",
               "name": "",
               "type": "string"
            }
         ],
         "stateMutability": "view",
         "type": "function"
      },
      {
         "inputs": [],
         "name": "getOwner",
         "outputs": [
            {
               "internalType": "address",
               "name": "",
               "type": "address"
            }
         ],
         "stateMutability": "view",
         "type": "function"
      },
      {
         "inputs": [],
         "name": "getProfile",
         "outputs": [
            {
               "internalType": "string",
               "name": "",
               "type": "string"
            }
         ],
         "stateMutability": "view",
         "type": "function"
      },
      {
         "inputs": [],
         "name": "getThumbnail",
         "outputs": [
            {
               "internalType": "string",
               "name": "",
               "type": "string"
            }
         ],
         "stateMutability": "view",
         "type": "function"
      },
      {
         "inputs": [
            {
               "internalType": "uint256",
               "name": "_id",
               "type": "uint256"
            }
         ],
         "name": "removeItems",
         "outputs": [],
         "stateMutability": "nonpayable",
         "type": "function"
      },
      {
         "inputs": [
            {
               "internalType": "string",
               "name": "_description",
               "type": "string"
            }
         ],
         "name": "setDescription",
         "outputs": [],
         "stateMutability": "nonpayable",
         "type": "function"
      },
      {
         "inputs": [
            {
               "internalType": "string",
               "name": "_name",
               "type": "string"
            }
         ],
         "name": "setName",
         "outputs": [],
         "stateMutability": "nonpayable",
         "type": "function"
      },
      {
         "inputs": [
            {
               "internalType": "string",
               "name": "_profile",
               "type": "string"
            }
         ],
         "name": "setProfile",
         "outputs": [],
         "stateMutability": "nonpayable",
         "type": "function"
      },
      {
         "inputs": [
            {
               "internalType": "uint256",
               "name": "index",
               "type": "uint256"
            },
            {
               "internalType": "string",
               "name": "response",
               "type": "string"
            }
         ],
         "name": "setResponse",
         "outputs": [],
         "stateMutability": "nonpayable",
         "type": "function"
      },
      {
         "inputs": [
            {
               "internalType": "string",
               "name": "_thumbnail",
               "type": "string"
            }
         ],
         "name": "setThumbnail",
         "outputs": [],
         "stateMutability": "nonpayable",
         "type": "function"
      },
      {
         "inputs": [
            {
               "internalType": "string",
               "name": "_name",
               "type": "string"
            },
            {
               "internalType": "string",
               "name": "_message",
               "type": "string"
            },
            {
               "internalType": "uint256",
               "name": "_itemsId",
               "type": "uint256"
            }
         ],
         "name": "storeMemo",
         "outputs": [],
         "stateMutability": "payable",
         "type": "function"
      },
      {
         "inputs": [
            {
               "internalType": "string",
               "name": "_name",
               "type": "string"
            },
            {
               "internalType": "string",
               "name": "_description",
               "type": "string"
            },
            {
               "internalType": "string",
               "name": "_profile",
               "type": "string"
            },
            {
               "internalType": "string",
               "name": "_thumbnail",
               "type": "string"
            },
            {
               "internalType": "string[][]",
               "name": "_items",
               "type": "string[][]"
            },
            {
               "internalType": "uint256[]",
               "name": "_itemsValues",
               "type": "uint256[]"
            },
            {
               "internalType": "uint256[]",
               "name": "_deletedItems",
               "type": "uint256[]"
            }
         ],
         "name": "update",
         "outputs": [],
         "stateMutability": "nonpayable",
         "type": "function"
      },
      {
         "inputs": [],
         "name": "withdraw",
         "outputs": [],
         "stateMutability": "nonpayable",
         "type": "function"
      }
   ],
   "bytecode": "0x608060405260006003553480156200001657600080fd5b50604051620039b2380380620039b283398181016040528101906200003c91906200084e565b86600490816200004d919062000bfc565b5085600790816200005f919062000bfc565b50846005908162000071919062000bfc565b50836006908162000083919062000bfc565b5080600260006101000a81548173ffffffffffffffffffffffffffffffffffffffff021916908373ffffffffffffffffffffffffffffffffffffffff160217905550620000d78383620000e460201b60201c565b5050505050505062000d8e565b6000815167ffffffffffffffff81111562000104576200010362000381565b5b6040519080825280602002602001820160405280156200014157816020015b6200012d62000244565b815260200190600190039081620001235790505b50905060005b81518110156200023e576000604051806060016040528086848151811062000174576200017362000ce3565b5b6020026020010151815260200185848151811062000197576200019662000ce3565b5b60200260200101518152602001600354815250905060018190806001815401808255809150506001900390600052602060002090600302016000909190919091506000820151816000019080519060200190620001f692919062000265565b506020820151816001015560408201518160020155505060036000815480929190620002229062000d41565b9190505550508080620002359062000d41565b91505062000147565b50505050565b60405180606001604052806060815260200160008152602001600081525090565b828054828255906000526020600020908101928215620002b2579160200282015b82811115620002b1578251829081620002a0919062000bfc565b509160200191906001019062000286565b5b509050620002c19190620002c5565b5090565b5b80821115620002e95760008181620002df9190620002ed565b50600101620002c6565b5090565b508054620002fb90620009f5565b6000825580601f106200030f575062000330565b601f0160209004906000526020600020908101906200032f919062000333565b5b50565b5b808211156200034e57600081600090555060010162000334565b5090565b6000604051905090565b600080fd5b600080fd5b600080fd5b600080fd5b6000601f19601f8301169050919050565b7f4e487b7100000000000000000000000000000000000000000000000000000000600052604160045260246000fd5b620003bb8262000370565b810181811067ffffffffffffffff82111715620003dd57620003dc62000381565b5b80604052505050565b6000620003f262000352565b9050620004008282620003b0565b919050565b600067ffffffffffffffff82111562000423576200042262000381565b5b6200042e8262000370565b9050602081019050919050565b60005b838110156200045b5780820151818401526020810190506200043e565b60008484015250505050565b60006200047e620004788462000405565b620003e6565b9050828152602081018484840111156200049d576200049c6200036b565b5b620004aa8482856200043b565b509392505050565b600082601f830112620004ca57620004c962000366565b5b8151620004dc84826020860162000467565b91505092915050565b600067ffffffffffffffff82111562000503576200050262000381565b5b602082029050602081019050919050565b600080fd5b600067ffffffffffffffff82111562000537576200053662000381565b5b602082029050602081019050919050565b60006200055f620005598462000519565b620003e6565b9050808382526020820190506020840283018581111562000585576200058462000514565b5b835b81811015620005d357805167ffffffffffffffff811115620005ae57620005ad62000366565b5b808601620005bd8982620004b2565b8552602085019450505060208101905062000587565b5050509392505050565b600082601f830112620005f557620005f462000366565b5b81516200060784826020860162000548565b91505092915050565b6000620006276200062184620004e5565b620003e6565b905080838252602082019050602084028301858111156200064d576200064c62000514565b5b835b818110156200069b57805167ffffffffffffffff81111562000676576200067562000366565b5b808601620006858982620005dd565b855260208501945050506020810190506200064f565b5050509392505050565b600082601f830112620006bd57620006bc62000366565b5b8151620006cf84826020860162000610565b91505092915050565b600067ffffffffffffffff821115620006f657620006f562000381565b5b602082029050602081019050919050565b6000819050919050565b6200071c8162000707565b81146200072857600080fd5b50565b6000815190506200073c8162000711565b92915050565b6000620007596200075384620006d8565b620003e6565b905080838252602082019050602084028301858111156200077f576200077e62000514565b5b835b81811015620007ac57806200079788826200072b565b84526020840193505060208101905062000781565b5050509392505050565b600082601f830112620007ce57620007cd62000366565b5b8151620007e084826020860162000742565b91505092915050565b600073ffffffffffffffffffffffffffffffffffffffff82169050919050565b60006200081682620007e9565b9050919050565b620008288162000809565b81146200083457600080fd5b50565b60008151905062000848816200081d565b92915050565b600080600080600080600060e0888a03121562000870576200086f6200035c565b5b600088015167ffffffffffffffff81111562000891576200089062000361565b5b6200089f8a828b01620004b2565b975050602088015167ffffffffffffffff811115620008c357620008c262000361565b5b620008d18a828b01620004b2565b965050604088015167ffffffffffffffff811115620008f557620008f462000361565b5b620009038a828b01620004b2565b955050606088015167ffffffffffffffff81111562000927576200092662000361565b5b620009358a828b01620004b2565b945050608088015167ffffffffffffffff81111562000959576200095862000361565b5b620009678a828b01620006a5565b93505060a088015167ffffffffffffffff8111156200098b576200098a62000361565b5b620009998a828b01620007b6565b92505060c0620009ac8a828b0162000837565b91505092959891949750929550565b600081519050919050565b7f4e487b7100000000000000000000000000000000000000000000000000000000600052602260045260246000fd5b6000600282049050600182168062000a0e57607f821691505b60208210810362000a245762000a23620009c6565b5b50919050565b60008190508160005260206000209050919050565b60006020601f8301049050919050565b600082821b905092915050565b60006008830262000a8e7fffffffffffffffffffffffffffffffffffffffffffffffffffffffffffffffff8262000a4f565b62000a9a868362000a4f565b95508019841693508086168417925050509392505050565b6000819050919050565b600062000add62000ad762000ad18462000707565b62000ab2565b62000707565b9050919050565b6000819050919050565b62000af98362000abc565b62000b1162000b088262000ae4565b84845462000a5c565b825550505050565b600090565b62000b2862000b19565b62000b3581848462000aee565b505050565b5b8181101562000b5d5762000b5160008262000b1e565b60018101905062000b3b565b5050565b601f82111562000bac5762000b768162000a2a565b62000b818462000a3f565b8101602085101562000b91578190505b62000ba962000ba08562000a3f565b83018262000b3a565b50505b505050565b600082821c905092915050565b600062000bd16000198460080262000bb1565b1980831691505092915050565b600062000bec838362000bbe565b9150826002028217905092915050565b62000c0782620009bb565b67ffffffffffffffff81111562000c235762000c2262000381565b5b62000c2f8254620009f5565b62000c3c82828562000b61565b600060209050601f83116001811462000c74576000841562000c5f578287015190505b62000c6b858262000bde565b86555062000cdb565b601f19841662000c848662000a2a565b60005b8281101562000cae5784890151825560018201915060208501945060208101905062000c87565b8683101562000cce578489015162000cca601f89168262000bbe565b8355505b6001600288020188555050505b505050505050565b7f4e487b7100000000000000000000000000000000000000000000000000000000600052603260045260246000fd5b7f4e487b7100000000000000000000000000000000000000000000000000000000600052601160045260246000fd5b600062000d4e8262000707565b91507fffffffffffffffffffffffffffffffffffffffffffffffffffffffffffffffff820362000d835762000d8262000d12565b5b600182019050919050565b612c148062000d9e6000396000f3fe60806040526004361061011f5760003560e01c8063865c5172116100a0578063d6afc9b111610064578063d6afc9b114610387578063da14bde3146103b2578063dbfc2c12146103db578063e1d7408314610404578063e9c0d98c1461042f5761011f565b8063865c5172146102b6578063893d20e8146102e157806390c3f38f1461030c578063989cf68814610335578063c47f00271461035e5761011f565b80633ccfd60b116100e75780633ccfd60b146101f757806348168a161461020e578063512dd02014610237578063594d9e63146102625780637d44ba781461028d5761011f565b806312065fe01461012457806317d7de7c1461014f5780631a0925411461017a5780631d07f1fb146101a5578063235b37b1146101ce575b600080fd5b34801561013057600080fd5b5061013961044b565b6040516101469190611992565b60405180910390f35b34801561015b57600080fd5b50610164610453565b6040516101719190611a3d565b60405180910390f35b34801561018657600080fd5b5061018f6104e5565b60405161019c9190611a3d565b60405180910390f35b3480156101b157600080fd5b506101cc60048036038101906101c79190611e5e565b610577565b005b3480156101da57600080fd5b506101f560048036038101906101f09190611ed6565b6106c2565b005b34801561020357600080fd5b5061020c61075c565b005b34801561021a57600080fd5b5061023560048036038101906102309190611f1f565b61087b565b005b34801561024357600080fd5b5061024c6109fe565b6040516102599190611992565b60405180910390f35b34801561026e57600080fd5b50610277610a08565b60405161028491906122b2565b60405180910390f35b34801561029957600080fd5b506102b460048036038101906102af91906122d4565b610b54565b005b3480156102c257600080fd5b506102cb610ca7565b6040516102d891906124ca565b60405180910390f35b3480156102ed57600080fd5b506102f6610f26565b60405161030391906124fb565b60405180910390f35b34801561031857600080fd5b50610333600480360381019061032e9190611ed6565b610f50565b005b34801561034157600080fd5b5061035c60048036038101906103579190612516565b610fea565b005b34801561036a57600080fd5b5061038560048036038101906103809190611ed6565b6110f0565b005b34801561039357600080fd5b5061039c61118a565b6040516103a99190611a3d565b60405180910390f35b3480156103be57600080fd5b506103d960048036038101906103d49190612572565b61121c565b005b3480156103e757600080fd5b5061040260048036038101906103fd9190611ed6565b6113c3565b005b34801561041057600080fd5b5061041961145d565b6040516104269190611a3d565b60405180910390f35b6104496004803603810190610444919061259f565b6114ef565b005b600047905090565b60606004805461046290612659565b80601f016020809104026020016040519081016040528092919081815260200182805461048e90612659565b80156104db5780601f106104b0576101008083540402835291602001916104db565b820191906000526020600020905b8154815290600101906020018083116104be57829003601f168201915b5050505050905090565b6060600780546104f490612659565b80601f016020809104026020016040519081016040528092919081815260200182805461052090612659565b801561056d5780601f106105425761010080835404028352916020019161056d565b820191906000526020600020905b81548152906001019060200180831161055057829003601f168201915b5050505050905090565b6000815167ffffffffffffffff81111561059457610593611a78565b5b6040519080825280602002602001820160405280156105cd57816020015b6105ba611800565b8152602001906001900390816105b25790505b50905060005b81518110156106bc57600060405180606001604052808684815181106105fc576105fb61268a565b5b6020026020010151815260200185848151811061061c5761061b61268a565b5b60200260200101518152602001600354815250905060018190806001815401808255809150506001900390600052602060002090600302016000909190919091506000820151816000019080519060200190610679929190611821565b5060208201518160010155604082015181600201555050600360008154809291906106a3906126e8565b91905055505080806106b4906126e8565b9150506105d3565b50505050565b600260009054906101000a900473ffffffffffffffffffffffffffffffffffffffff1673ffffffffffffffffffffffffffffffffffffffff163373ffffffffffffffffffffffffffffffffffffffff1614610749576040517f1022f53800000000000000000000000000000000000000000000000000000000815260040160405180910390fd5b806005908161075891906128dc565b5050565b600260009054906101000a900473ffffffffffffffffffffffffffffffffffffffff1673ffffffffffffffffffffffffffffffffffffffff163373ffffffffffffffffffffffffffffffffffffffff16146107e3576040517f1022f53800000000000000000000000000000000000000000000000000000000815260040160405180910390fd5b600260009054906101000a900473ffffffffffffffffffffffffffffffffffffffff1673ffffffffffffffffffffffffffffffffffffffff166108fc479081150290604051600060405180830381858888f1935050505015801561084b573d6000803e3d6000fd5b50427fb2a3fd05447b0260cac7f8db72bfb10790a24739428c6d3abe439e09fcac37f960405160405180910390a2565b600260009054906101000a900473ffffffffffffffffffffffffffffffffffffffff1673ffffffffffffffffffffffffffffffffffffffff163373ffffffffffffffffffffffffffffffffffffffff1614610902576040517f1022f53800000000000000000000000000000000000000000000000000000000815260040160405180910390fd5b61090c8383610577565b866004908161091b91906128dc565b50856007908161092b91906128dc565b50846005908161093b91906128dc565b50836006908161094b91906128dc565b5060005b815181101561098e5761097b82828151811061096e5761096d61268a565b5b602002602001015161121c565b8080610986906126e8565b91505061094f565b508560405161099d91906129ea565b6040518091039020876040516109b391906129ea565b6040518091039020427f437ea4e0b06f791d7721d4793d4f8584617500a66883386d6a879f85558ebe7887896040516109ed929190612a01565b60405180910390a450505050505050565b6000600354905090565b60606001805480602002602001604051908101604052809291908181526020016000905b82821015610b4b578382906000526020600020906003020160405180606001604052908160008201805480602002602001604051908101604052809291908181526020016000905b82821015610b20578382906000526020600020018054610a9390612659565b80601f0160208091040260200160405190810160405280929190818152602001828054610abf90612659565b8015610b0c5780601f10610ae157610100808354040283529160200191610b0c565b820191906000526020600020905b815481529060010190602001808311610aef57829003601f168201915b505050505081526020019060010190610a74565b5050505081526020016001820154815260200160028201548152505081526020019060010190610a2c565b50505050905090565b600260009054906101000a900473ffffffffffffffffffffffffffffffffffffffff1673ffffffffffffffffffffffffffffffffffffffff163373ffffffffffffffffffffffffffffffffffffffff1614610bdb576040517f1022f53800000000000000000000000000000000000000000000000000000000815260040160405180910390fd5b60006040518060600160405280848152602001838152602001600354815250905060018190806001815401808255809150506001900390600052602060002090600302016000909190919091506000820151816000019080519060200190610c44929190611821565b50602082015181600101556040820151816002015550506003547fa5dbb7adb15a05f8df3bdfc06617a63f39825dd0c4d2f0615c5134d1d3301b3660405160405180910390a260036000815480929190610c9d906126e8565b9190505550505050565b60606000805480602002602001604051908101604052809291908181526020016000905b82821015610f1d57838290600052602060002090600602016040518060c00160405290816000820160009054906101000a900473ffffffffffffffffffffffffffffffffffffffff1673ffffffffffffffffffffffffffffffffffffffff1673ffffffffffffffffffffffffffffffffffffffff16815260200160018201548152602001600282018054610d5e90612659565b80601f0160208091040260200160405190810160405280929190818152602001828054610d8a90612659565b8015610dd75780601f10610dac57610100808354040283529160200191610dd7565b820191906000526020600020905b815481529060010190602001808311610dba57829003601f168201915b50505050508152602001600382018054610df090612659565b80601f0160208091040260200160405190810160405280929190818152602001828054610e1c90612659565b8015610e695780601f10610e3e57610100808354040283529160200191610e69565b820191906000526020600020905b815481529060010190602001808311610e4c57829003601f168201915b50505050508152602001600482018054610e8290612659565b80601f0160208091040260200160405190810160405280929190818152602001828054610eae90612659565b8015610efb5780601f10610ed057610100808354040283529160200191610efb565b820191906000526020600020905b815481529060010190602001808311610ede57829003601f168201915b5050505050815260200160058201548152505081526020019060010190610ccb565b50505050905090565b6000600260009054906101000a900473ffffffffffffffffffffffffffffffffffffffff16905090565b600260009054906101000a900473ffffffffffffffffffffffffffffffffffffffff1673ffffffffffffffffffffffffffffffffffffffff163373ffffffffffffffffffffffffffffffffffffffff1614610fd7576040517f1022f53800000000000000000000000000000000000000000000000000000000815260040160405180910390fd5b8060079081610fe691906128dc565b5050565b600260009054906101000a900473ffffffffffffffffffffffffffffffffffffffff1673ffffffffffffffffffffffffffffffffffffffff163373ffffffffffffffffffffffffffffffffffffffff1614611071576040517f1022f53800000000000000000000000000000000000000000000000000000000815260040160405180910390fd5b60008083815481106110865761108561268a565b5b90600052602060002090600602019050818160040190816110a791906128dc565b50816040516110b691906129ea565b6040518091039020427f8eece9ee17f7ce4a77eb6329ef9050e2a6286692c80a7e44f776c6d74146ace560405160405180910390a3505050565b600260009054906101000a900473ffffffffffffffffffffffffffffffffffffffff1673ffffffffffffffffffffffffffffffffffffffff163373ffffffffffffffffffffffffffffffffffffffff1614611177576040517f1022f53800000000000000000000000000000000000000000000000000000000815260040160405180910390fd5b806004908161118691906128dc565b5050565b60606005805461119990612659565b80601f01602080910402602001604051908101604052809291908181526020018280546111c590612659565b80156112125780601f106111e757610100808354040283529160200191611212565b820191906000526020600020905b8154815290600101906020018083116111f557829003601f168201915b5050505050905090565b600260009054906101000a900473ffffffffffffffffffffffffffffffffffffffff1673ffffffffffffffffffffffffffffffffffffffff163373ffffffffffffffffffffffffffffffffffffffff16146112a3576040517f1022f53800000000000000000000000000000000000000000000000000000000815260040160405180910390fd5b60005b6001805490508110156113bf5781600182815481106112c8576112c761268a565b5b906000526020600020906003020160020154036113ac5760018080805490506112f19190612a38565b815481106113025761130161268a565b5b9060005260206000209060030201600182815481106113245761132361268a565b5b9060005260206000209060030201600082018160000190805461134892919061187a565b506001820154816001015560028201548160020155905050600180548061137257611371612a6c565b5b60019003818190600052602060002090600302016000808201600061139791906118d7565b60018201600090556002820160009055505090555b80806113b7906126e8565b9150506112a6565b5050565b600260009054906101000a900473ffffffffffffffffffffffffffffffffffffffff1673ffffffffffffffffffffffffffffffffffffffff163373ffffffffffffffffffffffffffffffffffffffff161461144a576040517f1022f53800000000000000000000000000000000000000000000000000000000815260040160405180910390fd5b806006908161145991906128dc565b5050565b60606006805461146c90612659565b80601f016020809104026020016040519081016040528092919081815260200182805461149890612659565b80156114e55780601f106114ba576101008083540402835291602001916114e5565b820191906000526020600020905b8154815290600101906020018083116114c857829003601f168201915b5050505050905090565b6114f7611800565b60005b60018054905081101561166357826001828154811061151c5761151b61268a565b5b9060005260206000209060030201600201540361165057600181815481106115475761154661268a565b5b906000526020600020906003020160405180606001604052908160008201805480602002602001604051908101604052809291908181526020016000905b828210156116315783829060005260206000200180546115a490612659565b80601f01602080910402602001604051908101604052809291908181526020018280546115d090612659565b801561161d5780601f106115f25761010080835404028352916020019161161d565b820191906000526020600020905b81548152906001019060200180831161160057829003601f168201915b505050505081526020019060010190611585565b5050505081526020016001820154815260200160028201548152505091505b808061165b906126e8565b9150506114fa565b5080602001513410156116a2576040517ff1b7411900000000000000000000000000000000000000000000000000000000815260040160405180910390fd5b60006040518060c001604052803373ffffffffffffffffffffffffffffffffffffffff16815260200142815260200186815260200185815260200160405180602001604052806000815250815260200184815250908060018154018082558091505060019003906000526020600020906006020160009091909190915060008201518160000160006101000a81548173ffffffffffffffffffffffffffffffffffffffff021916908373ffffffffffffffffffffffffffffffffffffffff16021790555060208201518160010155604082015181600201908161178591906128dc565b50606082015181600301908161179b91906128dc565b5060808201518160040190816117b191906128dc565b5060a082015181600501555050427f1cfb7901bbb0acf7f618d0389fdda4a852e9de1abe2b641bf9e6f40ace3a44ad8585856040516117f293929190612a9b565b60405180910390a250505050565b60405180606001604052806060815260200160008152602001600081525090565b828054828255906000526020600020908101928215611869579160200282015b8281111561186857825182908161185891906128dc565b5091602001919060010190611841565b5b50905061187691906118f8565b5090565b8280548282559060005260206000209081019282156118c65760005260206000209182015b828111156118c557828290816118b59190612af6565b509160010191906001019061189f565b5b5090506118d391906118f8565b5090565b50805460008255906000526020600020908101906118f591906118f8565b50565b5b80821115611918576000818161190f919061191c565b506001016118f9565b5090565b50805461192890612659565b6000825580601f1061193a5750611959565b601f016020900490600052602060002090810190611958919061195c565b5b50565b5b8082111561197557600081600090555060010161195d565b5090565b6000819050919050565b61198c81611979565b82525050565b60006020820190506119a76000830184611983565b92915050565b600081519050919050565b600082825260208201905092915050565b60005b838110156119e75780820151818401526020810190506119cc565b60008484015250505050565b6000601f19601f8301169050919050565b6000611a0f826119ad565b611a1981856119b8565b9350611a298185602086016119c9565b611a32816119f3565b840191505092915050565b60006020820190508181036000830152611a578184611a04565b905092915050565b6000604051905090565b600080fd5b600080fd5b600080fd5b7f4e487b7100000000000000000000000000000000000000000000000000000000600052604160045260246000fd5b611ab0826119f3565b810181811067ffffffffffffffff82111715611acf57611ace611a78565b5b80604052505050565b6000611ae2611a5f565b9050611aee8282611aa7565b919050565b600067ffffffffffffffff821115611b0e57611b0d611a78565b5b602082029050602081019050919050565b600080fd5b600067ffffffffffffffff821115611b3f57611b3e611a78565b5b602082029050602081019050919050565b600080fd5b600067ffffffffffffffff821115611b7057611b6f611a78565b5b611b79826119f3565b9050602081019050919050565b82818337600083830152505050565b6000611ba8611ba384611b55565b611ad8565b905082815260208101848484011115611bc457611bc3611b50565b5b611bcf848285611b86565b509392505050565b600082601f830112611bec57611beb611a73565b5b8135611bfc848260208601611b95565b91505092915050565b6000611c18611c1384611b24565b611ad8565b90508083825260208201905060208402830185811115611c3b57611c3a611b1f565b5b835b81811015611c8257803567ffffffffffffffff811115611c6057611c5f611a73565b5b808601611c6d8982611bd7565b85526020850194505050602081019050611c3d565b5050509392505050565b600082601f830112611ca157611ca0611a73565b5b8135611cb1848260208601611c05565b91505092915050565b6000611ccd611cc884611af3565b611ad8565b90508083825260208201905060208402830185811115611cf057611cef611b1f565b5b835b81811015611d3757803567ffffffffffffffff811115611d1557611d14611a73565b5b808601611d228982611c8c565b85526020850194505050602081019050611cf2565b5050509392505050565b600082601f830112611d5657611d55611a73565b5b8135611d66848260208601611cba565b91505092915050565b600067ffffffffffffffff821115611d8a57611d89611a78565b5b602082029050602081019050919050565b611da481611979565b8114611daf57600080fd5b50565b600081359050611dc181611d9b565b92915050565b6000611dda611dd584611d6f565b611ad8565b90508083825260208201905060208402830185811115611dfd57611dfc611b1f565b5b835b81811015611e265780611e128882611db2565b845260208401935050602081019050611dff565b5050509392505050565b600082601f830112611e4557611e44611a73565b5b8135611e55848260208601611dc7565b91505092915050565b60008060408385031215611e7557611e74611a69565b5b600083013567ffffffffffffffff811115611e9357611e92611a6e565b5b611e9f85828601611d41565b925050602083013567ffffffffffffffff811115611ec057611ebf611a6e565b5b611ecc85828601611e30565b9150509250929050565b600060208284031215611eec57611eeb611a69565b5b600082013567ffffffffffffffff811115611f0a57611f09611a6e565b5b611f1684828501611bd7565b91505092915050565b600080600080600080600060e0888a031215611f3e57611f3d611a69565b5b600088013567ffffffffffffffff811115611f5c57611f5b611a6e565b5b611f688a828b01611bd7565b975050602088013567ffffffffffffffff811115611f8957611f88611a6e565b5b611f958a828b01611bd7565b965050604088013567ffffffffffffffff811115611fb657611fb5611a6e565b5b611fc28a828b01611bd7565b955050606088013567ffffffffffffffff811115611fe357611fe2611a6e565b5b611fef8a828b01611bd7565b945050608088013567ffffffffffffffff8111156120105761200f611a6e565b5b61201c8a828b01611d41565b93505060a088013567ffffffffffffffff81111561203d5761203c611a6e565b5b6120498a828b01611e30565b92505060c088013567ffffffffffffffff81111561206a57612069611a6e565b5b6120768a828b01611e30565b91505092959891949750929550565b600081519050919050565b600082825260208201905092915050565b6000819050602082019050919050565b600081519050919050565b600082825260208201905092915050565b6000819050602082019050919050565b600082825260208201905092915050565b60006120f9826119ad565b61210381856120dd565b93506121138185602086016119c9565b61211c816119f3565b840191505092915050565b600061213383836120ee565b905092915050565b6000602082019050919050565b6000612153826120b1565b61215d81856120bc565b93508360208202850161216f856120cd565b8060005b858110156121ab578484038952815161218c8582612127565b94506121978361213b565b925060208a01995050600181019050612173565b50829750879550505050505092915050565b6121c681611979565b82525050565b600060608301600083015184820360008601526121e98282612148565b91505060208301516121fe60208601826121bd565b50604083015161221160408601826121bd565b508091505092915050565b600061222883836121cc565b905092915050565b6000602082019050919050565b600061224882612085565b6122528185612090565b935083602082028501612264856120a1565b8060005b858110156122a05784840389528151612281858261221c565b945061228c83612230565b925060208a01995050600181019050612268565b50829750879550505050505092915050565b600060208201905081810360008301526122cc818461223d565b905092915050565b600080604083850312156122eb576122ea611a69565b5b600083013567ffffffffffffffff81111561230957612308611a6e565b5b61231585828601611c8c565b925050602061232685828601611db2565b9150509250929050565b600081519050919050565b600082825260208201905092915050565b6000819050602082019050919050565b600073ffffffffffffffffffffffffffffffffffffffff82169050919050565b60006123878261235c565b9050919050565b6123978161237c565b82525050565b600060c0830160008301516123b5600086018261238e565b5060208301516123c860208601826121bd565b50604083015184820360408601526123e082826120ee565b915050606083015184820360608601526123fa82826120ee565b9150506080830151848203608086015261241482826120ee565b91505060a083015161242960a08601826121bd565b508091505092915050565b6000612440838361239d565b905092915050565b6000602082019050919050565b600061246082612330565b61246a818561233b565b93508360208202850161247c8561234c565b8060005b858110156124b857848403895281516124998582612434565b94506124a483612448565b925060208a01995050600181019050612480565b50829750879550505050505092915050565b600060208201905081810360008301526124e48184612455565b905092915050565b6124f58161237c565b82525050565b600060208201905061251060008301846124ec565b92915050565b6000806040838503121561252d5761252c611a69565b5b600061253b85828601611db2565b925050602083013567ffffffffffffffff81111561255c5761255b611a6e565b5b61256885828601611bd7565b9150509250929050565b60006020828403121561258857612587611a69565b5b600061259684828501611db2565b91505092915050565b6000806000606084860312156125b8576125b7611a69565b5b600084013567ffffffffffffffff8111156125d6576125d5611a6e565b5b6125e286828701611bd7565b935050602084013567ffffffffffffffff81111561260357612602611a6e565b5b61260f86828701611bd7565b925050604061262086828701611db2565b9150509250925092565b7f4e487b7100000000000000000000000000000000000000000000000000000000600052602260045260246000fd5b6000600282049050600182168061267157607f821691505b6020821081036126845761268361262a565b5b50919050565b7f4e487b7100000000000000000000000000000000000000000000000000000000600052603260045260246000fd5b7f4e487b7100000000000000000000000000000000000000000000000000000000600052601160045260246000fd5b60006126f382611979565b91507fffffffffffffffffffffffffffffffffffffffffffffffffffffffffffffffff8203612725576127246126b9565b5b600182019050919050565b60008190508160005260206000209050919050565b60006020601f8301049050919050565b600082821b905092915050565b6000600883026127927fffffffffffffffffffffffffffffffffffffffffffffffffffffffffffffffff82612755565b61279c8683612755565b95508019841693508086168417925050509392505050565b6000819050919050565b60006127d96127d46127cf84611979565b6127b4565b611979565b9050919050565b6000819050919050565b6127f3836127be565b6128076127ff826127e0565b848454612762565b825550505050565b600090565b61281c61280f565b6128278184846127ea565b505050565b5b8181101561284b57612840600082612814565b60018101905061282d565b5050565b601f8211156128905761286181612730565b61286a84612745565b81016020851015612879578190505b61288d61288585612745565b83018261282c565b50505b505050565b600082821c905092915050565b60006128b360001984600802612895565b1980831691505092915050565b60006128cc83836128a2565b9150826002028217905092915050565b6128e5826119ad565b67ffffffffffffffff8111156128fe576128fd611a78565b5b6129088254612659565b61291382828561284f565b600060209050601f8311600181146129465760008415612934578287015190505b61293e85826128c0565b8655506129a6565b601f19841661295486612730565b60005b8281101561297c57848901518255600182019150602085019450602081019050612957565b868310156129995784890151612995601f8916826128a2565b8355505b6001600288020188555050505b505050505050565b600081905092915050565b60006129c4826119ad565b6129ce81856129ae565b93506129de8185602086016119c9565b80840191505092915050565b60006129f682846129b9565b915081905092915050565b60006040820190508181036000830152612a1b8185611a04565b90508181036020830152612a2f8184611a04565b90509392505050565b6000612a4382611979565b9150612a4e83611979565b9250828203905081811115612a6657612a656126b9565b5b92915050565b7f4e487b7100000000000000000000000000000000000000000000000000000000600052603160045260246000fd5b60006060820190508181036000830152612ab58186611a04565b90508181036020830152612ac98185611a04565b9050612ad86040830184611983565b949350505050565b600081549050612aef81612659565b9050919050565b818103612b04575050612bdc565b612b0d82612ae0565b67ffffffffffffffff811115612b2657612b25611a78565b5b612b308254612659565b612b3b82828561284f565b6000601f831160018114612b6a5760008415612b58578287015490505b612b6285826128c0565b865550612bd5565b601f198416612b7887612730565b9650612b8386612730565b60005b82811015612bab57848901548255600182019150600185019450602081019050612b86565b86831015612bc85784890154612bc4601f8916826128a2565b8355505b6001600288020188555050505b5050505050505b56fea26469706673582212205a3234f67bd3e7dec0f889f98bfb1b3fd9934c323e0bf33581804badb0a4a45564736f6c63430008110033",
   "linkReferences": {},
   "deployedLinkReferences": {}
}