{
   "_format": "hh-sol-artifact-1",
   "contractName": "BuyMeACoffee",
   "sourceName": "contracts/BuyMeACoffee.sol",
   "abi": [
      {
         "inputs": [
            {
               "internalType": "string",
               "name": "_name",
               "type": "string"
            },
            {
               "internalType": "string",
               "name": "_description",
               "type": "string"
            },
            {
               "internalType": "string",
               "name": "_profile",
               "type": "string"
            },
            {
               "internalType": "string",
               "name": "_thumbnail",
               "type": "string"
            },
            {
               "internalType": "string[][]",
               "name": "_items",
               "type": "string[][]"
            },
            {
               "internalType": "uint256[]",
               "name": "_itemsValues",
               "type": "uint256[]"
            },
            {
               "internalType": "address",
               "name": "_owner",
               "type": "address"
            },
            {
               "internalType": "address",
               "name": "_superUser",
               "type": "address"
            },
            {
               "internalType": "contract AggregatorV3Interface",
               "name": "_priceFeed",
               "type": "address"
            }
         ],
         "stateMutability": "nonpayable",
         "type": "constructor"
      },
      {
         "inputs": [],
         "name": "BuyMeACoffee__NotEnoughEthSend",
         "type": "error"
      },
      {
         "inputs": [],
         "name": "BuyMeACoffee__NotOwner",
         "type": "error"
      },
      {
         "inputs": [],
         "name": "BuyMeACoffee__NotSuperUser",
         "type": "error"
      },
      {
         "anonymous": false,
         "inputs": [
            {
               "indexed": true,
               "internalType": "uint256",
               "name": "items_id",
               "type": "uint256"
            }
         ],
         "name": "AddedItems",
         "type": "event"
      },
      {
         "inputs": [
            {
               "internalType": "string[]",
               "name": "names",
               "type": "string[]"
            },
            {
               "internalType": "uint256",
               "name": "cost",
               "type": "uint256"
            }
         ],
         "name": "addItems",
         "outputs": [],
         "stateMutability": "nonpayable",
         "type": "function"
      },
      {
         "inputs": [],
         "name": "getDecimals",
         "outputs": [
            {
               "internalType": "uint8",
               "name": "",
               "type": "uint8"
            }
         ],
         "stateMutability": "view",
         "type": "function"
      },
      {
         "inputs": [],
         "name": "getDescription",
         "outputs": [
            {
               "internalType": "string",
               "name": "",
               "type": "string"
            }
         ],
         "stateMutability": "view",
         "type": "function"
      },
      {
         "inputs": [],
         "name": "getItemsCount",
         "outputs": [
            {
               "internalType": "uint256",
               "name": "",
               "type": "uint256"
            }
         ],
         "stateMutability": "view",
         "type": "function"
      },
      {
         "inputs": [],
         "name": "getLatestPrice",
         "outputs": [
            {
               "internalType": "int256",
               "name": "",
               "type": "int256"
            }
         ],
         "stateMutability": "view",
         "type": "function"
      },
      {
         "inputs": [],
         "name": "getListOfItems",
         "outputs": [
            {
               "components": [
                  {
                     "internalType": "string[]",
                     "name": "names",
                     "type": "string[]"
                  },
                  {
                     "internalType": "uint256",
                     "name": "cost",
                     "type": "uint256"
                  },
                  {
                     "internalType": "uint256",
                     "name": "id",
                     "type": "uint256"
                  }
               ],
               "internalType": "struct BuyMeACoffee.Items[]",
               "name": "",
               "type": "tuple[]"
            }
         ],
         "stateMutability": "view",
         "type": "function"
      },
      {
         "inputs": [],
         "name": "getMemos",
         "outputs": [
            {
               "components": [
                  {
                     "internalType": "address",
                     "name": "from",
                     "type": "address"
                  },
                  {
                     "internalType": "uint256",
                     "name": "timestamp",
                     "type": "uint256"
                  },
                  {
                     "internalType": "string",
                     "name": "name",
                     "type": "string"
                  },
                  {
                     "internalType": "string",
                     "name": "message",
                     "type": "string"
                  },
                  {
                     "internalType": "string",
                     "name": "response",
                     "type": "string"
                  },
                  {
                     "internalType": "uint256",
                     "name": "items_id",
                     "type": "uint256"
                  }
               ],
               "internalType": "struct BuyMeACoffee.Memo[]",
               "name": "",
               "type": "tuple[]"
            }
         ],
         "stateMutability": "view",
         "type": "function"
      },
      {
         "inputs": [],
         "name": "getName",
         "outputs": [
            {
               "internalType": "string",
               "name": "",
               "type": "string"
            }
         ],
         "stateMutability": "view",
         "type": "function"
      },
      {
         "inputs": [],
         "name": "getOwner",
         "outputs": [
            {
               "internalType": "address",
               "name": "",
               "type": "address"
            }
         ],
         "stateMutability": "view",
         "type": "function"
      },
      {
         "inputs": [],
         "name": "getPriceFeed",
         "outputs": [
            {
               "internalType": "contract AggregatorV3Interface",
               "name": "",
               "type": "address"
            }
         ],
         "stateMutability": "view",
         "type": "function"
      },
      {
         "inputs": [],
         "name": "getProfile",
         "outputs": [
            {
               "internalType": "string",
               "name": "",
               "type": "string"
            }
         ],
         "stateMutability": "view",
         "type": "function"
      },
      {
         "inputs": [],
         "name": "getSuperUser",
         "outputs": [
            {
               "internalType": "address",
               "name": "",
               "type": "address"
            }
         ],
         "stateMutability": "view",
         "type": "function"
      },
      {
         "inputs": [],
         "name": "getThumbnail",
         "outputs": [
            {
               "internalType": "string",
               "name": "",
               "type": "string"
            }
         ],
         "stateMutability": "view",
         "type": "function"
      },
      {
         "inputs": [
            {
               "internalType": "uint256",
               "name": "_id",
               "type": "uint256"
            }
         ],
         "name": "removeItems",
         "outputs": [],
         "stateMutability": "nonpayable",
         "type": "function"
      },
      {
         "inputs": [
            {
               "internalType": "string",
               "name": "_description",
               "type": "string"
            }
         ],
         "name": "setDescription",
         "outputs": [],
         "stateMutability": "nonpayable",
         "type": "function"
      },
      {
         "inputs": [
            {
               "internalType": "string[][]",
               "name": "_items",
               "type": "string[][]"
            },
            {
               "internalType": "uint256[]",
               "name": "_itemsValues",
               "type": "uint256[]"
            }
         ],
         "name": "setInitialItems",
         "outputs": [],
         "stateMutability": "nonpayable",
         "type": "function"
      },
      {
         "inputs": [
            {
               "internalType": "string",
               "name": "_name",
               "type": "string"
            }
         ],
         "name": "setName",
         "outputs": [],
         "stateMutability": "nonpayable",
         "type": "function"
      },
      {
         "inputs": [
            {
               "internalType": "string",
               "name": "_profile",
               "type": "string"
            }
         ],
         "name": "setProfile",
         "outputs": [],
         "stateMutability": "nonpayable",
         "type": "function"
      },
      {
         "inputs": [
            {
               "internalType": "string",
               "name": "_thumbnail",
               "type": "string"
            }
         ],
         "name": "setThumbnail",
         "outputs": [],
         "stateMutability": "nonpayable",
         "type": "function"
      },
      {
         "inputs": [
            {
               "internalType": "string",
               "name": "_name",
               "type": "string"
            },
            {
               "internalType": "string",
               "name": "_message",
               "type": "string"
            },
            {
               "internalType": "uint256",
               "name": "_itemsId",
               "type": "uint256"
            }
         ],
         "name": "storeMemo",
         "outputs": [],
         "stateMutability": "payable",
         "type": "function"
      },
      {
         "inputs": [
            {
               "internalType": "contract AggregatorV3Interface",
               "name": "_priceFeed",
               "type": "address"
            },
            {
               "internalType": "address",
               "name": "sender",
               "type": "address"
            }
         ],
         "name": "updatePriceFeed",
         "outputs": [],
         "stateMutability": "nonpayable",
         "type": "function"
      },
      {
         "inputs": [],
         "name": "withdraw",
         "outputs": [],
         "stateMutability": "nonpayable",
         "type": "function"
      }
   ],
   "bytecode": "0x608060405260006005553480156200001657600080fd5b5060405162003ac638038062003ac683398181016040528101906200003c919062000917565b88600690816200004d919062000cf1565b5087600990816200005f919062000cf1565b50866007908162000071919062000cf1565b50856008908162000083919062000cf1565b5080600260006101000a81548173ffffffffffffffffffffffffffffffffffffffff021916908373ffffffffffffffffffffffffffffffffffffffff16021790555082600360006101000a81548173ffffffffffffffffffffffffffffffffffffffff021916908373ffffffffffffffffffffffffffffffffffffffff16021790555081600460006101000a81548173ffffffffffffffffffffffffffffffffffffffff021916908373ffffffffffffffffffffffffffffffffffffffff1602179055506200015985856200016860201b60201c565b50505050505050505062000e83565b6000815167ffffffffffffffff81111562000188576200018762000405565b5b604051908082528060200260200182016040528015620001c557816020015b620001b1620002c8565b815260200190600190039081620001a75790505b50905060005b8151811015620002c25760006040518060600160405280868481518110620001f857620001f762000dd8565b5b602002602001015181526020018584815181106200021b576200021a62000dd8565b5b602002602001015181526020016005548152509050600181908060018154018082558091505060019003906000526020600020906003020160009091909190915060008201518160000190805190602001906200027a929190620002e9565b506020820151816001015560408201518160020155505060056000815480929190620002a69062000e36565b9190505550508080620002b99062000e36565b915050620001cb565b50505050565b60405180606001604052806060815260200160008152602001600081525090565b82805482825590600052602060002090810192821562000336579160200282015b828111156200033557825182908162000324919062000cf1565b50916020019190600101906200030a565b5b50905062000345919062000349565b5090565b5b808211156200036d576000818162000363919062000371565b506001016200034a565b5090565b5080546200037f9062000aea565b6000825580601f10620003935750620003b4565b601f016020900490600052602060002090810190620003b39190620003b7565b5b50565b5b80821115620003d2576000816000905550600101620003b8565b5090565b6000604051905090565b600080fd5b600080fd5b600080fd5b600080fd5b6000601f19601f8301169050919050565b7f4e487b7100000000000000000000000000000000000000000000000000000000600052604160045260246000fd5b6200043f82620003f4565b810181811067ffffffffffffffff8211171562000461576200046062000405565b5b80604052505050565b600062000476620003d6565b905062000484828262000434565b919050565b600067ffffffffffffffff821115620004a757620004a662000405565b5b620004b282620003f4565b9050602081019050919050565b60005b83811015620004df578082015181840152602081019050620004c2565b60008484015250505050565b600062000502620004fc8462000489565b6200046a565b905082815260208101848484011115620005215762000520620003ef565b5b6200052e848285620004bf565b509392505050565b600082601f8301126200054e576200054d620003ea565b5b815162000560848260208601620004eb565b91505092915050565b600067ffffffffffffffff82111562000587576200058662000405565b5b602082029050602081019050919050565b600080fd5b600067ffffffffffffffff821115620005bb57620005ba62000405565b5b602082029050602081019050919050565b6000620005e3620005dd846200059d565b6200046a565b9050808382526020820190506020840283018581111562000609576200060862000598565b5b835b818110156200065757805167ffffffffffffffff811115620006325762000631620003ea565b5b80860162000641898262000536565b855260208501945050506020810190506200060b565b5050509392505050565b600082601f830112620006795762000678620003ea565b5b81516200068b848260208601620005cc565b91505092915050565b6000620006ab620006a58462000569565b6200046a565b90508083825260208201905060208402830185811115620006d157620006d062000598565b5b835b818110156200071f57805167ffffffffffffffff811115620006fa57620006f9620003ea565b5b80860162000709898262000661565b85526020850194505050602081019050620006d3565b5050509392505050565b600082601f830112620007415762000740620003ea565b5b81516200075384826020860162000694565b91505092915050565b600067ffffffffffffffff8211156200077a576200077962000405565b5b602082029050602081019050919050565b6000819050919050565b620007a0816200078b565b8114620007ac57600080fd5b50565b600081519050620007c08162000795565b92915050565b6000620007dd620007d7846200075c565b6200046a565b9050808382526020820190506020840283018581111562000803576200080262000598565b5b835b818110156200083057806200081b8882620007af565b84526020840193505060208101905062000805565b5050509392505050565b600082601f830112620008525762000851620003ea565b5b815162000864848260208601620007c6565b91505092915050565b600073ffffffffffffffffffffffffffffffffffffffff82169050919050565b60006200089a826200086d565b9050919050565b620008ac816200088d565b8114620008b857600080fd5b50565b600081519050620008cc81620008a1565b92915050565b6000620008df826200088d565b9050919050565b620008f181620008d2565b8114620008fd57600080fd5b50565b6000815190506200091181620008e6565b92915050565b60008060008060008060008060006101208a8c0312156200093d576200093c620003e0565b5b60008a015167ffffffffffffffff8111156200095e576200095d620003e5565b5b6200096c8c828d0162000536565b99505060208a015167ffffffffffffffff81111562000990576200098f620003e5565b5b6200099e8c828d0162000536565b98505060408a015167ffffffffffffffff811115620009c257620009c1620003e5565b5b620009d08c828d0162000536565b97505060608a015167ffffffffffffffff811115620009f457620009f3620003e5565b5b62000a028c828d0162000536565b96505060808a015167ffffffffffffffff81111562000a265762000a25620003e5565b5b62000a348c828d0162000729565b95505060a08a015167ffffffffffffffff81111562000a585762000a57620003e5565b5b62000a668c828d016200083a565b94505060c062000a798c828d01620008bb565b93505060e062000a8c8c828d01620008bb565b92505061010062000aa08c828d0162000900565b9150509295985092959850929598565b600081519050919050565b7f4e487b7100000000000000000000000000000000000000000000000000000000600052602260045260246000fd5b6000600282049050600182168062000b0357607f821691505b60208210810362000b195762000b1862000abb565b5b50919050565b60008190508160005260206000209050919050565b60006020601f8301049050919050565b600082821b905092915050565b60006008830262000b837fffffffffffffffffffffffffffffffffffffffffffffffffffffffffffffffff8262000b44565b62000b8f868362000b44565b95508019841693508086168417925050509392505050565b6000819050919050565b600062000bd262000bcc62000bc6846200078b565b62000ba7565b6200078b565b9050919050565b6000819050919050565b62000bee8362000bb1565b62000c0662000bfd8262000bd9565b84845462000b51565b825550505050565b600090565b62000c1d62000c0e565b62000c2a81848462000be3565b505050565b5b8181101562000c525762000c4660008262000c13565b60018101905062000c30565b5050565b601f82111562000ca15762000c6b8162000b1f565b62000c768462000b34565b8101602085101562000c86578190505b62000c9e62000c958562000b34565b83018262000c2f565b50505b505050565b600082821c905092915050565b600062000cc66000198460080262000ca6565b1980831691505092915050565b600062000ce1838362000cb3565b9150826002028217905092915050565b62000cfc8262000ab0565b67ffffffffffffffff81111562000d185762000d1762000405565b5b62000d24825462000aea565b62000d3182828562000c56565b600060209050601f83116001811462000d69576000841562000d54578287015190505b62000d60858262000cd3565b86555062000dd0565b601f19841662000d798662000b1f565b60005b8281101562000da35784890151825560018201915060208501945060208101905062000d7c565b8683101562000dc3578489015162000dbf601f89168262000cb3565b8355505b6001600288020188555050505b505050505050565b7f4e487b7100000000000000000000000000000000000000000000000000000000600052603260045260246000fd5b7f4e487b7100000000000000000000000000000000000000000000000000000000600052601160045260246000fd5b600062000e43826200078b565b91507fffffffffffffffffffffffffffffffffffffffffffffffffffffffffffffffff820362000e785762000e7762000e07565b5b600182019050919050565b612c338062000e936000396000f3fe6080604052600436106101355760003560e01c806390c3f38f116100ab578063da14bde31161006f578063da14bde3146103cc578063dbfc2c12146103f5578063e1d740831461041e578063e9c0d98c14610449578063eefa873514610465578063f0141d841461048e57610135565b806390c3f38f146102fb5780639e87a5cd14610324578063b7997da11461034f578063c47f002714610378578063d6afc9b1146103a157610135565b8063594d9e63116100fd578063594d9e63146101fb5780636c50c11e146102265780637d44ba7814610251578063865c51721461027a578063893d20e8146102a55780638e15f473146102d057610135565b806317d7de7c1461013a5780631a09254114610165578063235b37b1146101905780633ccfd60b146101b9578063512dd020146101d0575b600080fd5b34801561014657600080fd5b5061014f6104b9565b60405161015c91906119dd565b60405180910390f35b34801561017157600080fd5b5061017a61054b565b60405161018791906119dd565b60405180910390f35b34801561019c57600080fd5b506101b760048036038101906101b29190611b48565b6105dd565b005b3480156101c557600080fd5b506101ce610677565b005b3480156101dc57600080fd5b506101e5610769565b6040516101f29190611baa565b60405180910390f35b34801561020757600080fd5b50610210610773565b60405161021d9190611df2565b60405180910390f35b34801561023257600080fd5b5061023b6108bf565b6040516102489190611e55565b60405180910390f35b34801561025d57600080fd5b5061027860048036038101906102739190611f82565b6108e9565b005b34801561028657600080fd5b5061028f610a3c565b60405161029c9190612146565b60405180910390f35b3480156102b157600080fd5b506102ba610cbb565b6040516102c79190611e55565b60405180910390f35b3480156102dc57600080fd5b506102e5610ce5565b6040516102f29190612181565b60405180910390f35b34801561030757600080fd5b50610322600480360381019061031d9190611b48565b610d86565b005b34801561033057600080fd5b50610339610e20565b60405161034691906121fb565b60405180910390f35b34801561035b57600080fd5b5061037660048036038101906103719190612280565b610e4a565b005b34801561038457600080fd5b5061039f600480360381019061039a9190611b48565b610f18565b005b3480156103ad57600080fd5b506103b6610fb2565b6040516103c391906119dd565b60405180910390f35b3480156103d857600080fd5b506103f360048036038101906103ee91906122c0565b611044565b005b34801561040157600080fd5b5061041c60048036038101906104179190611b48565b6111eb565b005b34801561042a57600080fd5b50610433611285565b60405161044091906119dd565b60405180910390f35b610463600480360381019061045e91906122ed565b611317565b005b34801561047157600080fd5b5061048c6004803603810190610487919061251c565b6115ec565b005b34801561049a57600080fd5b506104a3611737565b6040516104b091906125b0565b60405180910390f35b6060600680546104c8906125fa565b80601f01602080910402602001604051908101604052809291908181526020018280546104f4906125fa565b80156105415780601f1061051657610100808354040283529160200191610541565b820191906000526020600020905b81548152906001019060200180831161052457829003601f168201915b5050505050905090565b60606009805461055a906125fa565b80601f0160208091040260200160405190810160405280929190818152602001828054610586906125fa565b80156105d35780601f106105a8576101008083540402835291602001916105d3565b820191906000526020600020905b8154815290600101906020018083116105b657829003601f168201915b5050505050905090565b600360009054906101000a900473ffffffffffffffffffffffffffffffffffffffff1673ffffffffffffffffffffffffffffffffffffffff163373ffffffffffffffffffffffffffffffffffffffff1614610664576040517f1022f53800000000000000000000000000000000000000000000000000000000815260040160405180910390fd5b806007908161067391906127cd565b5050565b600360009054906101000a900473ffffffffffffffffffffffffffffffffffffffff1673ffffffffffffffffffffffffffffffffffffffff163373ffffffffffffffffffffffffffffffffffffffff16146106fe576040517f1022f53800000000000000000000000000000000000000000000000000000000815260040160405180910390fd5b600360009054906101000a900473ffffffffffffffffffffffffffffffffffffffff1673ffffffffffffffffffffffffffffffffffffffff166108fc479081150290604051600060405180830381858888f19350505050158015610766573d6000803e3d6000fd5b50565b6000600554905090565b60606001805480602002602001604051908101604052809291908181526020016000905b828210156108b6578382906000526020600020906003020160405180606001604052908160008201805480602002602001604051908101604052809291908181526020016000905b8282101561088b5783829060005260206000200180546107fe906125fa565b80601f016020809104026020016040519081016040528092919081815260200182805461082a906125fa565b80156108775780601f1061084c57610100808354040283529160200191610877565b820191906000526020600020905b81548152906001019060200180831161085a57829003601f168201915b5050505050815260200190600101906107df565b5050505081526020016001820154815260200160028201548152505081526020019060010190610797565b50505050905090565b6000600460009054906101000a900473ffffffffffffffffffffffffffffffffffffffff16905090565b600360009054906101000a900473ffffffffffffffffffffffffffffffffffffffff1673ffffffffffffffffffffffffffffffffffffffff163373ffffffffffffffffffffffffffffffffffffffff1614610970576040517f1022f53800000000000000000000000000000000000000000000000000000000815260040160405180910390fd5b600060405180606001604052808481526020018381526020016005548152509050600181908060018154018082558091505060019003906000526020600020906003020160009091909190915060008201518160000190805190602001906109d99291906117d4565b50602082015181600101556040820151816002015550506005547fa5dbb7adb15a05f8df3bdfc06617a63f39825dd0c4d2f0615c5134d1d3301b3660405160405180910390a260056000815480929190610a32906128ce565b9190505550505050565b60606000805480602002602001604051908101604052809291908181526020016000905b82821015610cb257838290600052602060002090600602016040518060c00160405290816000820160009054906101000a900473ffffffffffffffffffffffffffffffffffffffff1673ffffffffffffffffffffffffffffffffffffffff1673ffffffffffffffffffffffffffffffffffffffff16815260200160018201548152602001600282018054610af3906125fa565b80601f0160208091040260200160405190810160405280929190818152602001828054610b1f906125fa565b8015610b6c5780601f10610b4157610100808354040283529160200191610b6c565b820191906000526020600020905b815481529060010190602001808311610b4f57829003601f168201915b50505050508152602001600382018054610b85906125fa565b80601f0160208091040260200160405190810160405280929190818152602001828054610bb1906125fa565b8015610bfe5780601f10610bd357610100808354040283529160200191610bfe565b820191906000526020600020905b815481529060010190602001808311610be157829003601f168201915b50505050508152602001600482018054610c17906125fa565b80601f0160208091040260200160405190810160405280929190818152602001828054610c43906125fa565b8015610c905780601f10610c6557610100808354040283529160200191610c90565b820191906000526020600020905b815481529060010190602001808311610c7357829003601f168201915b5050505050815260200160058201548152505081526020019060010190610a60565b50505050905090565b6000600360009054906101000a900473ffffffffffffffffffffffffffffffffffffffff16905090565b600080600260009054906101000a900473ffffffffffffffffffffffffffffffffffffffff1673ffffffffffffffffffffffffffffffffffffffff1663feaf968c6040518163ffffffff1660e01b815260040160a060405180830381865afa158015610d55573d6000803e3d6000fd5b505050506040513d601f19601f82011682018060405250810190610d799190612999565b5050509150508091505090565b600360009054906101000a900473ffffffffffffffffffffffffffffffffffffffff1673ffffffffffffffffffffffffffffffffffffffff163373ffffffffffffffffffffffffffffffffffffffff1614610e0d576040517f1022f53800000000000000000000000000000000000000000000000000000000815260040160405180910390fd5b8060099081610e1c91906127cd565b5050565b6000600260009054906101000a900473ffffffffffffffffffffffffffffffffffffffff16905090565b80600460009054906101000a900473ffffffffffffffffffffffffffffffffffffffff1673ffffffffffffffffffffffffffffffffffffffff168173ffffffffffffffffffffffffffffffffffffffff1614610ed2576040517fab0aa2a200000000000000000000000000000000000000000000000000000000815260040160405180910390fd5b82600260006101000a81548173ffffffffffffffffffffffffffffffffffffffff021916908373ffffffffffffffffffffffffffffffffffffffff160217905550505050565b600360009054906101000a900473ffffffffffffffffffffffffffffffffffffffff1673ffffffffffffffffffffffffffffffffffffffff163373ffffffffffffffffffffffffffffffffffffffff1614610f9f576040517f1022f53800000000000000000000000000000000000000000000000000000000815260040160405180910390fd5b8060069081610fae91906127cd565b5050565b606060078054610fc1906125fa565b80601f0160208091040260200160405190810160405280929190818152602001828054610fed906125fa565b801561103a5780601f1061100f5761010080835404028352916020019161103a565b820191906000526020600020905b81548152906001019060200180831161101d57829003601f168201915b5050505050905090565b600360009054906101000a900473ffffffffffffffffffffffffffffffffffffffff1673ffffffffffffffffffffffffffffffffffffffff163373ffffffffffffffffffffffffffffffffffffffff16146110cb576040517f1022f53800000000000000000000000000000000000000000000000000000000815260040160405180910390fd5b60005b6001805490508110156111e75781600182815481106110f0576110ef612a14565b5b906000526020600020906003020160020154036111d45760018080805490506111199190612a43565b8154811061112a57611129612a14565b5b90600052602060002090600302016001828154811061114c5761114b612a14565b5b9060005260206000209060030201600082018160000190805461117092919061182d565b506001820154816001015560028201548160020155905050600180548061119a57611199612a77565b5b6001900381819060005260206000209060030201600080820160006111bf919061188a565b60018201600090556002820160009055505090555b80806111df906128ce565b9150506110ce565b5050565b600360009054906101000a900473ffffffffffffffffffffffffffffffffffffffff1673ffffffffffffffffffffffffffffffffffffffff163373ffffffffffffffffffffffffffffffffffffffff1614611272576040517f1022f53800000000000000000000000000000000000000000000000000000000815260040160405180910390fd5b806008908161128191906127cd565b5050565b606060088054611294906125fa565b80601f01602080910402602001604051908101604052809291908181526020018280546112c0906125fa565b801561130d5780601f106112e25761010080835404028352916020019161130d565b820191906000526020600020905b8154815290600101906020018083116112f057829003601f168201915b5050505050905090565b61131f6118ab565b60005b60018054905081101561148b57826001828154811061134457611343612a14565b5b90600052602060002090600302016002015403611478576001818154811061136f5761136e612a14565b5b906000526020600020906003020160405180606001604052908160008201805480602002602001604051908101604052809291908181526020016000905b828210156114595783829060005260206000200180546113cc906125fa565b80601f01602080910402602001604051908101604052809291908181526020018280546113f8906125fa565b80156114455780601f1061141a57610100808354040283529160200191611445565b820191906000526020600020905b81548152906001019060200180831161142857829003601f168201915b5050505050815260200190600101906113ad565b5050505081526020016001820154815260200160028201548152505091505b8080611483906128ce565b915050611322565b5080602001513410156114ca576040517ff1b7411900000000000000000000000000000000000000000000000000000000815260040160405180910390fd5b60006040518060c001604052803373ffffffffffffffffffffffffffffffffffffffff16815260200142815260200186815260200185815260200160405180602001604052806000815250815260200184815250908060018154018082558091505060019003906000526020600020906006020160009091909190915060008201518160000160006101000a81548173ffffffffffffffffffffffffffffffffffffffff021916908373ffffffffffffffffffffffffffffffffffffffff1602179055506020820151816001015560408201518160020190816115ad91906127cd565b5060608201518160030190816115c391906127cd565b5060808201518160040190816115d991906127cd565b5060a08201518160050155505050505050565b6000815167ffffffffffffffff81111561160957611608611a1d565b5b60405190808252806020026020018201604052801561164257816020015b61162f6118ab565b8152602001906001900390816116275790505b50905060005b8151811015611731576000604051806060016040528086848151811061167157611670612a14565b5b6020026020010151815260200185848151811061169157611690612a14565b5b602002602001015181526020016005548152509050600181908060018154018082558091505060019003906000526020600020906003020160009091909190915060008201518160000190805190602001906116ee9291906117d4565b506020820151816001015560408201518160020155505060056000815480929190611718906128ce565b9190505550508080611729906128ce565b915050611648565b50505050565b600080600260009054906101000a900473ffffffffffffffffffffffffffffffffffffffff1673ffffffffffffffffffffffffffffffffffffffff1663313ce5676040518163ffffffff1660e01b8152600401602060405180830381865afa1580156117a7573d6000803e3d6000fd5b505050506040513d601f19601f820116820180604052508101906117cb9190612ad2565b90508091505090565b82805482825590600052602060002090810192821561181c579160200282015b8281111561181b57825182908161180b91906127cd565b50916020019190600101906117f4565b5b50905061182991906118cc565b5090565b8280548282559060005260206000209081019282156118795760005260206000209182015b8281111561187857828290816118689190612b15565b5091600101919060010190611852565b5b50905061188691906118cc565b5090565b50805460008255906000526020600020908101906118a891906118cc565b50565b60405180606001604052806060815260200160008152602001600081525090565b5b808211156118ec57600081816118e391906118f0565b506001016118cd565b5090565b5080546118fc906125fa565b6000825580601f1061190e575061192d565b601f01602090049060005260206000209081019061192c9190611930565b5b50565b5b80821115611949576000816000905550600101611931565b5090565b600081519050919050565b600082825260208201905092915050565b60005b8381101561198757808201518184015260208101905061196c565b60008484015250505050565b6000601f19601f8301169050919050565b60006119af8261194d565b6119b98185611958565b93506119c9818560208601611969565b6119d281611993565b840191505092915050565b600060208201905081810360008301526119f781846119a4565b905092915050565b6000604051905090565b600080fd5b600080fd5b600080fd5b600080fd5b7f4e487b7100000000000000000000000000000000000000000000000000000000600052604160045260246000fd5b611a5582611993565b810181811067ffffffffffffffff82111715611a7457611a73611a1d565b5b80604052505050565b6000611a876119ff565b9050611a938282611a4c565b919050565b600067ffffffffffffffff821115611ab357611ab2611a1d565b5b611abc82611993565b9050602081019050919050565b82818337600083830152505050565b6000611aeb611ae684611a98565b611a7d565b905082815260208101848484011115611b0757611b06611a18565b5b611b12848285611ac9565b509392505050565b600082601f830112611b2f57611b2e611a13565b5b8135611b3f848260208601611ad8565b91505092915050565b600060208284031215611b5e57611b5d611a09565b5b600082013567ffffffffffffffff811115611b7c57611b7b611a0e565b5b611b8884828501611b1a565b91505092915050565b6000819050919050565b611ba481611b91565b82525050565b6000602082019050611bbf6000830184611b9b565b92915050565b600081519050919050565b600082825260208201905092915050565b6000819050602082019050919050565b600081519050919050565b600082825260208201905092915050565b6000819050602082019050919050565b600082825260208201905092915050565b6000611c398261194d565b611c438185611c1d565b9350611c53818560208601611969565b611c5c81611993565b840191505092915050565b6000611c738383611c2e565b905092915050565b6000602082019050919050565b6000611c9382611bf1565b611c9d8185611bfc565b935083602082028501611caf85611c0d565b8060005b85811015611ceb5784840389528151611ccc8582611c67565b9450611cd783611c7b565b925060208a01995050600181019050611cb3565b50829750879550505050505092915050565b611d0681611b91565b82525050565b60006060830160008301518482036000860152611d298282611c88565b9150506020830151611d3e6020860182611cfd565b506040830151611d516040860182611cfd565b508091505092915050565b6000611d688383611d0c565b905092915050565b6000602082019050919050565b6000611d8882611bc5565b611d928185611bd0565b935083602082028501611da485611be1565b8060005b85811015611de05784840389528151611dc18582611d5c565b9450611dcc83611d70565b925060208a01995050600181019050611da8565b50829750879550505050505092915050565b60006020820190508181036000830152611e0c8184611d7d565b905092915050565b600073ffffffffffffffffffffffffffffffffffffffff82169050919050565b6000611e3f82611e14565b9050919050565b611e4f81611e34565b82525050565b6000602082019050611e6a6000830184611e46565b92915050565b600067ffffffffffffffff821115611e8b57611e8a611a1d565b5b602082029050602081019050919050565b600080fd5b6000611eb4611eaf84611e70565b611a7d565b90508083825260208201905060208402830185811115611ed757611ed6611e9c565b5b835b81811015611f1e57803567ffffffffffffffff811115611efc57611efb611a13565b5b808601611f098982611b1a565b85526020850194505050602081019050611ed9565b5050509392505050565b600082601f830112611f3d57611f3c611a13565b5b8135611f4d848260208601611ea1565b91505092915050565b611f5f81611b91565b8114611f6a57600080fd5b50565b600081359050611f7c81611f56565b92915050565b60008060408385031215611f9957611f98611a09565b5b600083013567ffffffffffffffff811115611fb757611fb6611a0e565b5b611fc385828601611f28565b9250506020611fd485828601611f6d565b9150509250929050565b600081519050919050565b600082825260208201905092915050565b6000819050602082019050919050565b61201381611e34565b82525050565b600060c083016000830151612031600086018261200a565b5060208301516120446020860182611cfd565b506040830151848203604086015261205c8282611c2e565b915050606083015184820360608601526120768282611c2e565b915050608083015184820360808601526120908282611c2e565b91505060a08301516120a560a0860182611cfd565b508091505092915050565b60006120bc8383612019565b905092915050565b6000602082019050919050565b60006120dc82611fde565b6120e68185611fe9565b9350836020820285016120f885611ffa565b8060005b85811015612134578484038952815161211585826120b0565b9450612120836120c4565b925060208a019950506001810190506120fc565b50829750879550505050505092915050565b6000602082019050818103600083015261216081846120d1565b905092915050565b6000819050919050565b61217b81612168565b82525050565b60006020820190506121966000830184612172565b92915050565b6000819050919050565b60006121c16121bc6121b784611e14565b61219c565b611e14565b9050919050565b60006121d3826121a6565b9050919050565b60006121e5826121c8565b9050919050565b6121f5816121da565b82525050565b600060208201905061221060008301846121ec565b92915050565b600061222182611e34565b9050919050565b61223181612216565b811461223c57600080fd5b50565b60008135905061224e81612228565b92915050565b61225d81611e34565b811461226857600080fd5b50565b60008135905061227a81612254565b92915050565b6000806040838503121561229757612296611a09565b5b60006122a58582860161223f565b92505060206122b68582860161226b565b9150509250929050565b6000602082840312156122d6576122d5611a09565b5b60006122e484828501611f6d565b91505092915050565b60008060006060848603121561230657612305611a09565b5b600084013567ffffffffffffffff81111561232457612323611a0e565b5b61233086828701611b1a565b935050602084013567ffffffffffffffff81111561235157612350611a0e565b5b61235d86828701611b1a565b925050604061236e86828701611f6d565b9150509250925092565b600067ffffffffffffffff82111561239357612392611a1d565b5b602082029050602081019050919050565b60006123b76123b284612378565b611a7d565b905080838252602082019050602084028301858111156123da576123d9611e9c565b5b835b8181101561242157803567ffffffffffffffff8111156123ff576123fe611a13565b5b80860161240c8982611f28565b855260208501945050506020810190506123dc565b5050509392505050565b600082601f8301126124405761243f611a13565b5b81356124508482602086016123a4565b91505092915050565b600067ffffffffffffffff82111561247457612473611a1d565b5b602082029050602081019050919050565b600061249861249384612459565b611a7d565b905080838252602082019050602084028301858111156124bb576124ba611e9c565b5b835b818110156124e457806124d08882611f6d565b8452602084019350506020810190506124bd565b5050509392505050565b600082601f83011261250357612502611a13565b5b8135612513848260208601612485565b91505092915050565b6000806040838503121561253357612532611a09565b5b600083013567ffffffffffffffff81111561255157612550611a0e565b5b61255d8582860161242b565b925050602083013567ffffffffffffffff81111561257e5761257d611a0e565b5b61258a858286016124ee565b9150509250929050565b600060ff82169050919050565b6125aa81612594565b82525050565b60006020820190506125c560008301846125a1565b92915050565b7f4e487b7100000000000000000000000000000000000000000000000000000000600052602260045260246000fd5b6000600282049050600182168061261257607f821691505b602082108103612625576126246125cb565b5b50919050565b60008190508160005260206000209050919050565b60006020601f8301049050919050565b600082821b905092915050565b60006008830261268d7fffffffffffffffffffffffffffffffffffffffffffffffffffffffffffffffff82612650565b6126978683612650565b95508019841693508086168417925050509392505050565b60006126ca6126c56126c084611b91565b61219c565b611b91565b9050919050565b6000819050919050565b6126e4836126af565b6126f86126f0826126d1565b84845461265d565b825550505050565b600090565b61270d612700565b6127188184846126db565b505050565b5b8181101561273c57612731600082612705565b60018101905061271e565b5050565b601f821115612781576127528161262b565b61275b84612640565b8101602085101561276a578190505b61277e61277685612640565b83018261271d565b50505b505050565b600082821c905092915050565b60006127a460001984600802612786565b1980831691505092915050565b60006127bd8383612793565b9150826002028217905092915050565b6127d68261194d565b67ffffffffffffffff8111156127ef576127ee611a1d565b5b6127f982546125fa565b612804828285612740565b600060209050601f8311600181146128375760008415612825578287015190505b61282f85826127b1565b865550612897565b601f1984166128458661262b565b60005b8281101561286d57848901518255600182019150602085019450602081019050612848565b8683101561288a5784890151612886601f891682612793565b8355505b6001600288020188555050505b505050505050565b7f4e487b7100000000000000000000000000000000000000000000000000000000600052601160045260246000fd5b60006128d982611b91565b91507fffffffffffffffffffffffffffffffffffffffffffffffffffffffffffffffff820361290b5761290a61289f565b5b600182019050919050565b600069ffffffffffffffffffff82169050919050565b61293581612916565b811461294057600080fd5b50565b6000815190506129528161292c565b92915050565b61296181612168565b811461296c57600080fd5b50565b60008151905061297e81612958565b92915050565b60008151905061299381611f56565b92915050565b600080600080600060a086880312156129b5576129b4611a09565b5b60006129c388828901612943565b95505060206129d48882890161296f565b94505060406129e588828901612984565b93505060606129f688828901612984565b9250506080612a0788828901612943565b9150509295509295909350565b7f4e487b7100000000000000000000000000000000000000000000000000000000600052603260045260246000fd5b6000612a4e82611b91565b9150612a5983611b91565b9250828203905081811115612a7157612a7061289f565b5b92915050565b7f4e487b7100000000000000000000000000000000000000000000000000000000600052603160045260246000fd5b612aaf81612594565b8114612aba57600080fd5b50565b600081519050612acc81612aa6565b92915050565b600060208284031215612ae857612ae7611a09565b5b6000612af684828501612abd565b91505092915050565b600081549050612b0e816125fa565b9050919050565b818103612b23575050612bfb565b612b2c82612aff565b67ffffffffffffffff811115612b4557612b44611a1d565b5b612b4f82546125fa565b612b5a828285612740565b6000601f831160018114612b895760008415612b77578287015490505b612b8185826127b1565b865550612bf4565b601f198416612b978761262b565b9650612ba28661262b565b60005b82811015612bca57848901548255600182019150600185019450602081019050612ba5565b86831015612be75784890154612be3601f891682612793565b8355505b6001600288020188555050505b5050505050505b56fea26469706673582212202e253e32ad4f62afc78d41050a3c8bfbf152ae5cd63ea609c845b8e6ca3bd18564736f6c63430008110033",
   "linkReferences": {},
   "deployedLinkReferences": {}
}