{
   "_format": "hh-sol-artifact-1",
   "contractName": "BuyMeACoffee",
   "sourceName": "contracts/BuyMeACoffee.sol",
   "abi": [
      {
         "inputs": [
            {
               "internalType": "string",
               "name": "_name",
               "type": "string"
            },
            {
               "internalType": "string",
               "name": "_description",
               "type": "string"
            },
            {
               "internalType": "string",
               "name": "_profile",
               "type": "string"
            },
            {
               "internalType": "string",
               "name": "_thumbnail",
               "type": "string"
            },
            {
               "internalType": "string[][]",
               "name": "_items",
               "type": "string[][]"
            },
            {
               "internalType": "uint256[]",
               "name": "_itemsValues",
               "type": "uint256[]"
            },
            {
               "internalType": "address",
               "name": "_owner",
               "type": "address"
            },
            {
               "internalType": "address",
               "name": "_superUser",
               "type": "address"
            }
         ],
         "stateMutability": "nonpayable",
         "type": "constructor"
      },
      {
         "inputs": [],
         "name": "BuyMeACoffee__NotEnoughEthSend",
         "type": "error"
      },
      {
         "inputs": [],
         "name": "BuyMeACoffee__NotOwner",
         "type": "error"
      },
      {
         "anonymous": false,
         "inputs": [
            {
               "indexed": true,
               "internalType": "uint256",
               "name": "items_id",
               "type": "uint256"
            }
         ],
         "name": "AddedItems",
         "type": "event"
      },
      {
         "inputs": [
            {
               "internalType": "string[]",
               "name": "names",
               "type": "string[]"
            },
            {
               "internalType": "uint256",
               "name": "cost",
               "type": "uint256"
            }
         ],
         "name": "addItems",
         "outputs": [],
         "stateMutability": "nonpayable",
         "type": "function"
      },
      {
         "inputs": [],
         "name": "getDescription",
         "outputs": [
            {
               "internalType": "string",
               "name": "",
               "type": "string"
            }
         ],
         "stateMutability": "view",
         "type": "function"
      },
      {
         "inputs": [],
         "name": "getItemsCount",
         "outputs": [
            {
               "internalType": "uint256",
               "name": "",
               "type": "uint256"
            }
         ],
         "stateMutability": "view",
         "type": "function"
      },
      {
         "inputs": [],
         "name": "getListOfItems",
         "outputs": [
            {
               "components": [
                  {
                     "internalType": "string[]",
                     "name": "names",
                     "type": "string[]"
                  },
                  {
                     "internalType": "uint256",
                     "name": "cost",
                     "type": "uint256"
                  },
                  {
                     "internalType": "uint256",
                     "name": "id",
                     "type": "uint256"
                  }
               ],
               "internalType": "struct BuyMeACoffee.Items[]",
               "name": "",
               "type": "tuple[]"
            }
         ],
         "stateMutability": "view",
         "type": "function"
      },
      {
         "inputs": [],
         "name": "getMemos",
         "outputs": [
            {
               "components": [
                  {
                     "internalType": "address",
                     "name": "from",
                     "type": "address"
                  },
                  {
                     "internalType": "uint256",
                     "name": "timestamp",
                     "type": "uint256"
                  },
                  {
                     "internalType": "string",
                     "name": "name",
                     "type": "string"
                  },
                  {
                     "internalType": "string",
                     "name": "message",
                     "type": "string"
                  },
                  {
                     "internalType": "string",
                     "name": "response",
                     "type": "string"
                  },
                  {
                     "internalType": "uint256",
                     "name": "items_id",
                     "type": "uint256"
                  }
               ],
               "internalType": "struct BuyMeACoffee.Memo[]",
               "name": "",
               "type": "tuple[]"
            }
         ],
         "stateMutability": "view",
         "type": "function"
      },
      {
         "inputs": [],
         "name": "getName",
         "outputs": [
            {
               "internalType": "string",
               "name": "",
               "type": "string"
            }
         ],
         "stateMutability": "view",
         "type": "function"
      },
      {
         "inputs": [],
         "name": "getOwner",
         "outputs": [
            {
               "internalType": "address",
               "name": "",
               "type": "address"
            }
         ],
         "stateMutability": "view",
         "type": "function"
      },
      {
         "inputs": [],
         "name": "getProfile",
         "outputs": [
            {
               "internalType": "string",
               "name": "",
               "type": "string"
            }
         ],
         "stateMutability": "view",
         "type": "function"
      },
      {
         "inputs": [],
         "name": "getSuperUser",
         "outputs": [
            {
               "internalType": "address",
               "name": "",
               "type": "address"
            }
         ],
         "stateMutability": "view",
         "type": "function"
      },
      {
         "inputs": [],
         "name": "getThumbnail",
         "outputs": [
            {
               "internalType": "string",
               "name": "",
               "type": "string"
            }
         ],
         "stateMutability": "view",
         "type": "function"
      },
      {
         "inputs": [
            {
               "internalType": "uint256",
               "name": "_id",
               "type": "uint256"
            }
         ],
         "name": "removeItems",
         "outputs": [],
         "stateMutability": "nonpayable",
         "type": "function"
      },
      {
         "inputs": [
            {
               "internalType": "string",
               "name": "_description",
               "type": "string"
            }
         ],
         "name": "setDescription",
         "outputs": [],
         "stateMutability": "nonpayable",
         "type": "function"
      },
      {
         "inputs": [
            {
               "internalType": "string[][]",
               "name": "_items",
               "type": "string[][]"
            },
            {
               "internalType": "uint256[]",
               "name": "_itemsValues",
               "type": "uint256[]"
            }
         ],
         "name": "setInitialItems",
         "outputs": [],
         "stateMutability": "nonpayable",
         "type": "function"
      },
      {
         "inputs": [
            {
               "internalType": "string",
               "name": "_name",
               "type": "string"
            }
         ],
         "name": "setName",
         "outputs": [],
         "stateMutability": "nonpayable",
         "type": "function"
      },
      {
         "inputs": [
            {
               "internalType": "string",
               "name": "_profile",
               "type": "string"
            }
         ],
         "name": "setProfile",
         "outputs": [],
         "stateMutability": "nonpayable",
         "type": "function"
      },
      {
         "inputs": [
            {
               "internalType": "string",
               "name": "_thumbnail",
               "type": "string"
            }
         ],
         "name": "setThumbnail",
         "outputs": [],
         "stateMutability": "nonpayable",
         "type": "function"
      },
      {
         "inputs": [
            {
               "internalType": "string",
               "name": "_name",
               "type": "string"
            },
            {
               "internalType": "string",
               "name": "_message",
               "type": "string"
            },
            {
               "internalType": "uint256",
               "name": "_itemsId",
               "type": "uint256"
            }
         ],
         "name": "storeMemo",
         "outputs": [],
         "stateMutability": "payable",
         "type": "function"
      },
      {
         "inputs": [],
         "name": "withdraw",
         "outputs": [],
         "stateMutability": "nonpayable",
         "type": "function"
      }
   ],
   "bytecode": "0x608060405260006004553480156200001657600080fd5b50604051620034413803806200344183398181016040528101906200003c919062000890565b87600590816200004d919062000c54565b5086600890816200005f919062000c54565b50856006908162000071919062000c54565b50846007908162000083919062000c54565b5081600260006101000a81548173ffffffffffffffffffffffffffffffffffffffff021916908373ffffffffffffffffffffffffffffffffffffffff16021790555080600360006101000a81548173ffffffffffffffffffffffffffffffffffffffff021916908373ffffffffffffffffffffffffffffffffffffffff1602179055506200011884846200012660201b60201c565b505050505050505062000de6565b6000815167ffffffffffffffff811115620001465762000145620003c3565b5b6040519080825280602002602001820160405280156200018357816020015b6200016f62000286565b815260200190600190039081620001655790505b50905060005b8151811015620002805760006040518060600160405280868481518110620001b657620001b562000d3b565b5b60200260200101518152602001858481518110620001d957620001d862000d3b565b5b6020026020010151815260200160045481525090506001819080600181540180825580915050600190039060005260206000209060030201600090919091909150600082015181600001908051906020019062000238929190620002a7565b506020820151816001015560408201518160020155505060046000815480929190620002649062000d99565b9190505550508080620002779062000d99565b91505062000189565b50505050565b60405180606001604052806060815260200160008152602001600081525090565b828054828255906000526020600020908101928215620002f4579160200282015b82811115620002f3578251829081620002e2919062000c54565b5091602001919060010190620002c8565b5b50905062000303919062000307565b5090565b5b808211156200032b57600081816200032191906200032f565b5060010162000308565b5090565b5080546200033d9062000a4d565b6000825580601f1062000351575062000372565b601f01602090049060005260206000209081019062000371919062000375565b5b50565b5b808211156200039057600081600090555060010162000376565b5090565b6000604051905090565b600080fd5b600080fd5b600080fd5b600080fd5b6000601f19601f8301169050919050565b7f4e487b7100000000000000000000000000000000000000000000000000000000600052604160045260246000fd5b620003fd82620003b2565b810181811067ffffffffffffffff821117156200041f576200041e620003c3565b5b80604052505050565b60006200043462000394565b9050620004428282620003f2565b919050565b600067ffffffffffffffff821115620004655762000464620003c3565b5b6200047082620003b2565b9050602081019050919050565b60005b838110156200049d57808201518184015260208101905062000480565b60008484015250505050565b6000620004c0620004ba8462000447565b62000428565b905082815260208101848484011115620004df57620004de620003ad565b5b620004ec8482856200047d565b509392505050565b600082601f8301126200050c576200050b620003a8565b5b81516200051e848260208601620004a9565b91505092915050565b600067ffffffffffffffff821115620005455762000544620003c3565b5b602082029050602081019050919050565b600080fd5b600067ffffffffffffffff821115620005795762000578620003c3565b5b602082029050602081019050919050565b6000620005a16200059b846200055b565b62000428565b90508083825260208201905060208402830185811115620005c757620005c662000556565b5b835b818110156200061557805167ffffffffffffffff811115620005f057620005ef620003a8565b5b808601620005ff8982620004f4565b85526020850194505050602081019050620005c9565b5050509392505050565b600082601f830112620006375762000636620003a8565b5b8151620006498482602086016200058a565b91505092915050565b600062000669620006638462000527565b62000428565b905080838252602082019050602084028301858111156200068f576200068e62000556565b5b835b81811015620006dd57805167ffffffffffffffff811115620006b857620006b7620003a8565b5b808601620006c789826200061f565b8552602085019450505060208101905062000691565b5050509392505050565b600082601f830112620006ff57620006fe620003a8565b5b81516200071184826020860162000652565b91505092915050565b600067ffffffffffffffff821115620007385762000737620003c3565b5b602082029050602081019050919050565b6000819050919050565b6200075e8162000749565b81146200076a57600080fd5b50565b6000815190506200077e8162000753565b92915050565b60006200079b62000795846200071a565b62000428565b90508083825260208201905060208402830185811115620007c157620007c062000556565b5b835b81811015620007ee5780620007d988826200076d565b845260208401935050602081019050620007c3565b5050509392505050565b600082601f83011262000810576200080f620003a8565b5b81516200082284826020860162000784565b91505092915050565b600073ffffffffffffffffffffffffffffffffffffffff82169050919050565b600062000858826200082b565b9050919050565b6200086a816200084b565b81146200087657600080fd5b50565b6000815190506200088a816200085f565b92915050565b600080600080600080600080610100898b031215620008b457620008b36200039e565b5b600089015167ffffffffffffffff811115620008d557620008d4620003a3565b5b620008e38b828c01620004f4565b985050602089015167ffffffffffffffff811115620009075762000906620003a3565b5b620009158b828c01620004f4565b975050604089015167ffffffffffffffff811115620009395762000938620003a3565b5b620009478b828c01620004f4565b965050606089015167ffffffffffffffff8111156200096b576200096a620003a3565b5b620009798b828c01620004f4565b955050608089015167ffffffffffffffff8111156200099d576200099c620003a3565b5b620009ab8b828c01620006e7565b94505060a089015167ffffffffffffffff811115620009cf57620009ce620003a3565b5b620009dd8b828c01620007f8565b93505060c0620009f08b828c0162000879565b92505060e062000a038b828c0162000879565b9150509295985092959890939650565b600081519050919050565b7f4e487b7100000000000000000000000000000000000000000000000000000000600052602260045260246000fd5b6000600282049050600182168062000a6657607f821691505b60208210810362000a7c5762000a7b62000a1e565b5b50919050565b60008190508160005260206000209050919050565b60006020601f8301049050919050565b600082821b905092915050565b60006008830262000ae67fffffffffffffffffffffffffffffffffffffffffffffffffffffffffffffffff8262000aa7565b62000af2868362000aa7565b95508019841693508086168417925050509392505050565b6000819050919050565b600062000b3562000b2f62000b298462000749565b62000b0a565b62000749565b9050919050565b6000819050919050565b62000b518362000b14565b62000b6962000b608262000b3c565b84845462000ab4565b825550505050565b600090565b62000b8062000b71565b62000b8d81848462000b46565b505050565b5b8181101562000bb55762000ba960008262000b76565b60018101905062000b93565b5050565b601f82111562000c045762000bce8162000a82565b62000bd98462000a97565b8101602085101562000be9578190505b62000c0162000bf88562000a97565b83018262000b92565b50505b505050565b600082821c905092915050565b600062000c296000198460080262000c09565b1980831691505092915050565b600062000c44838362000c16565b9150826002028217905092915050565b62000c5f8262000a13565b67ffffffffffffffff81111562000c7b5762000c7a620003c3565b5b62000c87825462000a4d565b62000c9482828562000bb9565b600060209050601f83116001811462000ccc576000841562000cb7578287015190505b62000cc3858262000c36565b86555062000d33565b601f19841662000cdc8662000a82565b60005b8281101562000d065784890151825560018201915060208501945060208101905062000cdf565b8683101562000d26578489015162000d22601f89168262000c16565b8355505b6001600288020188555050505b505050505050565b7f4e487b7100000000000000000000000000000000000000000000000000000000600052603260045260246000fd5b7f4e487b7100000000000000000000000000000000000000000000000000000000600052601160045260246000fd5b600062000da68262000749565b91507fffffffffffffffffffffffffffffffffffffffffffffffffffffffffffffffff820362000ddb5762000dda62000d6a565b5b600182019050919050565b61264b8062000df66000396000f3fe6080604052600436106101095760003560e01c8063893d20e811610095578063da14bde311610064578063da14bde314610321578063dbfc2c121461034a578063e1d7408314610373578063e9c0d98c1461039e578063eefa8735146103ba57610109565b8063893d20e81461027957806390c3f38f146102a4578063c47f0027146102cd578063d6afc9b1146102f657610109565b8063512dd020116100dc578063512dd020146101a4578063594d9e63146101cf5780636c50c11e146101fa5780637d44ba7814610225578063865c51721461024e57610109565b806317d7de7c1461010e5780631a09254114610139578063235b37b1146101645780633ccfd60b1461018d575b600080fd5b34801561011a57600080fd5b506101236103e3565b60405161013091906116d1565b60405180910390f35b34801561014557600080fd5b5061014e610475565b60405161015b91906116d1565b60405180910390f35b34801561017057600080fd5b5061018b6004803603810190610186919061183c565b610507565b005b34801561019957600080fd5b506101a26105a1565b005b3480156101b057600080fd5b506101b9610693565b6040516101c6919061189e565b60405180910390f35b3480156101db57600080fd5b506101e461069d565b6040516101f19190611ae6565b60405180910390f35b34801561020657600080fd5b5061020f6107e9565b60405161021c9190611b49565b60405180910390f35b34801561023157600080fd5b5061024c60048036038101906102479190611c76565b610813565b005b34801561025a57600080fd5b50610263610966565b6040516102709190611e3a565b60405180910390f35b34801561028557600080fd5b5061028e610be5565b60405161029b9190611b49565b60405180910390f35b3480156102b057600080fd5b506102cb60048036038101906102c6919061183c565b610c0f565b005b3480156102d957600080fd5b506102f460048036038101906102ef919061183c565b610ca9565b005b34801561030257600080fd5b5061030b610d43565b60405161031891906116d1565b60405180910390f35b34801561032d57600080fd5b5061034860048036038101906103439190611e5c565b610dd5565b005b34801561035657600080fd5b50610371600480360381019061036c919061183c565b610f7c565b005b34801561037f57600080fd5b50610388611016565b60405161039591906116d1565b60405180910390f35b6103b860048036038101906103b39190611e89565b6110a8565b005b3480156103c657600080fd5b506103e160048036038101906103dc91906120b8565b61137d565b005b6060600580546103f29061215f565b80601f016020809104026020016040519081016040528092919081815260200182805461041e9061215f565b801561046b5780601f106104405761010080835404028352916020019161046b565b820191906000526020600020905b81548152906001019060200180831161044e57829003601f168201915b5050505050905090565b6060600880546104849061215f565b80601f01602080910402602001604051908101604052809291908181526020018280546104b09061215f565b80156104fd5780601f106104d2576101008083540402835291602001916104fd565b820191906000526020600020905b8154815290600101906020018083116104e057829003601f168201915b5050505050905090565b600260009054906101000a900473ffffffffffffffffffffffffffffffffffffffff1673ffffffffffffffffffffffffffffffffffffffff163373ffffffffffffffffffffffffffffffffffffffff161461058e576040517f1022f53800000000000000000000000000000000000000000000000000000000815260040160405180910390fd5b806006908161059d919061233c565b5050565b600260009054906101000a900473ffffffffffffffffffffffffffffffffffffffff1673ffffffffffffffffffffffffffffffffffffffff163373ffffffffffffffffffffffffffffffffffffffff1614610628576040517f1022f53800000000000000000000000000000000000000000000000000000000815260040160405180910390fd5b600260009054906101000a900473ffffffffffffffffffffffffffffffffffffffff1673ffffffffffffffffffffffffffffffffffffffff166108fc479081150290604051600060405180830381858888f19350505050158015610690573d6000803e3d6000fd5b50565b6000600454905090565b60606001805480602002602001604051908101604052809291908181526020016000905b828210156107e0578382906000526020600020906003020160405180606001604052908160008201805480602002602001604051908101604052809291908181526020016000905b828210156107b55783829060005260206000200180546107289061215f565b80601f01602080910402602001604051908101604052809291908181526020018280546107549061215f565b80156107a15780601f10610776576101008083540402835291602001916107a1565b820191906000526020600020905b81548152906001019060200180831161078457829003601f168201915b505050505081526020019060010190610709565b50505050815260200160018201548152602001600282015481525050815260200190600101906106c1565b50505050905090565b6000600360009054906101000a900473ffffffffffffffffffffffffffffffffffffffff16905090565b600260009054906101000a900473ffffffffffffffffffffffffffffffffffffffff1673ffffffffffffffffffffffffffffffffffffffff163373ffffffffffffffffffffffffffffffffffffffff161461089a576040517f1022f53800000000000000000000000000000000000000000000000000000000815260040160405180910390fd5b600060405180606001604052808481526020018381526020016004548152509050600181908060018154018082558091505060019003906000526020600020906003020160009091909190915060008201518160000190805190602001906109039291906114c8565b50602082015181600101556040820151816002015550506004547fa5dbb7adb15a05f8df3bdfc06617a63f39825dd0c4d2f0615c5134d1d3301b3660405160405180910390a26004600081548092919061095c9061243d565b9190505550505050565b60606000805480602002602001604051908101604052809291908181526020016000905b82821015610bdc57838290600052602060002090600602016040518060c00160405290816000820160009054906101000a900473ffffffffffffffffffffffffffffffffffffffff1673ffffffffffffffffffffffffffffffffffffffff1673ffffffffffffffffffffffffffffffffffffffff16815260200160018201548152602001600282018054610a1d9061215f565b80601f0160208091040260200160405190810160405280929190818152602001828054610a499061215f565b8015610a965780601f10610a6b57610100808354040283529160200191610a96565b820191906000526020600020905b815481529060010190602001808311610a7957829003601f168201915b50505050508152602001600382018054610aaf9061215f565b80601f0160208091040260200160405190810160405280929190818152602001828054610adb9061215f565b8015610b285780601f10610afd57610100808354040283529160200191610b28565b820191906000526020600020905b815481529060010190602001808311610b0b57829003601f168201915b50505050508152602001600482018054610b419061215f565b80601f0160208091040260200160405190810160405280929190818152602001828054610b6d9061215f565b8015610bba5780601f10610b8f57610100808354040283529160200191610bba565b820191906000526020600020905b815481529060010190602001808311610b9d57829003601f168201915b505050505081526020016005820154815250508152602001906001019061098a565b50505050905090565b6000600260009054906101000a900473ffffffffffffffffffffffffffffffffffffffff16905090565b600260009054906101000a900473ffffffffffffffffffffffffffffffffffffffff1673ffffffffffffffffffffffffffffffffffffffff163373ffffffffffffffffffffffffffffffffffffffff1614610c96576040517f1022f53800000000000000000000000000000000000000000000000000000000815260040160405180910390fd5b8060089081610ca5919061233c565b5050565b600260009054906101000a900473ffffffffffffffffffffffffffffffffffffffff1673ffffffffffffffffffffffffffffffffffffffff163373ffffffffffffffffffffffffffffffffffffffff1614610d30576040517f1022f53800000000000000000000000000000000000000000000000000000000815260040160405180910390fd5b8060059081610d3f919061233c565b5050565b606060068054610d529061215f565b80601f0160208091040260200160405190810160405280929190818152602001828054610d7e9061215f565b8015610dcb5780601f10610da057610100808354040283529160200191610dcb565b820191906000526020600020905b815481529060010190602001808311610dae57829003601f168201915b5050505050905090565b600260009054906101000a900473ffffffffffffffffffffffffffffffffffffffff1673ffffffffffffffffffffffffffffffffffffffff163373ffffffffffffffffffffffffffffffffffffffff1614610e5c576040517f1022f53800000000000000000000000000000000000000000000000000000000815260040160405180910390fd5b60005b600180549050811015610f78578160018281548110610e8157610e80612485565b5b90600052602060002090600302016002015403610f65576001808080549050610eaa91906124b4565b81548110610ebb57610eba612485565b5b906000526020600020906003020160018281548110610edd57610edc612485565b5b90600052602060002090600302016000820181600001908054610f01929190611521565b5060018201548160010155600282015481600201559050506001805480610f2b57610f2a6124e8565b5b600190038181906000526020600020906003020160008082016000610f50919061157e565b60018201600090556002820160009055505090555b8080610f709061243d565b915050610e5f565b5050565b600260009054906101000a900473ffffffffffffffffffffffffffffffffffffffff1673ffffffffffffffffffffffffffffffffffffffff163373ffffffffffffffffffffffffffffffffffffffff1614611003576040517f1022f53800000000000000000000000000000000000000000000000000000000815260040160405180910390fd5b8060079081611012919061233c565b5050565b6060600780546110259061215f565b80601f01602080910402602001604051908101604052809291908181526020018280546110519061215f565b801561109e5780601f106110735761010080835404028352916020019161109e565b820191906000526020600020905b81548152906001019060200180831161108157829003601f168201915b5050505050905090565b6110b061159f565b60005b60018054905081101561121c5782600182815481106110d5576110d4612485565b5b906000526020600020906003020160020154036112095760018181548110611100576110ff612485565b5b906000526020600020906003020160405180606001604052908160008201805480602002602001604051908101604052809291908181526020016000905b828210156111ea57838290600052602060002001805461115d9061215f565b80601f01602080910402602001604051908101604052809291908181526020018280546111899061215f565b80156111d65780601f106111ab576101008083540402835291602001916111d6565b820191906000526020600020905b8154815290600101906020018083116111b957829003601f168201915b50505050508152602001906001019061113e565b5050505081526020016001820154815260200160028201548152505091505b80806112149061243d565b9150506110b3565b50806020015134101561125b576040517ff1b7411900000000000000000000000000000000000000000000000000000000815260040160405180910390fd5b60006040518060c001604052803373ffffffffffffffffffffffffffffffffffffffff16815260200142815260200186815260200185815260200160405180602001604052806000815250815260200184815250908060018154018082558091505060019003906000526020600020906006020160009091909190915060008201518160000160006101000a81548173ffffffffffffffffffffffffffffffffffffffff021916908373ffffffffffffffffffffffffffffffffffffffff16021790555060208201518160010155604082015181600201908161133e919061233c565b506060820151816003019081611354919061233c565b50608082015181600401908161136a919061233c565b5060a08201518160050155505050505050565b6000815167ffffffffffffffff81111561139a57611399611711565b5b6040519080825280602002602001820160405280156113d357816020015b6113c061159f565b8152602001906001900390816113b85790505b50905060005b81518110156114c2576000604051806060016040528086848151811061140257611401612485565b5b6020026020010151815260200185848151811061142257611421612485565b5b6020026020010151815260200160045481525090506001819080600181540180825580915050600190039060005260206000209060030201600090919091909150600082015181600001908051906020019061147f9291906114c8565b5060208201518160010155604082015181600201555050600460008154809291906114a99061243d565b91905055505080806114ba9061243d565b9150506113d9565b50505050565b828054828255906000526020600020908101928215611510579160200282015b8281111561150f5782518290816114ff919061233c565b50916020019190600101906114e8565b5b50905061151d91906115c0565b5090565b82805482825590600052602060002090810192821561156d5760005260206000209182015b8281111561156c578282908161155c919061252d565b5091600101919060010190611546565b5b50905061157a91906115c0565b5090565b508054600082559060005260206000209081019061159c91906115c0565b50565b60405180606001604052806060815260200160008152602001600081525090565b5b808211156115e057600081816115d791906115e4565b506001016115c1565b5090565b5080546115f09061215f565b6000825580601f106116025750611621565b601f0160209004906000526020600020908101906116209190611624565b5b50565b5b8082111561163d576000816000905550600101611625565b5090565b600081519050919050565b600082825260208201905092915050565b60005b8381101561167b578082015181840152602081019050611660565b60008484015250505050565b6000601f19601f8301169050919050565b60006116a382611641565b6116ad818561164c565b93506116bd81856020860161165d565b6116c681611687565b840191505092915050565b600060208201905081810360008301526116eb8184611698565b905092915050565b6000604051905090565b600080fd5b600080fd5b600080fd5b600080fd5b7f4e487b7100000000000000000000000000000000000000000000000000000000600052604160045260246000fd5b61174982611687565b810181811067ffffffffffffffff8211171561176857611767611711565b5b80604052505050565b600061177b6116f3565b90506117878282611740565b919050565b600067ffffffffffffffff8211156117a7576117a6611711565b5b6117b082611687565b9050602081019050919050565b82818337600083830152505050565b60006117df6117da8461178c565b611771565b9050828152602081018484840111156117fb576117fa61170c565b5b6118068482856117bd565b509392505050565b600082601f83011261182357611822611707565b5b81356118338482602086016117cc565b91505092915050565b600060208284031215611852576118516116fd565b5b600082013567ffffffffffffffff8111156118705761186f611702565b5b61187c8482850161180e565b91505092915050565b6000819050919050565b61189881611885565b82525050565b60006020820190506118b3600083018461188f565b92915050565b600081519050919050565b600082825260208201905092915050565b6000819050602082019050919050565b600081519050919050565b600082825260208201905092915050565b6000819050602082019050919050565b600082825260208201905092915050565b600061192d82611641565b6119378185611911565b935061194781856020860161165d565b61195081611687565b840191505092915050565b60006119678383611922565b905092915050565b6000602082019050919050565b6000611987826118e5565b61199181856118f0565b9350836020820285016119a385611901565b8060005b858110156119df57848403895281516119c0858261195b565b94506119cb8361196f565b925060208a019950506001810190506119a7565b50829750879550505050505092915050565b6119fa81611885565b82525050565b60006060830160008301518482036000860152611a1d828261197c565b9150506020830151611a3260208601826119f1565b506040830151611a4560408601826119f1565b508091505092915050565b6000611a5c8383611a00565b905092915050565b6000602082019050919050565b6000611a7c826118b9565b611a8681856118c4565b935083602082028501611a98856118d5565b8060005b85811015611ad45784840389528151611ab58582611a50565b9450611ac083611a64565b925060208a01995050600181019050611a9c565b50829750879550505050505092915050565b60006020820190508181036000830152611b008184611a71565b905092915050565b600073ffffffffffffffffffffffffffffffffffffffff82169050919050565b6000611b3382611b08565b9050919050565b611b4381611b28565b82525050565b6000602082019050611b5e6000830184611b3a565b92915050565b600067ffffffffffffffff821115611b7f57611b7e611711565b5b602082029050602081019050919050565b600080fd5b6000611ba8611ba384611b64565b611771565b90508083825260208201905060208402830185811115611bcb57611bca611b90565b5b835b81811015611c1257803567ffffffffffffffff811115611bf057611bef611707565b5b808601611bfd898261180e565b85526020850194505050602081019050611bcd565b5050509392505050565b600082601f830112611c3157611c30611707565b5b8135611c41848260208601611b95565b91505092915050565b611c5381611885565b8114611c5e57600080fd5b50565b600081359050611c7081611c4a565b92915050565b60008060408385031215611c8d57611c8c6116fd565b5b600083013567ffffffffffffffff811115611cab57611caa611702565b5b611cb785828601611c1c565b9250506020611cc885828601611c61565b9150509250929050565b600081519050919050565b600082825260208201905092915050565b6000819050602082019050919050565b611d0781611b28565b82525050565b600060c083016000830151611d256000860182611cfe565b506020830151611d3860208601826119f1565b5060408301518482036040860152611d508282611922565b91505060608301518482036060860152611d6a8282611922565b91505060808301518482036080860152611d848282611922565b91505060a0830151611d9960a08601826119f1565b508091505092915050565b6000611db08383611d0d565b905092915050565b6000602082019050919050565b6000611dd082611cd2565b611dda8185611cdd565b935083602082028501611dec85611cee565b8060005b85811015611e285784840389528151611e098582611da4565b9450611e1483611db8565b925060208a01995050600181019050611df0565b50829750879550505050505092915050565b60006020820190508181036000830152611e548184611dc5565b905092915050565b600060208284031215611e7257611e716116fd565b5b6000611e8084828501611c61565b91505092915050565b600080600060608486031215611ea257611ea16116fd565b5b600084013567ffffffffffffffff811115611ec057611ebf611702565b5b611ecc8682870161180e565b935050602084013567ffffffffffffffff811115611eed57611eec611702565b5b611ef98682870161180e565b9250506040611f0a86828701611c61565b9150509250925092565b600067ffffffffffffffff821115611f2f57611f2e611711565b5b602082029050602081019050919050565b6000611f53611f4e84611f14565b611771565b90508083825260208201905060208402830185811115611f7657611f75611b90565b5b835b81811015611fbd57803567ffffffffffffffff811115611f9b57611f9a611707565b5b808601611fa88982611c1c565b85526020850194505050602081019050611f78565b5050509392505050565b600082601f830112611fdc57611fdb611707565b5b8135611fec848260208601611f40565b91505092915050565b600067ffffffffffffffff8211156120105761200f611711565b5b602082029050602081019050919050565b600061203461202f84611ff5565b611771565b9050808382526020820190506020840283018581111561205757612056611b90565b5b835b81811015612080578061206c8882611c61565b845260208401935050602081019050612059565b5050509392505050565b600082601f83011261209f5761209e611707565b5b81356120af848260208601612021565b91505092915050565b600080604083850312156120cf576120ce6116fd565b5b600083013567ffffffffffffffff8111156120ed576120ec611702565b5b6120f985828601611fc7565b925050602083013567ffffffffffffffff81111561211a57612119611702565b5b6121268582860161208a565b9150509250929050565b7f4e487b7100000000000000000000000000000000000000000000000000000000600052602260045260246000fd5b6000600282049050600182168061217757607f821691505b60208210810361218a57612189612130565b5b50919050565b60008190508160005260206000209050919050565b60006020601f8301049050919050565b600082821b905092915050565b6000600883026121f27fffffffffffffffffffffffffffffffffffffffffffffffffffffffffffffffff826121b5565b6121fc86836121b5565b95508019841693508086168417925050509392505050565b6000819050919050565b600061223961223461222f84611885565b612214565b611885565b9050919050565b6000819050919050565b6122538361221e565b61226761225f82612240565b8484546121c2565b825550505050565b600090565b61227c61226f565b61228781848461224a565b505050565b5b818110156122ab576122a0600082612274565b60018101905061228d565b5050565b601f8211156122f0576122c181612190565b6122ca846121a5565b810160208510156122d9578190505b6122ed6122e5856121a5565b83018261228c565b50505b505050565b600082821c905092915050565b6000612313600019846008026122f5565b1980831691505092915050565b600061232c8383612302565b9150826002028217905092915050565b61234582611641565b67ffffffffffffffff81111561235e5761235d611711565b5b612368825461215f565b6123738282856122af565b600060209050601f8311600181146123a65760008415612394578287015190505b61239e8582612320565b865550612406565b601f1984166123b486612190565b60005b828110156123dc578489015182556001820191506020850194506020810190506123b7565b868310156123f957848901516123f5601f891682612302565b8355505b6001600288020188555050505b505050505050565b7f4e487b7100000000000000000000000000000000000000000000000000000000600052601160045260246000fd5b600061244882611885565b91507fffffffffffffffffffffffffffffffffffffffffffffffffffffffffffffffff820361247a5761247961240e565b5b600182019050919050565b7f4e487b7100000000000000000000000000000000000000000000000000000000600052603260045260246000fd5b60006124bf82611885565b91506124ca83611885565b92508282039050818111156124e2576124e161240e565b5b92915050565b7f4e487b7100000000000000000000000000000000000000000000000000000000600052603160045260246000fd5b6000815490506125268161215f565b9050919050565b81810361253b575050612613565b61254482612517565b67ffffffffffffffff81111561255d5761255c611711565b5b612567825461215f565b6125728282856122af565b6000601f8311600181146125a1576000841561258f578287015490505b6125998582612320565b86555061260c565b601f1984166125af87612190565b96506125ba86612190565b60005b828110156125e2578489015482556001820191506001850194506020810190506125bd565b868310156125ff57848901546125fb601f891682612302565b8355505b6001600288020188555050505b5050505050505b56fea26469706673582212208b45cc12948459a9e9433f77fbc125a1c21ea2c402b2ee6e0ffc88d6ce1a3d4364736f6c63430008110033",
   "linkReferences": {},
   "deployedLinkReferences": {}
}