{
   "_format": "hh-sol-artifact-1",
   "contractName": "BuyMeACoffee",
   "sourceName": "contracts/BuyMeACoffee.sol",
   "abi": [
      {
         "inputs": [
            {
               "internalType": "string",
               "name": "_name",
               "type": "string"
            },
            {
               "internalType": "string",
               "name": "_description",
               "type": "string"
            },
            {
               "internalType": "string",
               "name": "_profile",
               "type": "string"
            },
            {
               "internalType": "string",
               "name": "_thumbnail",
               "type": "string"
            },
            {
               "internalType": "string[][]",
               "name": "_items",
               "type": "string[][]"
            },
            {
               "internalType": "uint256[]",
               "name": "_itemsValues",
               "type": "uint256[]"
            },
            {
               "internalType": "address",
               "name": "_owner",
               "type": "address"
            }
         ],
         "stateMutability": "nonpayable",
         "type": "constructor"
      },
      {
         "inputs": [],
         "name": "BuyMeACoffee__NotEnoughEthSend",
         "type": "error"
      },
      {
         "inputs": [],
         "name": "BuyMeACoffee__NotOwner",
         "type": "error"
      },
      {
         "anonymous": false,
         "inputs": [
            {
               "indexed": true,
               "internalType": "uint256",
               "name": "items_id",
               "type": "uint256"
            }
         ],
         "name": "AddedItems",
         "type": "event"
      },
      {
         "inputs": [
            {
               "internalType": "string[]",
               "name": "names",
               "type": "string[]"
            },
            {
               "internalType": "uint256",
               "name": "cost",
               "type": "uint256"
            }
         ],
         "name": "addItems",
         "outputs": [],
         "stateMutability": "nonpayable",
         "type": "function"
      },
      {
         "inputs": [],
         "name": "getDescription",
         "outputs": [
            {
               "internalType": "string",
               "name": "",
               "type": "string"
            }
         ],
         "stateMutability": "view",
         "type": "function"
      },
      {
         "inputs": [],
         "name": "getItemsCount",
         "outputs": [
            {
               "internalType": "uint256",
               "name": "",
               "type": "uint256"
            }
         ],
         "stateMutability": "view",
         "type": "function"
      },
      {
         "inputs": [],
         "name": "getListOfItems",
         "outputs": [
            {
               "components": [
                  {
                     "internalType": "string[]",
                     "name": "names",
                     "type": "string[]"
                  },
                  {
                     "internalType": "uint256",
                     "name": "cost",
                     "type": "uint256"
                  },
                  {
                     "internalType": "uint256",
                     "name": "id",
                     "type": "uint256"
                  }
               ],
               "internalType": "struct BuyMeACoffee.Items[]",
               "name": "",
               "type": "tuple[]"
            }
         ],
         "stateMutability": "view",
         "type": "function"
      },
      {
         "inputs": [],
         "name": "getMemos",
         "outputs": [
            {
               "components": [
                  {
                     "internalType": "address",
                     "name": "from",
                     "type": "address"
                  },
                  {
                     "internalType": "uint256",
                     "name": "timestamp",
                     "type": "uint256"
                  },
                  {
                     "internalType": "string",
                     "name": "name",
                     "type": "string"
                  },
                  {
                     "internalType": "string",
                     "name": "message",
                     "type": "string"
                  },
                  {
                     "internalType": "string",
                     "name": "response",
                     "type": "string"
                  },
                  {
                     "internalType": "uint256",
                     "name": "items_id",
                     "type": "uint256"
                  }
               ],
               "internalType": "struct BuyMeACoffee.Memo[]",
               "name": "",
               "type": "tuple[]"
            }
         ],
         "stateMutability": "view",
         "type": "function"
      },
      {
         "inputs": [],
         "name": "getName",
         "outputs": [
            {
               "internalType": "string",
               "name": "",
               "type": "string"
            }
         ],
         "stateMutability": "view",
         "type": "function"
      },
      {
         "inputs": [],
         "name": "getOwner",
         "outputs": [
            {
               "internalType": "address",
               "name": "",
               "type": "address"
            }
         ],
         "stateMutability": "view",
         "type": "function"
      },
      {
         "inputs": [],
         "name": "getProfile",
         "outputs": [
            {
               "internalType": "string",
               "name": "",
               "type": "string"
            }
         ],
         "stateMutability": "view",
         "type": "function"
      },
      {
         "inputs": [],
         "name": "getThumbnail",
         "outputs": [
            {
               "internalType": "string",
               "name": "",
               "type": "string"
            }
         ],
         "stateMutability": "view",
         "type": "function"
      },
      {
         "inputs": [
            {
               "internalType": "uint256",
               "name": "_id",
               "type": "uint256"
            }
         ],
         "name": "removeItems",
         "outputs": [],
         "stateMutability": "nonpayable",
         "type": "function"
      },
      {
         "inputs": [
            {
               "internalType": "string",
               "name": "_description",
               "type": "string"
            }
         ],
         "name": "setDescription",
         "outputs": [],
         "stateMutability": "nonpayable",
         "type": "function"
      },
      {
         "inputs": [
            {
               "internalType": "string[][]",
               "name": "_items",
               "type": "string[][]"
            },
            {
               "internalType": "uint256[]",
               "name": "_itemsValues",
               "type": "uint256[]"
            }
         ],
         "name": "setInitialItems",
         "outputs": [],
         "stateMutability": "nonpayable",
         "type": "function"
      },
      {
         "inputs": [
            {
               "internalType": "string",
               "name": "_name",
               "type": "string"
            }
         ],
         "name": "setName",
         "outputs": [],
         "stateMutability": "nonpayable",
         "type": "function"
      },
      {
         "inputs": [
            {
               "internalType": "string",
               "name": "_profile",
               "type": "string"
            }
         ],
         "name": "setProfile",
         "outputs": [],
         "stateMutability": "nonpayable",
         "type": "function"
      },
      {
         "inputs": [
            {
               "internalType": "string",
               "name": "_thumbnail",
               "type": "string"
            }
         ],
         "name": "setThumbnail",
         "outputs": [],
         "stateMutability": "nonpayable",
         "type": "function"
      },
      {
         "inputs": [
            {
               "internalType": "string",
               "name": "_name",
               "type": "string"
            },
            {
               "internalType": "string",
               "name": "_message",
               "type": "string"
            },
            {
               "internalType": "uint256",
               "name": "_itemsId",
               "type": "uint256"
            }
         ],
         "name": "storeMemo",
         "outputs": [],
         "stateMutability": "payable",
         "type": "function"
      },
      {
         "inputs": [],
         "name": "withdraw",
         "outputs": [],
         "stateMutability": "nonpayable",
         "type": "function"
      }
   ],
   "bytecode": "0x608060405260006003553480156200001657600080fd5b50604051620033893803806200338983398181016040528101906200003c91906200084e565b86600490816200004d919062000bfc565b5085600790816200005f919062000bfc565b50846005908162000071919062000bfc565b50836006908162000083919062000bfc565b5080600260006101000a81548173ffffffffffffffffffffffffffffffffffffffff021916908373ffffffffffffffffffffffffffffffffffffffff160217905550620000d78383620000e460201b60201c565b5050505050505062000d8e565b6000815167ffffffffffffffff81111562000104576200010362000381565b5b6040519080825280602002602001820160405280156200014157816020015b6200012d62000244565b815260200190600190039081620001235790505b50905060005b81518110156200023e576000604051806060016040528086848151811062000174576200017362000ce3565b5b6020026020010151815260200185848151811062000197576200019662000ce3565b5b60200260200101518152602001600354815250905060018190806001815401808255809150506001900390600052602060002090600302016000909190919091506000820151816000019080519060200190620001f692919062000265565b506020820151816001015560408201518160020155505060036000815480929190620002229062000d41565b9190505550508080620002359062000d41565b91505062000147565b50505050565b60405180606001604052806060815260200160008152602001600081525090565b828054828255906000526020600020908101928215620002b2579160200282015b82811115620002b1578251829081620002a0919062000bfc565b509160200191906001019062000286565b5b509050620002c19190620002c5565b5090565b5b80821115620002e95760008181620002df9190620002ed565b50600101620002c6565b5090565b508054620002fb90620009f5565b6000825580601f106200030f575062000330565b601f0160209004906000526020600020908101906200032f919062000333565b5b50565b5b808211156200034e57600081600090555060010162000334565b5090565b6000604051905090565b600080fd5b600080fd5b600080fd5b600080fd5b6000601f19601f8301169050919050565b7f4e487b7100000000000000000000000000000000000000000000000000000000600052604160045260246000fd5b620003bb8262000370565b810181811067ffffffffffffffff82111715620003dd57620003dc62000381565b5b80604052505050565b6000620003f262000352565b9050620004008282620003b0565b919050565b600067ffffffffffffffff82111562000423576200042262000381565b5b6200042e8262000370565b9050602081019050919050565b60005b838110156200045b5780820151818401526020810190506200043e565b60008484015250505050565b60006200047e620004788462000405565b620003e6565b9050828152602081018484840111156200049d576200049c6200036b565b5b620004aa8482856200043b565b509392505050565b600082601f830112620004ca57620004c962000366565b5b8151620004dc84826020860162000467565b91505092915050565b600067ffffffffffffffff82111562000503576200050262000381565b5b602082029050602081019050919050565b600080fd5b600067ffffffffffffffff82111562000537576200053662000381565b5b602082029050602081019050919050565b60006200055f620005598462000519565b620003e6565b9050808382526020820190506020840283018581111562000585576200058462000514565b5b835b81811015620005d357805167ffffffffffffffff811115620005ae57620005ad62000366565b5b808601620005bd8982620004b2565b8552602085019450505060208101905062000587565b5050509392505050565b600082601f830112620005f557620005f462000366565b5b81516200060784826020860162000548565b91505092915050565b6000620006276200062184620004e5565b620003e6565b905080838252602082019050602084028301858111156200064d576200064c62000514565b5b835b818110156200069b57805167ffffffffffffffff81111562000676576200067562000366565b5b808601620006858982620005dd565b855260208501945050506020810190506200064f565b5050509392505050565b600082601f830112620006bd57620006bc62000366565b5b8151620006cf84826020860162000610565b91505092915050565b600067ffffffffffffffff821115620006f657620006f562000381565b5b602082029050602081019050919050565b6000819050919050565b6200071c8162000707565b81146200072857600080fd5b50565b6000815190506200073c8162000711565b92915050565b6000620007596200075384620006d8565b620003e6565b905080838252602082019050602084028301858111156200077f576200077e62000514565b5b835b81811015620007ac57806200079788826200072b565b84526020840193505060208101905062000781565b5050509392505050565b600082601f830112620007ce57620007cd62000366565b5b8151620007e084826020860162000742565b91505092915050565b600073ffffffffffffffffffffffffffffffffffffffff82169050919050565b60006200081682620007e9565b9050919050565b620008288162000809565b81146200083457600080fd5b50565b60008151905062000848816200081d565b92915050565b600080600080600080600060e0888a03121562000870576200086f6200035c565b5b600088015167ffffffffffffffff81111562000891576200089062000361565b5b6200089f8a828b01620004b2565b975050602088015167ffffffffffffffff811115620008c357620008c262000361565b5b620008d18a828b01620004b2565b965050604088015167ffffffffffffffff811115620008f557620008f462000361565b5b620009038a828b01620004b2565b955050606088015167ffffffffffffffff81111562000927576200092662000361565b5b620009358a828b01620004b2565b945050608088015167ffffffffffffffff81111562000959576200095862000361565b5b620009678a828b01620006a5565b93505060a088015167ffffffffffffffff8111156200098b576200098a62000361565b5b620009998a828b01620007b6565b92505060c0620009ac8a828b0162000837565b91505092959891949750929550565b600081519050919050565b7f4e487b7100000000000000000000000000000000000000000000000000000000600052602260045260246000fd5b6000600282049050600182168062000a0e57607f821691505b60208210810362000a245762000a23620009c6565b5b50919050565b60008190508160005260206000209050919050565b60006020601f8301049050919050565b600082821b905092915050565b60006008830262000a8e7fffffffffffffffffffffffffffffffffffffffffffffffffffffffffffffffff8262000a4f565b62000a9a868362000a4f565b95508019841693508086168417925050509392505050565b6000819050919050565b600062000add62000ad762000ad18462000707565b62000ab2565b62000707565b9050919050565b6000819050919050565b62000af98362000abc565b62000b1162000b088262000ae4565b84845462000a5c565b825550505050565b600090565b62000b2862000b19565b62000b3581848462000aee565b505050565b5b8181101562000b5d5762000b5160008262000b1e565b60018101905062000b3b565b5050565b601f82111562000bac5762000b768162000a2a565b62000b818462000a3f565b8101602085101562000b91578190505b62000ba962000ba08562000a3f565b83018262000b3a565b50505b505050565b600082821c905092915050565b600062000bd16000198460080262000bb1565b1980831691505092915050565b600062000bec838362000bbe565b9150826002028217905092915050565b62000c0782620009bb565b67ffffffffffffffff81111562000c235762000c2262000381565b5b62000c2f8254620009f5565b62000c3c82828562000b61565b600060209050601f83116001811462000c74576000841562000c5f578287015190505b62000c6b858262000bde565b86555062000cdb565b601f19841662000c848662000a2a565b60005b8281101562000cae5784890151825560018201915060208501945060208101905062000c87565b8683101562000cce578489015162000cca601f89168262000bbe565b8355505b6001600288020188555050505b505050505050565b7f4e487b7100000000000000000000000000000000000000000000000000000000600052603260045260246000fd5b7f4e487b7100000000000000000000000000000000000000000000000000000000600052601160045260246000fd5b600062000d4e8262000707565b91507fffffffffffffffffffffffffffffffffffffffffffffffffffffffffffffffff820362000d835762000d8262000d12565b5b600182019050919050565b6125eb8062000d9e6000396000f3fe6080604052600436106100fe5760003560e01c8063893d20e811610095578063da14bde311610064578063da14bde3146102eb578063dbfc2c1214610314578063e1d740831461033d578063e9c0d98c14610368578063eefa873514610384576100fe565b8063893d20e81461024357806390c3f38f1461026e578063c47f002714610297578063d6afc9b1146102c0576100fe565b8063512dd020116100d1578063512dd02014610199578063594d9e63146101c45780637d44ba78146101ef578063865c517214610218576100fe565b806317d7de7c146101035780631a0925411461012e578063235b37b1146101595780633ccfd60b14610182575b600080fd5b34801561010f57600080fd5b506101186103ad565b6040516101259190611671565b60405180910390f35b34801561013a57600080fd5b5061014361043f565b6040516101509190611671565b60405180910390f35b34801561016557600080fd5b50610180600480360381019061017b91906117dc565b6104d1565b005b34801561018e57600080fd5b5061019761056b565b005b3480156101a557600080fd5b506101ae61065d565b6040516101bb919061183e565b60405180910390f35b3480156101d057600080fd5b506101d9610667565b6040516101e69190611a86565b60405180910390f35b3480156101fb57600080fd5b5061021660048036038101906102119190611bba565b6107b3565b005b34801561022457600080fd5b5061022d610906565b60405161023a9190611db0565b60405180910390f35b34801561024f57600080fd5b50610258610b85565b6040516102659190611de1565b60405180910390f35b34801561027a57600080fd5b50610295600480360381019061029091906117dc565b610baf565b005b3480156102a357600080fd5b506102be60048036038101906102b991906117dc565b610c49565b005b3480156102cc57600080fd5b506102d5610ce3565b6040516102e29190611671565b60405180910390f35b3480156102f757600080fd5b50610312600480360381019061030d9190611dfc565b610d75565b005b34801561032057600080fd5b5061033b600480360381019061033691906117dc565b610f1c565b005b34801561034957600080fd5b50610352610fb6565b60405161035f9190611671565b60405180910390f35b610382600480360381019061037d9190611e29565b611048565b005b34801561039057600080fd5b506103ab60048036038101906103a69190612058565b61131d565b005b6060600480546103bc906120ff565b80601f01602080910402602001604051908101604052809291908181526020018280546103e8906120ff565b80156104355780601f1061040a57610100808354040283529160200191610435565b820191906000526020600020905b81548152906001019060200180831161041857829003601f168201915b5050505050905090565b60606007805461044e906120ff565b80601f016020809104026020016040519081016040528092919081815260200182805461047a906120ff565b80156104c75780601f1061049c576101008083540402835291602001916104c7565b820191906000526020600020905b8154815290600101906020018083116104aa57829003601f168201915b5050505050905090565b600260009054906101000a900473ffffffffffffffffffffffffffffffffffffffff1673ffffffffffffffffffffffffffffffffffffffff163373ffffffffffffffffffffffffffffffffffffffff1614610558576040517f1022f53800000000000000000000000000000000000000000000000000000000815260040160405180910390fd5b806005908161056791906122dc565b5050565b600260009054906101000a900473ffffffffffffffffffffffffffffffffffffffff1673ffffffffffffffffffffffffffffffffffffffff163373ffffffffffffffffffffffffffffffffffffffff16146105f2576040517f1022f53800000000000000000000000000000000000000000000000000000000815260040160405180910390fd5b600260009054906101000a900473ffffffffffffffffffffffffffffffffffffffff1673ffffffffffffffffffffffffffffffffffffffff166108fc479081150290604051600060405180830381858888f1935050505015801561065a573d6000803e3d6000fd5b50565b6000600354905090565b60606001805480602002602001604051908101604052809291908181526020016000905b828210156107aa578382906000526020600020906003020160405180606001604052908160008201805480602002602001604051908101604052809291908181526020016000905b8282101561077f5783829060005260206000200180546106f2906120ff565b80601f016020809104026020016040519081016040528092919081815260200182805461071e906120ff565b801561076b5780601f106107405761010080835404028352916020019161076b565b820191906000526020600020905b81548152906001019060200180831161074e57829003601f168201915b5050505050815260200190600101906106d3565b505050508152602001600182015481526020016002820154815250508152602001906001019061068b565b50505050905090565b600260009054906101000a900473ffffffffffffffffffffffffffffffffffffffff1673ffffffffffffffffffffffffffffffffffffffff163373ffffffffffffffffffffffffffffffffffffffff161461083a576040517f1022f53800000000000000000000000000000000000000000000000000000000815260040160405180910390fd5b600060405180606001604052808481526020018381526020016003548152509050600181908060018154018082558091505060019003906000526020600020906003020160009091909190915060008201518160000190805190602001906108a3929190611468565b50602082015181600101556040820151816002015550506003547fa5dbb7adb15a05f8df3bdfc06617a63f39825dd0c4d2f0615c5134d1d3301b3660405160405180910390a2600360008154809291906108fc906123dd565b9190505550505050565b60606000805480602002602001604051908101604052809291908181526020016000905b82821015610b7c57838290600052602060002090600602016040518060c00160405290816000820160009054906101000a900473ffffffffffffffffffffffffffffffffffffffff1673ffffffffffffffffffffffffffffffffffffffff1673ffffffffffffffffffffffffffffffffffffffff168152602001600182015481526020016002820180546109bd906120ff565b80601f01602080910402602001604051908101604052809291908181526020018280546109e9906120ff565b8015610a365780601f10610a0b57610100808354040283529160200191610a36565b820191906000526020600020905b815481529060010190602001808311610a1957829003601f168201915b50505050508152602001600382018054610a4f906120ff565b80601f0160208091040260200160405190810160405280929190818152602001828054610a7b906120ff565b8015610ac85780601f10610a9d57610100808354040283529160200191610ac8565b820191906000526020600020905b815481529060010190602001808311610aab57829003601f168201915b50505050508152602001600482018054610ae1906120ff565b80601f0160208091040260200160405190810160405280929190818152602001828054610b0d906120ff565b8015610b5a5780601f10610b2f57610100808354040283529160200191610b5a565b820191906000526020600020905b815481529060010190602001808311610b3d57829003601f168201915b505050505081526020016005820154815250508152602001906001019061092a565b50505050905090565b6000600260009054906101000a900473ffffffffffffffffffffffffffffffffffffffff16905090565b600260009054906101000a900473ffffffffffffffffffffffffffffffffffffffff1673ffffffffffffffffffffffffffffffffffffffff163373ffffffffffffffffffffffffffffffffffffffff1614610c36576040517f1022f53800000000000000000000000000000000000000000000000000000000815260040160405180910390fd5b8060079081610c4591906122dc565b5050565b600260009054906101000a900473ffffffffffffffffffffffffffffffffffffffff1673ffffffffffffffffffffffffffffffffffffffff163373ffffffffffffffffffffffffffffffffffffffff1614610cd0576040517f1022f53800000000000000000000000000000000000000000000000000000000815260040160405180910390fd5b8060049081610cdf91906122dc565b5050565b606060058054610cf2906120ff565b80601f0160208091040260200160405190810160405280929190818152602001828054610d1e906120ff565b8015610d6b5780601f10610d4057610100808354040283529160200191610d6b565b820191906000526020600020905b815481529060010190602001808311610d4e57829003601f168201915b5050505050905090565b600260009054906101000a900473ffffffffffffffffffffffffffffffffffffffff1673ffffffffffffffffffffffffffffffffffffffff163373ffffffffffffffffffffffffffffffffffffffff1614610dfc576040517f1022f53800000000000000000000000000000000000000000000000000000000815260040160405180910390fd5b60005b600180549050811015610f18578160018281548110610e2157610e20612425565b5b90600052602060002090600302016002015403610f05576001808080549050610e4a9190612454565b81548110610e5b57610e5a612425565b5b906000526020600020906003020160018281548110610e7d57610e7c612425565b5b90600052602060002090600302016000820181600001908054610ea19291906114c1565b5060018201548160010155600282015481600201559050506001805480610ecb57610eca612488565b5b600190038181906000526020600020906003020160008082016000610ef0919061151e565b60018201600090556002820160009055505090555b8080610f10906123dd565b915050610dff565b5050565b600260009054906101000a900473ffffffffffffffffffffffffffffffffffffffff1673ffffffffffffffffffffffffffffffffffffffff163373ffffffffffffffffffffffffffffffffffffffff1614610fa3576040517f1022f53800000000000000000000000000000000000000000000000000000000815260040160405180910390fd5b8060069081610fb291906122dc565b5050565b606060068054610fc5906120ff565b80601f0160208091040260200160405190810160405280929190818152602001828054610ff1906120ff565b801561103e5780601f106110135761010080835404028352916020019161103e565b820191906000526020600020905b81548152906001019060200180831161102157829003601f168201915b5050505050905090565b61105061153f565b60005b6001805490508110156111bc57826001828154811061107557611074612425565b5b906000526020600020906003020160020154036111a957600181815481106110a05761109f612425565b5b906000526020600020906003020160405180606001604052908160008201805480602002602001604051908101604052809291908181526020016000905b8282101561118a5783829060005260206000200180546110fd906120ff565b80601f0160208091040260200160405190810160405280929190818152602001828054611129906120ff565b80156111765780601f1061114b57610100808354040283529160200191611176565b820191906000526020600020905b81548152906001019060200180831161115957829003601f168201915b5050505050815260200190600101906110de565b5050505081526020016001820154815260200160028201548152505091505b80806111b4906123dd565b915050611053565b5080602001513410156111fb576040517ff1b7411900000000000000000000000000000000000000000000000000000000815260040160405180910390fd5b60006040518060c001604052803373ffffffffffffffffffffffffffffffffffffffff16815260200142815260200186815260200185815260200160405180602001604052806000815250815260200184815250908060018154018082558091505060019003906000526020600020906006020160009091909190915060008201518160000160006101000a81548173ffffffffffffffffffffffffffffffffffffffff021916908373ffffffffffffffffffffffffffffffffffffffff1602179055506020820151816001015560408201518160020190816112de91906122dc565b5060608201518160030190816112f491906122dc565b50608082015181600401908161130a91906122dc565b5060a08201518160050155505050505050565b6000815167ffffffffffffffff81111561133a576113396116b1565b5b60405190808252806020026020018201604052801561137357816020015b61136061153f565b8152602001906001900390816113585790505b50905060005b815181101561146257600060405180606001604052808684815181106113a2576113a1612425565b5b602002602001015181526020018584815181106113c2576113c1612425565b5b6020026020010151815260200160035481525090506001819080600181540180825580915050600190039060005260206000209060030201600090919091909150600082015181600001908051906020019061141f929190611468565b506020820151816001015560408201518160020155505060036000815480929190611449906123dd565b919050555050808061145a906123dd565b915050611379565b50505050565b8280548282559060005260206000209081019282156114b0579160200282015b828111156114af57825182908161149f91906122dc565b5091602001919060010190611488565b5b5090506114bd9190611560565b5090565b82805482825590600052602060002090810192821561150d5760005260206000209182015b8281111561150c57828290816114fc91906124cd565b50916001019190600101906114e6565b5b50905061151a9190611560565b5090565b508054600082559060005260206000209081019061153c9190611560565b50565b60405180606001604052806060815260200160008152602001600081525090565b5b8082111561158057600081816115779190611584565b50600101611561565b5090565b508054611590906120ff565b6000825580601f106115a257506115c1565b601f0160209004906000526020600020908101906115c091906115c4565b5b50565b5b808211156115dd5760008160009055506001016115c5565b5090565b600081519050919050565b600082825260208201905092915050565b60005b8381101561161b578082015181840152602081019050611600565b60008484015250505050565b6000601f19601f8301169050919050565b6000611643826115e1565b61164d81856115ec565b935061165d8185602086016115fd565b61166681611627565b840191505092915050565b6000602082019050818103600083015261168b8184611638565b905092915050565b6000604051905090565b600080fd5b600080fd5b600080fd5b600080fd5b7f4e487b7100000000000000000000000000000000000000000000000000000000600052604160045260246000fd5b6116e982611627565b810181811067ffffffffffffffff82111715611708576117076116b1565b5b80604052505050565b600061171b611693565b905061172782826116e0565b919050565b600067ffffffffffffffff821115611747576117466116b1565b5b61175082611627565b9050602081019050919050565b82818337600083830152505050565b600061177f61177a8461172c565b611711565b90508281526020810184848401111561179b5761179a6116ac565b5b6117a684828561175d565b509392505050565b600082601f8301126117c3576117c26116a7565b5b81356117d384826020860161176c565b91505092915050565b6000602082840312156117f2576117f161169d565b5b600082013567ffffffffffffffff8111156118105761180f6116a2565b5b61181c848285016117ae565b91505092915050565b6000819050919050565b61183881611825565b82525050565b6000602082019050611853600083018461182f565b92915050565b600081519050919050565b600082825260208201905092915050565b6000819050602082019050919050565b600081519050919050565b600082825260208201905092915050565b6000819050602082019050919050565b600082825260208201905092915050565b60006118cd826115e1565b6118d781856118b1565b93506118e78185602086016115fd565b6118f081611627565b840191505092915050565b600061190783836118c2565b905092915050565b6000602082019050919050565b600061192782611885565b6119318185611890565b935083602082028501611943856118a1565b8060005b8581101561197f578484038952815161196085826118fb565b945061196b8361190f565b925060208a01995050600181019050611947565b50829750879550505050505092915050565b61199a81611825565b82525050565b600060608301600083015184820360008601526119bd828261191c565b91505060208301516119d26020860182611991565b5060408301516119e56040860182611991565b508091505092915050565b60006119fc83836119a0565b905092915050565b6000602082019050919050565b6000611a1c82611859565b611a268185611864565b935083602082028501611a3885611875565b8060005b85811015611a745784840389528151611a5585826119f0565b9450611a6083611a04565b925060208a01995050600181019050611a3c565b50829750879550505050505092915050565b60006020820190508181036000830152611aa08184611a11565b905092915050565b600067ffffffffffffffff821115611ac357611ac26116b1565b5b602082029050602081019050919050565b600080fd5b6000611aec611ae784611aa8565b611711565b90508083825260208201905060208402830185811115611b0f57611b0e611ad4565b5b835b81811015611b5657803567ffffffffffffffff811115611b3457611b336116a7565b5b808601611b4189826117ae565b85526020850194505050602081019050611b11565b5050509392505050565b600082601f830112611b7557611b746116a7565b5b8135611b85848260208601611ad9565b91505092915050565b611b9781611825565b8114611ba257600080fd5b50565b600081359050611bb481611b8e565b92915050565b60008060408385031215611bd157611bd061169d565b5b600083013567ffffffffffffffff811115611bef57611bee6116a2565b5b611bfb85828601611b60565b9250506020611c0c85828601611ba5565b9150509250929050565b600081519050919050565b600082825260208201905092915050565b6000819050602082019050919050565b600073ffffffffffffffffffffffffffffffffffffffff82169050919050565b6000611c6d82611c42565b9050919050565b611c7d81611c62565b82525050565b600060c083016000830151611c9b6000860182611c74565b506020830151611cae6020860182611991565b5060408301518482036040860152611cc682826118c2565b91505060608301518482036060860152611ce082826118c2565b91505060808301518482036080860152611cfa82826118c2565b91505060a0830151611d0f60a0860182611991565b508091505092915050565b6000611d268383611c83565b905092915050565b6000602082019050919050565b6000611d4682611c16565b611d508185611c21565b935083602082028501611d6285611c32565b8060005b85811015611d9e5784840389528151611d7f8582611d1a565b9450611d8a83611d2e565b925060208a01995050600181019050611d66565b50829750879550505050505092915050565b60006020820190508181036000830152611dca8184611d3b565b905092915050565b611ddb81611c62565b82525050565b6000602082019050611df66000830184611dd2565b92915050565b600060208284031215611e1257611e1161169d565b5b6000611e2084828501611ba5565b91505092915050565b600080600060608486031215611e4257611e4161169d565b5b600084013567ffffffffffffffff811115611e6057611e5f6116a2565b5b611e6c868287016117ae565b935050602084013567ffffffffffffffff811115611e8d57611e8c6116a2565b5b611e99868287016117ae565b9250506040611eaa86828701611ba5565b9150509250925092565b600067ffffffffffffffff821115611ecf57611ece6116b1565b5b602082029050602081019050919050565b6000611ef3611eee84611eb4565b611711565b90508083825260208201905060208402830185811115611f1657611f15611ad4565b5b835b81811015611f5d57803567ffffffffffffffff811115611f3b57611f3a6116a7565b5b808601611f488982611b60565b85526020850194505050602081019050611f18565b5050509392505050565b600082601f830112611f7c57611f7b6116a7565b5b8135611f8c848260208601611ee0565b91505092915050565b600067ffffffffffffffff821115611fb057611faf6116b1565b5b602082029050602081019050919050565b6000611fd4611fcf84611f95565b611711565b90508083825260208201905060208402830185811115611ff757611ff6611ad4565b5b835b81811015612020578061200c8882611ba5565b845260208401935050602081019050611ff9565b5050509392505050565b600082601f83011261203f5761203e6116a7565b5b813561204f848260208601611fc1565b91505092915050565b6000806040838503121561206f5761206e61169d565b5b600083013567ffffffffffffffff81111561208d5761208c6116a2565b5b61209985828601611f67565b925050602083013567ffffffffffffffff8111156120ba576120b96116a2565b5b6120c68582860161202a565b9150509250929050565b7f4e487b7100000000000000000000000000000000000000000000000000000000600052602260045260246000fd5b6000600282049050600182168061211757607f821691505b60208210810361212a576121296120d0565b5b50919050565b60008190508160005260206000209050919050565b60006020601f8301049050919050565b600082821b905092915050565b6000600883026121927fffffffffffffffffffffffffffffffffffffffffffffffffffffffffffffffff82612155565b61219c8683612155565b95508019841693508086168417925050509392505050565b6000819050919050565b60006121d96121d46121cf84611825565b6121b4565b611825565b9050919050565b6000819050919050565b6121f3836121be565b6122076121ff826121e0565b848454612162565b825550505050565b600090565b61221c61220f565b6122278184846121ea565b505050565b5b8181101561224b57612240600082612214565b60018101905061222d565b5050565b601f8211156122905761226181612130565b61226a84612145565b81016020851015612279578190505b61228d61228585612145565b83018261222c565b50505b505050565b600082821c905092915050565b60006122b360001984600802612295565b1980831691505092915050565b60006122cc83836122a2565b9150826002028217905092915050565b6122e5826115e1565b67ffffffffffffffff8111156122fe576122fd6116b1565b5b61230882546120ff565b61231382828561224f565b600060209050601f8311600181146123465760008415612334578287015190505b61233e85826122c0565b8655506123a6565b601f19841661235486612130565b60005b8281101561237c57848901518255600182019150602085019450602081019050612357565b868310156123995784890151612395601f8916826122a2565b8355505b6001600288020188555050505b505050505050565b7f4e487b7100000000000000000000000000000000000000000000000000000000600052601160045260246000fd5b60006123e882611825565b91507fffffffffffffffffffffffffffffffffffffffffffffffffffffffffffffffff820361241a576124196123ae565b5b600182019050919050565b7f4e487b7100000000000000000000000000000000000000000000000000000000600052603260045260246000fd5b600061245f82611825565b915061246a83611825565b9250828203905081811115612482576124816123ae565b5b92915050565b7f4e487b7100000000000000000000000000000000000000000000000000000000600052603160045260246000fd5b6000815490506124c6816120ff565b9050919050565b8181036124db5750506125b3565b6124e4826124b7565b67ffffffffffffffff8111156124fd576124fc6116b1565b5b61250782546120ff565b61251282828561224f565b6000601f831160018114612541576000841561252f578287015490505b61253985826122c0565b8655506125ac565b601f19841661254f87612130565b965061255a86612130565b60005b828110156125825784890154825560018201915060018501945060208101905061255d565b8683101561259f578489015461259b601f8916826122a2565b8355505b6001600288020188555050505b5050505050505b56fea264697066735822122002ab5ec5f120249a2bed89d0a4124d500de4649aa18af9fa695778e26b8de48964736f6c63430008110033",
   "linkReferences": {},
   "deployedLinkReferences": {}
}