{
   "_format": "hh-sol-artifact-1",
   "contractName": "BuyMeACoffee",
   "sourceName": "contracts/BuyMeACoffee.sol",
   "abi": [
      {
         "inputs": [
            {
               "internalType": "string",
               "name": "_name",
               "type": "string"
            },
            {
               "internalType": "string",
               "name": "_description",
               "type": "string"
            },
            {
               "internalType": "string",
               "name": "_profile",
               "type": "string"
            },
            {
               "internalType": "string",
               "name": "_thumbnail",
               "type": "string"
            },
            {
               "internalType": "string[][]",
               "name": "_items",
               "type": "string[][]"
            },
            {
               "internalType": "uint256[]",
               "name": "_itemsValues",
               "type": "uint256[]"
            },
            {
               "internalType": "address",
               "name": "_owner",
               "type": "address"
            }
         ],
         "stateMutability": "nonpayable",
         "type": "constructor"
      },
      {
         "inputs": [],
         "name": "BuyMeACoffee__NotEnoughEthSend",
         "type": "error"
      },
      {
         "inputs": [],
         "name": "BuyMeACoffee__NotOwner",
         "type": "error"
      },
      {
         "anonymous": false,
         "inputs": [
            {
               "indexed": true,
               "internalType": "uint256",
               "name": "items_id",
               "type": "uint256"
            }
         ],
         "name": "AddedItems",
         "type": "event"
      },
      {
         "anonymous": false,
         "inputs": [
            {
               "indexed": true,
               "internalType": "uint256",
               "name": "timestamp",
               "type": "uint256"
            },
            {
               "indexed": false,
               "internalType": "string",
               "name": "name",
               "type": "string"
            },
            {
               "indexed": false,
               "internalType": "string",
               "name": "message",
               "type": "string"
            },
            {
               "indexed": false,
               "internalType": "uint256",
               "name": "items_id",
               "type": "uint256"
            }
         ],
         "name": "MemoCreated",
         "type": "event"
      },
      {
         "anonymous": false,
         "inputs": [
            {
               "indexed": true,
               "internalType": "uint256",
               "name": "timestamp",
               "type": "uint256"
            },
            {
               "indexed": true,
               "internalType": "string",
               "name": "response",
               "type": "string"
            }
         ],
         "name": "MemoResponse",
         "type": "event"
      },
      {
         "anonymous": false,
         "inputs": [
            {
               "indexed": true,
               "internalType": "uint256",
               "name": "timestamp",
               "type": "uint256"
            },
            {
               "indexed": true,
               "internalType": "string",
               "name": "name",
               "type": "string"
            },
            {
               "indexed": true,
               "internalType": "string",
               "name": "description",
               "type": "string"
            },
            {
               "indexed": false,
               "internalType": "string",
               "name": "thumbnail",
               "type": "string"
            },
            {
               "indexed": false,
               "internalType": "string",
               "name": "profile",
               "type": "string"
            }
         ],
         "name": "UpdatedCampaign",
         "type": "event"
      },
      {
         "inputs": [
            {
               "internalType": "string[]",
               "name": "names",
               "type": "string[]"
            },
            {
               "internalType": "uint256",
               "name": "cost",
               "type": "uint256"
            }
         ],
         "name": "addItems",
         "outputs": [],
         "stateMutability": "nonpayable",
         "type": "function"
      },
      {
         "inputs": [
            {
               "internalType": "string[][]",
               "name": "_items",
               "type": "string[][]"
            },
            {
               "internalType": "uint256[]",
               "name": "_itemsValues",
               "type": "uint256[]"
            }
         ],
         "name": "formatItems",
         "outputs": [],
         "stateMutability": "nonpayable",
         "type": "function"
      },
      {
         "inputs": [],
         "name": "getDescription",
         "outputs": [
            {
               "internalType": "string",
               "name": "",
               "type": "string"
            }
         ],
         "stateMutability": "view",
         "type": "function"
      },
      {
         "inputs": [],
         "name": "getItemsCount",
         "outputs": [
            {
               "internalType": "uint256",
               "name": "",
               "type": "uint256"
            }
         ],
         "stateMutability": "view",
         "type": "function"
      },
      {
         "inputs": [],
         "name": "getListOfItems",
         "outputs": [
            {
               "components": [
                  {
                     "internalType": "string[]",
                     "name": "names",
                     "type": "string[]"
                  },
                  {
                     "internalType": "uint256",
                     "name": "cost",
                     "type": "uint256"
                  },
                  {
                     "internalType": "uint256",
                     "name": "id",
                     "type": "uint256"
                  }
               ],
               "internalType": "struct BuyMeACoffee.Items[]",
               "name": "",
               "type": "tuple[]"
            }
         ],
         "stateMutability": "view",
         "type": "function"
      },
      {
         "inputs": [],
         "name": "getMemos",
         "outputs": [
            {
               "components": [
                  {
                     "internalType": "address",
                     "name": "from",
                     "type": "address"
                  },
                  {
                     "internalType": "uint256",
                     "name": "timestamp",
                     "type": "uint256"
                  },
                  {
                     "internalType": "string",
                     "name": "name",
                     "type": "string"
                  },
                  {
                     "internalType": "string",
                     "name": "message",
                     "type": "string"
                  },
                  {
                     "internalType": "string",
                     "name": "response",
                     "type": "string"
                  },
                  {
                     "internalType": "uint256",
                     "name": "items_id",
                     "type": "uint256"
                  }
               ],
               "internalType": "struct BuyMeACoffee.Memo[]",
               "name": "",
               "type": "tuple[]"
            }
         ],
         "stateMutability": "view",
         "type": "function"
      },
      {
         "inputs": [],
         "name": "getName",
         "outputs": [
            {
               "internalType": "string",
               "name": "",
               "type": "string"
            }
         ],
         "stateMutability": "view",
         "type": "function"
      },
      {
         "inputs": [],
         "name": "getOwner",
         "outputs": [
            {
               "internalType": "address",
               "name": "",
               "type": "address"
            }
         ],
         "stateMutability": "view",
         "type": "function"
      },
      {
         "inputs": [],
         "name": "getProfile",
         "outputs": [
            {
               "internalType": "string",
               "name": "",
               "type": "string"
            }
         ],
         "stateMutability": "view",
         "type": "function"
      },
      {
         "inputs": [],
         "name": "getThumbnail",
         "outputs": [
            {
               "internalType": "string",
               "name": "",
               "type": "string"
            }
         ],
         "stateMutability": "view",
         "type": "function"
      },
      {
         "inputs": [
            {
               "internalType": "uint256",
               "name": "_id",
               "type": "uint256"
            }
         ],
         "name": "removeItems",
         "outputs": [],
         "stateMutability": "nonpayable",
         "type": "function"
      },
      {
         "inputs": [
            {
               "internalType": "string",
               "name": "_description",
               "type": "string"
            }
         ],
         "name": "setDescription",
         "outputs": [],
         "stateMutability": "nonpayable",
         "type": "function"
      },
      {
         "inputs": [
            {
               "internalType": "string",
               "name": "_name",
               "type": "string"
            }
         ],
         "name": "setName",
         "outputs": [],
         "stateMutability": "nonpayable",
         "type": "function"
      },
      {
         "inputs": [
            {
               "internalType": "string",
               "name": "_profile",
               "type": "string"
            }
         ],
         "name": "setProfile",
         "outputs": [],
         "stateMutability": "nonpayable",
         "type": "function"
      },
      {
         "inputs": [
            {
               "internalType": "uint256",
               "name": "index",
               "type": "uint256"
            },
            {
               "internalType": "string",
               "name": "response",
               "type": "string"
            }
         ],
         "name": "setResponse",
         "outputs": [],
         "stateMutability": "nonpayable",
         "type": "function"
      },
      {
         "inputs": [
            {
               "internalType": "string",
               "name": "_thumbnail",
               "type": "string"
            }
         ],
         "name": "setThumbnail",
         "outputs": [],
         "stateMutability": "nonpayable",
         "type": "function"
      },
      {
         "inputs": [
            {
               "internalType": "string",
               "name": "_name",
               "type": "string"
            },
            {
               "internalType": "string",
               "name": "_message",
               "type": "string"
            },
            {
               "internalType": "uint256",
               "name": "_itemsId",
               "type": "uint256"
            }
         ],
         "name": "storeMemo",
         "outputs": [],
         "stateMutability": "payable",
         "type": "function"
      },
      {
         "inputs": [
            {
               "internalType": "string",
               "name": "_name",
               "type": "string"
            },
            {
               "internalType": "string",
               "name": "_description",
               "type": "string"
            },
            {
               "internalType": "string",
               "name": "_profile",
               "type": "string"
            },
            {
               "internalType": "string",
               "name": "_thumbnail",
               "type": "string"
            },
            {
               "internalType": "string[][]",
               "name": "_items",
               "type": "string[][]"
            },
            {
               "internalType": "uint256[]",
               "name": "_itemsValues",
               "type": "uint256[]"
            },
            {
               "internalType": "uint256[]",
               "name": "_deletedItems",
               "type": "uint256[]"
            }
         ],
         "name": "update",
         "outputs": [],
         "stateMutability": "nonpayable",
         "type": "function"
      },
      {
         "inputs": [],
         "name": "withdraw",
         "outputs": [],
         "stateMutability": "nonpayable",
         "type": "function"
      }
   ],
   "bytecode": "0x608060405260006003553480156200001657600080fd5b50604051620039473803806200394783398181016040528101906200003c91906200084e565b86600490816200004d919062000bfc565b5085600790816200005f919062000bfc565b50846005908162000071919062000bfc565b50836006908162000083919062000bfc565b5080600260006101000a81548173ffffffffffffffffffffffffffffffffffffffff021916908373ffffffffffffffffffffffffffffffffffffffff160217905550620000d78383620000e460201b60201c565b5050505050505062000d8e565b6000815167ffffffffffffffff81111562000104576200010362000381565b5b6040519080825280602002602001820160405280156200014157816020015b6200012d62000244565b815260200190600190039081620001235790505b50905060005b81518110156200023e576000604051806060016040528086848151811062000174576200017362000ce3565b5b6020026020010151815260200185848151811062000197576200019662000ce3565b5b60200260200101518152602001600354815250905060018190806001815401808255809150506001900390600052602060002090600302016000909190919091506000820151816000019080519060200190620001f692919062000265565b506020820151816001015560408201518160020155505060036000815480929190620002229062000d41565b9190505550508080620002359062000d41565b91505062000147565b50505050565b60405180606001604052806060815260200160008152602001600081525090565b828054828255906000526020600020908101928215620002b2579160200282015b82811115620002b1578251829081620002a0919062000bfc565b509160200191906001019062000286565b5b509050620002c19190620002c5565b5090565b5b80821115620002e95760008181620002df9190620002ed565b50600101620002c6565b5090565b508054620002fb90620009f5565b6000825580601f106200030f575062000330565b601f0160209004906000526020600020908101906200032f919062000333565b5b50565b5b808211156200034e57600081600090555060010162000334565b5090565b6000604051905090565b600080fd5b600080fd5b600080fd5b600080fd5b6000601f19601f8301169050919050565b7f4e487b7100000000000000000000000000000000000000000000000000000000600052604160045260246000fd5b620003bb8262000370565b810181811067ffffffffffffffff82111715620003dd57620003dc62000381565b5b80604052505050565b6000620003f262000352565b9050620004008282620003b0565b919050565b600067ffffffffffffffff82111562000423576200042262000381565b5b6200042e8262000370565b9050602081019050919050565b60005b838110156200045b5780820151818401526020810190506200043e565b60008484015250505050565b60006200047e620004788462000405565b620003e6565b9050828152602081018484840111156200049d576200049c6200036b565b5b620004aa8482856200043b565b509392505050565b600082601f830112620004ca57620004c962000366565b5b8151620004dc84826020860162000467565b91505092915050565b600067ffffffffffffffff82111562000503576200050262000381565b5b602082029050602081019050919050565b600080fd5b600067ffffffffffffffff82111562000537576200053662000381565b5b602082029050602081019050919050565b60006200055f620005598462000519565b620003e6565b9050808382526020820190506020840283018581111562000585576200058462000514565b5b835b81811015620005d357805167ffffffffffffffff811115620005ae57620005ad62000366565b5b808601620005bd8982620004b2565b8552602085019450505060208101905062000587565b5050509392505050565b600082601f830112620005f557620005f462000366565b5b81516200060784826020860162000548565b91505092915050565b6000620006276200062184620004e5565b620003e6565b905080838252602082019050602084028301858111156200064d576200064c62000514565b5b835b818110156200069b57805167ffffffffffffffff81111562000676576200067562000366565b5b808601620006858982620005dd565b855260208501945050506020810190506200064f565b5050509392505050565b600082601f830112620006bd57620006bc62000366565b5b8151620006cf84826020860162000610565b91505092915050565b600067ffffffffffffffff821115620006f657620006f562000381565b5b602082029050602081019050919050565b6000819050919050565b6200071c8162000707565b81146200072857600080fd5b50565b6000815190506200073c8162000711565b92915050565b6000620007596200075384620006d8565b620003e6565b905080838252602082019050602084028301858111156200077f576200077e62000514565b5b835b81811015620007ac57806200079788826200072b565b84526020840193505060208101905062000781565b5050509392505050565b600082601f830112620007ce57620007cd62000366565b5b8151620007e084826020860162000742565b91505092915050565b600073ffffffffffffffffffffffffffffffffffffffff82169050919050565b60006200081682620007e9565b9050919050565b620008288162000809565b81146200083457600080fd5b50565b60008151905062000848816200081d565b92915050565b600080600080600080600060e0888a03121562000870576200086f6200035c565b5b600088015167ffffffffffffffff81111562000891576200089062000361565b5b6200089f8a828b01620004b2565b975050602088015167ffffffffffffffff811115620008c357620008c262000361565b5b620008d18a828b01620004b2565b965050604088015167ffffffffffffffff811115620008f557620008f462000361565b5b620009038a828b01620004b2565b955050606088015167ffffffffffffffff81111562000927576200092662000361565b5b620009358a828b01620004b2565b945050608088015167ffffffffffffffff81111562000959576200095862000361565b5b620009678a828b01620006a5565b93505060a088015167ffffffffffffffff8111156200098b576200098a62000361565b5b620009998a828b01620007b6565b92505060c0620009ac8a828b0162000837565b91505092959891949750929550565b600081519050919050565b7f4e487b7100000000000000000000000000000000000000000000000000000000600052602260045260246000fd5b6000600282049050600182168062000a0e57607f821691505b60208210810362000a245762000a23620009c6565b5b50919050565b60008190508160005260206000209050919050565b60006020601f8301049050919050565b600082821b905092915050565b60006008830262000a8e7fffffffffffffffffffffffffffffffffffffffffffffffffffffffffffffffff8262000a4f565b62000a9a868362000a4f565b95508019841693508086168417925050509392505050565b6000819050919050565b600062000add62000ad762000ad18462000707565b62000ab2565b62000707565b9050919050565b6000819050919050565b62000af98362000abc565b62000b1162000b088262000ae4565b84845462000a5c565b825550505050565b600090565b62000b2862000b19565b62000b3581848462000aee565b505050565b5b8181101562000b5d5762000b5160008262000b1e565b60018101905062000b3b565b5050565b601f82111562000bac5762000b768162000a2a565b62000b818462000a3f565b8101602085101562000b91578190505b62000ba962000ba08562000a3f565b83018262000b3a565b50505b505050565b600082821c905092915050565b600062000bd16000198460080262000bb1565b1980831691505092915050565b600062000bec838362000bbe565b9150826002028217905092915050565b62000c0782620009bb565b67ffffffffffffffff81111562000c235762000c2262000381565b5b62000c2f8254620009f5565b62000c3c82828562000b61565b600060209050601f83116001811462000c74576000841562000c5f578287015190505b62000c6b858262000bde565b86555062000cdb565b601f19841662000c848662000a2a565b60005b8281101562000cae5784890151825560018201915060208501945060208101905062000c87565b8683101562000cce578489015162000cca601f89168262000bbe565b8355505b6001600288020188555050505b505050505050565b7f4e487b7100000000000000000000000000000000000000000000000000000000600052603260045260246000fd5b7f4e487b7100000000000000000000000000000000000000000000000000000000600052601160045260246000fd5b600062000d4e8262000707565b91507fffffffffffffffffffffffffffffffffffffffffffffffffffffffffffffffff820362000d835762000d8262000d12565b5b600182019050919050565b612ba98062000d9e6000396000f3fe6080604052600436106101145760003560e01c8063865c5172116100a0578063d6afc9b111610064578063d6afc9b114610351578063da14bde31461037c578063dbfc2c12146103a5578063e1d74083146103ce578063e9c0d98c146103f957610114565b8063865c517214610280578063893d20e8146102ab57806390c3f38f146102d6578063989cf688146102ff578063c47f00271461032857610114565b80633ccfd60b116100e75780633ccfd60b146101c157806348168a16146101d8578063512dd02014610201578063594d9e631461022c5780637d44ba781461025757610114565b806317d7de7c146101195780631a092541146101445780631d07f1fb1461016f578063235b37b114610198575b600080fd5b34801561012557600080fd5b5061012e610415565b60405161013b919061199e565b60405180910390f35b34801561015057600080fd5b506101596104a7565b604051610166919061199e565b60405180910390f35b34801561017b57600080fd5b5061019660048036038101906101919190611dc9565b610539565b005b3480156101a457600080fd5b506101bf60048036038101906101ba9190611e41565b610684565b005b3480156101cd57600080fd5b506101d661071e565b005b3480156101e457600080fd5b506101ff60048036038101906101fa9190611e8a565b610810565b005b34801561020d57600080fd5b50610216610993565b6040516102239190611fff565b60405180910390f35b34801561023857600080fd5b5061024161099d565b60405161024e9190612247565b60405180910390f35b34801561026357600080fd5b5061027e60048036038101906102799190612269565b610ae9565b005b34801561028c57600080fd5b50610295610c3c565b6040516102a2919061245f565b60405180910390f35b3480156102b757600080fd5b506102c0610ebb565b6040516102cd9190612490565b60405180910390f35b3480156102e257600080fd5b506102fd60048036038101906102f89190611e41565b610ee5565b005b34801561030b57600080fd5b50610326600480360381019061032191906124ab565b610f7f565b005b34801561033457600080fd5b5061034f600480360381019061034a9190611e41565b611085565b005b34801561035d57600080fd5b5061036661111f565b604051610373919061199e565b60405180910390f35b34801561038857600080fd5b506103a3600480360381019061039e9190612507565b6111b1565b005b3480156103b157600080fd5b506103cc60048036038101906103c79190611e41565b611358565b005b3480156103da57600080fd5b506103e36113f2565b6040516103f0919061199e565b60405180910390f35b610413600480360381019061040e9190612534565b611484565b005b606060048054610424906125ee565b80601f0160208091040260200160405190810160405280929190818152602001828054610450906125ee565b801561049d5780601f106104725761010080835404028352916020019161049d565b820191906000526020600020905b81548152906001019060200180831161048057829003601f168201915b5050505050905090565b6060600780546104b6906125ee565b80601f01602080910402602001604051908101604052809291908181526020018280546104e2906125ee565b801561052f5780601f106105045761010080835404028352916020019161052f565b820191906000526020600020905b81548152906001019060200180831161051257829003601f168201915b5050505050905090565b6000815167ffffffffffffffff811115610556576105556119d9565b5b60405190808252806020026020018201604052801561058f57816020015b61057c611795565b8152602001906001900390816105745790505b50905060005b815181101561067e57600060405180606001604052808684815181106105be576105bd61261f565b5b602002602001015181526020018584815181106105de576105dd61261f565b5b6020026020010151815260200160035481525090506001819080600181540180825580915050600190039060005260206000209060030201600090919091909150600082015181600001908051906020019061063b9291906117b6565b5060208201518160010155604082015181600201555050600360008154809291906106659061267d565b91905055505080806106769061267d565b915050610595565b50505050565b600260009054906101000a900473ffffffffffffffffffffffffffffffffffffffff1673ffffffffffffffffffffffffffffffffffffffff163373ffffffffffffffffffffffffffffffffffffffff161461070b576040517f1022f53800000000000000000000000000000000000000000000000000000000815260040160405180910390fd5b806005908161071a9190612871565b5050565b600260009054906101000a900473ffffffffffffffffffffffffffffffffffffffff1673ffffffffffffffffffffffffffffffffffffffff163373ffffffffffffffffffffffffffffffffffffffff16146107a5576040517f1022f53800000000000000000000000000000000000000000000000000000000815260040160405180910390fd5b600260009054906101000a900473ffffffffffffffffffffffffffffffffffffffff1673ffffffffffffffffffffffffffffffffffffffff166108fc479081150290604051600060405180830381858888f1935050505015801561080d573d6000803e3d6000fd5b50565b600260009054906101000a900473ffffffffffffffffffffffffffffffffffffffff1673ffffffffffffffffffffffffffffffffffffffff163373ffffffffffffffffffffffffffffffffffffffff1614610897576040517f1022f53800000000000000000000000000000000000000000000000000000000815260040160405180910390fd5b6108a18383610539565b86600490816108b09190612871565b5085600790816108c09190612871565b5084600590816108d09190612871565b5083600690816108e09190612871565b5060005b8151811015610923576109108282815181106109035761090261261f565b5b60200260200101516111b1565b808061091b9061267d565b9150506108e4565b5085604051610932919061297f565b604051809103902087604051610948919061297f565b6040518091039020427f437ea4e0b06f791d7721d4793d4f8584617500a66883386d6a879f85558ebe788789604051610982929190612996565b60405180910390a450505050505050565b6000600354905090565b60606001805480602002602001604051908101604052809291908181526020016000905b82821015610ae0578382906000526020600020906003020160405180606001604052908160008201805480602002602001604051908101604052809291908181526020016000905b82821015610ab5578382906000526020600020018054610a28906125ee565b80601f0160208091040260200160405190810160405280929190818152602001828054610a54906125ee565b8015610aa15780601f10610a7657610100808354040283529160200191610aa1565b820191906000526020600020905b815481529060010190602001808311610a8457829003601f168201915b505050505081526020019060010190610a09565b50505050815260200160018201548152602001600282015481525050815260200190600101906109c1565b50505050905090565b600260009054906101000a900473ffffffffffffffffffffffffffffffffffffffff1673ffffffffffffffffffffffffffffffffffffffff163373ffffffffffffffffffffffffffffffffffffffff1614610b70576040517f1022f53800000000000000000000000000000000000000000000000000000000815260040160405180910390fd5b60006040518060600160405280848152602001838152602001600354815250905060018190806001815401808255809150506001900390600052602060002090600302016000909190919091506000820151816000019080519060200190610bd99291906117b6565b50602082015181600101556040820151816002015550506003547fa5dbb7adb15a05f8df3bdfc06617a63f39825dd0c4d2f0615c5134d1d3301b3660405160405180910390a260036000815480929190610c329061267d565b9190505550505050565b60606000805480602002602001604051908101604052809291908181526020016000905b82821015610eb257838290600052602060002090600602016040518060c00160405290816000820160009054906101000a900473ffffffffffffffffffffffffffffffffffffffff1673ffffffffffffffffffffffffffffffffffffffff1673ffffffffffffffffffffffffffffffffffffffff16815260200160018201548152602001600282018054610cf3906125ee565b80601f0160208091040260200160405190810160405280929190818152602001828054610d1f906125ee565b8015610d6c5780601f10610d4157610100808354040283529160200191610d6c565b820191906000526020600020905b815481529060010190602001808311610d4f57829003601f168201915b50505050508152602001600382018054610d85906125ee565b80601f0160208091040260200160405190810160405280929190818152602001828054610db1906125ee565b8015610dfe5780601f10610dd357610100808354040283529160200191610dfe565b820191906000526020600020905b815481529060010190602001808311610de157829003601f168201915b50505050508152602001600482018054610e17906125ee565b80601f0160208091040260200160405190810160405280929190818152602001828054610e43906125ee565b8015610e905780601f10610e6557610100808354040283529160200191610e90565b820191906000526020600020905b815481529060010190602001808311610e7357829003601f168201915b5050505050815260200160058201548152505081526020019060010190610c60565b50505050905090565b6000600260009054906101000a900473ffffffffffffffffffffffffffffffffffffffff16905090565b600260009054906101000a900473ffffffffffffffffffffffffffffffffffffffff1673ffffffffffffffffffffffffffffffffffffffff163373ffffffffffffffffffffffffffffffffffffffff1614610f6c576040517f1022f53800000000000000000000000000000000000000000000000000000000815260040160405180910390fd5b8060079081610f7b9190612871565b5050565b600260009054906101000a900473ffffffffffffffffffffffffffffffffffffffff1673ffffffffffffffffffffffffffffffffffffffff163373ffffffffffffffffffffffffffffffffffffffff1614611006576040517f1022f53800000000000000000000000000000000000000000000000000000000815260040160405180910390fd5b600080838154811061101b5761101a61261f565b5b906000526020600020906006020190508181600401908161103c9190612871565b508160405161104b919061297f565b6040518091039020427f8eece9ee17f7ce4a77eb6329ef9050e2a6286692c80a7e44f776c6d74146ace560405160405180910390a3505050565b600260009054906101000a900473ffffffffffffffffffffffffffffffffffffffff1673ffffffffffffffffffffffffffffffffffffffff163373ffffffffffffffffffffffffffffffffffffffff161461110c576040517f1022f53800000000000000000000000000000000000000000000000000000000815260040160405180910390fd5b806004908161111b9190612871565b5050565b60606005805461112e906125ee565b80601f016020809104026020016040519081016040528092919081815260200182805461115a906125ee565b80156111a75780601f1061117c576101008083540402835291602001916111a7565b820191906000526020600020905b81548152906001019060200180831161118a57829003601f168201915b5050505050905090565b600260009054906101000a900473ffffffffffffffffffffffffffffffffffffffff1673ffffffffffffffffffffffffffffffffffffffff163373ffffffffffffffffffffffffffffffffffffffff1614611238576040517f1022f53800000000000000000000000000000000000000000000000000000000815260040160405180910390fd5b60005b60018054905081101561135457816001828154811061125d5761125c61261f565b5b9060005260206000209060030201600201540361134157600180808054905061128691906129cd565b815481106112975761129661261f565b5b9060005260206000209060030201600182815481106112b9576112b861261f565b5b906000526020600020906003020160008201816000019080546112dd92919061180f565b506001820154816001015560028201548160020155905050600180548061130757611306612a01565b5b60019003818190600052602060002090600302016000808201600061132c919061186c565b60018201600090556002820160009055505090555b808061134c9061267d565b91505061123b565b5050565b600260009054906101000a900473ffffffffffffffffffffffffffffffffffffffff1673ffffffffffffffffffffffffffffffffffffffff163373ffffffffffffffffffffffffffffffffffffffff16146113df576040517f1022f53800000000000000000000000000000000000000000000000000000000815260040160405180910390fd5b80600690816113ee9190612871565b5050565b606060068054611401906125ee565b80601f016020809104026020016040519081016040528092919081815260200182805461142d906125ee565b801561147a5780601f1061144f5761010080835404028352916020019161147a565b820191906000526020600020905b81548152906001019060200180831161145d57829003601f168201915b5050505050905090565b61148c611795565b60005b6001805490508110156115f85782600182815481106114b1576114b061261f565b5b906000526020600020906003020160020154036115e557600181815481106114dc576114db61261f565b5b906000526020600020906003020160405180606001604052908160008201805480602002602001604051908101604052809291908181526020016000905b828210156115c6578382906000526020600020018054611539906125ee565b80601f0160208091040260200160405190810160405280929190818152602001828054611565906125ee565b80156115b25780601f10611587576101008083540402835291602001916115b2565b820191906000526020600020905b81548152906001019060200180831161159557829003601f168201915b50505050508152602001906001019061151a565b5050505081526020016001820154815260200160028201548152505091505b80806115f09061267d565b91505061148f565b508060200151341015611637576040517ff1b7411900000000000000000000000000000000000000000000000000000000815260040160405180910390fd5b60006040518060c001604052803373ffffffffffffffffffffffffffffffffffffffff16815260200142815260200186815260200185815260200160405180602001604052806000815250815260200184815250908060018154018082558091505060019003906000526020600020906006020160009091909190915060008201518160000160006101000a81548173ffffffffffffffffffffffffffffffffffffffff021916908373ffffffffffffffffffffffffffffffffffffffff16021790555060208201518160010155604082015181600201908161171a9190612871565b5060608201518160030190816117309190612871565b5060808201518160040190816117469190612871565b5060a082015181600501555050427f1cfb7901bbb0acf7f618d0389fdda4a852e9de1abe2b641bf9e6f40ace3a44ad85858560405161178793929190612a30565b60405180910390a250505050565b60405180606001604052806060815260200160008152602001600081525090565b8280548282559060005260206000209081019282156117fe579160200282015b828111156117fd5782518290816117ed9190612871565b50916020019190600101906117d6565b5b50905061180b919061188d565b5090565b82805482825590600052602060002090810192821561185b5760005260206000209182015b8281111561185a578282908161184a9190612a8b565b5091600101919060010190611834565b5b509050611868919061188d565b5090565b508054600082559060005260206000209081019061188a919061188d565b50565b5b808211156118ad57600081816118a491906118b1565b5060010161188e565b5090565b5080546118bd906125ee565b6000825580601f106118cf57506118ee565b601f0160209004906000526020600020908101906118ed91906118f1565b5b50565b5b8082111561190a5760008160009055506001016118f2565b5090565b600081519050919050565b600082825260208201905092915050565b60005b8381101561194857808201518184015260208101905061192d565b60008484015250505050565b6000601f19601f8301169050919050565b60006119708261190e565b61197a8185611919565b935061198a81856020860161192a565b61199381611954565b840191505092915050565b600060208201905081810360008301526119b88184611965565b905092915050565b6000604051905090565b600080fd5b600080fd5b600080fd5b7f4e487b7100000000000000000000000000000000000000000000000000000000600052604160045260246000fd5b611a1182611954565b810181811067ffffffffffffffff82111715611a3057611a2f6119d9565b5b80604052505050565b6000611a436119c0565b9050611a4f8282611a08565b919050565b600067ffffffffffffffff821115611a6f57611a6e6119d9565b5b602082029050602081019050919050565b600080fd5b600067ffffffffffffffff821115611aa057611a9f6119d9565b5b602082029050602081019050919050565b600080fd5b600067ffffffffffffffff821115611ad157611ad06119d9565b5b611ada82611954565b9050602081019050919050565b82818337600083830152505050565b6000611b09611b0484611ab6565b611a39565b905082815260208101848484011115611b2557611b24611ab1565b5b611b30848285611ae7565b509392505050565b600082601f830112611b4d57611b4c6119d4565b5b8135611b5d848260208601611af6565b91505092915050565b6000611b79611b7484611a85565b611a39565b90508083825260208201905060208402830185811115611b9c57611b9b611a80565b5b835b81811015611be357803567ffffffffffffffff811115611bc157611bc06119d4565b5b808601611bce8982611b38565b85526020850194505050602081019050611b9e565b5050509392505050565b600082601f830112611c0257611c016119d4565b5b8135611c12848260208601611b66565b91505092915050565b6000611c2e611c2984611a54565b611a39565b90508083825260208201905060208402830185811115611c5157611c50611a80565b5b835b81811015611c9857803567ffffffffffffffff811115611c7657611c756119d4565b5b808601611c838982611bed565b85526020850194505050602081019050611c53565b5050509392505050565b600082601f830112611cb757611cb66119d4565b5b8135611cc7848260208601611c1b565b91505092915050565b600067ffffffffffffffff821115611ceb57611cea6119d9565b5b602082029050602081019050919050565b6000819050919050565b611d0f81611cfc565b8114611d1a57600080fd5b50565b600081359050611d2c81611d06565b92915050565b6000611d45611d4084611cd0565b611a39565b90508083825260208201905060208402830185811115611d6857611d67611a80565b5b835b81811015611d915780611d7d8882611d1d565b845260208401935050602081019050611d6a565b5050509392505050565b600082601f830112611db057611daf6119d4565b5b8135611dc0848260208601611d32565b91505092915050565b60008060408385031215611de057611ddf6119ca565b5b600083013567ffffffffffffffff811115611dfe57611dfd6119cf565b5b611e0a85828601611ca2565b925050602083013567ffffffffffffffff811115611e2b57611e2a6119cf565b5b611e3785828601611d9b565b9150509250929050565b600060208284031215611e5757611e566119ca565b5b600082013567ffffffffffffffff811115611e7557611e746119cf565b5b611e8184828501611b38565b91505092915050565b600080600080600080600060e0888a031215611ea957611ea86119ca565b5b600088013567ffffffffffffffff811115611ec757611ec66119cf565b5b611ed38a828b01611b38565b975050602088013567ffffffffffffffff811115611ef457611ef36119cf565b5b611f008a828b01611b38565b965050604088013567ffffffffffffffff811115611f2157611f206119cf565b5b611f2d8a828b01611b38565b955050606088013567ffffffffffffffff811115611f4e57611f4d6119cf565b5b611f5a8a828b01611b38565b945050608088013567ffffffffffffffff811115611f7b57611f7a6119cf565b5b611f878a828b01611ca2565b93505060a088013567ffffffffffffffff811115611fa857611fa76119cf565b5b611fb48a828b01611d9b565b92505060c088013567ffffffffffffffff811115611fd557611fd46119cf565b5b611fe18a828b01611d9b565b91505092959891949750929550565b611ff981611cfc565b82525050565b60006020820190506120146000830184611ff0565b92915050565b600081519050919050565b600082825260208201905092915050565b6000819050602082019050919050565b600081519050919050565b600082825260208201905092915050565b6000819050602082019050919050565b600082825260208201905092915050565b600061208e8261190e565b6120988185612072565b93506120a881856020860161192a565b6120b181611954565b840191505092915050565b60006120c88383612083565b905092915050565b6000602082019050919050565b60006120e882612046565b6120f28185612051565b93508360208202850161210485612062565b8060005b85811015612140578484038952815161212185826120bc565b945061212c836120d0565b925060208a01995050600181019050612108565b50829750879550505050505092915050565b61215b81611cfc565b82525050565b6000606083016000830151848203600086015261217e82826120dd565b91505060208301516121936020860182612152565b5060408301516121a66040860182612152565b508091505092915050565b60006121bd8383612161565b905092915050565b6000602082019050919050565b60006121dd8261201a565b6121e78185612025565b9350836020820285016121f985612036565b8060005b85811015612235578484038952815161221685826121b1565b9450612221836121c5565b925060208a019950506001810190506121fd565b50829750879550505050505092915050565b6000602082019050818103600083015261226181846121d2565b905092915050565b600080604083850312156122805761227f6119ca565b5b600083013567ffffffffffffffff81111561229e5761229d6119cf565b5b6122aa85828601611bed565b92505060206122bb85828601611d1d565b9150509250929050565b600081519050919050565b600082825260208201905092915050565b6000819050602082019050919050565b600073ffffffffffffffffffffffffffffffffffffffff82169050919050565b600061231c826122f1565b9050919050565b61232c81612311565b82525050565b600060c08301600083015161234a6000860182612323565b50602083015161235d6020860182612152565b50604083015184820360408601526123758282612083565b9150506060830151848203606086015261238f8282612083565b915050608083015184820360808601526123a98282612083565b91505060a08301516123be60a0860182612152565b508091505092915050565b60006123d58383612332565b905092915050565b6000602082019050919050565b60006123f5826122c5565b6123ff81856122d0565b935083602082028501612411856122e1565b8060005b8581101561244d578484038952815161242e85826123c9565b9450612439836123dd565b925060208a01995050600181019050612415565b50829750879550505050505092915050565b6000602082019050818103600083015261247981846123ea565b905092915050565b61248a81612311565b82525050565b60006020820190506124a56000830184612481565b92915050565b600080604083850312156124c2576124c16119ca565b5b60006124d085828601611d1d565b925050602083013567ffffffffffffffff8111156124f1576124f06119cf565b5b6124fd85828601611b38565b9150509250929050565b60006020828403121561251d5761251c6119ca565b5b600061252b84828501611d1d565b91505092915050565b60008060006060848603121561254d5761254c6119ca565b5b600084013567ffffffffffffffff81111561256b5761256a6119cf565b5b61257786828701611b38565b935050602084013567ffffffffffffffff811115612598576125976119cf565b5b6125a486828701611b38565b92505060406125b586828701611d1d565b9150509250925092565b7f4e487b7100000000000000000000000000000000000000000000000000000000600052602260045260246000fd5b6000600282049050600182168061260657607f821691505b602082108103612619576126186125bf565b5b50919050565b7f4e487b7100000000000000000000000000000000000000000000000000000000600052603260045260246000fd5b7f4e487b7100000000000000000000000000000000000000000000000000000000600052601160045260246000fd5b600061268882611cfc565b91507fffffffffffffffffffffffffffffffffffffffffffffffffffffffffffffffff82036126ba576126b961264e565b5b600182019050919050565b60008190508160005260206000209050919050565b60006020601f8301049050919050565b600082821b905092915050565b6000600883026127277fffffffffffffffffffffffffffffffffffffffffffffffffffffffffffffffff826126ea565b61273186836126ea565b95508019841693508086168417925050509392505050565b6000819050919050565b600061276e61276961276484611cfc565b612749565b611cfc565b9050919050565b6000819050919050565b61278883612753565b61279c61279482612775565b8484546126f7565b825550505050565b600090565b6127b16127a4565b6127bc81848461277f565b505050565b5b818110156127e0576127d56000826127a9565b6001810190506127c2565b5050565b601f821115612825576127f6816126c5565b6127ff846126da565b8101602085101561280e578190505b61282261281a856126da565b8301826127c1565b50505b505050565b600082821c905092915050565b60006128486000198460080261282a565b1980831691505092915050565b60006128618383612837565b9150826002028217905092915050565b61287a8261190e565b67ffffffffffffffff811115612893576128926119d9565b5b61289d82546125ee565b6128a88282856127e4565b600060209050601f8311600181146128db57600084156128c9578287015190505b6128d38582612855565b86555061293b565b601f1984166128e9866126c5565b60005b82811015612911578489015182556001820191506020850194506020810190506128ec565b8683101561292e578489015161292a601f891682612837565b8355505b6001600288020188555050505b505050505050565b600081905092915050565b60006129598261190e565b6129638185612943565b935061297381856020860161192a565b80840191505092915050565b600061298b828461294e565b915081905092915050565b600060408201905081810360008301526129b08185611965565b905081810360208301526129c48184611965565b90509392505050565b60006129d882611cfc565b91506129e383611cfc565b92508282039050818111156129fb576129fa61264e565b5b92915050565b7f4e487b7100000000000000000000000000000000000000000000000000000000600052603160045260246000fd5b60006060820190508181036000830152612a4a8186611965565b90508181036020830152612a5e8185611965565b9050612a6d6040830184611ff0565b949350505050565b600081549050612a84816125ee565b9050919050565b818103612a99575050612b71565b612aa282612a75565b67ffffffffffffffff811115612abb57612aba6119d9565b5b612ac582546125ee565b612ad08282856127e4565b6000601f831160018114612aff5760008415612aed578287015490505b612af78582612855565b865550612b6a565b601f198416612b0d876126c5565b9650612b18866126c5565b60005b82811015612b4057848901548255600182019150600185019450602081019050612b1b565b86831015612b5d5784890154612b59601f891682612837565b8355505b6001600288020188555050505b5050505050505b56fea2646970667358221220746c3b9ebcb4221a4f2f93e46d8f0d3b4c1e501309cc99ee66935e449685b14264736f6c63430008110033",
   "linkReferences": {},
   "deployedLinkReferences": {}
}