{
   "_format": "hh-sol-artifact-1",
   "contractName": "BuyMeACoffee",
   "sourceName": "contracts/BuyMeACoffee.sol",
   "abi": [
      {
         "inputs": [
            {
               "internalType": "string",
               "name": "_name",
               "type": "string"
            },
            {
               "internalType": "string",
               "name": "_description",
               "type": "string"
            },
            {
               "internalType": "string",
               "name": "_profile",
               "type": "string"
            },
            {
               "internalType": "string",
               "name": "_thumbnail",
               "type": "string"
            },
            {
               "internalType": "string[][]",
               "name": "_items",
               "type": "string[][]"
            },
            {
               "internalType": "uint256[]",
               "name": "_itemsValues",
               "type": "uint256[]"
            },
            {
               "internalType": "address",
               "name": "_owner",
               "type": "address"
            }
         ],
         "stateMutability": "nonpayable",
         "type": "constructor"
      },
      {
         "inputs": [],
         "name": "BuyMeACoffee__NotEnoughEthSend",
         "type": "error"
      },
      {
         "inputs": [],
         "name": "BuyMeACoffee__NotOwner",
         "type": "error"
      },
      {
         "anonymous": false,
         "inputs": [
            {
               "indexed": true,
               "internalType": "uint256",
               "name": "items_id",
               "type": "uint256"
            }
         ],
         "name": "AddedItems",
         "type": "event"
      },
      {
         "anonymous": false,
         "inputs": [
            {
               "indexed": true,
               "internalType": "uint256",
               "name": "timestamp",
               "type": "uint256"
            },
            {
               "indexed": false,
               "internalType": "string",
               "name": "name",
               "type": "string"
            },
            {
               "indexed": false,
               "internalType": "string",
               "name": "message",
               "type": "string"
            },
            {
               "indexed": false,
               "internalType": "uint256",
               "name": "items_id",
               "type": "uint256"
            }
         ],
         "name": "MemoCreated",
         "type": "event"
      },
      {
         "inputs": [
            {
               "internalType": "string[]",
               "name": "names",
               "type": "string[]"
            },
            {
               "internalType": "uint256",
               "name": "cost",
               "type": "uint256"
            }
         ],
         "name": "addItems",
         "outputs": [],
         "stateMutability": "nonpayable",
         "type": "function"
      },
      {
         "inputs": [],
         "name": "getDescription",
         "outputs": [
            {
               "internalType": "string",
               "name": "",
               "type": "string"
            }
         ],
         "stateMutability": "view",
         "type": "function"
      },
      {
         "inputs": [],
         "name": "getItemsCount",
         "outputs": [
            {
               "internalType": "uint256",
               "name": "",
               "type": "uint256"
            }
         ],
         "stateMutability": "view",
         "type": "function"
      },
      {
         "inputs": [],
         "name": "getListOfItems",
         "outputs": [
            {
               "components": [
                  {
                     "internalType": "string[]",
                     "name": "names",
                     "type": "string[]"
                  },
                  {
                     "internalType": "uint256",
                     "name": "cost",
                     "type": "uint256"
                  },
                  {
                     "internalType": "uint256",
                     "name": "id",
                     "type": "uint256"
                  }
               ],
               "internalType": "struct BuyMeACoffee.Items[]",
               "name": "",
               "type": "tuple[]"
            }
         ],
         "stateMutability": "view",
         "type": "function"
      },
      {
         "inputs": [],
         "name": "getMemos",
         "outputs": [
            {
               "components": [
                  {
                     "internalType": "address",
                     "name": "from",
                     "type": "address"
                  },
                  {
                     "internalType": "uint256",
                     "name": "timestamp",
                     "type": "uint256"
                  },
                  {
                     "internalType": "string",
                     "name": "name",
                     "type": "string"
                  },
                  {
                     "internalType": "string",
                     "name": "message",
                     "type": "string"
                  },
                  {
                     "internalType": "string",
                     "name": "response",
                     "type": "string"
                  },
                  {
                     "internalType": "uint256",
                     "name": "items_id",
                     "type": "uint256"
                  }
               ],
               "internalType": "struct BuyMeACoffee.Memo[]",
               "name": "",
               "type": "tuple[]"
            }
         ],
         "stateMutability": "view",
         "type": "function"
      },
      {
         "inputs": [],
         "name": "getName",
         "outputs": [
            {
               "internalType": "string",
               "name": "",
               "type": "string"
            }
         ],
         "stateMutability": "view",
         "type": "function"
      },
      {
         "inputs": [],
         "name": "getOwner",
         "outputs": [
            {
               "internalType": "address",
               "name": "",
               "type": "address"
            }
         ],
         "stateMutability": "view",
         "type": "function"
      },
      {
         "inputs": [],
         "name": "getProfile",
         "outputs": [
            {
               "internalType": "string",
               "name": "",
               "type": "string"
            }
         ],
         "stateMutability": "view",
         "type": "function"
      },
      {
         "inputs": [],
         "name": "getThumbnail",
         "outputs": [
            {
               "internalType": "string",
               "name": "",
               "type": "string"
            }
         ],
         "stateMutability": "view",
         "type": "function"
      },
      {
         "inputs": [
            {
               "internalType": "uint256",
               "name": "_id",
               "type": "uint256"
            }
         ],
         "name": "removeItems",
         "outputs": [],
         "stateMutability": "nonpayable",
         "type": "function"
      },
      {
         "inputs": [
            {
               "internalType": "string",
               "name": "_description",
               "type": "string"
            }
         ],
         "name": "setDescription",
         "outputs": [],
         "stateMutability": "nonpayable",
         "type": "function"
      },
      {
         "inputs": [
            {
               "internalType": "string[][]",
               "name": "_items",
               "type": "string[][]"
            },
            {
               "internalType": "uint256[]",
               "name": "_itemsValues",
               "type": "uint256[]"
            }
         ],
         "name": "setInitialItems",
         "outputs": [],
         "stateMutability": "nonpayable",
         "type": "function"
      },
      {
         "inputs": [
            {
               "internalType": "string",
               "name": "_name",
               "type": "string"
            }
         ],
         "name": "setName",
         "outputs": [],
         "stateMutability": "nonpayable",
         "type": "function"
      },
      {
         "inputs": [
            {
               "internalType": "string",
               "name": "_profile",
               "type": "string"
            }
         ],
         "name": "setProfile",
         "outputs": [],
         "stateMutability": "nonpayable",
         "type": "function"
      },
      {
         "inputs": [
            {
               "internalType": "string",
               "name": "_thumbnail",
               "type": "string"
            }
         ],
         "name": "setThumbnail",
         "outputs": [],
         "stateMutability": "nonpayable",
         "type": "function"
      },
      {
         "inputs": [
            {
               "internalType": "string",
               "name": "_name",
               "type": "string"
            },
            {
               "internalType": "string",
               "name": "_message",
               "type": "string"
            },
            {
               "internalType": "uint256",
               "name": "_itemsId",
               "type": "uint256"
            }
         ],
         "name": "storeMemo",
         "outputs": [],
         "stateMutability": "payable",
         "type": "function"
      },
      {
         "inputs": [],
         "name": "withdraw",
         "outputs": [],
         "stateMutability": "nonpayable",
         "type": "function"
      }
   ],
   "bytecode": "0x608060405260006003553480156200001657600080fd5b50604051620041653803806200416583398181016040528101906200003c919062000a49565b6200005867885acb182b1b2eaf60c01b620001c460201b60201c565b6200007467b6f86e75f5ea002360c01b620001c460201b60201c565b866004908162000085919062000df7565b50620000a26744fe1c6d318beb2260c01b620001c460201b60201c565b8560079081620000b3919062000df7565b50620000d0673dfd59a543584f3e60c01b620001c460201b60201c565b8460059081620000e1919062000df7565b50620000fe67bbbac5252e67280060c01b620001c460201b60201c565b83600690816200010f919062000df7565b506200012c67dcdb3c7c975ed90960c01b620001c460201b60201c565b80600260006101000a81548173ffffffffffffffffffffffffffffffffffffffff021916908373ffffffffffffffffffffffffffffffffffffffff160217905550620001896724f23303e9f6a1bb60c01b620001c460201b60201c565b620001a567de7bc4590f4e27ac60c01b620001c460201b60201c565b620001b78383620001c760201b60201c565b5050505050505062000f89565b50565b620001e36792811c6f7b5e892f60c01b620001c460201b60201c565b620001ff67b8e8d6f5f8f7e82860c01b620001c460201b60201c565b6200021b67cee6ac53f5a2faa960c01b620001c460201b60201c565b6000815167ffffffffffffffff8111156200023b576200023a6200057c565b5b6040519080825280602002602001820160405280156200027857816020015b620002646200043f565b8152602001906001900390816200025a5790505b5090506200029767e2366840e123f6fb60c01b620001c460201b60201c565b620002b367b1285c98aee8e41e60c01b620001c460201b60201c565b60005b81518110156200043957620002dc67c19735354f27a1e460c01b620001c460201b60201c565b620002f867a099d42eb1c80c0360c01b620001c460201b60201c565b600060405180606001604052808684815181106200031b576200031a62000ede565b5b602002602001015181526020018584815181106200033e576200033d62000ede565b5b6020026020010151815260200160035481525090506200036f6726e2b08d25f8bec260c01b620001c460201b60201c565b6200038b67a9d3ad9bed9acbfb60c01b620001c460201b60201c565b60018190806001815401808255809150506001900390600052602060002090600302016000909190919091506000820151816000019080519060200190620003d592919062000460565b50602082015181600101556040820151816002015550506200040867a47cdd704023298160c01b620001c460201b60201c565b600360008154809291906200041d9062000f3c565b9190505550508080620004309062000f3c565b915050620002b6565b50505050565b60405180606001604052806060815260200160008152602001600081525090565b828054828255906000526020600020908101928215620004ad579160200282015b82811115620004ac5782518290816200049b919062000df7565b509160200191906001019062000481565b5b509050620004bc9190620004c0565b5090565b5b80821115620004e45760008181620004da9190620004e8565b50600101620004c1565b5090565b508054620004f69062000bf0565b6000825580601f106200050a57506200052b565b601f0160209004906000526020600020908101906200052a91906200052e565b5b50565b5b80821115620005495760008160009055506001016200052f565b5090565b6000604051905090565b600080fd5b600080fd5b600080fd5b600080fd5b6000601f19601f8301169050919050565b7f4e487b7100000000000000000000000000000000000000000000000000000000600052604160045260246000fd5b620005b6826200056b565b810181811067ffffffffffffffff82111715620005d857620005d76200057c565b5b80604052505050565b6000620005ed6200054d565b9050620005fb8282620005ab565b919050565b600067ffffffffffffffff8211156200061e576200061d6200057c565b5b62000629826200056b565b9050602081019050919050565b60005b838110156200065657808201518184015260208101905062000639565b60008484015250505050565b600062000679620006738462000600565b620005e1565b90508281526020810184848401111562000698576200069762000566565b5b620006a584828562000636565b509392505050565b600082601f830112620006c557620006c462000561565b5b8151620006d784826020860162000662565b91505092915050565b600067ffffffffffffffff821115620006fe57620006fd6200057c565b5b602082029050602081019050919050565b600080fd5b600067ffffffffffffffff8211156200073257620007316200057c565b5b602082029050602081019050919050565b60006200075a620007548462000714565b620005e1565b9050808382526020820190506020840283018581111562000780576200077f6200070f565b5b835b81811015620007ce57805167ffffffffffffffff811115620007a957620007a862000561565b5b808601620007b88982620006ad565b8552602085019450505060208101905062000782565b5050509392505050565b600082601f830112620007f057620007ef62000561565b5b81516200080284826020860162000743565b91505092915050565b6000620008226200081c84620006e0565b620005e1565b905080838252602082019050602084028301858111156200084857620008476200070f565b5b835b818110156200089657805167ffffffffffffffff81111562000871576200087062000561565b5b808601620008808982620007d8565b855260208501945050506020810190506200084a565b5050509392505050565b600082601f830112620008b857620008b762000561565b5b8151620008ca8482602086016200080b565b91505092915050565b600067ffffffffffffffff821115620008f157620008f06200057c565b5b602082029050602081019050919050565b6000819050919050565b620009178162000902565b81146200092357600080fd5b50565b60008151905062000937816200090c565b92915050565b6000620009546200094e84620008d3565b620005e1565b905080838252602082019050602084028301858111156200097a57620009796200070f565b5b835b81811015620009a7578062000992888262000926565b8452602084019350506020810190506200097c565b5050509392505050565b600082601f830112620009c957620009c862000561565b5b8151620009db8482602086016200093d565b91505092915050565b600073ffffffffffffffffffffffffffffffffffffffff82169050919050565b600062000a1182620009e4565b9050919050565b62000a238162000a04565b811462000a2f57600080fd5b50565b60008151905062000a438162000a18565b92915050565b600080600080600080600060e0888a03121562000a6b5762000a6a62000557565b5b600088015167ffffffffffffffff81111562000a8c5762000a8b6200055c565b5b62000a9a8a828b01620006ad565b975050602088015167ffffffffffffffff81111562000abe5762000abd6200055c565b5b62000acc8a828b01620006ad565b965050604088015167ffffffffffffffff81111562000af05762000aef6200055c565b5b62000afe8a828b01620006ad565b955050606088015167ffffffffffffffff81111562000b225762000b216200055c565b5b62000b308a828b01620006ad565b945050608088015167ffffffffffffffff81111562000b545762000b536200055c565b5b62000b628a828b01620008a0565b93505060a088015167ffffffffffffffff81111562000b865762000b856200055c565b5b62000b948a828b01620009b1565b92505060c062000ba78a828b0162000a32565b91505092959891949750929550565b600081519050919050565b7f4e487b7100000000000000000000000000000000000000000000000000000000600052602260045260246000fd5b6000600282049050600182168062000c0957607f821691505b60208210810362000c1f5762000c1e62000bc1565b5b50919050565b60008190508160005260206000209050919050565b60006020601f8301049050919050565b600082821b905092915050565b60006008830262000c897fffffffffffffffffffffffffffffffffffffffffffffffffffffffffffffffff8262000c4a565b62000c95868362000c4a565b95508019841693508086168417925050509392505050565b6000819050919050565b600062000cd862000cd262000ccc8462000902565b62000cad565b62000902565b9050919050565b6000819050919050565b62000cf48362000cb7565b62000d0c62000d038262000cdf565b84845462000c57565b825550505050565b600090565b62000d2362000d14565b62000d3081848462000ce9565b505050565b5b8181101562000d585762000d4c60008262000d19565b60018101905062000d36565b5050565b601f82111562000da75762000d718162000c25565b62000d7c8462000c3a565b8101602085101562000d8c578190505b62000da462000d9b8562000c3a565b83018262000d35565b50505b505050565b600082821c905092915050565b600062000dcc6000198460080262000dac565b1980831691505092915050565b600062000de7838362000db9565b9150826002028217905092915050565b62000e028262000bb6565b67ffffffffffffffff81111562000e1e5762000e1d6200057c565b5b62000e2a825462000bf0565b62000e3782828562000d5c565b600060209050601f83116001811462000e6f576000841562000e5a578287015190505b62000e66858262000dd9565b86555062000ed6565b601f19841662000e7f8662000c25565b60005b8281101562000ea95784890151825560018201915060208501945060208101905062000e82565b8683101562000ec9578489015162000ec5601f89168262000db9565b8355505b6001600288020188555050505b505050505050565b7f4e487b7100000000000000000000000000000000000000000000000000000000600052603260045260246000fd5b7f4e487b7100000000000000000000000000000000000000000000000000000000600052601160045260246000fd5b600062000f498262000902565b91507fffffffffffffffffffffffffffffffffffffffffffffffffffffffffffffffff820362000f7e5762000f7d62000f0d565b5b600182019050919050565b6131cc8062000f996000396000f3fe6080604052600436106100fe5760003560e01c8063893d20e811610095578063da14bde311610064578063da14bde3146102eb578063dbfc2c1214610314578063e1d740831461033d578063e9c0d98c14610368578063eefa873514610384576100fe565b8063893d20e81461024357806390c3f38f1461026e578063c47f002714610297578063d6afc9b1146102c0576100fe565b8063512dd020116100d1578063512dd02014610199578063594d9e63146101c45780637d44ba78146101ef578063865c517214610218576100fe565b806317d7de7c146101035780631a0925411461012e578063235b37b1146101595780633ccfd60b14610182575b600080fd5b34801561010f57600080fd5b506101186103ad565b604051610125919061220d565b60405180910390f35b34801561013a57600080fd5b5061014361047b565b604051610150919061220d565b60405180910390f35b34801561016557600080fd5b50610180600480360381019061017b9190612378565b610549565b005b34801561018e57600080fd5b506101976106bf565b005b3480156101a557600080fd5b506101ae6108a1565b6040516101bb91906123da565b60405180910390f35b3480156101d057600080fd5b506101d96108e7565b6040516101e69190612622565b60405180910390f35b3480156101fb57600080fd5b5061021660048036038101906102119190612756565b610a6f565b005b34801561022457600080fd5b5061022d610d15565b60405161023a919061294c565b60405180910390f35b34801561024f57600080fd5b50610258610fd0565b604051610265919061297d565b60405180910390f35b34801561027a57600080fd5b5061029560048036038101906102909190612378565b611036565b005b3480156102a357600080fd5b506102be60048036038101906102b99190612378565b6111ac565b005b3480156102cc57600080fd5b506102d5611322565b6040516102e2919061220d565b60405180910390f35b3480156102f757600080fd5b50610312600480360381019061030d9190612998565b6113f0565b005b34801561032057600080fd5b5061033b60048036038101906103369190612378565b611718565b005b34801561034957600080fd5b5061035261188e565b60405161035f919061220d565b60405180910390f35b610382600480360381019061037d91906129c5565b61195c565b005b34801561039057600080fd5b506103ab60048036038101906103a69190612bf4565b611dee565b005b60606103c367f14b753cffca400c60c01b612001565b6103d767ce716ffa5b5b9a4b60c01b612001565b6103eb6734acb8f293ef051060c01b612001565b600480546103f890612c9b565b80601f016020809104026020016040519081016040528092919081815260200182805461042490612c9b565b80156104715780601f1061044657610100808354040283529160200191610471565b820191906000526020600020905b81548152906001019060200180831161045457829003601f168201915b5050505050905090565b606061049167a562d8ce9dd4ed9f60c01b612001565b6104a567cb5de0acdca3153b60c01b612001565b6104b967bf745e8c4099164860c01b612001565b600780546104c690612c9b565b80601f01602080910402602001604051908101604052809291908181526020018280546104f290612c9b565b801561053f5780601f106105145761010080835404028352916020019161053f565b820191906000526020600020905b81548152906001019060200180831161052257829003601f168201915b5050505050905090565b61055d67e86648d0dac6749060c01b612001565b610571679874c5630c69bdf660c01b612001565b610585674c92525f1b6d117460c01b612001565b610599675e91936f20c34bcc60c01b612001565b600260009054906101000a900473ffffffffffffffffffffffffffffffffffffffff1673ffffffffffffffffffffffffffffffffffffffff163373ffffffffffffffffffffffffffffffffffffffff16146106485761060267f0a6bed78c5646e860c01b612001565b61061667e7457f6d3c36b30c60c01b612001565b6040517f1022f53800000000000000000000000000000000000000000000000000000000815260040160405180910390fd5b61065c6737594493fe472df560c01b612001565b6106706754ff84532fdcd7d860c01b612001565b610684679b6c5313be9fa79c60c01b612001565b6106986755b644f3e37d45bb60c01b612001565b6106ac679608393fdbc6870e60c01b612001565b80600590816106bb9190612e78565b5050565b6106d367e5b7a48238ccfaff60c01b612001565b6106e7679874c5630c69bdf660c01b612001565b6106fb674c92525f1b6d117460c01b612001565b61070f675e91936f20c34bcc60c01b612001565b600260009054906101000a900473ffffffffffffffffffffffffffffffffffffffff1673ffffffffffffffffffffffffffffffffffffffff163373ffffffffffffffffffffffffffffffffffffffff16146107be5761077867f0a6bed78c5646e860c01b612001565b61078c67e7457f6d3c36b30c60c01b612001565b6040517f1022f53800000000000000000000000000000000000000000000000000000000815260040160405180910390fd5b6107d26737594493fe472df560c01b612001565b6107e66754ff84532fdcd7d860c01b612001565b6107fa675146bde3989e18fe60c01b612001565b61080e67b434c03b93341c5760c01b612001565b61082267a5358c80517e7ccd60c01b612001565b61083667b47e40523b3e647a60c01b612001565b600260009054906101000a900473ffffffffffffffffffffffffffffffffffffffff1673ffffffffffffffffffffffffffffffffffffffff166108fc479081150290604051600060405180830381858888f1935050505015801561089e573d6000803e3d6000fd5b50565b60006108b767146f6aaf67a007c060c01b612001565b6108cb67fe184cbab162ab0f60c01b612001565b6108df6737b44bb7f88139f660c01b612001565b600354905090565b60606108fd679343c6a9987fcf2060c01b612001565b61091167541ae8a2baa2ee0060c01b612001565b610925678615a8e7e6f6e32f60c01b612001565b6001805480602002602001604051908101604052809291908181526020016000905b82821015610a66578382906000526020600020906003020160405180606001604052908160008201805480602002602001604051908101604052809291908181526020016000905b82821015610a3b5783829060005260206000200180546109ae90612c9b565b80601f01602080910402602001604051908101604052809291908181526020018280546109da90612c9b565b8015610a275780601f106109fc57610100808354040283529160200191610a27565b820191906000526020600020905b815481529060010190602001808311610a0a57829003601f168201915b50505050508152602001906001019061098f565b5050505081526020016001820154815260200160028201548152505081526020019060010190610947565b50505050905090565b610a83677672b389ec3993b860c01b612001565b610a97679874c5630c69bdf660c01b612001565b610aab674c92525f1b6d117460c01b612001565b610abf675e91936f20c34bcc60c01b612001565b600260009054906101000a900473ffffffffffffffffffffffffffffffffffffffff1673ffffffffffffffffffffffffffffffffffffffff163373ffffffffffffffffffffffffffffffffffffffff1614610b6e57610b2867f0a6bed78c5646e860c01b612001565b610b3c67e7457f6d3c36b30c60c01b612001565b6040517f1022f53800000000000000000000000000000000000000000000000000000000815260040160405180910390fd5b610b826737594493fe472df560c01b612001565b610b966754ff84532fdcd7d860c01b612001565b610baa670b7937547582d92160c01b612001565b610bbe67d0a188c0e1903a6560c01b612001565b610bd267147908b04a7a0e8160c01b612001565b610be6677537a1c0d26625a360c01b612001565b600060405180606001604052808481526020018381526020016003548152509050610c1a66fa2d1b80affe3960c01b612001565b610c2e676a2224d7feff239360c01b612001565b60018190806001815401808255809150506001900390600052602060002090600302016000909190919091506000820151816000019080519060200190610c76929190612004565b5060208201518160010155604082015181600201555050610ca1678f92fc56e74748d960c01b612001565b610cb567df924b56a8844fa060c01b612001565b6003547fa5dbb7adb15a05f8df3bdfc06617a63f39825dd0c4d2f0615c5134d1d3301b3660405160405180910390a2610cf8673a779d91043ed5f860c01b612001565b60036000815480929190610d0b90612f79565b9190505550505050565b6060610d2b6711a7ae43eb13a87c60c01b612001565b610d3f67ac4377918cc1690660c01b612001565b610d53678a0a0c1a22d0eb4260c01b612001565b6000805480602002602001604051908101604052809291908181526020016000905b82821015610fc757838290600052602060002090600602016040518060c00160405290816000820160009054906101000a900473ffffffffffffffffffffffffffffffffffffffff1673ffffffffffffffffffffffffffffffffffffffff1673ffffffffffffffffffffffffffffffffffffffff16815260200160018201548152602001600282018054610e0890612c9b565b80601f0160208091040260200160405190810160405280929190818152602001828054610e3490612c9b565b8015610e815780601f10610e5657610100808354040283529160200191610e81565b820191906000526020600020905b815481529060010190602001808311610e6457829003601f168201915b50505050508152602001600382018054610e9a90612c9b565b80601f0160208091040260200160405190810160405280929190818152602001828054610ec690612c9b565b8015610f135780601f10610ee857610100808354040283529160200191610f13565b820191906000526020600020905b815481529060010190602001808311610ef657829003601f168201915b50505050508152602001600482018054610f2c90612c9b565b80601f0160208091040260200160405190810160405280929190818152602001828054610f5890612c9b565b8015610fa55780601f10610f7a57610100808354040283529160200191610fa5565b820191906000526020600020905b815481529060010190602001808311610f8857829003601f168201915b5050505050815260200160058201548152505081526020019060010190610d75565b50505050905090565b6000610fe6678211442faf3abc9c60c01b612001565b610ffa67600eefa95331841d60c01b612001565b61100e676fef43d4152757f160c01b612001565b600260009054906101000a900473ffffffffffffffffffffffffffffffffffffffff16905090565b61104a6795abfc4874a9c6a460c01b612001565b61105e679874c5630c69bdf660c01b612001565b611072674c92525f1b6d117460c01b612001565b611086675e91936f20c34bcc60c01b612001565b600260009054906101000a900473ffffffffffffffffffffffffffffffffffffffff1673ffffffffffffffffffffffffffffffffffffffff163373ffffffffffffffffffffffffffffffffffffffff1614611135576110ef67f0a6bed78c5646e860c01b612001565b61110367e7457f6d3c36b30c60c01b612001565b6040517f1022f53800000000000000000000000000000000000000000000000000000000815260040160405180910390fd5b6111496737594493fe472df560c01b612001565b61115d6754ff84532fdcd7d860c01b612001565b611171677f76575d43b2f63760c01b612001565b61118567e02babc51aa8a08d60c01b612001565b611199676e0ed29a9daf5afb60c01b612001565b80600790816111a89190612e78565b5050565b6111c0679a5b3612dbf0b81360c01b612001565b6111d4679874c5630c69bdf660c01b612001565b6111e8674c92525f1b6d117460c01b612001565b6111fc675e91936f20c34bcc60c01b612001565b600260009054906101000a900473ffffffffffffffffffffffffffffffffffffffff1673ffffffffffffffffffffffffffffffffffffffff163373ffffffffffffffffffffffffffffffffffffffff16146112ab5761126567f0a6bed78c5646e860c01b612001565b61127967e7457f6d3c36b30c60c01b612001565b6040517f1022f53800000000000000000000000000000000000000000000000000000000815260040160405180910390fd5b6112bf6737594493fe472df560c01b612001565b6112d36754ff84532fdcd7d860c01b612001565b6112e767614c2c11b75da0cb60c01b612001565b6112fb67a764d90892b1856160c01b612001565b61130f675461c43458d7130860c01b612001565b806004908161131e9190612e78565b5050565b60606113386782e64fbc4cc60f8c60c01b612001565b61134c67a5ee575009601a8b60c01b612001565b611360673865c2d49fe0ee5160c01b612001565b6005805461136d90612c9b565b80601f016020809104026020016040519081016040528092919081815260200182805461139990612c9b565b80156113e65780601f106113bb576101008083540402835291602001916113e6565b820191906000526020600020905b8154815290600101906020018083116113c957829003601f168201915b5050505050905090565b611404675efafda531e8d6a560c01b612001565b611418679874c5630c69bdf660c01b612001565b61142c674c92525f1b6d117460c01b612001565b611440675e91936f20c34bcc60c01b612001565b600260009054906101000a900473ffffffffffffffffffffffffffffffffffffffff1673ffffffffffffffffffffffffffffffffffffffff163373ffffffffffffffffffffffffffffffffffffffff16146114ef576114a967f0a6bed78c5646e860c01b612001565b6114bd67e7457f6d3c36b30c60c01b612001565b6040517f1022f53800000000000000000000000000000000000000000000000000000000815260040160405180910390fd5b6115036737594493fe472df560c01b612001565b6115176754ff84532fdcd7d860c01b612001565b61152b67f17b504f001bc25860c01b612001565b61153f6723f313fcd77e727760c01b612001565b611553672bcc39acc33ef84860c01b612001565b611567672f380c03c76c87af60c01b612001565b60005b6001805490508110156117145761158b676ff4bbfc1a14838a60c01b612001565b61159f674f9e383a4ae6105660c01b612001565b81600182815481106115b4576115b3612fc1565b5b906000526020600020906003020160020154036116ec576115df67aafc741298f584be60c01b612001565b6115f367b50e2629e5374bc360c01b612001565b60018080805490506116059190612ff0565b8154811061161657611615612fc1565b5b90600052602060002090600302016001828154811061163857611637612fc1565b5b9060005260206000209060030201600082018160000190805461165c92919061205d565b506001820154816001015560028201548160020155905050611688674c5eb3db47ddb67a60c01b612001565b61169c67d30fe9f0c6381e0760c01b612001565b60018054806116ae576116ad613024565b5b6001900381819060005260206000209060030201600080820160006116d391906120ba565b6001820160009055600282016000905550509055611701565b61170067e5f93471b39883cb60c01b612001565b5b808061170c90612f79565b91505061156a565b5050565b61172c675dedcb0555d680d260c01b612001565b611740679874c5630c69bdf660c01b612001565b611754674c92525f1b6d117460c01b612001565b611768675e91936f20c34bcc60c01b612001565b600260009054906101000a900473ffffffffffffffffffffffffffffffffffffffff1673ffffffffffffffffffffffffffffffffffffffff163373ffffffffffffffffffffffffffffffffffffffff1614611817576117d167f0a6bed78c5646e860c01b612001565b6117e567e7457f6d3c36b30c60c01b612001565b6040517f1022f53800000000000000000000000000000000000000000000000000000000815260040160405180910390fd5b61182b6737594493fe472df560c01b612001565b61183f6754ff84532fdcd7d860c01b612001565b61185367a326696b8171d16660c01b612001565b61186767dad7a1fed20dfb1960c01b612001565b61187b678cd82f80ceb9bef460c01b612001565b806006908161188a9190612e78565b5050565b60606118a467a5ffc830f2b8c7ec60c01b612001565b6118b867a4c92822279af69b60c01b612001565b6118cc67aa90f62f2846927b60c01b612001565b600680546118d990612c9b565b80601f016020809104026020016040519081016040528092919081815260200182805461190590612c9b565b80156119525780601f1061192757610100808354040283529160200191611952565b820191906000526020600020905b81548152906001019060200180831161193557829003601f168201915b5050505050905090565b61197067c3a1337ea1992bd060c01b612001565b6119846734372cd2670f2e7f60c01b612001565b6119986731915949f4aeb77160c01b612001565b6119a06120db565b6119b467306d5a1a1b0b37f760c01b612001565b6119c8671207d921f300493560c01b612001565b60005b600180549050811015611b9d576119ec67c37b96b3658ffef960c01b612001565b611a006758f507d38102058b60c01b612001565b8260018281548110611a1557611a14612fc1565b5b90600052602060002090600302016002015403611b7557611a40670cf5c79792c89e9a60c01b612001565b611a5467c0e53bd191bf2f6b60c01b612001565b60018181548110611a6857611a67612fc1565b5b906000526020600020906003020160405180606001604052908160008201805480602002602001604051908101604052809291908181526020016000905b82821015611b52578382906000526020600020018054611ac590612c9b565b80601f0160208091040260200160405190810160405280929190818152602001828054611af190612c9b565b8015611b3e5780601f10611b1357610100808354040283529160200191611b3e565b820191906000526020600020905b815481529060010190602001808311611b2157829003601f168201915b505050505081526020019060010190611aa6565b505050508152602001600182015481526020016002820154815250509150611b8a565b611b8967106bae4526c0200660c01b612001565b5b8080611b9590612f79565b9150506119cb565b50611bb267d31b89796ce607ac60c01b612001565b611bc66768b21be8fae32ecc60c01b612001565b8060200151341015611c2c57611be667305cf2ff6d851e8c60c01b612001565b611bfa6707cc7c59abc92ea560c01b612001565b6040517ff1b7411900000000000000000000000000000000000000000000000000000000815260040160405180910390fd5b611c40674094f9a316442d6360c01b612001565b611c5467b03d5958a1371da960c01b612001565b611c686728d822efc1cd953860c01b612001565b60006040518060c001604052803373ffffffffffffffffffffffffffffffffffffffff16815260200142815260200186815260200185815260200160405180602001604052806000815250815260200184815250908060018154018082558091505060019003906000526020600020906006020160009091909190915060008201518160000160006101000a81548173ffffffffffffffffffffffffffffffffffffffff021916908373ffffffffffffffffffffffffffffffffffffffff160217905550602082015181600101556040820151816002019081611d4b9190612e78565b506060820151816003019081611d619190612e78565b506080820151816004019081611d779190612e78565b5060a082015181600501555050611d98679bb4ccd706f4f41b60c01b612001565b611dac67e5c505b3e858260560c01b612001565b427f1cfb7901bbb0acf7f618d0389fdda4a852e9de1abe2b641bf9e6f40ace3a44ad858585604051611de093929190613053565b60405180910390a250505050565b611e026792811c6f7b5e892f60c01b612001565b611e1667b8e8d6f5f8f7e82860c01b612001565b611e2a67cee6ac53f5a2faa960c01b612001565b6000815167ffffffffffffffff811115611e4757611e4661224d565b5b604051908082528060200260200182016040528015611e8057816020015b611e6d6120db565b815260200190600190039081611e655790505b509050611e9767e2366840e123f6fb60c01b612001565b611eab67b1285c98aee8e41e60c01b612001565b60005b8151811015611ffb57611ecb67c19735354f27a1e460c01b612001565b611edf67a099d42eb1c80c0360c01b612001565b60006040518060600160405280868481518110611eff57611efe612fc1565b5b60200260200101518152602001858481518110611f1f57611f1e612fc1565b5b602002602001015181526020016003548152509050611f486726e2b08d25f8bec260c01b612001565b611f5c67a9d3ad9bed9acbfb60c01b612001565b60018190806001815401808255809150506001900390600052602060002090600302016000909190919091506000820151816000019080519060200190611fa4929190612004565b5060208201518160010155604082015181600201555050611fcf67a47cdd704023298160c01b612001565b60036000815480929190611fe290612f79565b9190505550508080611ff390612f79565b915050611eae565b50505050565b50565b82805482825590600052602060002090810192821561204c579160200282015b8281111561204b57825182908161203b9190612e78565b5091602001919060010190612024565b5b50905061205991906120fc565b5090565b8280548282559060005260206000209081019282156120a95760005260206000209182015b828111156120a8578282908161209891906130ae565b5091600101919060010190612082565b5b5090506120b691906120fc565b5090565b50805460008255906000526020600020908101906120d891906120fc565b50565b60405180606001604052806060815260200160008152602001600081525090565b5b8082111561211c57600081816121139190612120565b506001016120fd565b5090565b50805461212c90612c9b565b6000825580601f1061213e575061215d565b601f01602090049060005260206000209081019061215c9190612160565b5b50565b5b80821115612179576000816000905550600101612161565b5090565b600081519050919050565b600082825260208201905092915050565b60005b838110156121b757808201518184015260208101905061219c565b60008484015250505050565b6000601f19601f8301169050919050565b60006121df8261217d565b6121e98185612188565b93506121f9818560208601612199565b612202816121c3565b840191505092915050565b6000602082019050818103600083015261222781846121d4565b905092915050565b6000604051905090565b600080fd5b600080fd5b600080fd5b600080fd5b7f4e487b7100000000000000000000000000000000000000000000000000000000600052604160045260246000fd5b612285826121c3565b810181811067ffffffffffffffff821117156122a4576122a361224d565b5b80604052505050565b60006122b761222f565b90506122c3828261227c565b919050565b600067ffffffffffffffff8211156122e3576122e261224d565b5b6122ec826121c3565b9050602081019050919050565b82818337600083830152505050565b600061231b612316846122c8565b6122ad565b90508281526020810184848401111561233757612336612248565b5b6123428482856122f9565b509392505050565b600082601f83011261235f5761235e612243565b5b813561236f848260208601612308565b91505092915050565b60006020828403121561238e5761238d612239565b5b600082013567ffffffffffffffff8111156123ac576123ab61223e565b5b6123b88482850161234a565b91505092915050565b6000819050919050565b6123d4816123c1565b82525050565b60006020820190506123ef60008301846123cb565b92915050565b600081519050919050565b600082825260208201905092915050565b6000819050602082019050919050565b600081519050919050565b600082825260208201905092915050565b6000819050602082019050919050565b600082825260208201905092915050565b60006124698261217d565b612473818561244d565b9350612483818560208601612199565b61248c816121c3565b840191505092915050565b60006124a3838361245e565b905092915050565b6000602082019050919050565b60006124c382612421565b6124cd818561242c565b9350836020820285016124df8561243d565b8060005b8581101561251b57848403895281516124fc8582612497565b9450612507836124ab565b925060208a019950506001810190506124e3565b50829750879550505050505092915050565b612536816123c1565b82525050565b6000606083016000830151848203600086015261255982826124b8565b915050602083015161256e602086018261252d565b506040830151612581604086018261252d565b508091505092915050565b6000612598838361253c565b905092915050565b6000602082019050919050565b60006125b8826123f5565b6125c28185612400565b9350836020820285016125d485612411565b8060005b8581101561261057848403895281516125f1858261258c565b94506125fc836125a0565b925060208a019950506001810190506125d8565b50829750879550505050505092915050565b6000602082019050818103600083015261263c81846125ad565b905092915050565b600067ffffffffffffffff82111561265f5761265e61224d565b5b602082029050602081019050919050565b600080fd5b600061268861268384612644565b6122ad565b905080838252602082019050602084028301858111156126ab576126aa612670565b5b835b818110156126f257803567ffffffffffffffff8111156126d0576126cf612243565b5b8086016126dd898261234a565b855260208501945050506020810190506126ad565b5050509392505050565b600082601f83011261271157612710612243565b5b8135612721848260208601612675565b91505092915050565b612733816123c1565b811461273e57600080fd5b50565b6000813590506127508161272a565b92915050565b6000806040838503121561276d5761276c612239565b5b600083013567ffffffffffffffff81111561278b5761278a61223e565b5b612797858286016126fc565b92505060206127a885828601612741565b9150509250929050565b600081519050919050565b600082825260208201905092915050565b6000819050602082019050919050565b600073ffffffffffffffffffffffffffffffffffffffff82169050919050565b6000612809826127de565b9050919050565b612819816127fe565b82525050565b600060c0830160008301516128376000860182612810565b50602083015161284a602086018261252d565b5060408301518482036040860152612862828261245e565b9150506060830151848203606086015261287c828261245e565b91505060808301518482036080860152612896828261245e565b91505060a08301516128ab60a086018261252d565b508091505092915050565b60006128c2838361281f565b905092915050565b6000602082019050919050565b60006128e2826127b2565b6128ec81856127bd565b9350836020820285016128fe856127ce565b8060005b8581101561293a578484038952815161291b85826128b6565b9450612926836128ca565b925060208a01995050600181019050612902565b50829750879550505050505092915050565b6000602082019050818103600083015261296681846128d7565b905092915050565b612977816127fe565b82525050565b6000602082019050612992600083018461296e565b92915050565b6000602082840312156129ae576129ad612239565b5b60006129bc84828501612741565b91505092915050565b6000806000606084860312156129de576129dd612239565b5b600084013567ffffffffffffffff8111156129fc576129fb61223e565b5b612a088682870161234a565b935050602084013567ffffffffffffffff811115612a2957612a2861223e565b5b612a358682870161234a565b9250506040612a4686828701612741565b9150509250925092565b600067ffffffffffffffff821115612a6b57612a6a61224d565b5b602082029050602081019050919050565b6000612a8f612a8a84612a50565b6122ad565b90508083825260208201905060208402830185811115612ab257612ab1612670565b5b835b81811015612af957803567ffffffffffffffff811115612ad757612ad6612243565b5b808601612ae489826126fc565b85526020850194505050602081019050612ab4565b5050509392505050565b600082601f830112612b1857612b17612243565b5b8135612b28848260208601612a7c565b91505092915050565b600067ffffffffffffffff821115612b4c57612b4b61224d565b5b602082029050602081019050919050565b6000612b70612b6b84612b31565b6122ad565b90508083825260208201905060208402830185811115612b9357612b92612670565b5b835b81811015612bbc5780612ba88882612741565b845260208401935050602081019050612b95565b5050509392505050565b600082601f830112612bdb57612bda612243565b5b8135612beb848260208601612b5d565b91505092915050565b60008060408385031215612c0b57612c0a612239565b5b600083013567ffffffffffffffff811115612c2957612c2861223e565b5b612c3585828601612b03565b925050602083013567ffffffffffffffff811115612c5657612c5561223e565b5b612c6285828601612bc6565b9150509250929050565b7f4e487b7100000000000000000000000000000000000000000000000000000000600052602260045260246000fd5b60006002820490506001821680612cb357607f821691505b602082108103612cc657612cc5612c6c565b5b50919050565b60008190508160005260206000209050919050565b60006020601f8301049050919050565b600082821b905092915050565b600060088302612d2e7fffffffffffffffffffffffffffffffffffffffffffffffffffffffffffffffff82612cf1565b612d388683612cf1565b95508019841693508086168417925050509392505050565b6000819050919050565b6000612d75612d70612d6b846123c1565b612d50565b6123c1565b9050919050565b6000819050919050565b612d8f83612d5a565b612da3612d9b82612d7c565b848454612cfe565b825550505050565b600090565b612db8612dab565b612dc3818484612d86565b505050565b5b81811015612de757612ddc600082612db0565b600181019050612dc9565b5050565b601f821115612e2c57612dfd81612ccc565b612e0684612ce1565b81016020851015612e15578190505b612e29612e2185612ce1565b830182612dc8565b50505b505050565b600082821c905092915050565b6000612e4f60001984600802612e31565b1980831691505092915050565b6000612e688383612e3e565b9150826002028217905092915050565b612e818261217d565b67ffffffffffffffff811115612e9a57612e9961224d565b5b612ea48254612c9b565b612eaf828285612deb565b600060209050601f831160018114612ee25760008415612ed0578287015190505b612eda8582612e5c565b865550612f42565b601f198416612ef086612ccc565b60005b82811015612f1857848901518255600182019150602085019450602081019050612ef3565b86831015612f355784890151612f31601f891682612e3e565b8355505b6001600288020188555050505b505050505050565b7f4e487b7100000000000000000000000000000000000000000000000000000000600052601160045260246000fd5b6000612f84826123c1565b91507fffffffffffffffffffffffffffffffffffffffffffffffffffffffffffffffff8203612fb657612fb5612f4a565b5b600182019050919050565b7f4e487b7100000000000000000000000000000000000000000000000000000000600052603260045260246000fd5b6000612ffb826123c1565b9150613006836123c1565b925082820390508181111561301e5761301d612f4a565b5b92915050565b7f4e487b7100000000000000000000000000000000000000000000000000000000600052603160045260246000fd5b6000606082019050818103600083015261306d81866121d4565b9050818103602083015261308181856121d4565b905061309060408301846123cb565b949350505050565b6000815490506130a781612c9b565b9050919050565b8181036130bc575050613194565b6130c582613098565b67ffffffffffffffff8111156130de576130dd61224d565b5b6130e88254612c9b565b6130f3828285612deb565b6000601f8311600181146131225760008415613110578287015490505b61311a8582612e5c565b86555061318d565b601f19841661313087612ccc565b965061313b86612ccc565b60005b828110156131635784890154825560018201915060018501945060208101905061313e565b86831015613180578489015461317c601f891682612e3e565b8355505b6001600288020188555050505b5050505050505b56fea264697066735822122031e39a07c61779fd2aecae46ef2203dc189bb15b18bcd3b3f08adf9a6a12ebee64736f6c63430008110033",
   "linkReferences": {},
   "deployedLinkReferences": {}
}